{
	"contracts/contracts/TimberSupplyChain.sol": {
		"TimberSupplyChain": {
			"abi": [
				{
					"inputs": [],
					"stateMutability": "nonpayable",
					"type": "constructor"
				},
				{
					"inputs": [],
					"name": "AccessControlBadConfirmation",
					"type": "error"
				},
				{
					"inputs": [
						{
							"internalType": "address",
							"name": "account",
							"type": "address"
						},
						{
							"internalType": "bytes32",
							"name": "neededRole",
							"type": "bytes32"
						}
					],
					"name": "AccessControlUnauthorizedAccount",
					"type": "error"
				},
				{
					"anonymous": false,
					"inputs": [
						{
							"indexed": true,
							"internalType": "uint256",
							"name": "furnitureId",
							"type": "uint256"
						},
						{
							"indexed": true,
							"internalType": "uint256",
							"name": "batchId",
							"type": "uint256"
						},
						{
							"indexed": true,
							"internalType": "address",
							"name": "manufacturer",
							"type": "address"
						},
						{
							"indexed": false,
							"internalType": "string",
							"name": "furnitureType",
							"type": "string"
						},
						{
							"indexed": false,
							"internalType": "uint256",
							"name": "qty",
							"type": "uint256"
						},
						{
							"indexed": false,
							"internalType": "uint256",
							"name": "timestamp",
							"type": "uint256"
						}
					],
					"name": "FurnitureCreated",
					"type": "event"
				},
				{
					"anonymous": false,
					"inputs": [
						{
							"indexed": true,
							"internalType": "uint256",
							"name": "lotId",
							"type": "uint256"
						},
						{
							"indexed": true,
							"internalType": "address",
							"name": "auctionHouse",
							"type": "address"
						},
						{
							"indexed": false,
							"internalType": "uint256",
							"name": "qty",
							"type": "uint256"
						},
						{
							"indexed": false,
							"internalType": "uint256",
							"name": "timestamp",
							"type": "uint256"
						}
					],
					"name": "LotRegistered",
					"type": "event"
				},
				{
					"anonymous": false,
					"inputs": [
						{
							"indexed": true,
							"internalType": "bytes32",
							"name": "role",
							"type": "bytes32"
						},
						{
							"indexed": true,
							"internalType": "bytes32",
							"name": "previousAdminRole",
							"type": "bytes32"
						},
						{
							"indexed": true,
							"internalType": "bytes32",
							"name": "newAdminRole",
							"type": "bytes32"
						}
					],
					"name": "RoleAdminChanged",
					"type": "event"
				},
				{
					"anonymous": false,
					"inputs": [
						{
							"indexed": true,
							"internalType": "bytes32",
							"name": "role",
							"type": "bytes32"
						},
						{
							"indexed": true,
							"internalType": "address",
							"name": "account",
							"type": "address"
						},
						{
							"indexed": true,
							"internalType": "address",
							"name": "sender",
							"type": "address"
						}
					],
					"name": "RoleGranted",
					"type": "event"
				},
				{
					"anonymous": false,
					"inputs": [
						{
							"indexed": true,
							"internalType": "bytes32",
							"name": "role",
							"type": "bytes32"
						},
						{
							"indexed": true,
							"internalType": "address",
							"name": "account",
							"type": "address"
						},
						{
							"indexed": true,
							"internalType": "address",
							"name": "sender",
							"type": "address"
						}
					],
					"name": "RoleRevoked",
					"type": "event"
				},
				{
					"anonymous": false,
					"inputs": [
						{
							"indexed": true,
							"internalType": "uint256",
							"name": "lotId",
							"type": "uint256"
						},
						{
							"indexed": true,
							"internalType": "uint256",
							"name": "batchId",
							"type": "uint256"
						},
						{
							"indexed": true,
							"internalType": "address",
							"name": "factory",
							"type": "address"
						},
						{
							"indexed": false,
							"internalType": "uint256",
							"name": "qty",
							"type": "uint256"
						},
						{
							"indexed": false,
							"internalType": "uint256",
							"name": "timestamp",
							"type": "uint256"
						}
					],
					"name": "WoodPurchased",
					"type": "event"
				},
				{
					"inputs": [],
					"name": "AUCTION_HOUSE_ROLE",
					"outputs": [
						{
							"internalType": "bytes32",
							"name": "",
							"type": "bytes32"
						}
					],
					"stateMutability": "view",
					"type": "function"
				},
				{
					"inputs": [],
					"name": "DEFAULT_ADMIN_ROLE",
					"outputs": [
						{
							"internalType": "bytes32",
							"name": "",
							"type": "bytes32"
						}
					],
					"stateMutability": "view",
					"type": "function"
				},
				{
					"inputs": [],
					"name": "FACTORY_ROLE",
					"outputs": [
						{
							"internalType": "bytes32",
							"name": "",
							"type": "bytes32"
						}
					],
					"stateMutability": "view",
					"type": "function"
				},
				{
					"inputs": [
						{
							"internalType": "uint256",
							"name": "",
							"type": "uint256"
						}
					],
					"name": "batches",
					"outputs": [
						{
							"internalType": "uint256",
							"name": "id",
							"type": "uint256"
						},
						{
							"internalType": "uint256",
							"name": "parentLotId",
							"type": "uint256"
						},
						{
							"internalType": "uint256",
							"name": "qty",
							"type": "uint256"
						},
						{
							"internalType": "uint256",
							"name": "remainingQty",
							"type": "uint256"
						},
						{
							"internalType": "address",
							"name": "owner",
							"type": "address"
						},
						{
							"internalType": "uint256",
							"name": "createdAt",
							"type": "uint256"
						}
					],
					"stateMutability": "view",
					"type": "function"
				},
				{
					"inputs": [
						{
							"internalType": "uint256",
							"name": "batchId",
							"type": "uint256"
						},
						{
							"internalType": "string",
							"name": "furnitureType",
							"type": "string"
						},
						{
							"internalType": "uint256",
							"name": "qty",
							"type": "uint256"
						},
						{
							"internalType": "string",
							"name": "ipfsHash",
							"type": "string"
						}
					],
					"name": "createFurniture",
					"outputs": [],
					"stateMutability": "nonpayable",
					"type": "function"
				},
				{
					"inputs": [
						{
							"internalType": "uint256",
							"name": "",
							"type": "uint256"
						}
					],
					"name": "furnitures",
					"outputs": [
						{
							"internalType": "uint256",
							"name": "id",
							"type": "uint256"
						},
						{
							"internalType": "uint256",
							"name": "sourceBatchId",
							"type": "uint256"
						},
						{
							"internalType": "string",
							"name": "furnitureType",
							"type": "string"
						},
						{
							"internalType": "uint256",
							"name": "qtyUsed",
							"type": "uint256"
						},
						{
							"internalType": "address",
							"name": "manufacturer",
							"type": "address"
						},
						{
							"internalType": "uint256",
							"name": "createdAt",
							"type": "uint256"
						},
						{
							"internalType": "string",
							"name": "ipfsHash",
							"type": "string"
						}
					],
					"stateMutability": "view",
					"type": "function"
				},
				{
					"inputs": [
						{
							"internalType": "uint256",
							"name": "id",
							"type": "uint256"
						}
					],
					"name": "getBatch",
					"outputs": [
						{
							"components": [
								{
									"internalType": "uint256",
									"name": "id",
									"type": "uint256"
								},
								{
									"internalType": "uint256",
									"name": "parentLotId",
									"type": "uint256"
								},
								{
									"internalType": "uint256",
									"name": "qty",
									"type": "uint256"
								},
								{
									"internalType": "uint256",
									"name": "remainingQty",
									"type": "uint256"
								},
								{
									"internalType": "address",
									"name": "owner",
									"type": "address"
								},
								{
									"internalType": "uint256",
									"name": "createdAt",
									"type": "uint256"
								}
							],
							"internalType": "struct TimberSupplyChain.Batch",
							"name": "",
							"type": "tuple"
						}
					],
					"stateMutability": "view",
					"type": "function"
				},
				{
					"inputs": [],
					"name": "getBatchCount",
					"outputs": [
						{
							"internalType": "uint256",
							"name": "",
							"type": "uint256"
						}
					],
					"stateMutability": "view",
					"type": "function"
				},
				{
					"inputs": [
						{
							"internalType": "uint256",
							"name": "id",
							"type": "uint256"
						}
					],
					"name": "getFurniture",
					"outputs": [
						{
							"components": [
								{
									"internalType": "uint256",
									"name": "id",
									"type": "uint256"
								},
								{
									"internalType": "uint256",
									"name": "sourceBatchId",
									"type": "uint256"
								},
								{
									"internalType": "string",
									"name": "furnitureType",
									"type": "string"
								},
								{
									"internalType": "uint256",
									"name": "qtyUsed",
									"type": "uint256"
								},
								{
									"internalType": "address",
									"name": "manufacturer",
									"type": "address"
								},
								{
									"internalType": "uint256",
									"name": "createdAt",
									"type": "uint256"
								},
								{
									"internalType": "string",
									"name": "ipfsHash",
									"type": "string"
								}
							],
							"internalType": "struct TimberSupplyChain.Furniture",
							"name": "",
							"type": "tuple"
						}
					],
					"stateMutability": "view",
					"type": "function"
				},
				{
					"inputs": [],
					"name": "getFurnitureCount",
					"outputs": [
						{
							"internalType": "uint256",
							"name": "",
							"type": "uint256"
						}
					],
					"stateMutability": "view",
					"type": "function"
				},
				{
					"inputs": [
						{
							"internalType": "uint256",
							"name": "id",
							"type": "uint256"
						}
					],
					"name": "getLot",
					"outputs": [
						{
							"components": [
								{
									"internalType": "uint256",
									"name": "id",
									"type": "uint256"
								},
								{
									"internalType": "string",
									"name": "species",
									"type": "string"
								},
								{
									"internalType": "string",
									"name": "originCoupeId",
									"type": "string"
								},
								{
									"internalType": "string",
									"name": "grade",
									"type": "string"
								},
								{
									"internalType": "uint256",
									"name": "initialQty",
									"type": "uint256"
								},
								{
									"internalType": "uint256",
									"name": "remainingQty",
									"type": "uint256"
								},
								{
									"internalType": "address",
									"name": "owner",
									"type": "address"
								},
								{
									"internalType": "uint256",
									"name": "createdAt",
									"type": "uint256"
								},
								{
									"internalType": "string",
									"name": "ipfsHash",
									"type": "string"
								}
							],
							"internalType": "struct TimberSupplyChain.Lot",
							"name": "",
							"type": "tuple"
						}
					],
					"stateMutability": "view",
					"type": "function"
				},
				{
					"inputs": [],
					"name": "getLotCount",
					"outputs": [
						{
							"internalType": "uint256",
							"name": "",
							"type": "uint256"
						}
					],
					"stateMutability": "view",
					"type": "function"
				},
				{
					"inputs": [
						{
							"internalType": "bytes32",
							"name": "role",
							"type": "bytes32"
						}
					],
					"name": "getRoleAdmin",
					"outputs": [
						{
							"internalType": "bytes32",
							"name": "",
							"type": "bytes32"
						}
					],
					"stateMutability": "view",
					"type": "function"
				},
				{
					"inputs": [
						{
							"internalType": "bytes32",
							"name": "role",
							"type": "bytes32"
						},
						{
							"internalType": "address",
							"name": "account",
							"type": "address"
						}
					],
					"name": "grantRole",
					"outputs": [],
					"stateMutability": "nonpayable",
					"type": "function"
				},
				{
					"inputs": [
						{
							"internalType": "bytes32",
							"name": "role",
							"type": "bytes32"
						},
						{
							"internalType": "address",
							"name": "account",
							"type": "address"
						}
					],
					"name": "hasRole",
					"outputs": [
						{
							"internalType": "bool",
							"name": "",
							"type": "bool"
						}
					],
					"stateMutability": "view",
					"type": "function"
				},
				{
					"inputs": [
						{
							"internalType": "uint256",
							"name": "",
							"type": "uint256"
						}
					],
					"name": "lots",
					"outputs": [
						{
							"internalType": "uint256",
							"name": "id",
							"type": "uint256"
						},
						{
							"internalType": "string",
							"name": "species",
							"type": "string"
						},
						{
							"internalType": "string",
							"name": "originCoupeId",
							"type": "string"
						},
						{
							"internalType": "string",
							"name": "grade",
							"type": "string"
						},
						{
							"internalType": "uint256",
							"name": "initialQty",
							"type": "uint256"
						},
						{
							"internalType": "uint256",
							"name": "remainingQty",
							"type": "uint256"
						},
						{
							"internalType": "address",
							"name": "owner",
							"type": "address"
						},
						{
							"internalType": "uint256",
							"name": "createdAt",
							"type": "uint256"
						},
						{
							"internalType": "string",
							"name": "ipfsHash",
							"type": "string"
						}
					],
					"stateMutability": "view",
					"type": "function"
				},
				{
					"inputs": [
						{
							"internalType": "uint256",
							"name": "lotId",
							"type": "uint256"
						},
						{
							"internalType": "uint256",
							"name": "qty",
							"type": "uint256"
						}
					],
					"name": "purchaseWood",
					"outputs": [],
					"stateMutability": "nonpayable",
					"type": "function"
				},
				{
					"inputs": [
						{
							"internalType": "string",
							"name": "species",
							"type": "string"
						},
						{
							"internalType": "string",
							"name": "originCoupeId",
							"type": "string"
						},
						{
							"internalType": "string",
							"name": "grade",
							"type": "string"
						},
						{
							"internalType": "uint256",
							"name": "qty",
							"type": "uint256"
						},
						{
							"internalType": "string",
							"name": "ipfsHash",
							"type": "string"
						}
					],
					"name": "registerLot",
					"outputs": [],
					"stateMutability": "nonpayable",
					"type": "function"
				},
				{
					"inputs": [
						{
							"internalType": "bytes32",
							"name": "role",
							"type": "bytes32"
						},
						{
							"internalType": "address",
							"name": "callerConfirmation",
							"type": "address"
						}
					],
					"name": "renounceRole",
					"outputs": [],
					"stateMutability": "nonpayable",
					"type": "function"
				},
				{
					"inputs": [
						{
							"internalType": "bytes32",
							"name": "role",
							"type": "bytes32"
						},
						{
							"internalType": "address",
							"name": "account",
							"type": "address"
						}
					],
					"name": "revokeRole",
					"outputs": [],
					"stateMutability": "nonpayable",
					"type": "function"
				},
				{
					"inputs": [
						{
							"internalType": "bytes4",
							"name": "interfaceId",
							"type": "bytes4"
						}
					],
					"name": "supportsInterface",
					"outputs": [
						{
							"internalType": "bool",
							"name": "",
							"type": "bool"
						}
					],
					"stateMutability": "view",
					"type": "function"
				}
			],
			"devdoc": {
				"details": "Three on-chain entities: Lot, Batch, Furniture.      Mass-balance invariant:        - Lot.remainingQty   decreases by Batch.qty       on every purchaseWood()        - Batch.remainingQty decreases by Furniture.qtyUsed on every createFurniture()      All decrements are guarded by require() checks BEFORE state mutation.      Roles:        DEFAULT_ADMIN_ROLE   — deployer; can grant/revoke other roles        AUCTION_HOUSE_ROLE   — can call registerLot()        FACTORY_ROLE         — can call purchaseWood() and createFurniture()",
				"errors": {
					"AccessControlBadConfirmation()": [
						{
							"details": "The caller of a function is not the expected one. NOTE: Don't confuse with {AccessControlUnauthorizedAccount}."
						}
					],
					"AccessControlUnauthorizedAccount(address,bytes32)": [
						{
							"details": "The `account` is missing a role."
						}
					]
				},
				"events": {
					"RoleAdminChanged(bytes32,bytes32,bytes32)": {
						"details": "Emitted when `newAdminRole` is set as ``role``'s admin role, replacing `previousAdminRole` `DEFAULT_ADMIN_ROLE` is the starting admin for all roles, despite {RoleAdminChanged} not being emitted to signal this."
					},
					"RoleGranted(bytes32,address,address)": {
						"details": "Emitted when `account` is granted `role`. `sender` is the account that originated the contract call. This account bears the admin role (for the granted role). Expected in cases where the role was granted using the internal {AccessControl-_grantRole}."
					},
					"RoleRevoked(bytes32,address,address)": {
						"details": "Emitted when `account` is revoked `role`. `sender` is the account that originated the contract call:   - if using `revokeRole`, it is the admin role bearer   - if using `renounceRole`, it is the role bearer (i.e. `account`)"
					}
				},
				"kind": "dev",
				"methods": {
					"createFurniture(uint256,string,uint256,string)": {
						"params": {
							"batchId": "ID of the batch to consume from",
							"furnitureType": "Type of furniture, e.g. \"Bed\"",
							"ipfsHash": "IPFS CID of product certificate / image",
							"qty": "Quantity consumed in cubic feet (must be > 0 and <= remainingQty)"
						}
					},
					"getRoleAdmin(bytes32)": {
						"details": "Returns the admin role that controls `role`. See {grantRole} and {revokeRole}. To change a role's admin, use {_setRoleAdmin}."
					},
					"grantRole(bytes32,address)": {
						"details": "Grants `role` to `account`. If `account` had not been already granted `role`, emits a {RoleGranted} event. Requirements: - the caller must have ``role``'s admin role. May emit a {RoleGranted} event."
					},
					"hasRole(bytes32,address)": {
						"details": "Returns `true` if `account` has been granted `role`."
					},
					"purchaseWood(uint256,uint256)": {
						"params": {
							"lotId": "ID of the lot to purchase from",
							"qty": "Quantity to purchase in cubic feet (must be > 0 and <= remainingQty)"
						}
					},
					"registerLot(string,string,string,uint256,string)": {
						"params": {
							"grade": "Quality grade, e.g. \"Grade A\"",
							"ipfsHash": "IPFS CID of auction certificate (may be empty string)",
							"originCoupeId": "Forest/coupe identifier",
							"qty": "Initial quantity in cubic feet (must be > 0)",
							"species": "Species name, e.g. \"Teak\""
						}
					},
					"renounceRole(bytes32,address)": {
						"details": "Revokes `role` from the calling account. Roles are often managed via {grantRole} and {revokeRole}: this function's purpose is to provide a mechanism for accounts to lose their privileges if they are compromised (such as when a trusted device is misplaced). If the calling account had been revoked `role`, emits a {RoleRevoked} event. Requirements: - the caller must be `callerConfirmation`. May emit a {RoleRevoked} event."
					},
					"revokeRole(bytes32,address)": {
						"details": "Revokes `role` from `account`. If `account` had been granted `role`, emits a {RoleRevoked} event. Requirements: - the caller must have ``role``'s admin role. May emit a {RoleRevoked} event."
					},
					"supportsInterface(bytes4)": {
						"details": "Returns true if this contract implements the interface defined by `interfaceId`. See the corresponding https://eips.ethereum.org/EIPS/eip-165#how-interfaces-are-identified[ERC section] to learn more about how these ids are created. This function call must use less than 30 000 gas."
					}
				},
				"title": "TimberSupplyChain",
				"version": 1
			},
			"evm": {
				"assembly": "    /* \"contracts/contracts/TimberSupplyChain.sol\":865:12351  contract TimberSupplyChain is AccessControl {... */\n  mstore(0x40, 0x80)\n    /* \"contracts/contracts/TimberSupplyChain.sol\":6507:6580  constructor() {... */\n  callvalue\n  dup1\n  iszero\n  tag_1\n  jumpi\n  revert(0x00, 0x00)\ntag_1:\n  pop\n    /* \"contracts/contracts/TimberSupplyChain.sol\":6531:6573  _grantRole(DEFAULT_ADMIN_ROLE, msg.sender) */\n  tag_4\n    /* \"@openzeppelin/contracts/access/AccessControl.sol\":2232:2236  0x00 */\n  0x00\n    /* \"contracts/contracts/TimberSupplyChain.sol\":6542:6560  DEFAULT_ADMIN_ROLE */\n  0x00\n  shl\n    /* \"contracts/contracts/TimberSupplyChain.sol\":6562:6572  msg.sender */\n  caller\n    /* \"contracts/contracts/TimberSupplyChain.sol\":6531:6541  _grantRole */\n  shl(0x20, tag_5)\n    /* \"contracts/contracts/TimberSupplyChain.sol\":6531:6573  _grantRole(DEFAULT_ADMIN_ROLE, msg.sender) */\n  0x20\n  shr\n  jump\t// in\ntag_4:\n  pop\n    /* \"contracts/contracts/TimberSupplyChain.sol\":865:12351  contract TimberSupplyChain is AccessControl {... */\n  jump(tag_6)\n    /* \"@openzeppelin/contracts/access/AccessControl.sol\":6145:6461  function _grantRole(bytes32 role, address account) internal virtual returns (bool) {... */\ntag_5:\n    /* \"@openzeppelin/contracts/access/AccessControl.sol\":6222:6226  bool */\n  0x00\n    /* \"@openzeppelin/contracts/access/AccessControl.sol\":6243:6265  hasRole(role, account) */\n  tag_8\n    /* \"@openzeppelin/contracts/access/AccessControl.sol\":6251:6255  role */\n  dup4\n    /* \"@openzeppelin/contracts/access/AccessControl.sol\":6257:6264  account */\n  dup4\n    /* \"@openzeppelin/contracts/access/AccessControl.sol\":6243:6250  hasRole */\n  shl(0x20, tag_9)\n    /* \"@openzeppelin/contracts/access/AccessControl.sol\":6243:6265  hasRole(role, account) */\n  0x20\n  shr\n  jump\t// in\ntag_8:\n    /* \"@openzeppelin/contracts/access/AccessControl.sol\":6238:6455  if (!hasRole(role, account)) {... */\n  tag_10\n  jumpi\n    /* \"@openzeppelin/contracts/access/AccessControl.sol\":6313:6317  true */\n  0x01\n    /* \"@openzeppelin/contracts/access/AccessControl.sol\":6281:6287  _roles */\n  0x00\n    /* \"@openzeppelin/contracts/access/AccessControl.sol\":6281:6293  _roles[role] */\n  0x00\n    /* \"@openzeppelin/contracts/access/AccessControl.sol\":6288:6292  role */\n  dup6\n    /* \"@openzeppelin/contracts/access/AccessControl.sol\":6281:6293  _roles[role] */\n  dup2\n  mstore\n  0x20\n  add\n  swap1\n  dup2\n  mstore\n  0x20\n  add\n  0x00\n  keccak256\n    /* \"@openzeppelin/contracts/access/AccessControl.sol\":6281:6301  _roles[role].hasRole */\n  0x00\n  add\n    /* \"@openzeppelin/contracts/access/AccessControl.sol\":6281:6310  _roles[role].hasRole[account] */\n  0x00\n    /* \"@openzeppelin/contracts/access/AccessControl.sol\":6302:6309  account */\n  dup5\n    /* \"@openzeppelin/contracts/access/AccessControl.sol\":6281:6310  _roles[role].hasRole[account] */\n  0xffffffffffffffffffffffffffffffffffffffff\n  and\n  0xffffffffffffffffffffffffffffffffffffffff\n  and\n  dup2\n  mstore\n  0x20\n  add\n  swap1\n  dup2\n  mstore\n  0x20\n  add\n  0x00\n  keccak256\n  0x00\n    /* \"@openzeppelin/contracts/access/AccessControl.sol\":6281:6317  _roles[role].hasRole[account] = true */\n  0x0100\n  exp\n  dup2\n  sload\n  dup2\n  0xff\n  mul\n  not\n  and\n  swap1\n  dup4\n  iszero\n  iszero\n  mul\n  or\n  swap1\n  sstore\n  pop\n    /* \"@openzeppelin/contracts/access/AccessControl.sol\":6363:6375  _msgSender() */\n  tag_11\n    /* \"@openzeppelin/contracts/access/AccessControl.sol\":6363:6373  _msgSender */\n  shl(0x20, tag_12)\n    /* \"@openzeppelin/contracts/access/AccessControl.sol\":6363:6375  _msgSender() */\n  0x20\n  shr\n  jump\t// in\ntag_11:\n    /* \"@openzeppelin/contracts/access/AccessControl.sol\":6336:6376  RoleGranted(role, account, _msgSender()) */\n  0xffffffffffffffffffffffffffffffffffffffff\n  and\n    /* \"@openzeppelin/contracts/access/AccessControl.sol\":6354:6361  account */\n  dup3\n    /* \"@openzeppelin/contracts/access/AccessControl.sol\":6336:6376  RoleGranted(role, account, _msgSender()) */\n  0xffffffffffffffffffffffffffffffffffffffff\n  and\n    /* \"@openzeppelin/contracts/access/AccessControl.sol\":6348:6352  role */\n  dup5\n    /* \"@openzeppelin/contracts/access/AccessControl.sol\":6336:6376  RoleGranted(role, account, _msgSender()) */\n  0x2f8788117e7eff1d82e926ec794901d17c78024a50270940304540a733656f0d\n  mload(0x40)\n  mload(0x40)\n  dup1\n  swap2\n  sub\n  swap1\n  log4\n    /* \"@openzeppelin/contracts/access/AccessControl.sol\":6397:6401  true */\n  0x01\n    /* \"@openzeppelin/contracts/access/AccessControl.sol\":6390:6401  return true */\n  swap1\n  pop\n  jump(tag_7)\n    /* \"@openzeppelin/contracts/access/AccessControl.sol\":6238:6455  if (!hasRole(role, account)) {... */\ntag_10:\n    /* \"@openzeppelin/contracts/access/AccessControl.sol\":6439:6444  false */\n  0x00\n    /* \"@openzeppelin/contracts/access/AccessControl.sol\":6432:6444  return false */\n  swap1\n  pop\n    /* \"@openzeppelin/contracts/access/AccessControl.sol\":6145:6461  function _grantRole(bytes32 role, address account) internal virtual returns (bool) {... */\ntag_7:\n  swap3\n  swap2\n  pop\n  pop\n  jump\t// out\n    /* \"@openzeppelin/contracts/access/AccessControl.sol\":2820:2956  function hasRole(bytes32 role, address account) public view virtual returns (bool) {... */\ntag_9:\n    /* \"@openzeppelin/contracts/access/AccessControl.sol\":2897:2901  bool */\n  0x00\n    /* \"@openzeppelin/contracts/access/AccessControl.sol\":2920:2926  _roles */\n  0x00\n    /* \"@openzeppelin/contracts/access/AccessControl.sol\":2920:2932  _roles[role] */\n  0x00\n    /* \"@openzeppelin/contracts/access/AccessControl.sol\":2927:2931  role */\n  dup5\n    /* \"@openzeppelin/contracts/access/AccessControl.sol\":2920:2932  _roles[role] */\n  dup2\n  mstore\n  0x20\n  add\n  swap1\n  dup2\n  mstore\n  0x20\n  add\n  0x00\n  keccak256\n    /* \"@openzeppelin/contracts/access/AccessControl.sol\":2920:2940  _roles[role].hasRole */\n  0x00\n  add\n    /* \"@openzeppelin/contracts/access/AccessControl.sol\":2920:2949  _roles[role].hasRole[account] */\n  0x00\n    /* \"@openzeppelin/contracts/access/AccessControl.sol\":2941:2948  account */\n  dup4\n    /* \"@openzeppelin/contracts/access/AccessControl.sol\":2920:2949  _roles[role].hasRole[account] */\n  0xffffffffffffffffffffffffffffffffffffffff\n  and\n  0xffffffffffffffffffffffffffffffffffffffff\n  and\n  dup2\n  mstore\n  0x20\n  add\n  swap1\n  dup2\n  mstore\n  0x20\n  add\n  0x00\n  keccak256\n  0x00\n  swap1\n  sload\n  swap1\n  0x0100\n  exp\n  swap1\n  div\n  0xff\n  and\n    /* \"@openzeppelin/contracts/access/AccessControl.sol\":2913:2949  return _roles[role].hasRole[account] */\n  swap1\n  pop\n    /* \"@openzeppelin/contracts/access/AccessControl.sol\":2820:2956  function hasRole(bytes32 role, address account) public view virtual returns (bool) {... */\n  swap3\n  swap2\n  pop\n  pop\n  jump\t// out\n    /* \"@openzeppelin/contracts/utils/Context.sol\":656:752  function _msgSender() internal view virtual returns (address) {... */\ntag_12:\n    /* \"@openzeppelin/contracts/utils/Context.sol\":709:716  address */\n  0x00\n    /* \"@openzeppelin/contracts/utils/Context.sol\":735:745  msg.sender */\n  caller\n    /* \"@openzeppelin/contracts/utils/Context.sol\":728:745  return msg.sender */\n  swap1\n  pop\n    /* \"@openzeppelin/contracts/utils/Context.sol\":656:752  function _msgSender() internal view virtual returns (address) {... */\n  swap1\n  jump\t// out\n    /* \"contracts/contracts/TimberSupplyChain.sol\":865:12351  contract TimberSupplyChain is AccessControl {... */\ntag_6:\n  dataSize(sub_0)\n  dup1\n  dataOffset(sub_0)\n  0x00\n  codecopy\n  0x00\n  return\nstop\n\nsub_0: assembly {\n        /* \"contracts/contracts/TimberSupplyChain.sol\":865:12351  contract TimberSupplyChain is AccessControl {... */\n      mstore(0x40, 0x80)\n      callvalue\n      dup1\n      iszero\n      tag_1\n      jumpi\n      revert(0x00, 0x00)\n    tag_1:\n      pop\n      jumpi(tag_2, lt(calldatasize, 0x04))\n      shr(0xe0, calldataload(0x00))\n      dup1\n      0xa217fddf\n      gt\n      tag_24\n      jumpi\n      dup1\n      0xb4e89751\n      gt\n      tag_25\n      jumpi\n      dup1\n      0xb4e89751\n      eq\n      tag_18\n      jumpi\n      dup1\n      0xc8dbe38d\n      eq\n      tag_19\n      jumpi\n      dup1\n      0xccb99282\n      eq\n      tag_20\n      jumpi\n      dup1\n      0xd547741f\n      eq\n      tag_21\n      jumpi\n      dup1\n      0xf1648e84\n      eq\n      tag_22\n      jumpi\n      dup1\n      0xf38e0a3d\n      eq\n      tag_23\n      jumpi\n      jump(tag_2)\n    tag_25:\n      dup1\n      0xa217fddf\n      eq\n      tag_13\n      jumpi\n      dup1\n      0xa546ff55\n      eq\n      tag_14\n      jumpi\n      dup1\n      0xa8fabfa5\n      eq\n      tag_15\n      jumpi\n      dup1\n      0xab995d12\n      eq\n      tag_16\n      jumpi\n      dup1\n      0xb32c4d8d\n      eq\n      tag_17\n      jumpi\n      jump(tag_2)\n    tag_24:\n      dup1\n      0x36568abe\n      gt\n      tag_26\n      jumpi\n      dup1\n      0x36568abe\n      eq\n      tag_8\n      jumpi\n      dup1\n      0x3c4b71cd\n      eq\n      tag_9\n      jumpi\n      dup1\n      0x5ac44282\n      eq\n      tag_10\n      jumpi\n      dup1\n      0x5e58d6a7\n      eq\n      tag_11\n      jumpi\n      dup1\n      0x91d14854\n      eq\n      tag_12\n      jumpi\n      jump(tag_2)\n    tag_26:\n      dup1\n      0x01ffc9a7\n      eq\n      tag_3\n      jumpi\n      dup1\n      0x04a0fb17\n      eq\n      tag_4\n      jumpi\n      dup1\n      0x189e06e7\n      eq\n      tag_5\n      jumpi\n      dup1\n      0x248a9ca3\n      eq\n      tag_6\n      jumpi\n      dup1\n      0x2f2ff15d\n      eq\n      tag_7\n      jumpi\n    tag_2:\n      revert(0x00, 0x00)\n        /* \"@openzeppelin/contracts/access/AccessControl.sol\":2531:2733  function supportsInterface(bytes4 interfaceId) public view virtual override returns (bool) {... */\n    tag_3:\n      tag_27\n      0x04\n      dup1\n      calldatasize\n      sub\n      dup2\n      add\n      swap1\n      tag_28\n      swap2\n      swap1\n      tag_29\n      jump\t// in\n    tag_28:\n      tag_30\n      jump\t// in\n    tag_27:\n      mload(0x40)\n      tag_31\n      swap2\n      swap1\n      tag_32\n      jump\t// in\n    tag_31:\n      mload(0x40)\n      dup1\n      swap2\n      sub\n      swap1\n      return\n        /* \"contracts/contracts/TimberSupplyChain.sol\":1474:1544  bytes32 public constant FACTORY_ROLE       = keccak256(\"FACTORY_ROLE\") */\n    tag_4:\n      tag_33\n      tag_34\n      jump\t// in\n    tag_33:\n      mload(0x40)\n      tag_35\n      swap2\n      swap1\n      tag_36\n      jump\t// in\n    tag_35:\n      mload(0x40)\n      dup1\n      swap2\n      sub\n      swap1\n      return\n        /* \"contracts/contracts/TimberSupplyChain.sol\":1392:1468  bytes32 public constant AUCTION_HOUSE_ROLE = keccak256(\"AUCTION_HOUSE_ROLE\") */\n    tag_5:\n      tag_37\n      tag_38\n      jump\t// in\n    tag_37:\n      mload(0x40)\n      tag_39\n      swap2\n      swap1\n      tag_36\n      jump\t// in\n    tag_39:\n      mload(0x40)\n      dup1\n      swap2\n      sub\n      swap1\n      return\n        /* \"@openzeppelin/contracts/access/AccessControl.sol\":3776:3896  function getRoleAdmin(bytes32 role) public view virtual returns (bytes32) {... */\n    tag_6:\n      tag_40\n      0x04\n      dup1\n      calldatasize\n      sub\n      dup2\n      add\n      swap1\n      tag_41\n      swap2\n      swap1\n      tag_42\n      jump\t// in\n    tag_41:\n      tag_43\n      jump\t// in\n    tag_40:\n      mload(0x40)\n      tag_44\n      swap2\n      swap1\n      tag_36\n      jump\t// in\n    tag_44:\n      mload(0x40)\n      dup1\n      swap2\n      sub\n      swap1\n      return\n        /* \"@openzeppelin/contracts/access/AccessControl.sol\":4192:4328  function grantRole(bytes32 role, address account) public virtual onlyRole(getRoleAdmin(role)) {... */\n    tag_7:\n      tag_45\n      0x04\n      dup1\n      calldatasize\n      sub\n      dup2\n      add\n      swap1\n      tag_46\n      swap2\n      swap1\n      tag_47\n      jump\t// in\n    tag_46:\n      tag_48\n      jump\t// in\n    tag_45:\n      stop\n        /* \"@openzeppelin/contracts/access/AccessControl.sol\":5294:5539  function renounceRole(bytes32 role, address callerConfirmation) public virtual {... */\n    tag_8:\n      tag_49\n      0x04\n      dup1\n      calldatasize\n      sub\n      dup2\n      add\n      swap1\n      tag_50\n      swap2\n      swap1\n      tag_47\n      jump\t// in\n    tag_50:\n      tag_51\n      jump\t// in\n    tag_49:\n      stop\n        /* \"contracts/contracts/TimberSupplyChain.sol\":9774:10819  function createFurniture(... */\n    tag_9:\n      tag_52\n      0x04\n      dup1\n      calldatasize\n      sub\n      dup2\n      add\n      swap1\n      tag_53\n      swap2\n      swap1\n      tag_54\n      jump\t// in\n    tag_53:\n      tag_55\n      jump\t// in\n    tag_52:\n      stop\n        /* \"contracts/contracts/TimberSupplyChain.sol\":11568:11670  function getBatch(uint256 id) external view returns (Batch memory) {... */\n    tag_10:\n      tag_56\n      0x04\n      dup1\n      calldatasize\n      sub\n      dup2\n      add\n      swap1\n      tag_57\n      swap2\n      swap1\n      tag_58\n      jump\t// in\n    tag_57:\n      tag_59\n      jump\t// in\n    tag_56:\n      mload(0x40)\n      tag_60\n      swap2\n      swap1\n      tag_61\n      jump\t// in\n    tag_60:\n      mload(0x40)\n      dup1\n      swap2\n      sub\n      swap1\n      return\n        /* \"contracts/contracts/TimberSupplyChain.sol\":11922:12012  function getLotCount() external view returns (uint256) {... */\n    tag_11:\n      tag_62\n      tag_63\n      jump\t// in\n    tag_62:\n      mload(0x40)\n      tag_64\n      swap2\n      swap1\n      tag_65\n      jump\t// in\n    tag_64:\n      mload(0x40)\n      dup1\n      swap2\n      sub\n      swap1\n      return\n        /* \"@openzeppelin/contracts/access/AccessControl.sol\":2820:2956  function hasRole(bytes32 role, address account) public view virtual returns (bool) {... */\n    tag_12:\n      tag_66\n      0x04\n      dup1\n      calldatasize\n      sub\n      dup2\n      add\n      swap1\n      tag_67\n      swap2\n      swap1\n      tag_47\n      jump\t// in\n    tag_67:\n      tag_68\n      jump\t// in\n    tag_66:\n      mload(0x40)\n      tag_69\n      swap2\n      swap1\n      tag_32\n      jump\t// in\n    tag_69:\n      mload(0x40)\n      dup1\n      swap2\n      sub\n      swap1\n      return\n        /* \"@openzeppelin/contracts/access/AccessControl.sol\":2187:2236  bytes32 public constant DEFAULT_ADMIN_ROLE = 0x00 */\n    tag_13:\n      tag_70\n      tag_71\n      jump\t// in\n    tag_70:\n      mload(0x40)\n      tag_72\n      swap2\n      swap1\n      tag_36\n      jump\t// in\n    tag_72:\n      mload(0x40)\n      dup1\n      swap2\n      sub\n      swap1\n      return\n        /* \"contracts/contracts/TimberSupplyChain.sol\":12247:12349  function getFurnitureCount() external view returns (uint256) {... */\n    tag_14:\n      tag_73\n      tag_74\n      jump\t// in\n    tag_73:\n      mload(0x40)\n      tag_75\n      swap2\n      swap1\n      tag_65\n      jump\t// in\n    tag_75:\n      mload(0x40)\n      dup1\n      swap2\n      sub\n      swap1\n      return\n        /* \"contracts/contracts/TimberSupplyChain.sol\":12078:12172  function getBatchCount() external view returns (uint256) {... */\n    tag_15:\n      tag_76\n      tag_77\n      jump\t// in\n    tag_76:\n      mload(0x40)\n      tag_78\n      swap2\n      swap1\n      tag_65\n      jump\t// in\n    tag_78:\n      mload(0x40)\n      dup1\n      swap2\n      sub\n      swap1\n      return\n        /* \"contracts/contracts/TimberSupplyChain.sol\":11404:11499  function getLot(uint256 id) external view returns (Lot memory) {... */\n    tag_16:\n      tag_79\n      0x04\n      dup1\n      calldatasize\n      sub\n      dup2\n      add\n      swap1\n      tag_80\n      swap2\n      swap1\n      tag_58\n      jump\t// in\n    tag_80:\n      tag_81\n      jump\t// in\n    tag_79:\n      mload(0x40)\n      tag_82\n      swap2\n      swap1\n      tag_83\n      jump\t// in\n    tag_82:\n      mload(0x40)\n      dup1\n      swap2\n      sub\n      swap1\n      return\n        /* \"contracts/contracts/TimberSupplyChain.sol\":4398:4442  mapping(uint256 => Batch)     public batches */\n    tag_17:\n      tag_84\n      0x04\n      dup1\n      calldatasize\n      sub\n      dup2\n      add\n      swap1\n      tag_85\n      swap2\n      swap1\n      tag_58\n      jump\t// in\n    tag_85:\n      tag_86\n      jump\t// in\n    tag_84:\n      mload(0x40)\n      tag_87\n      swap7\n      swap6\n      swap5\n      swap4\n      swap3\n      swap2\n      swap1\n      tag_88\n      jump\t// in\n    tag_87:\n      mload(0x40)\n      dup1\n      swap2\n      sub\n      swap1\n      return\n        /* \"contracts/contracts/TimberSupplyChain.sol\":8562:9321  function purchaseWood(... */\n    tag_18:\n      tag_89\n      0x04\n      dup1\n      calldatasize\n      sub\n      dup2\n      add\n      swap1\n      tag_90\n      swap2\n      swap1\n      tag_91\n      jump\t// in\n    tag_90:\n      tag_92\n      jump\t// in\n    tag_89:\n      stop\n        /* \"contracts/contracts/TimberSupplyChain.sol\":11743:11856  function getFurniture(uint256 id) external view returns (Furniture memory) {... */\n    tag_19:\n      tag_93\n      0x04\n      dup1\n      calldatasize\n      sub\n      dup2\n      add\n      swap1\n      tag_94\n      swap2\n      swap1\n      tag_58\n      jump\t// in\n    tag_94:\n      tag_95\n      jump\t// in\n    tag_93:\n      mload(0x40)\n      tag_96\n      swap2\n      swap1\n      tag_97\n      jump\t// in\n    tag_96:\n      mload(0x40)\n      dup1\n      swap2\n      sub\n      swap1\n      return\n        /* \"contracts/contracts/TimberSupplyChain.sol\":7477:8261  function registerLot(... */\n    tag_20:\n      tag_98\n      0x04\n      dup1\n      calldatasize\n      sub\n      dup2\n      add\n      swap1\n      tag_99\n      swap2\n      swap1\n      tag_100\n      jump\t// in\n    tag_99:\n      tag_101\n      jump\t// in\n    tag_98:\n      stop\n        /* \"@openzeppelin/contracts/access/AccessControl.sol\":4608:4746  function revokeRole(bytes32 role, address account) public virtual onlyRole(getRoleAdmin(role)) {... */\n    tag_21:\n      tag_102\n      0x04\n      dup1\n      calldatasize\n      sub\n      dup2\n      add\n      swap1\n      tag_103\n      swap2\n      swap1\n      tag_47\n      jump\t// in\n    tag_103:\n      tag_104\n      jump\t// in\n    tag_102:\n      stop\n        /* \"contracts/contracts/TimberSupplyChain.sol\":4351:4392  mapping(uint256 => Lot)       public lots */\n    tag_22:\n      tag_105\n      0x04\n      dup1\n      calldatasize\n      sub\n      dup2\n      add\n      swap1\n      tag_106\n      swap2\n      swap1\n      tag_58\n      jump\t// in\n    tag_106:\n      tag_107\n      jump\t// in\n    tag_105:\n      mload(0x40)\n      tag_108\n      swap10\n      swap9\n      swap8\n      swap7\n      swap6\n      swap5\n      swap4\n      swap3\n      swap2\n      swap1\n      tag_109\n      jump\t// in\n    tag_108:\n      mload(0x40)\n      dup1\n      swap2\n      sub\n      swap1\n      return\n        /* \"contracts/contracts/TimberSupplyChain.sol\":4448:4495  mapping(uint256 => Furniture) public furnitures */\n    tag_23:\n      tag_110\n      0x04\n      dup1\n      calldatasize\n      sub\n      dup2\n      add\n      swap1\n      tag_111\n      swap2\n      swap1\n      tag_58\n      jump\t// in\n    tag_111:\n      tag_112\n      jump\t// in\n    tag_110:\n      mload(0x40)\n      tag_113\n      swap8\n      swap7\n      swap6\n      swap5\n      swap4\n      swap3\n      swap2\n      swap1\n      tag_114\n      jump\t// in\n    tag_113:\n      mload(0x40)\n      dup1\n      swap2\n      sub\n      swap1\n      return\n        /* \"@openzeppelin/contracts/access/AccessControl.sol\":2531:2733  function supportsInterface(bytes4 interfaceId) public view virtual override returns (bool) {... */\n    tag_30:\n        /* \"@openzeppelin/contracts/access/AccessControl.sol\":2616:2620  bool */\n      0x00\n        /* \"@openzeppelin/contracts/access/AccessControl.sol\":2654:2686  type(IAccessControl).interfaceId */\n      0x7965db0b00000000000000000000000000000000000000000000000000000000\n        /* \"@openzeppelin/contracts/access/AccessControl.sol\":2639:2686  interfaceId == type(IAccessControl).interfaceId */\n      not(0xffffffffffffffffffffffffffffffffffffffffffffffffffffffff)\n      and\n        /* \"@openzeppelin/contracts/access/AccessControl.sol\":2639:2650  interfaceId */\n      dup3\n        /* \"@openzeppelin/contracts/access/AccessControl.sol\":2639:2686  interfaceId == type(IAccessControl).interfaceId */\n      not(0xffffffffffffffffffffffffffffffffffffffffffffffffffffffff)\n      and\n      eq\n        /* \"@openzeppelin/contracts/access/AccessControl.sol\":2639:2726  interfaceId == type(IAccessControl).interfaceId || super.supportsInterface(interfaceId) */\n      dup1\n      tag_116\n      jumpi\n      pop\n        /* \"@openzeppelin/contracts/access/AccessControl.sol\":2690:2726  super.supportsInterface(interfaceId) */\n      tag_117\n        /* \"@openzeppelin/contracts/access/AccessControl.sol\":2714:2725  interfaceId */\n      dup3\n        /* \"@openzeppelin/contracts/access/AccessControl.sol\":2690:2713  super.supportsInterface */\n      tag_118\n        /* \"@openzeppelin/contracts/access/AccessControl.sol\":2690:2726  super.supportsInterface(interfaceId) */\n      jump\t// in\n    tag_117:\n        /* \"@openzeppelin/contracts/access/AccessControl.sol\":2639:2726  interfaceId == type(IAccessControl).interfaceId || super.supportsInterface(interfaceId) */\n    tag_116:\n        /* \"@openzeppelin/contracts/access/AccessControl.sol\":2632:2726  return interfaceId == type(IAccessControl).interfaceId || super.supportsInterface(interfaceId) */\n      swap1\n      pop\n        /* \"@openzeppelin/contracts/access/AccessControl.sol\":2531:2733  function supportsInterface(bytes4 interfaceId) public view virtual override returns (bool) {... */\n      swap2\n      swap1\n      pop\n      jump\t// out\n        /* \"contracts/contracts/TimberSupplyChain.sol\":1474:1544  bytes32 public constant FACTORY_ROLE       = keccak256(\"FACTORY_ROLE\") */\n    tag_34:\n        /* \"contracts/contracts/TimberSupplyChain.sol\":1519:1544  keccak256(\"FACTORY_ROLE\") */\n      0xdfbefbf47cfe66b701d8cfdbce1de81c821590819cb07e71cb01b6602fb0ee27\n        /* \"contracts/contracts/TimberSupplyChain.sol\":1474:1544  bytes32 public constant FACTORY_ROLE       = keccak256(\"FACTORY_ROLE\") */\n      dup2\n      jump\t// out\n        /* \"contracts/contracts/TimberSupplyChain.sol\":1392:1468  bytes32 public constant AUCTION_HOUSE_ROLE = keccak256(\"AUCTION_HOUSE_ROLE\") */\n    tag_38:\n        /* \"contracts/contracts/TimberSupplyChain.sol\":1437:1468  keccak256(\"AUCTION_HOUSE_ROLE\") */\n      0x89b57a644ed9fce05f6c753cf42a08c2333c48e5a3d803e17cee19087358722b\n        /* \"contracts/contracts/TimberSupplyChain.sol\":1392:1468  bytes32 public constant AUCTION_HOUSE_ROLE = keccak256(\"AUCTION_HOUSE_ROLE\") */\n      dup2\n      jump\t// out\n        /* \"@openzeppelin/contracts/access/AccessControl.sol\":3776:3896  function getRoleAdmin(bytes32 role) public view virtual returns (bytes32) {... */\n    tag_43:\n        /* \"@openzeppelin/contracts/access/AccessControl.sol\":3841:3848  bytes32 */\n      0x00\n        /* \"@openzeppelin/contracts/access/AccessControl.sol\":3867:3873  _roles */\n      0x00\n        /* \"@openzeppelin/contracts/access/AccessControl.sol\":3867:3879  _roles[role] */\n      0x00\n        /* \"@openzeppelin/contracts/access/AccessControl.sol\":3874:3878  role */\n      dup4\n        /* \"@openzeppelin/contracts/access/AccessControl.sol\":3867:3879  _roles[role] */\n      dup2\n      mstore\n      0x20\n      add\n      swap1\n      dup2\n      mstore\n      0x20\n      add\n      0x00\n      keccak256\n        /* \"@openzeppelin/contracts/access/AccessControl.sol\":3867:3889  _roles[role].adminRole */\n      0x01\n      add\n      sload\n        /* \"@openzeppelin/contracts/access/AccessControl.sol\":3860:3889  return _roles[role].adminRole */\n      swap1\n      pop\n        /* \"@openzeppelin/contracts/access/AccessControl.sol\":3776:3896  function getRoleAdmin(bytes32 role) public view virtual returns (bytes32) {... */\n      swap2\n      swap1\n      pop\n      jump\t// out\n        /* \"@openzeppelin/contracts/access/AccessControl.sol\":4192:4328  function grantRole(bytes32 role, address account) public virtual onlyRole(getRoleAdmin(role)) {... */\n    tag_48:\n        /* \"@openzeppelin/contracts/access/AccessControl.sol\":4266:4284  getRoleAdmin(role) */\n      tag_120\n        /* \"@openzeppelin/contracts/access/AccessControl.sol\":4279:4283  role */\n      dup3\n        /* \"@openzeppelin/contracts/access/AccessControl.sol\":4266:4278  getRoleAdmin */\n      tag_43\n        /* \"@openzeppelin/contracts/access/AccessControl.sol\":4266:4284  getRoleAdmin(role) */\n      jump\t// in\n    tag_120:\n        /* \"@openzeppelin/contracts/access/AccessControl.sol\":2464:2480  _checkRole(role) */\n      tag_122\n        /* \"@openzeppelin/contracts/access/AccessControl.sol\":2475:2479  role */\n      dup2\n        /* \"@openzeppelin/contracts/access/AccessControl.sol\":2464:2474  _checkRole */\n      tag_123\n        /* \"@openzeppelin/contracts/access/AccessControl.sol\":2464:2480  _checkRole(role) */\n      jump\t// in\n    tag_122:\n        /* \"@openzeppelin/contracts/access/AccessControl.sol\":4296:4321  _grantRole(role, account) */\n      tag_125\n        /* \"@openzeppelin/contracts/access/AccessControl.sol\":4307:4311  role */\n      dup4\n        /* \"@openzeppelin/contracts/access/AccessControl.sol\":4313:4320  account */\n      dup4\n        /* \"@openzeppelin/contracts/access/AccessControl.sol\":4296:4306  _grantRole */\n      tag_126\n        /* \"@openzeppelin/contracts/access/AccessControl.sol\":4296:4321  _grantRole(role, account) */\n      jump\t// in\n    tag_125:\n      pop\n        /* \"@openzeppelin/contracts/access/AccessControl.sol\":4192:4328  function grantRole(bytes32 role, address account) public virtual onlyRole(getRoleAdmin(role)) {... */\n      pop\n      pop\n      pop\n      jump\t// out\n        /* \"@openzeppelin/contracts/access/AccessControl.sol\":5294:5539  function renounceRole(bytes32 role, address callerConfirmation) public virtual {... */\n    tag_51:\n        /* \"@openzeppelin/contracts/access/AccessControl.sol\":5409:5421  _msgSender() */\n      tag_128\n        /* \"@openzeppelin/contracts/access/AccessControl.sol\":5409:5419  _msgSender */\n      tag_129\n        /* \"@openzeppelin/contracts/access/AccessControl.sol\":5409:5421  _msgSender() */\n      jump\t// in\n    tag_128:\n        /* \"@openzeppelin/contracts/access/AccessControl.sol\":5387:5421  callerConfirmation != _msgSender() */\n      0xffffffffffffffffffffffffffffffffffffffff\n      and\n        /* \"@openzeppelin/contracts/access/AccessControl.sol\":5387:5405  callerConfirmation */\n      dup2\n        /* \"@openzeppelin/contracts/access/AccessControl.sol\":5387:5421  callerConfirmation != _msgSender() */\n      0xffffffffffffffffffffffffffffffffffffffff\n      and\n      eq\n        /* \"@openzeppelin/contracts/access/AccessControl.sol\":5383:5485  if (callerConfirmation != _msgSender()) {... */\n      tag_130\n      jumpi\n        /* \"@openzeppelin/contracts/access/AccessControl.sol\":5444:5474  AccessControlBadConfirmation() */\n      mload(0x40)\n      0x6697b23200000000000000000000000000000000000000000000000000000000\n      dup2\n      mstore\n      0x04\n      add\n      mload(0x40)\n      dup1\n      swap2\n      sub\n      swap1\n      revert\n        /* \"@openzeppelin/contracts/access/AccessControl.sol\":5383:5485  if (callerConfirmation != _msgSender()) {... */\n    tag_130:\n        /* \"@openzeppelin/contracts/access/AccessControl.sol\":5495:5532  _revokeRole(role, callerConfirmation) */\n      tag_131\n        /* \"@openzeppelin/contracts/access/AccessControl.sol\":5507:5511  role */\n      dup3\n        /* \"@openzeppelin/contracts/access/AccessControl.sol\":5513:5531  callerConfirmation */\n      dup3\n        /* \"@openzeppelin/contracts/access/AccessControl.sol\":5495:5506  _revokeRole */\n      tag_132\n        /* \"@openzeppelin/contracts/access/AccessControl.sol\":5495:5532  _revokeRole(role, callerConfirmation) */\n      jump\t// in\n    tag_131:\n      pop\n        /* \"@openzeppelin/contracts/access/AccessControl.sol\":5294:5539  function renounceRole(bytes32 role, address callerConfirmation) public virtual {... */\n      pop\n      pop\n      jump\t// out\n        /* \"contracts/contracts/TimberSupplyChain.sol\":9774:10819  function createFurniture(... */\n    tag_55:\n        /* \"contracts/contracts/TimberSupplyChain.sol\":1519:1544  keccak256(\"FACTORY_ROLE\") */\n      0xdfbefbf47cfe66b701d8cfdbce1de81c821590819cb07e71cb01b6602fb0ee27\n        /* \"@openzeppelin/contracts/access/AccessControl.sol\":2464:2480  _checkRole(role) */\n      tag_134\n        /* \"@openzeppelin/contracts/access/AccessControl.sol\":2475:2479  role */\n      dup2\n        /* \"@openzeppelin/contracts/access/AccessControl.sol\":2464:2474  _checkRole */\n      tag_123\n        /* \"@openzeppelin/contracts/access/AccessControl.sol\":2464:2480  _checkRole(role) */\n      jump\t// in\n    tag_134:\n        /* \"contracts/contracts/TimberSupplyChain.sol\":10016:10026  msg.sender */\n      caller\n        /* \"contracts/contracts/TimberSupplyChain.sol\":9990:10026  batches[batchId].owner == msg.sender */\n      0xffffffffffffffffffffffffffffffffffffffff\n      and\n        /* \"contracts/contracts/TimberSupplyChain.sol\":9990:9997  batches */\n      0x02\n        /* \"contracts/contracts/TimberSupplyChain.sol\":9990:10006  batches[batchId] */\n      0x00\n        /* \"contracts/contracts/TimberSupplyChain.sol\":9998:10005  batchId */\n      dup10\n        /* \"contracts/contracts/TimberSupplyChain.sol\":9990:10006  batches[batchId] */\n      dup2\n      mstore\n      0x20\n      add\n      swap1\n      dup2\n      mstore\n      0x20\n      add\n      0x00\n      keccak256\n        /* \"contracts/contracts/TimberSupplyChain.sol\":9990:10012  batches[batchId].owner */\n      0x04\n      add\n      0x00\n      swap1\n      sload\n      swap1\n      0x0100\n      exp\n      swap1\n      div\n      0xffffffffffffffffffffffffffffffffffffffff\n      and\n        /* \"contracts/contracts/TimberSupplyChain.sol\":9990:10026  batches[batchId].owner == msg.sender */\n      0xffffffffffffffffffffffffffffffffffffffff\n      and\n      eq\n        /* \"contracts/contracts/TimberSupplyChain.sol\":9982:10046  require(batches[batchId].owner == msg.sender, \"Not batch owner\") */\n      tag_136\n      jumpi\n      mload(0x40)\n      0x08c379a000000000000000000000000000000000000000000000000000000000\n      dup2\n      mstore\n      0x04\n      add\n      tag_137\n      swap1\n      tag_138\n      jump\t// in\n    tag_137:\n      mload(0x40)\n      dup1\n      swap2\n      sub\n      swap1\n      revert\n    tag_136:\n        /* \"contracts/contracts/TimberSupplyChain.sol\":10070:10071  0 */\n      0x00\n        /* \"contracts/contracts/TimberSupplyChain.sol\":10064:10067  qty */\n      dup5\n        /* \"contracts/contracts/TimberSupplyChain.sol\":10064:10071  qty > 0 */\n      gt\n        /* \"contracts/contracts/TimberSupplyChain.sol\":10056:10091  require(qty > 0, \"Qty must be > 0\") */\n      tag_139\n      jumpi\n      mload(0x40)\n      0x08c379a000000000000000000000000000000000000000000000000000000000\n      dup2\n      mstore\n      0x04\n      add\n      tag_140\n      swap1\n      tag_141\n      jump\t// in\n    tag_140:\n      mload(0x40)\n      dup1\n      swap2\n      sub\n      swap1\n      revert\n    tag_139:\n        /* \"contracts/contracts/TimberSupplyChain.sol\":10194:10197  qty */\n      dup4\n        /* \"contracts/contracts/TimberSupplyChain.sol\":10161:10168  batches */\n      0x02\n        /* \"contracts/contracts/TimberSupplyChain.sol\":10161:10177  batches[batchId] */\n      0x00\n        /* \"contracts/contracts/TimberSupplyChain.sol\":10169:10176  batchId */\n      dup10\n        /* \"contracts/contracts/TimberSupplyChain.sol\":10161:10177  batches[batchId] */\n      dup2\n      mstore\n      0x20\n      add\n      swap1\n      dup2\n      mstore\n      0x20\n      add\n      0x00\n      keccak256\n        /* \"contracts/contracts/TimberSupplyChain.sol\":10161:10190  batches[batchId].remainingQty */\n      0x03\n      add\n      sload\n        /* \"contracts/contracts/TimberSupplyChain.sol\":10161:10197  batches[batchId].remainingQty >= qty */\n      lt\n      iszero\n        /* \"contracts/contracts/TimberSupplyChain.sol\":10153:10229  require(batches[batchId].remainingQty >= qty, \"Insufficient batch quantity\") */\n      tag_142\n      jumpi\n      mload(0x40)\n      0x08c379a000000000000000000000000000000000000000000000000000000000\n      dup2\n      mstore\n      0x04\n      add\n      tag_143\n      swap1\n      tag_144\n      jump\t// in\n    tag_143:\n      mload(0x40)\n      dup1\n      swap2\n      sub\n      swap1\n      revert\n    tag_142:\n        /* \"contracts/contracts/TimberSupplyChain.sol\":10299:10302  qty */\n      dup4\n        /* \"contracts/contracts/TimberSupplyChain.sol\":10266:10273  batches */\n      0x02\n        /* \"contracts/contracts/TimberSupplyChain.sol\":10266:10282  batches[batchId] */\n      0x00\n        /* \"contracts/contracts/TimberSupplyChain.sol\":10274:10281  batchId */\n      dup10\n        /* \"contracts/contracts/TimberSupplyChain.sol\":10266:10282  batches[batchId] */\n      dup2\n      mstore\n      0x20\n      add\n      swap1\n      dup2\n      mstore\n      0x20\n      add\n      0x00\n      keccak256\n        /* \"contracts/contracts/TimberSupplyChain.sol\":10266:10295  batches[batchId].remainingQty */\n      0x03\n      add\n      0x00\n        /* \"contracts/contracts/TimberSupplyChain.sol\":10266:10302  batches[batchId].remainingQty -= qty */\n      dup3\n      dup3\n      sload\n      tag_145\n      swap2\n      swap1\n      tag_146\n      jump\t// in\n    tag_145:\n      swap3\n      pop\n      pop\n      dup2\n      swap1\n      sstore\n      pop\n        /* \"contracts/contracts/TimberSupplyChain.sol\":10313:10330  _furnitureCounter */\n      0x06\n      0x00\n        /* \"contracts/contracts/TimberSupplyChain.sol\":10313:10332  _furnitureCounter++ */\n      dup2\n      sload\n      dup1\n      swap3\n      swap2\n      swap1\n      tag_147\n      swap1\n      tag_148\n      jump\t// in\n    tag_147:\n      swap2\n      swap1\n      pop\n      sstore\n      pop\n        /* \"contracts/contracts/TimberSupplyChain.sol\":10342:10361  uint256 furnitureId */\n      0x00\n        /* \"contracts/contracts/TimberSupplyChain.sol\":10364:10381  _furnitureCounter */\n      sload(0x06)\n        /* \"contracts/contracts/TimberSupplyChain.sol\":10342:10381  uint256 furnitureId = _furnitureCounter */\n      swap1\n      pop\n        /* \"contracts/contracts/TimberSupplyChain.sol\":10418:10709  Furniture({... */\n      mload(0x40)\n      dup1\n      0xe0\n      add\n      0x40\n      mstore\n      dup1\n        /* \"contracts/contracts/TimberSupplyChain.sol\":10457:10468  furnitureId */\n      dup3\n        /* \"contracts/contracts/TimberSupplyChain.sol\":10418:10709  Furniture({... */\n      dup2\n      mstore\n      0x20\n      add\n        /* \"contracts/contracts/TimberSupplyChain.sol\":10497:10504  batchId */\n      dup10\n        /* \"contracts/contracts/TimberSupplyChain.sol\":10418:10709  Furniture({... */\n      dup2\n      mstore\n      0x20\n      add\n        /* \"contracts/contracts/TimberSupplyChain.sol\":10533:10546  furnitureType */\n      dup9\n      dup9\n        /* \"contracts/contracts/TimberSupplyChain.sol\":10418:10709  Furniture({... */\n      dup1\n      dup1\n      0x1f\n      add\n      0x20\n      dup1\n      swap2\n      div\n      mul\n      0x20\n      add\n      mload(0x40)\n      swap1\n      dup2\n      add\n      0x40\n      mstore\n      dup1\n      swap4\n      swap3\n      swap2\n      swap1\n      dup2\n      dup2\n      mstore\n      0x20\n      add\n      dup4\n      dup4\n      dup1\n      dup3\n      dup5\n      calldatacopy\n      0x00\n      dup2\n      dup5\n      add\n      mstore\n      not(0x1f)\n      0x1f\n      dup3\n      add\n      and\n      swap1\n      pop\n      dup1\n      dup4\n      add\n      swap3\n      pop\n      pop\n      pop\n      pop\n      pop\n      pop\n      pop\n      dup2\n      mstore\n      0x20\n      add\n        /* \"contracts/contracts/TimberSupplyChain.sol\":10575:10578  qty */\n      dup7\n        /* \"contracts/contracts/TimberSupplyChain.sol\":10418:10709  Furniture({... */\n      dup2\n      mstore\n      0x20\n      add\n        /* \"contracts/contracts/TimberSupplyChain.sol\":10607:10617  msg.sender */\n      caller\n        /* \"contracts/contracts/TimberSupplyChain.sol\":10418:10709  Furniture({... */\n      0xffffffffffffffffffffffffffffffffffffffff\n      and\n      dup2\n      mstore\n      0x20\n      add\n        /* \"contracts/contracts/TimberSupplyChain.sol\":10646:10661  block.timestamp */\n      timestamp\n        /* \"contracts/contracts/TimberSupplyChain.sol\":10418:10709  Furniture({... */\n      dup2\n      mstore\n      0x20\n      add\n        /* \"contracts/contracts/TimberSupplyChain.sol\":10690:10698  ipfsHash */\n      dup6\n      dup6\n        /* \"contracts/contracts/TimberSupplyChain.sol\":10418:10709  Furniture({... */\n      dup1\n      dup1\n      0x1f\n      add\n      0x20\n      dup1\n      swap2\n      div\n      mul\n      0x20\n      add\n      mload(0x40)\n      swap1\n      dup2\n      add\n      0x40\n      mstore\n      dup1\n      swap4\n      swap3\n      swap2\n      swap1\n      dup2\n      dup2\n      mstore\n      0x20\n      add\n      dup4\n      dup4\n      dup1\n      dup3\n      dup5\n      calldatacopy\n      0x00\n      dup2\n      dup5\n      add\n      mstore\n      not(0x1f)\n      0x1f\n      dup3\n      add\n      and\n      swap1\n      pop\n      dup1\n      dup4\n      add\n      swap3\n      pop\n      pop\n      pop\n      pop\n      pop\n      pop\n      pop\n      dup2\n      mstore\n      pop\n        /* \"contracts/contracts/TimberSupplyChain.sol\":10392:10402  furnitures */\n      0x03\n        /* \"contracts/contracts/TimberSupplyChain.sol\":10392:10415  furnitures[furnitureId] */\n      0x00\n        /* \"contracts/contracts/TimberSupplyChain.sol\":10403:10414  furnitureId */\n      dup4\n        /* \"contracts/contracts/TimberSupplyChain.sol\":10392:10415  furnitures[furnitureId] */\n      dup2\n      mstore\n      0x20\n      add\n      swap1\n      dup2\n      mstore\n      0x20\n      add\n      0x00\n      keccak256\n        /* \"contracts/contracts/TimberSupplyChain.sol\":10392:10709  furnitures[furnitureId] = Furniture({... */\n      0x00\n      dup3\n      add\n      mload\n      dup2\n      0x00\n      add\n      sstore\n      0x20\n      dup3\n      add\n      mload\n      dup2\n      0x01\n      add\n      sstore\n      0x40\n      dup3\n      add\n      mload\n      dup2\n      0x02\n      add\n      swap1\n      dup2\n      tag_149\n      swap2\n      swap1\n      tag_150\n      jump\t// in\n    tag_149:\n      pop\n      0x60\n      dup3\n      add\n      mload\n      dup2\n      0x03\n      add\n      sstore\n      0x80\n      dup3\n      add\n      mload\n      dup2\n      0x04\n      add\n      exp(0x0100, 0x00)\n      dup2\n      sload\n      dup2\n      0xffffffffffffffffffffffffffffffffffffffff\n      mul\n      not\n      and\n      swap1\n      dup4\n      0xffffffffffffffffffffffffffffffffffffffff\n      and\n      mul\n      or\n      swap1\n      sstore\n      pop\n      0xa0\n      dup3\n      add\n      mload\n      dup2\n      0x05\n      add\n      sstore\n      0xc0\n      dup3\n      add\n      mload\n      dup2\n      0x06\n      add\n      swap1\n      dup2\n      tag_151\n      swap2\n      swap1\n      tag_150\n      jump\t// in\n    tag_151:\n      pop\n      swap1\n      pop\n      pop\n        /* \"contracts/contracts/TimberSupplyChain.sol\":10764:10774  msg.sender */\n      caller\n        /* \"contracts/contracts/TimberSupplyChain.sol\":10725:10812  FurnitureCreated(furnitureId, batchId, msg.sender, furnitureType, qty, block.timestamp) */\n      0xffffffffffffffffffffffffffffffffffffffff\n      and\n        /* \"contracts/contracts/TimberSupplyChain.sol\":10755:10762  batchId */\n      dup9\n        /* \"contracts/contracts/TimberSupplyChain.sol\":10742:10753  furnitureId */\n      dup3\n        /* \"contracts/contracts/TimberSupplyChain.sol\":10725:10812  FurnitureCreated(furnitureId, batchId, msg.sender, furnitureType, qty, block.timestamp) */\n      0x777c60e45b2037cf59f29bc452a1e6b2aaf535f1c6aba0073463b1af4fe4b00a\n        /* \"contracts/contracts/TimberSupplyChain.sol\":10776:10789  furnitureType */\n      dup11\n      dup11\n        /* \"contracts/contracts/TimberSupplyChain.sol\":10791:10794  qty */\n      dup11\n        /* \"contracts/contracts/TimberSupplyChain.sol\":10796:10811  block.timestamp */\n      timestamp\n        /* \"contracts/contracts/TimberSupplyChain.sol\":10725:10812  FurnitureCreated(furnitureId, batchId, msg.sender, furnitureType, qty, block.timestamp) */\n      mload(0x40)\n      tag_152\n      swap5\n      swap4\n      swap3\n      swap2\n      swap1\n      tag_153\n      jump\t// in\n    tag_152:\n      mload(0x40)\n      dup1\n      swap2\n      sub\n      swap1\n      log4\n        /* \"contracts/contracts/TimberSupplyChain.sol\":9972:10819  {... */\n      pop\n        /* \"contracts/contracts/TimberSupplyChain.sol\":9774:10819  function createFurniture(... */\n      pop\n      pop\n      pop\n      pop\n      pop\n      pop\n      pop\n      jump\t// out\n        /* \"contracts/contracts/TimberSupplyChain.sol\":11568:11670  function getBatch(uint256 id) external view returns (Batch memory) {... */\n    tag_59:\n        /* \"contracts/contracts/TimberSupplyChain.sol\":11621:11633  Batch memory */\n      tag_154\n      tag_155\n      jump\t// in\n    tag_154:\n        /* \"contracts/contracts/TimberSupplyChain.sol\":11652:11659  batches */\n      0x02\n        /* \"contracts/contracts/TimberSupplyChain.sol\":11652:11663  batches[id] */\n      0x00\n        /* \"contracts/contracts/TimberSupplyChain.sol\":11660:11662  id */\n      dup4\n        /* \"contracts/contracts/TimberSupplyChain.sol\":11652:11663  batches[id] */\n      dup2\n      mstore\n      0x20\n      add\n      swap1\n      dup2\n      mstore\n      0x20\n      add\n      0x00\n      keccak256\n        /* \"contracts/contracts/TimberSupplyChain.sol\":11645:11663  return batches[id] */\n      mload(0x40)\n      dup1\n      0xc0\n      add\n      0x40\n      mstore\n      swap1\n      dup2\n      0x00\n      dup3\n      add\n      sload\n      dup2\n      mstore\n      0x20\n      add\n      0x01\n      dup3\n      add\n      sload\n      dup2\n      mstore\n      0x20\n      add\n      0x02\n      dup3\n      add\n      sload\n      dup2\n      mstore\n      0x20\n      add\n      0x03\n      dup3\n      add\n      sload\n      dup2\n      mstore\n      0x20\n      add\n      0x04\n      dup3\n      add\n      0x00\n      swap1\n      sload\n      swap1\n      0x0100\n      exp\n      swap1\n      div\n      0xffffffffffffffffffffffffffffffffffffffff\n      and\n      0xffffffffffffffffffffffffffffffffffffffff\n      and\n      0xffffffffffffffffffffffffffffffffffffffff\n      and\n      dup2\n      mstore\n      0x20\n      add\n      0x05\n      dup3\n      add\n      sload\n      dup2\n      mstore\n      pop\n      pop\n      swap1\n      pop\n        /* \"contracts/contracts/TimberSupplyChain.sol\":11568:11670  function getBatch(uint256 id) external view returns (Batch memory) {... */\n      swap2\n      swap1\n      pop\n      jump\t// out\n        /* \"contracts/contracts/TimberSupplyChain.sol\":11922:12012  function getLotCount() external view returns (uint256) {... */\n    tag_63:\n        /* \"contracts/contracts/TimberSupplyChain.sol\":11968:11975  uint256 */\n      0x00\n        /* \"contracts/contracts/TimberSupplyChain.sol\":11994:12005  _lotCounter */\n      sload(0x04)\n        /* \"contracts/contracts/TimberSupplyChain.sol\":11987:12005  return _lotCounter */\n      swap1\n      pop\n        /* \"contracts/contracts/TimberSupplyChain.sol\":11922:12012  function getLotCount() external view returns (uint256) {... */\n      swap1\n      jump\t// out\n        /* \"@openzeppelin/contracts/access/AccessControl.sol\":2820:2956  function hasRole(bytes32 role, address account) public view virtual returns (bool) {... */\n    tag_68:\n        /* \"@openzeppelin/contracts/access/AccessControl.sol\":2897:2901  bool */\n      0x00\n        /* \"@openzeppelin/contracts/access/AccessControl.sol\":2920:2926  _roles */\n      0x00\n        /* \"@openzeppelin/contracts/access/AccessControl.sol\":2920:2932  _roles[role] */\n      0x00\n        /* \"@openzeppelin/contracts/access/AccessControl.sol\":2927:2931  role */\n      dup5\n        /* \"@openzeppelin/contracts/access/AccessControl.sol\":2920:2932  _roles[role] */\n      dup2\n      mstore\n      0x20\n      add\n      swap1\n      dup2\n      mstore\n      0x20\n      add\n      0x00\n      keccak256\n        /* \"@openzeppelin/contracts/access/AccessControl.sol\":2920:2940  _roles[role].hasRole */\n      0x00\n      add\n        /* \"@openzeppelin/contracts/access/AccessControl.sol\":2920:2949  _roles[role].hasRole[account] */\n      0x00\n        /* \"@openzeppelin/contracts/access/AccessControl.sol\":2941:2948  account */\n      dup4\n        /* \"@openzeppelin/contracts/access/AccessControl.sol\":2920:2949  _roles[role].hasRole[account] */\n      0xffffffffffffffffffffffffffffffffffffffff\n      and\n      0xffffffffffffffffffffffffffffffffffffffff\n      and\n      dup2\n      mstore\n      0x20\n      add\n      swap1\n      dup2\n      mstore\n      0x20\n      add\n      0x00\n      keccak256\n      0x00\n      swap1\n      sload\n      swap1\n      0x0100\n      exp\n      swap1\n      div\n      0xff\n      and\n        /* \"@openzeppelin/contracts/access/AccessControl.sol\":2913:2949  return _roles[role].hasRole[account] */\n      swap1\n      pop\n        /* \"@openzeppelin/contracts/access/AccessControl.sol\":2820:2956  function hasRole(bytes32 role, address account) public view virtual returns (bool) {... */\n      swap3\n      swap2\n      pop\n      pop\n      jump\t// out\n        /* \"@openzeppelin/contracts/access/AccessControl.sol\":2187:2236  bytes32 public constant DEFAULT_ADMIN_ROLE = 0x00 */\n    tag_71:\n        /* \"@openzeppelin/contracts/access/AccessControl.sol\":2232:2236  0x00 */\n      0x00\n        /* \"@openzeppelin/contracts/access/AccessControl.sol\":2187:2236  bytes32 public constant DEFAULT_ADMIN_ROLE = 0x00 */\n      0x00\n      shl\n      dup2\n      jump\t// out\n        /* \"contracts/contracts/TimberSupplyChain.sol\":12247:12349  function getFurnitureCount() external view returns (uint256) {... */\n    tag_74:\n        /* \"contracts/contracts/TimberSupplyChain.sol\":12299:12306  uint256 */\n      0x00\n        /* \"contracts/contracts/TimberSupplyChain.sol\":12325:12342  _furnitureCounter */\n      sload(0x06)\n        /* \"contracts/contracts/TimberSupplyChain.sol\":12318:12342  return _furnitureCounter */\n      swap1\n      pop\n        /* \"contracts/contracts/TimberSupplyChain.sol\":12247:12349  function getFurnitureCount() external view returns (uint256) {... */\n      swap1\n      jump\t// out\n        /* \"contracts/contracts/TimberSupplyChain.sol\":12078:12172  function getBatchCount() external view returns (uint256) {... */\n    tag_77:\n        /* \"contracts/contracts/TimberSupplyChain.sol\":12126:12133  uint256 */\n      0x00\n        /* \"contracts/contracts/TimberSupplyChain.sol\":12152:12165  _batchCounter */\n      sload(0x05)\n        /* \"contracts/contracts/TimberSupplyChain.sol\":12145:12165  return _batchCounter */\n      swap1\n      pop\n        /* \"contracts/contracts/TimberSupplyChain.sol\":12078:12172  function getBatchCount() external view returns (uint256) {... */\n      swap1\n      jump\t// out\n        /* \"contracts/contracts/TimberSupplyChain.sol\":11404:11499  function getLot(uint256 id) external view returns (Lot memory) {... */\n    tag_81:\n        /* \"contracts/contracts/TimberSupplyChain.sol\":11455:11465  Lot memory */\n      tag_161\n      tag_162\n      jump\t// in\n    tag_161:\n        /* \"contracts/contracts/TimberSupplyChain.sol\":11484:11488  lots */\n      0x01\n        /* \"contracts/contracts/TimberSupplyChain.sol\":11484:11492  lots[id] */\n      0x00\n        /* \"contracts/contracts/TimberSupplyChain.sol\":11489:11491  id */\n      dup4\n        /* \"contracts/contracts/TimberSupplyChain.sol\":11484:11492  lots[id] */\n      dup2\n      mstore\n      0x20\n      add\n      swap1\n      dup2\n      mstore\n      0x20\n      add\n      0x00\n      keccak256\n        /* \"contracts/contracts/TimberSupplyChain.sol\":11477:11492  return lots[id] */\n      mload(0x40)\n      dup1\n      0x0120\n      add\n      0x40\n      mstore\n      swap1\n      dup2\n      0x00\n      dup3\n      add\n      sload\n      dup2\n      mstore\n      0x20\n      add\n      0x01\n      dup3\n      add\n      dup1\n      sload\n      tag_164\n      swap1\n      tag_165\n      jump\t// in\n    tag_164:\n      dup1\n      0x1f\n      add\n      0x20\n      dup1\n      swap2\n      div\n      mul\n      0x20\n      add\n      mload(0x40)\n      swap1\n      dup2\n      add\n      0x40\n      mstore\n      dup1\n      swap3\n      swap2\n      swap1\n      dup2\n      dup2\n      mstore\n      0x20\n      add\n      dup3\n      dup1\n      sload\n      tag_166\n      swap1\n      tag_165\n      jump\t// in\n    tag_166:\n      dup1\n      iszero\n      tag_167\n      jumpi\n      dup1\n      0x1f\n      lt\n      tag_168\n      jumpi\n      0x0100\n      dup1\n      dup4\n      sload\n      div\n      mul\n      dup4\n      mstore\n      swap2\n      0x20\n      add\n      swap2\n      jump(tag_167)\n    tag_168:\n      dup3\n      add\n      swap2\n      swap1\n      0x00\n      mstore\n      keccak256(0x00, 0x20)\n      swap1\n    tag_169:\n      dup2\n      sload\n      dup2\n      mstore\n      swap1\n      0x01\n      add\n      swap1\n      0x20\n      add\n      dup1\n      dup4\n      gt\n      tag_169\n      jumpi\n      dup3\n      swap1\n      sub\n      0x1f\n      and\n      dup3\n      add\n      swap2\n    tag_167:\n      pop\n      pop\n      pop\n      pop\n      pop\n      dup2\n      mstore\n      0x20\n      add\n      0x02\n      dup3\n      add\n      dup1\n      sload\n      tag_170\n      swap1\n      tag_165\n      jump\t// in\n    tag_170:\n      dup1\n      0x1f\n      add\n      0x20\n      dup1\n      swap2\n      div\n      mul\n      0x20\n      add\n      mload(0x40)\n      swap1\n      dup2\n      add\n      0x40\n      mstore\n      dup1\n      swap3\n      swap2\n      swap1\n      dup2\n      dup2\n      mstore\n      0x20\n      add\n      dup3\n      dup1\n      sload\n      tag_171\n      swap1\n      tag_165\n      jump\t// in\n    tag_171:\n      dup1\n      iszero\n      tag_172\n      jumpi\n      dup1\n      0x1f\n      lt\n      tag_173\n      jumpi\n      0x0100\n      dup1\n      dup4\n      sload\n      div\n      mul\n      dup4\n      mstore\n      swap2\n      0x20\n      add\n      swap2\n      jump(tag_172)\n    tag_173:\n      dup3\n      add\n      swap2\n      swap1\n      0x00\n      mstore\n      keccak256(0x00, 0x20)\n      swap1\n    tag_174:\n      dup2\n      sload\n      dup2\n      mstore\n      swap1\n      0x01\n      add\n      swap1\n      0x20\n      add\n      dup1\n      dup4\n      gt\n      tag_174\n      jumpi\n      dup3\n      swap1\n      sub\n      0x1f\n      and\n      dup3\n      add\n      swap2\n    tag_172:\n      pop\n      pop\n      pop\n      pop\n      pop\n      dup2\n      mstore\n      0x20\n      add\n      0x03\n      dup3\n      add\n      dup1\n      sload\n      tag_175\n      swap1\n      tag_165\n      jump\t// in\n    tag_175:\n      dup1\n      0x1f\n      add\n      0x20\n      dup1\n      swap2\n      div\n      mul\n      0x20\n      add\n      mload(0x40)\n      swap1\n      dup2\n      add\n      0x40\n      mstore\n      dup1\n      swap3\n      swap2\n      swap1\n      dup2\n      dup2\n      mstore\n      0x20\n      add\n      dup3\n      dup1\n      sload\n      tag_176\n      swap1\n      tag_165\n      jump\t// in\n    tag_176:\n      dup1\n      iszero\n      tag_177\n      jumpi\n      dup1\n      0x1f\n      lt\n      tag_178\n      jumpi\n      0x0100\n      dup1\n      dup4\n      sload\n      div\n      mul\n      dup4\n      mstore\n      swap2\n      0x20\n      add\n      swap2\n      jump(tag_177)\n    tag_178:\n      dup3\n      add\n      swap2\n      swap1\n      0x00\n      mstore\n      keccak256(0x00, 0x20)\n      swap1\n    tag_179:\n      dup2\n      sload\n      dup2\n      mstore\n      swap1\n      0x01\n      add\n      swap1\n      0x20\n      add\n      dup1\n      dup4\n      gt\n      tag_179\n      jumpi\n      dup3\n      swap1\n      sub\n      0x1f\n      and\n      dup3\n      add\n      swap2\n    tag_177:\n      pop\n      pop\n      pop\n      pop\n      pop\n      dup2\n      mstore\n      0x20\n      add\n      0x04\n      dup3\n      add\n      sload\n      dup2\n      mstore\n      0x20\n      add\n      0x05\n      dup3\n      add\n      sload\n      dup2\n      mstore\n      0x20\n      add\n      0x06\n      dup3\n      add\n      0x00\n      swap1\n      sload\n      swap1\n      0x0100\n      exp\n      swap1\n      div\n      0xffffffffffffffffffffffffffffffffffffffff\n      and\n      0xffffffffffffffffffffffffffffffffffffffff\n      and\n      0xffffffffffffffffffffffffffffffffffffffff\n      and\n      dup2\n      mstore\n      0x20\n      add\n      0x07\n      dup3\n      add\n      sload\n      dup2\n      mstore\n      0x20\n      add\n      0x08\n      dup3\n      add\n      dup1\n      sload\n      tag_180\n      swap1\n      tag_165\n      jump\t// in\n    tag_180:\n      dup1\n      0x1f\n      add\n      0x20\n      dup1\n      swap2\n      div\n      mul\n      0x20\n      add\n      mload(0x40)\n      swap1\n      dup2\n      add\n      0x40\n      mstore\n      dup1\n      swap3\n      swap2\n      swap1\n      dup2\n      dup2\n      mstore\n      0x20\n      add\n      dup3\n      dup1\n      sload\n      tag_181\n      swap1\n      tag_165\n      jump\t// in\n    tag_181:\n      dup1\n      iszero\n      tag_182\n      jumpi\n      dup1\n      0x1f\n      lt\n      tag_183\n      jumpi\n      0x0100\n      dup1\n      dup4\n      sload\n      div\n      mul\n      dup4\n      mstore\n      swap2\n      0x20\n      add\n      swap2\n      jump(tag_182)\n    tag_183:\n      dup3\n      add\n      swap2\n      swap1\n      0x00\n      mstore\n      keccak256(0x00, 0x20)\n      swap1\n    tag_184:\n      dup2\n      sload\n      dup2\n      mstore\n      swap1\n      0x01\n      add\n      swap1\n      0x20\n      add\n      dup1\n      dup4\n      gt\n      tag_184\n      jumpi\n      dup3\n      swap1\n      sub\n      0x1f\n      and\n      dup3\n      add\n      swap2\n    tag_182:\n      pop\n      pop\n      pop\n      pop\n      pop\n      dup2\n      mstore\n      pop\n      pop\n      swap1\n      pop\n        /* \"contracts/contracts/TimberSupplyChain.sol\":11404:11499  function getLot(uint256 id) external view returns (Lot memory) {... */\n      swap2\n      swap1\n      pop\n      jump\t// out\n        /* \"contracts/contracts/TimberSupplyChain.sol\":4398:4442  mapping(uint256 => Batch)     public batches */\n    tag_86:\n      mstore(0x20, 0x02)\n      dup1\n      0x00\n      mstore\n      keccak256(0x00, 0x40)\n      0x00\n      swap2\n      pop\n      swap1\n      pop\n      dup1\n      0x00\n      add\n      sload\n      swap1\n      dup1\n      0x01\n      add\n      sload\n      swap1\n      dup1\n      0x02\n      add\n      sload\n      swap1\n      dup1\n      0x03\n      add\n      sload\n      swap1\n      dup1\n      0x04\n      add\n      0x00\n      swap1\n      sload\n      swap1\n      0x0100\n      exp\n      swap1\n      div\n      0xffffffffffffffffffffffffffffffffffffffff\n      and\n      swap1\n      dup1\n      0x05\n      add\n      sload\n      swap1\n      pop\n      dup7\n      jump\t// out\n        /* \"contracts/contracts/TimberSupplyChain.sol\":8562:9321  function purchaseWood(... */\n    tag_92:\n        /* \"contracts/contracts/TimberSupplyChain.sol\":1519:1544  keccak256(\"FACTORY_ROLE\") */\n      0xdfbefbf47cfe66b701d8cfdbce1de81c821590819cb07e71cb01b6602fb0ee27\n        /* \"@openzeppelin/contracts/access/AccessControl.sol\":2464:2480  _checkRole(role) */\n      tag_186\n        /* \"@openzeppelin/contracts/access/AccessControl.sol\":2475:2479  role */\n      dup2\n        /* \"@openzeppelin/contracts/access/AccessControl.sol\":2464:2474  _checkRole */\n      tag_123\n        /* \"@openzeppelin/contracts/access/AccessControl.sol\":2464:2480  _checkRole(role) */\n      jump\t// in\n    tag_186:\n        /* \"contracts/contracts/TimberSupplyChain.sol\":8690:8691  0 */\n      0x00\n        /* \"contracts/contracts/TimberSupplyChain.sol\":8684:8687  qty */\n      dup3\n        /* \"contracts/contracts/TimberSupplyChain.sol\":8684:8691  qty > 0 */\n      gt\n        /* \"contracts/contracts/TimberSupplyChain.sol\":8676:8711  require(qty > 0, \"Qty must be > 0\") */\n      tag_188\n      jumpi\n      mload(0x40)\n      0x08c379a000000000000000000000000000000000000000000000000000000000\n      dup2\n      mstore\n      0x04\n      add\n      tag_189\n      swap1\n      tag_141\n      jump\t// in\n    tag_189:\n      mload(0x40)\n      dup1\n      swap2\n      sub\n      swap1\n      revert\n    tag_188:\n        /* \"contracts/contracts/TimberSupplyChain.sol\":8809:8812  qty */\n      dup2\n        /* \"contracts/contracts/TimberSupplyChain.sol\":8781:8785  lots */\n      0x01\n        /* \"contracts/contracts/TimberSupplyChain.sol\":8781:8792  lots[lotId] */\n      0x00\n        /* \"contracts/contracts/TimberSupplyChain.sol\":8786:8791  lotId */\n      dup6\n        /* \"contracts/contracts/TimberSupplyChain.sol\":8781:8792  lots[lotId] */\n      dup2\n      mstore\n      0x20\n      add\n      swap1\n      dup2\n      mstore\n      0x20\n      add\n      0x00\n      keccak256\n        /* \"contracts/contracts/TimberSupplyChain.sol\":8781:8805  lots[lotId].remainingQty */\n      0x05\n      add\n      sload\n        /* \"contracts/contracts/TimberSupplyChain.sol\":8781:8812  lots[lotId].remainingQty >= qty */\n      lt\n      iszero\n        /* \"contracts/contracts/TimberSupplyChain.sol\":8773:8842  require(lots[lotId].remainingQty >= qty, \"Insufficient lot quantity\") */\n      tag_190\n      jumpi\n      mload(0x40)\n      0x08c379a000000000000000000000000000000000000000000000000000000000\n      dup2\n      mstore\n      0x04\n      add\n      tag_191\n      swap1\n      tag_192\n      jump\t// in\n    tag_191:\n      mload(0x40)\n      dup1\n      swap2\n      sub\n      swap1\n      revert\n    tag_190:\n        /* \"contracts/contracts/TimberSupplyChain.sol\":8907:8910  qty */\n      dup2\n        /* \"contracts/contracts/TimberSupplyChain.sol\":8879:8883  lots */\n      0x01\n        /* \"contracts/contracts/TimberSupplyChain.sol\":8879:8890  lots[lotId] */\n      0x00\n        /* \"contracts/contracts/TimberSupplyChain.sol\":8884:8889  lotId */\n      dup6\n        /* \"contracts/contracts/TimberSupplyChain.sol\":8879:8890  lots[lotId] */\n      dup2\n      mstore\n      0x20\n      add\n      swap1\n      dup2\n      mstore\n      0x20\n      add\n      0x00\n      keccak256\n        /* \"contracts/contracts/TimberSupplyChain.sol\":8879:8903  lots[lotId].remainingQty */\n      0x05\n      add\n      0x00\n        /* \"contracts/contracts/TimberSupplyChain.sol\":8879:8910  lots[lotId].remainingQty -= qty */\n      dup3\n      dup3\n      sload\n      tag_193\n      swap2\n      swap1\n      tag_146\n      jump\t// in\n    tag_193:\n      swap3\n      pop\n      pop\n      dup2\n      swap1\n      sstore\n      pop\n        /* \"contracts/contracts/TimberSupplyChain.sol\":8921:8934  _batchCounter */\n      0x05\n      0x00\n        /* \"contracts/contracts/TimberSupplyChain.sol\":8921:8936  _batchCounter++ */\n      dup2\n      sload\n      dup1\n      swap3\n      swap2\n      swap1\n      tag_194\n      swap1\n      tag_148\n      jump\t// in\n    tag_194:\n      swap2\n      swap1\n      pop\n      sstore\n      pop\n        /* \"contracts/contracts/TimberSupplyChain.sol\":8946:8961  uint256 batchId */\n      0x00\n        /* \"contracts/contracts/TimberSupplyChain.sol\":8964:8977  _batchCounter */\n      sload(0x05)\n        /* \"contracts/contracts/TimberSupplyChain.sol\":8946:8977  uint256 batchId = _batchCounter */\n      swap1\n      pop\n        /* \"contracts/contracts/TimberSupplyChain.sol\":9007:9235  Batch({... */\n      mload(0x40)\n      dup1\n      0xc0\n      add\n      0x40\n      mstore\n      dup1\n        /* \"contracts/contracts/TimberSupplyChain.sol\":9041:9048  batchId */\n      dup3\n        /* \"contracts/contracts/TimberSupplyChain.sol\":9007:9235  Batch({... */\n      dup2\n      mstore\n      0x20\n      add\n        /* \"contracts/contracts/TimberSupplyChain.sol\":9076:9081  lotId */\n      dup6\n        /* \"contracts/contracts/TimberSupplyChain.sol\":9007:9235  Batch({... */\n      dup2\n      mstore\n      0x20\n      add\n        /* \"contracts/contracts/TimberSupplyChain.sol\":9109:9112  qty */\n      dup5\n        /* \"contracts/contracts/TimberSupplyChain.sol\":9007:9235  Batch({... */\n      dup2\n      mstore\n      0x20\n      add\n        /* \"contracts/contracts/TimberSupplyChain.sol\":9140:9143  qty */\n      dup5\n        /* \"contracts/contracts/TimberSupplyChain.sol\":9007:9235  Batch({... */\n      dup2\n      mstore\n      0x20\n      add\n        /* \"contracts/contracts/TimberSupplyChain.sol\":9171:9181  msg.sender */\n      caller\n        /* \"contracts/contracts/TimberSupplyChain.sol\":9007:9235  Batch({... */\n      0xffffffffffffffffffffffffffffffffffffffff\n      and\n      dup2\n      mstore\n      0x20\n      add\n        /* \"contracts/contracts/TimberSupplyChain.sol\":9209:9224  block.timestamp */\n      timestamp\n        /* \"contracts/contracts/TimberSupplyChain.sol\":9007:9235  Batch({... */\n      dup2\n      mstore\n      pop\n        /* \"contracts/contracts/TimberSupplyChain.sol\":8988:8995  batches */\n      0x02\n        /* \"contracts/contracts/TimberSupplyChain.sol\":8988:9004  batches[batchId] */\n      0x00\n        /* \"contracts/contracts/TimberSupplyChain.sol\":8996:9003  batchId */\n      dup4\n        /* \"contracts/contracts/TimberSupplyChain.sol\":8988:9004  batches[batchId] */\n      dup2\n      mstore\n      0x20\n      add\n      swap1\n      dup2\n      mstore\n      0x20\n      add\n      0x00\n      keccak256\n        /* \"contracts/contracts/TimberSupplyChain.sol\":8988:9235  batches[batchId] = Batch({... */\n      0x00\n      dup3\n      add\n      mload\n      dup2\n      0x00\n      add\n      sstore\n      0x20\n      dup3\n      add\n      mload\n      dup2\n      0x01\n      add\n      sstore\n      0x40\n      dup3\n      add\n      mload\n      dup2\n      0x02\n      add\n      sstore\n      0x60\n      dup3\n      add\n      mload\n      dup2\n      0x03\n      add\n      sstore\n      0x80\n      dup3\n      add\n      mload\n      dup2\n      0x04\n      add\n      exp(0x0100, 0x00)\n      dup2\n      sload\n      dup2\n      0xffffffffffffffffffffffffffffffffffffffff\n      mul\n      not\n      and\n      swap1\n      dup4\n      0xffffffffffffffffffffffffffffffffffffffff\n      and\n      mul\n      or\n      swap1\n      sstore\n      pop\n      0xa0\n      dup3\n      add\n      mload\n      dup2\n      0x05\n      add\n      sstore\n      swap1\n      pop\n      pop\n        /* \"contracts/contracts/TimberSupplyChain.sol\":9281:9291  msg.sender */\n      caller\n        /* \"contracts/contracts/TimberSupplyChain.sol\":9251:9314  WoodPurchased(lotId, batchId, msg.sender, qty, block.timestamp) */\n      0xffffffffffffffffffffffffffffffffffffffff\n      and\n        /* \"contracts/contracts/TimberSupplyChain.sol\":9272:9279  batchId */\n      dup2\n        /* \"contracts/contracts/TimberSupplyChain.sol\":9265:9270  lotId */\n      dup6\n        /* \"contracts/contracts/TimberSupplyChain.sol\":9251:9314  WoodPurchased(lotId, batchId, msg.sender, qty, block.timestamp) */\n      0xdd883f1b39882e144d2c960b6779523c9e5555a67bcbf5c31b3a730265c5b45a\n        /* \"contracts/contracts/TimberSupplyChain.sol\":9293:9296  qty */\n      dup7\n        /* \"contracts/contracts/TimberSupplyChain.sol\":9298:9313  block.timestamp */\n      timestamp\n        /* \"contracts/contracts/TimberSupplyChain.sol\":9251:9314  WoodPurchased(lotId, batchId, msg.sender, qty, block.timestamp) */\n      mload(0x40)\n      tag_195\n      swap3\n      swap2\n      swap1\n      tag_196\n      jump\t// in\n    tag_195:\n      mload(0x40)\n      dup1\n      swap2\n      sub\n      swap1\n      log4\n        /* \"contracts/contracts/TimberSupplyChain.sol\":8666:9321  {... */\n      pop\n        /* \"contracts/contracts/TimberSupplyChain.sol\":8562:9321  function purchaseWood(... */\n      pop\n      pop\n      pop\n      jump\t// out\n        /* \"contracts/contracts/TimberSupplyChain.sol\":11743:11856  function getFurniture(uint256 id) external view returns (Furniture memory) {... */\n    tag_95:\n        /* \"contracts/contracts/TimberSupplyChain.sol\":11800:11816  Furniture memory */\n      tag_197\n      tag_198\n      jump\t// in\n    tag_197:\n        /* \"contracts/contracts/TimberSupplyChain.sol\":11835:11845  furnitures */\n      0x03\n        /* \"contracts/contracts/TimberSupplyChain.sol\":11835:11849  furnitures[id] */\n      0x00\n        /* \"contracts/contracts/TimberSupplyChain.sol\":11846:11848  id */\n      dup4\n        /* \"contracts/contracts/TimberSupplyChain.sol\":11835:11849  furnitures[id] */\n      dup2\n      mstore\n      0x20\n      add\n      swap1\n      dup2\n      mstore\n      0x20\n      add\n      0x00\n      keccak256\n        /* \"contracts/contracts/TimberSupplyChain.sol\":11828:11849  return furnitures[id] */\n      mload(0x40)\n      dup1\n      0xe0\n      add\n      0x40\n      mstore\n      swap1\n      dup2\n      0x00\n      dup3\n      add\n      sload\n      dup2\n      mstore\n      0x20\n      add\n      0x01\n      dup3\n      add\n      sload\n      dup2\n      mstore\n      0x20\n      add\n      0x02\n      dup3\n      add\n      dup1\n      sload\n      tag_200\n      swap1\n      tag_165\n      jump\t// in\n    tag_200:\n      dup1\n      0x1f\n      add\n      0x20\n      dup1\n      swap2\n      div\n      mul\n      0x20\n      add\n      mload(0x40)\n      swap1\n      dup2\n      add\n      0x40\n      mstore\n      dup1\n      swap3\n      swap2\n      swap1\n      dup2\n      dup2\n      mstore\n      0x20\n      add\n      dup3\n      dup1\n      sload\n      tag_201\n      swap1\n      tag_165\n      jump\t// in\n    tag_201:\n      dup1\n      iszero\n      tag_202\n      jumpi\n      dup1\n      0x1f\n      lt\n      tag_203\n      jumpi\n      0x0100\n      dup1\n      dup4\n      sload\n      div\n      mul\n      dup4\n      mstore\n      swap2\n      0x20\n      add\n      swap2\n      jump(tag_202)\n    tag_203:\n      dup3\n      add\n      swap2\n      swap1\n      0x00\n      mstore\n      keccak256(0x00, 0x20)\n      swap1\n    tag_204:\n      dup2\n      sload\n      dup2\n      mstore\n      swap1\n      0x01\n      add\n      swap1\n      0x20\n      add\n      dup1\n      dup4\n      gt\n      tag_204\n      jumpi\n      dup3\n      swap1\n      sub\n      0x1f\n      and\n      dup3\n      add\n      swap2\n    tag_202:\n      pop\n      pop\n      pop\n      pop\n      pop\n      dup2\n      mstore\n      0x20\n      add\n      0x03\n      dup3\n      add\n      sload\n      dup2\n      mstore\n      0x20\n      add\n      0x04\n      dup3\n      add\n      0x00\n      swap1\n      sload\n      swap1\n      0x0100\n      exp\n      swap1\n      div\n      0xffffffffffffffffffffffffffffffffffffffff\n      and\n      0xffffffffffffffffffffffffffffffffffffffff\n      and\n      0xffffffffffffffffffffffffffffffffffffffff\n      and\n      dup2\n      mstore\n      0x20\n      add\n      0x05\n      dup3\n      add\n      sload\n      dup2\n      mstore\n      0x20\n      add\n      0x06\n      dup3\n      add\n      dup1\n      sload\n      tag_205\n      swap1\n      tag_165\n      jump\t// in\n    tag_205:\n      dup1\n      0x1f\n      add\n      0x20\n      dup1\n      swap2\n      div\n      mul\n      0x20\n      add\n      mload(0x40)\n      swap1\n      dup2\n      add\n      0x40\n      mstore\n      dup1\n      swap3\n      swap2\n      swap1\n      dup2\n      dup2\n      mstore\n      0x20\n      add\n      dup3\n      dup1\n      sload\n      tag_206\n      swap1\n      tag_165\n      jump\t// in\n    tag_206:\n      dup1\n      iszero\n      tag_207\n      jumpi\n      dup1\n      0x1f\n      lt\n      tag_208\n      jumpi\n      0x0100\n      dup1\n      dup4\n      sload\n      div\n      mul\n      dup4\n      mstore\n      swap2\n      0x20\n      add\n      swap2\n      jump(tag_207)\n    tag_208:\n      dup3\n      add\n      swap2\n      swap1\n      0x00\n      mstore\n      keccak256(0x00, 0x20)\n      swap1\n    tag_209:\n      dup2\n      sload\n      dup2\n      mstore\n      swap1\n      0x01\n      add\n      swap1\n      0x20\n      add\n      dup1\n      dup4\n      gt\n      tag_209\n      jumpi\n      dup3\n      swap1\n      sub\n      0x1f\n      and\n      dup3\n      add\n      swap2\n    tag_207:\n      pop\n      pop\n      pop\n      pop\n      pop\n      dup2\n      mstore\n      pop\n      pop\n      swap1\n      pop\n        /* \"contracts/contracts/TimberSupplyChain.sol\":11743:11856  function getFurniture(uint256 id) external view returns (Furniture memory) {... */\n      swap2\n      swap1\n      pop\n      jump\t// out\n        /* \"contracts/contracts/TimberSupplyChain.sol\":7477:8261  function registerLot(... */\n    tag_101:\n        /* \"contracts/contracts/TimberSupplyChain.sol\":1437:1468  keccak256(\"AUCTION_HOUSE_ROLE\") */\n      0x89b57a644ed9fce05f6c753cf42a08c2333c48e5a3d803e17cee19087358722b\n        /* \"@openzeppelin/contracts/access/AccessControl.sol\":2464:2480  _checkRole(role) */\n      tag_211\n        /* \"@openzeppelin/contracts/access/AccessControl.sol\":2475:2479  role */\n      dup2\n        /* \"@openzeppelin/contracts/access/AccessControl.sol\":2464:2474  _checkRole */\n      tag_123\n        /* \"@openzeppelin/contracts/access/AccessControl.sol\":2464:2480  _checkRole(role) */\n      jump\t// in\n    tag_211:\n        /* \"contracts/contracts/TimberSupplyChain.sol\":7732:7733  0 */\n      0x00\n        /* \"contracts/contracts/TimberSupplyChain.sol\":7726:7729  qty */\n      dup5\n        /* \"contracts/contracts/TimberSupplyChain.sol\":7726:7733  qty > 0 */\n      gt\n        /* \"contracts/contracts/TimberSupplyChain.sol\":7718:7753  require(qty > 0, \"Qty must be > 0\") */\n      tag_213\n      jumpi\n      mload(0x40)\n      0x08c379a000000000000000000000000000000000000000000000000000000000\n      dup2\n      mstore\n      0x04\n      add\n      tag_214\n      swap1\n      tag_141\n      jump\t// in\n    tag_214:\n      mload(0x40)\n      dup1\n      swap2\n      sub\n      swap1\n      revert\n    tag_213:\n        /* \"contracts/contracts/TimberSupplyChain.sol\":7764:7775  _lotCounter */\n      0x04\n      0x00\n        /* \"contracts/contracts/TimberSupplyChain.sol\":7764:7777  _lotCounter++ */\n      dup2\n      sload\n      dup1\n      swap3\n      swap2\n      swap1\n      tag_215\n      swap1\n      tag_148\n      jump\t// in\n    tag_215:\n      swap2\n      swap1\n      pop\n      sstore\n      pop\n        /* \"contracts/contracts/TimberSupplyChain.sol\":7787:7800  uint256 lotId */\n      0x00\n        /* \"contracts/contracts/TimberSupplyChain.sol\":7803:7814  _lotCounter */\n      sload(0x04)\n        /* \"contracts/contracts/TimberSupplyChain.sol\":7787:7814  uint256 lotId = _lotCounter */\n      swap1\n      pop\n        /* \"contracts/contracts/TimberSupplyChain.sol\":7839:8184  Lot({... */\n      mload(0x40)\n      dup1\n      0x0120\n      add\n      0x40\n      mstore\n      dup1\n        /* \"contracts/contracts/TimberSupplyChain.sol\":7872:7877  lotId */\n      dup3\n        /* \"contracts/contracts/TimberSupplyChain.sol\":7839:8184  Lot({... */\n      dup2\n      mstore\n      0x20\n      add\n        /* \"contracts/contracts/TimberSupplyChain.sol\":7906:7913  species */\n      dup13\n      dup13\n        /* \"contracts/contracts/TimberSupplyChain.sol\":7839:8184  Lot({... */\n      dup1\n      dup1\n      0x1f\n      add\n      0x20\n      dup1\n      swap2\n      div\n      mul\n      0x20\n      add\n      mload(0x40)\n      swap1\n      dup2\n      add\n      0x40\n      mstore\n      dup1\n      swap4\n      swap3\n      swap2\n      swap1\n      dup2\n      dup2\n      mstore\n      0x20\n      add\n      dup4\n      dup4\n      dup1\n      dup3\n      dup5\n      calldatacopy\n      0x00\n      dup2\n      dup5\n      add\n      mstore\n      not(0x1f)\n      0x1f\n      dup3\n      add\n      and\n      swap1\n      pop\n      dup1\n      dup4\n      add\n      swap3\n      pop\n      pop\n      pop\n      pop\n      pop\n      pop\n      pop\n      dup2\n      mstore\n      0x20\n      add\n        /* \"contracts/contracts/TimberSupplyChain.sol\":7942:7955  originCoupeId */\n      dup11\n      dup11\n        /* \"contracts/contracts/TimberSupplyChain.sol\":7839:8184  Lot({... */\n      dup1\n      dup1\n      0x1f\n      add\n      0x20\n      dup1\n      swap2\n      div\n      mul\n      0x20\n      add\n      mload(0x40)\n      swap1\n      dup2\n      add\n      0x40\n      mstore\n      dup1\n      swap4\n      swap3\n      swap2\n      swap1\n      dup2\n      dup2\n      mstore\n      0x20\n      add\n      dup4\n      dup4\n      dup1\n      dup3\n      dup5\n      calldatacopy\n      0x00\n      dup2\n      dup5\n      add\n      mstore\n      not(0x1f)\n      0x1f\n      dup3\n      add\n      and\n      swap1\n      pop\n      dup1\n      dup4\n      add\n      swap3\n      pop\n      pop\n      pop\n      pop\n      pop\n      pop\n      pop\n      dup2\n      mstore\n      0x20\n      add\n        /* \"contracts/contracts/TimberSupplyChain.sol\":7984:7989  grade */\n      dup9\n      dup9\n        /* \"contracts/contracts/TimberSupplyChain.sol\":7839:8184  Lot({... */\n      dup1\n      dup1\n      0x1f\n      add\n      0x20\n      dup1\n      swap2\n      div\n      mul\n      0x20\n      add\n      mload(0x40)\n      swap1\n      dup2\n      add\n      0x40\n      mstore\n      dup1\n      swap4\n      swap3\n      swap2\n      swap1\n      dup2\n      dup2\n      mstore\n      0x20\n      add\n      dup4\n      dup4\n      dup1\n      dup3\n      dup5\n      calldatacopy\n      0x00\n      dup2\n      dup5\n      add\n      mstore\n      not(0x1f)\n      0x1f\n      dup3\n      add\n      and\n      swap1\n      pop\n      dup1\n      dup4\n      add\n      swap3\n      pop\n      pop\n      pop\n      pop\n      pop\n      pop\n      pop\n      dup2\n      mstore\n      0x20\n      add\n        /* \"contracts/contracts/TimberSupplyChain.sol\":8018:8021  qty */\n      dup7\n        /* \"contracts/contracts/TimberSupplyChain.sol\":7839:8184  Lot({... */\n      dup2\n      mstore\n      0x20\n      add\n        /* \"contracts/contracts/TimberSupplyChain.sol\":8050:8053  qty */\n      dup7\n        /* \"contracts/contracts/TimberSupplyChain.sol\":7839:8184  Lot({... */\n      dup2\n      mstore\n      0x20\n      add\n        /* \"contracts/contracts/TimberSupplyChain.sol\":8082:8092  msg.sender */\n      caller\n        /* \"contracts/contracts/TimberSupplyChain.sol\":7839:8184  Lot({... */\n      0xffffffffffffffffffffffffffffffffffffffff\n      and\n      dup2\n      mstore\n      0x20\n      add\n        /* \"contracts/contracts/TimberSupplyChain.sol\":8121:8136  block.timestamp */\n      timestamp\n        /* \"contracts/contracts/TimberSupplyChain.sol\":7839:8184  Lot({... */\n      dup2\n      mstore\n      0x20\n      add\n        /* \"contracts/contracts/TimberSupplyChain.sol\":8165:8173  ipfsHash */\n      dup6\n      dup6\n        /* \"contracts/contracts/TimberSupplyChain.sol\":7839:8184  Lot({... */\n      dup1\n      dup1\n      0x1f\n      add\n      0x20\n      dup1\n      swap2\n      div\n      mul\n      0x20\n      add\n      mload(0x40)\n      swap1\n      dup2\n      add\n      0x40\n      mstore\n      dup1\n      swap4\n      swap3\n      swap2\n      swap1\n      dup2\n      dup2\n      mstore\n      0x20\n      add\n      dup4\n      dup4\n      dup1\n      dup3\n      dup5\n      calldatacopy\n      0x00\n      dup2\n      dup5\n      add\n      mstore\n      not(0x1f)\n      0x1f\n      dup3\n      add\n      and\n      swap1\n      pop\n      dup1\n      dup4\n      add\n      swap3\n      pop\n      pop\n      pop\n      pop\n      pop\n      pop\n      pop\n      dup2\n      mstore\n      pop\n        /* \"contracts/contracts/TimberSupplyChain.sol\":7825:7829  lots */\n      0x01\n        /* \"contracts/contracts/TimberSupplyChain.sol\":7825:7836  lots[lotId] */\n      0x00\n        /* \"contracts/contracts/TimberSupplyChain.sol\":7830:7835  lotId */\n      dup4\n        /* \"contracts/contracts/TimberSupplyChain.sol\":7825:7836  lots[lotId] */\n      dup2\n      mstore\n      0x20\n      add\n      swap1\n      dup2\n      mstore\n      0x20\n      add\n      0x00\n      keccak256\n        /* \"contracts/contracts/TimberSupplyChain.sol\":7825:8184  lots[lotId] = Lot({... */\n      0x00\n      dup3\n      add\n      mload\n      dup2\n      0x00\n      add\n      sstore\n      0x20\n      dup3\n      add\n      mload\n      dup2\n      0x01\n      add\n      swap1\n      dup2\n      tag_216\n      swap2\n      swap1\n      tag_150\n      jump\t// in\n    tag_216:\n      pop\n      0x40\n      dup3\n      add\n      mload\n      dup2\n      0x02\n      add\n      swap1\n      dup2\n      tag_217\n      swap2\n      swap1\n      tag_150\n      jump\t// in\n    tag_217:\n      pop\n      0x60\n      dup3\n      add\n      mload\n      dup2\n      0x03\n      add\n      swap1\n      dup2\n      tag_218\n      swap2\n      swap1\n      tag_150\n      jump\t// in\n    tag_218:\n      pop\n      0x80\n      dup3\n      add\n      mload\n      dup2\n      0x04\n      add\n      sstore\n      0xa0\n      dup3\n      add\n      mload\n      dup2\n      0x05\n      add\n      sstore\n      0xc0\n      dup3\n      add\n      mload\n      dup2\n      0x06\n      add\n      exp(0x0100, 0x00)\n      dup2\n      sload\n      dup2\n      0xffffffffffffffffffffffffffffffffffffffff\n      mul\n      not\n      and\n      swap1\n      dup4\n      0xffffffffffffffffffffffffffffffffffffffff\n      and\n      mul\n      or\n      swap1\n      sstore\n      pop\n      0xe0\n      dup3\n      add\n      mload\n      dup2\n      0x07\n      add\n      sstore\n      0x0100\n      dup3\n      add\n      mload\n      dup2\n      0x08\n      add\n      swap1\n      dup2\n      tag_219\n      swap2\n      swap1\n      tag_150\n      jump\t// in\n    tag_219:\n      pop\n      swap1\n      pop\n      pop\n        /* \"contracts/contracts/TimberSupplyChain.sol\":8221:8231  msg.sender */\n      caller\n        /* \"contracts/contracts/TimberSupplyChain.sol\":8200:8254  LotRegistered(lotId, msg.sender, qty, block.timestamp) */\n      0xffffffffffffffffffffffffffffffffffffffff\n      and\n        /* \"contracts/contracts/TimberSupplyChain.sol\":8214:8219  lotId */\n      dup2\n        /* \"contracts/contracts/TimberSupplyChain.sol\":8200:8254  LotRegistered(lotId, msg.sender, qty, block.timestamp) */\n      0x928caa7ea3efdd90b93805682cbcf274c50b43d0a76fb9e813bab59d9aca9bfd\n        /* \"contracts/contracts/TimberSupplyChain.sol\":8233:8236  qty */\n      dup8\n        /* \"contracts/contracts/TimberSupplyChain.sol\":8238:8253  block.timestamp */\n      timestamp\n        /* \"contracts/contracts/TimberSupplyChain.sol\":8200:8254  LotRegistered(lotId, msg.sender, qty, block.timestamp) */\n      mload(0x40)\n      tag_220\n      swap3\n      swap2\n      swap1\n      tag_196\n      jump\t// in\n    tag_220:\n      mload(0x40)\n      dup1\n      swap2\n      sub\n      swap1\n      log3\n        /* \"contracts/contracts/TimberSupplyChain.sol\":7708:8261  {... */\n      pop\n        /* \"contracts/contracts/TimberSupplyChain.sol\":7477:8261  function registerLot(... */\n      pop\n      pop\n      pop\n      pop\n      pop\n      pop\n      pop\n      pop\n      pop\n      pop\n      jump\t// out\n        /* \"@openzeppelin/contracts/access/AccessControl.sol\":4608:4746  function revokeRole(bytes32 role, address account) public virtual onlyRole(getRoleAdmin(role)) {... */\n    tag_104:\n        /* \"@openzeppelin/contracts/access/AccessControl.sol\":4683:4701  getRoleAdmin(role) */\n      tag_221\n        /* \"@openzeppelin/contracts/access/AccessControl.sol\":4696:4700  role */\n      dup3\n        /* \"@openzeppelin/contracts/access/AccessControl.sol\":4683:4695  getRoleAdmin */\n      tag_43\n        /* \"@openzeppelin/contracts/access/AccessControl.sol\":4683:4701  getRoleAdmin(role) */\n      jump\t// in\n    tag_221:\n        /* \"@openzeppelin/contracts/access/AccessControl.sol\":2464:2480  _checkRole(role) */\n      tag_223\n        /* \"@openzeppelin/contracts/access/AccessControl.sol\":2475:2479  role */\n      dup2\n        /* \"@openzeppelin/contracts/access/AccessControl.sol\":2464:2474  _checkRole */\n      tag_123\n        /* \"@openzeppelin/contracts/access/AccessControl.sol\":2464:2480  _checkRole(role) */\n      jump\t// in\n    tag_223:\n        /* \"@openzeppelin/contracts/access/AccessControl.sol\":4713:4739  _revokeRole(role, account) */\n      tag_225\n        /* \"@openzeppelin/contracts/access/AccessControl.sol\":4725:4729  role */\n      dup4\n        /* \"@openzeppelin/contracts/access/AccessControl.sol\":4731:4738  account */\n      dup4\n        /* \"@openzeppelin/contracts/access/AccessControl.sol\":4713:4724  _revokeRole */\n      tag_132\n        /* \"@openzeppelin/contracts/access/AccessControl.sol\":4713:4739  _revokeRole(role, account) */\n      jump\t// in\n    tag_225:\n      pop\n        /* \"@openzeppelin/contracts/access/AccessControl.sol\":4608:4746  function revokeRole(bytes32 role, address account) public virtual onlyRole(getRoleAdmin(role)) {... */\n      pop\n      pop\n      pop\n      jump\t// out\n        /* \"contracts/contracts/TimberSupplyChain.sol\":4351:4392  mapping(uint256 => Lot)       public lots */\n    tag_107:\n      mstore(0x20, 0x01)\n      dup1\n      0x00\n      mstore\n      keccak256(0x00, 0x40)\n      0x00\n      swap2\n      pop\n      swap1\n      pop\n      dup1\n      0x00\n      add\n      sload\n      swap1\n      dup1\n      0x01\n      add\n      dup1\n      sload\n      tag_226\n      swap1\n      tag_165\n      jump\t// in\n    tag_226:\n      dup1\n      0x1f\n      add\n      0x20\n      dup1\n      swap2\n      div\n      mul\n      0x20\n      add\n      mload(0x40)\n      swap1\n      dup2\n      add\n      0x40\n      mstore\n      dup1\n      swap3\n      swap2\n      swap1\n      dup2\n      dup2\n      mstore\n      0x20\n      add\n      dup3\n      dup1\n      sload\n      tag_227\n      swap1\n      tag_165\n      jump\t// in\n    tag_227:\n      dup1\n      iszero\n      tag_228\n      jumpi\n      dup1\n      0x1f\n      lt\n      tag_229\n      jumpi\n      0x0100\n      dup1\n      dup4\n      sload\n      div\n      mul\n      dup4\n      mstore\n      swap2\n      0x20\n      add\n      swap2\n      jump(tag_228)\n    tag_229:\n      dup3\n      add\n      swap2\n      swap1\n      0x00\n      mstore\n      keccak256(0x00, 0x20)\n      swap1\n    tag_230:\n      dup2\n      sload\n      dup2\n      mstore\n      swap1\n      0x01\n      add\n      swap1\n      0x20\n      add\n      dup1\n      dup4\n      gt\n      tag_230\n      jumpi\n      dup3\n      swap1\n      sub\n      0x1f\n      and\n      dup3\n      add\n      swap2\n    tag_228:\n      pop\n      pop\n      pop\n      pop\n      pop\n      swap1\n      dup1\n      0x02\n      add\n      dup1\n      sload\n      tag_231\n      swap1\n      tag_165\n      jump\t// in\n    tag_231:\n      dup1\n      0x1f\n      add\n      0x20\n      dup1\n      swap2\n      div\n      mul\n      0x20\n      add\n      mload(0x40)\n      swap1\n      dup2\n      add\n      0x40\n      mstore\n      dup1\n      swap3\n      swap2\n      swap1\n      dup2\n      dup2\n      mstore\n      0x20\n      add\n      dup3\n      dup1\n      sload\n      tag_232\n      swap1\n      tag_165\n      jump\t// in\n    tag_232:\n      dup1\n      iszero\n      tag_233\n      jumpi\n      dup1\n      0x1f\n      lt\n      tag_234\n      jumpi\n      0x0100\n      dup1\n      dup4\n      sload\n      div\n      mul\n      dup4\n      mstore\n      swap2\n      0x20\n      add\n      swap2\n      jump(tag_233)\n    tag_234:\n      dup3\n      add\n      swap2\n      swap1\n      0x00\n      mstore\n      keccak256(0x00, 0x20)\n      swap1\n    tag_235:\n      dup2\n      sload\n      dup2\n      mstore\n      swap1\n      0x01\n      add\n      swap1\n      0x20\n      add\n      dup1\n      dup4\n      gt\n      tag_235\n      jumpi\n      dup3\n      swap1\n      sub\n      0x1f\n      and\n      dup3\n      add\n      swap2\n    tag_233:\n      pop\n      pop\n      pop\n      pop\n      pop\n      swap1\n      dup1\n      0x03\n      add\n      dup1\n      sload\n      tag_236\n      swap1\n      tag_165\n      jump\t// in\n    tag_236:\n      dup1\n      0x1f\n      add\n      0x20\n      dup1\n      swap2\n      div\n      mul\n      0x20\n      add\n      mload(0x40)\n      swap1\n      dup2\n      add\n      0x40\n      mstore\n      dup1\n      swap3\n      swap2\n      swap1\n      dup2\n      dup2\n      mstore\n      0x20\n      add\n      dup3\n      dup1\n      sload\n      tag_237\n      swap1\n      tag_165\n      jump\t// in\n    tag_237:\n      dup1\n      iszero\n      tag_238\n      jumpi\n      dup1\n      0x1f\n      lt\n      tag_239\n      jumpi\n      0x0100\n      dup1\n      dup4\n      sload\n      div\n      mul\n      dup4\n      mstore\n      swap2\n      0x20\n      add\n      swap2\n      jump(tag_238)\n    tag_239:\n      dup3\n      add\n      swap2\n      swap1\n      0x00\n      mstore\n      keccak256(0x00, 0x20)\n      swap1\n    tag_240:\n      dup2\n      sload\n      dup2\n      mstore\n      swap1\n      0x01\n      add\n      swap1\n      0x20\n      add\n      dup1\n      dup4\n      gt\n      tag_240\n      jumpi\n      dup3\n      swap1\n      sub\n      0x1f\n      and\n      dup3\n      add\n      swap2\n    tag_238:\n      pop\n      pop\n      pop\n      pop\n      pop\n      swap1\n      dup1\n      0x04\n      add\n      sload\n      swap1\n      dup1\n      0x05\n      add\n      sload\n      swap1\n      dup1\n      0x06\n      add\n      0x00\n      swap1\n      sload\n      swap1\n      0x0100\n      exp\n      swap1\n      div\n      0xffffffffffffffffffffffffffffffffffffffff\n      and\n      swap1\n      dup1\n      0x07\n      add\n      sload\n      swap1\n      dup1\n      0x08\n      add\n      dup1\n      sload\n      tag_241\n      swap1\n      tag_165\n      jump\t// in\n    tag_241:\n      dup1\n      0x1f\n      add\n      0x20\n      dup1\n      swap2\n      div\n      mul\n      0x20\n      add\n      mload(0x40)\n      swap1\n      dup2\n      add\n      0x40\n      mstore\n      dup1\n      swap3\n      swap2\n      swap1\n      dup2\n      dup2\n      mstore\n      0x20\n      add\n      dup3\n      dup1\n      sload\n      tag_242\n      swap1\n      tag_165\n      jump\t// in\n    tag_242:\n      dup1\n      iszero\n      tag_243\n      jumpi\n      dup1\n      0x1f\n      lt\n      tag_244\n      jumpi\n      0x0100\n      dup1\n      dup4\n      sload\n      div\n      mul\n      dup4\n      mstore\n      swap2\n      0x20\n      add\n      swap2\n      jump(tag_243)\n    tag_244:\n      dup3\n      add\n      swap2\n      swap1\n      0x00\n      mstore\n      keccak256(0x00, 0x20)\n      swap1\n    tag_245:\n      dup2\n      sload\n      dup2\n      mstore\n      swap1\n      0x01\n      add\n      swap1\n      0x20\n      add\n      dup1\n      dup4\n      gt\n      tag_245\n      jumpi\n      dup3\n      swap1\n      sub\n      0x1f\n      and\n      dup3\n      add\n      swap2\n    tag_243:\n      pop\n      pop\n      pop\n      pop\n      pop\n      swap1\n      pop\n      dup10\n      jump\t// out\n        /* \"contracts/contracts/TimberSupplyChain.sol\":4448:4495  mapping(uint256 => Furniture) public furnitures */\n    tag_112:\n      mstore(0x20, 0x03)\n      dup1\n      0x00\n      mstore\n      keccak256(0x00, 0x40)\n      0x00\n      swap2\n      pop\n      swap1\n      pop\n      dup1\n      0x00\n      add\n      sload\n      swap1\n      dup1\n      0x01\n      add\n      sload\n      swap1\n      dup1\n      0x02\n      add\n      dup1\n      sload\n      tag_246\n      swap1\n      tag_165\n      jump\t// in\n    tag_246:\n      dup1\n      0x1f\n      add\n      0x20\n      dup1\n      swap2\n      div\n      mul\n      0x20\n      add\n      mload(0x40)\n      swap1\n      dup2\n      add\n      0x40\n      mstore\n      dup1\n      swap3\n      swap2\n      swap1\n      dup2\n      dup2\n      mstore\n      0x20\n      add\n      dup3\n      dup1\n      sload\n      tag_247\n      swap1\n      tag_165\n      jump\t// in\n    tag_247:\n      dup1\n      iszero\n      tag_248\n      jumpi\n      dup1\n      0x1f\n      lt\n      tag_249\n      jumpi\n      0x0100\n      dup1\n      dup4\n      sload\n      div\n      mul\n      dup4\n      mstore\n      swap2\n      0x20\n      add\n      swap2\n      jump(tag_248)\n    tag_249:\n      dup3\n      add\n      swap2\n      swap1\n      0x00\n      mstore\n      keccak256(0x00, 0x20)\n      swap1\n    tag_250:\n      dup2\n      sload\n      dup2\n      mstore\n      swap1\n      0x01\n      add\n      swap1\n      0x20\n      add\n      dup1\n      dup4\n      gt\n      tag_250\n      jumpi\n      dup3\n      swap1\n      sub\n      0x1f\n      and\n      dup3\n      add\n      swap2\n    tag_248:\n      pop\n      pop\n      pop\n      pop\n      pop\n      swap1\n      dup1\n      0x03\n      add\n      sload\n      swap1\n      dup1\n      0x04\n      add\n      0x00\n      swap1\n      sload\n      swap1\n      0x0100\n      exp\n      swap1\n      div\n      0xffffffffffffffffffffffffffffffffffffffff\n      and\n      swap1\n      dup1\n      0x05\n      add\n      sload\n      swap1\n      dup1\n      0x06\n      add\n      dup1\n      sload\n      tag_251\n      swap1\n      tag_165\n      jump\t// in\n    tag_251:\n      dup1\n      0x1f\n      add\n      0x20\n      dup1\n      swap2\n      div\n      mul\n      0x20\n      add\n      mload(0x40)\n      swap1\n      dup2\n      add\n      0x40\n      mstore\n      dup1\n      swap3\n      swap2\n      swap1\n      dup2\n      dup2\n      mstore\n      0x20\n      add\n      dup3\n      dup1\n      sload\n      tag_252\n      swap1\n      tag_165\n      jump\t// in\n    tag_252:\n      dup1\n      iszero\n      tag_253\n      jumpi\n      dup1\n      0x1f\n      lt\n      tag_254\n      jumpi\n      0x0100\n      dup1\n      dup4\n      sload\n      div\n      mul\n      dup4\n      mstore\n      swap2\n      0x20\n      add\n      swap2\n      jump(tag_253)\n    tag_254:\n      dup3\n      add\n      swap2\n      swap1\n      0x00\n      mstore\n      keccak256(0x00, 0x20)\n      swap1\n    tag_255:\n      dup2\n      sload\n      dup2\n      mstore\n      swap1\n      0x01\n      add\n      swap1\n      0x20\n      add\n      dup1\n      dup4\n      gt\n      tag_255\n      jumpi\n      dup3\n      swap1\n      sub\n      0x1f\n      and\n      dup3\n      add\n      swap2\n    tag_253:\n      pop\n      pop\n      pop\n      pop\n      pop\n      swap1\n      pop\n      dup8\n      jump\t// out\n        /* \"@openzeppelin/contracts/utils/introspection/ERC165.sol\":730:876  function supportsInterface(bytes4 interfaceId) public view virtual returns (bool) {... */\n    tag_118:\n        /* \"@openzeppelin/contracts/utils/introspection/ERC165.sol\":806:810  bool */\n      0x00\n        /* \"@openzeppelin/contracts/utils/introspection/ERC165.sol\":844:869  type(IERC165).interfaceId */\n      0x01ffc9a700000000000000000000000000000000000000000000000000000000\n        /* \"@openzeppelin/contracts/utils/introspection/ERC165.sol\":829:869  interfaceId == type(IERC165).interfaceId */\n      not(0xffffffffffffffffffffffffffffffffffffffffffffffffffffffff)\n      and\n        /* \"@openzeppelin/contracts/utils/introspection/ERC165.sol\":829:840  interfaceId */\n      dup3\n        /* \"@openzeppelin/contracts/utils/introspection/ERC165.sol\":829:869  interfaceId == type(IERC165).interfaceId */\n      not(0xffffffffffffffffffffffffffffffffffffffffffffffffffffffff)\n      and\n      eq\n        /* \"@openzeppelin/contracts/utils/introspection/ERC165.sol\":822:869  return interfaceId == type(IERC165).interfaceId */\n      swap1\n      pop\n        /* \"@openzeppelin/contracts/utils/introspection/ERC165.sol\":730:876  function supportsInterface(bytes4 interfaceId) public view virtual returns (bool) {... */\n      swap2\n      swap1\n      pop\n      jump\t// out\n        /* \"@openzeppelin/contracts/access/AccessControl.sol\":3165:3268  function _checkRole(bytes32 role) internal view virtual {... */\n    tag_123:\n        /* \"@openzeppelin/contracts/access/AccessControl.sol\":3231:3261  _checkRole(role, _msgSender()) */\n      tag_258\n        /* \"@openzeppelin/contracts/access/AccessControl.sol\":3242:3246  role */\n      dup2\n        /* \"@openzeppelin/contracts/access/AccessControl.sol\":3248:3260  _msgSender() */\n      tag_259\n        /* \"@openzeppelin/contracts/access/AccessControl.sol\":3248:3258  _msgSender */\n      tag_129\n        /* \"@openzeppelin/contracts/access/AccessControl.sol\":3248:3260  _msgSender() */\n      jump\t// in\n    tag_259:\n        /* \"@openzeppelin/contracts/access/AccessControl.sol\":3231:3241  _checkRole */\n      tag_260\n        /* \"@openzeppelin/contracts/access/AccessControl.sol\":3231:3261  _checkRole(role, _msgSender()) */\n      jump\t// in\n    tag_258:\n        /* \"@openzeppelin/contracts/access/AccessControl.sol\":3165:3268  function _checkRole(bytes32 role) internal view virtual {... */\n      pop\n      jump\t// out\n        /* \"@openzeppelin/contracts/access/AccessControl.sol\":6145:6461  function _grantRole(bytes32 role, address account) internal virtual returns (bool) {... */\n    tag_126:\n        /* \"@openzeppelin/contracts/access/AccessControl.sol\":6222:6226  bool */\n      0x00\n        /* \"@openzeppelin/contracts/access/AccessControl.sol\":6243:6265  hasRole(role, account) */\n      tag_262\n        /* \"@openzeppelin/contracts/access/AccessControl.sol\":6251:6255  role */\n      dup4\n        /* \"@openzeppelin/contracts/access/AccessControl.sol\":6257:6264  account */\n      dup4\n        /* \"@openzeppelin/contracts/access/AccessControl.sol\":6243:6250  hasRole */\n      tag_68\n        /* \"@openzeppelin/contracts/access/AccessControl.sol\":6243:6265  hasRole(role, account) */\n      jump\t// in\n    tag_262:\n        /* \"@openzeppelin/contracts/access/AccessControl.sol\":6238:6455  if (!hasRole(role, account)) {... */\n      tag_263\n      jumpi\n        /* \"@openzeppelin/contracts/access/AccessControl.sol\":6313:6317  true */\n      0x01\n        /* \"@openzeppelin/contracts/access/AccessControl.sol\":6281:6287  _roles */\n      0x00\n        /* \"@openzeppelin/contracts/access/AccessControl.sol\":6281:6293  _roles[role] */\n      0x00\n        /* \"@openzeppelin/contracts/access/AccessControl.sol\":6288:6292  role */\n      dup6\n        /* \"@openzeppelin/contracts/access/AccessControl.sol\":6281:6293  _roles[role] */\n      dup2\n      mstore\n      0x20\n      add\n      swap1\n      dup2\n      mstore\n      0x20\n      add\n      0x00\n      keccak256\n        /* \"@openzeppelin/contracts/access/AccessControl.sol\":6281:6301  _roles[role].hasRole */\n      0x00\n      add\n        /* \"@openzeppelin/contracts/access/AccessControl.sol\":6281:6310  _roles[role].hasRole[account] */\n      0x00\n        /* \"@openzeppelin/contracts/access/AccessControl.sol\":6302:6309  account */\n      dup5\n        /* \"@openzeppelin/contracts/access/AccessControl.sol\":6281:6310  _roles[role].hasRole[account] */\n      0xffffffffffffffffffffffffffffffffffffffff\n      and\n      0xffffffffffffffffffffffffffffffffffffffff\n      and\n      dup2\n      mstore\n      0x20\n      add\n      swap1\n      dup2\n      mstore\n      0x20\n      add\n      0x00\n      keccak256\n      0x00\n        /* \"@openzeppelin/contracts/access/AccessControl.sol\":6281:6317  _roles[role].hasRole[account] = true */\n      0x0100\n      exp\n      dup2\n      sload\n      dup2\n      0xff\n      mul\n      not\n      and\n      swap1\n      dup4\n      iszero\n      iszero\n      mul\n      or\n      swap1\n      sstore\n      pop\n        /* \"@openzeppelin/contracts/access/AccessControl.sol\":6363:6375  _msgSender() */\n      tag_264\n        /* \"@openzeppelin/contracts/access/AccessControl.sol\":6363:6373  _msgSender */\n      tag_129\n        /* \"@openzeppelin/contracts/access/AccessControl.sol\":6363:6375  _msgSender() */\n      jump\t// in\n    tag_264:\n        /* \"@openzeppelin/contracts/access/AccessControl.sol\":6336:6376  RoleGranted(role, account, _msgSender()) */\n      0xffffffffffffffffffffffffffffffffffffffff\n      and\n        /* \"@openzeppelin/contracts/access/AccessControl.sol\":6354:6361  account */\n      dup3\n        /* \"@openzeppelin/contracts/access/AccessControl.sol\":6336:6376  RoleGranted(role, account, _msgSender()) */\n      0xffffffffffffffffffffffffffffffffffffffff\n      and\n        /* \"@openzeppelin/contracts/access/AccessControl.sol\":6348:6352  role */\n      dup5\n        /* \"@openzeppelin/contracts/access/AccessControl.sol\":6336:6376  RoleGranted(role, account, _msgSender()) */\n      0x2f8788117e7eff1d82e926ec794901d17c78024a50270940304540a733656f0d\n      mload(0x40)\n      mload(0x40)\n      dup1\n      swap2\n      sub\n      swap1\n      log4\n        /* \"@openzeppelin/contracts/access/AccessControl.sol\":6397:6401  true */\n      0x01\n        /* \"@openzeppelin/contracts/access/AccessControl.sol\":6390:6401  return true */\n      swap1\n      pop\n      jump(tag_261)\n        /* \"@openzeppelin/contracts/access/AccessControl.sol\":6238:6455  if (!hasRole(role, account)) {... */\n    tag_263:\n        /* \"@openzeppelin/contracts/access/AccessControl.sol\":6439:6444  false */\n      0x00\n        /* \"@openzeppelin/contracts/access/AccessControl.sol\":6432:6444  return false */\n      swap1\n      pop\n        /* \"@openzeppelin/contracts/access/AccessControl.sol\":6145:6461  function _grantRole(bytes32 role, address account) internal virtual returns (bool) {... */\n    tag_261:\n      swap3\n      swap2\n      pop\n      pop\n      jump\t// out\n        /* \"@openzeppelin/contracts/utils/Context.sol\":656:752  function _msgSender() internal view virtual returns (address) {... */\n    tag_129:\n        /* \"@openzeppelin/contracts/utils/Context.sol\":709:716  address */\n      0x00\n        /* \"@openzeppelin/contracts/utils/Context.sol\":735:745  msg.sender */\n      caller\n        /* \"@openzeppelin/contracts/utils/Context.sol\":728:745  return msg.sender */\n      swap1\n      pop\n        /* \"@openzeppelin/contracts/utils/Context.sol\":656:752  function _msgSender() internal view virtual returns (address) {... */\n      swap1\n      jump\t// out\n        /* \"@openzeppelin/contracts/access/AccessControl.sol\":6698:7015  function _revokeRole(bytes32 role, address account) internal virtual returns (bool) {... */\n    tag_132:\n        /* \"@openzeppelin/contracts/access/AccessControl.sol\":6776:6780  bool */\n      0x00\n        /* \"@openzeppelin/contracts/access/AccessControl.sol\":6796:6818  hasRole(role, account) */\n      tag_268\n        /* \"@openzeppelin/contracts/access/AccessControl.sol\":6804:6808  role */\n      dup4\n        /* \"@openzeppelin/contracts/access/AccessControl.sol\":6810:6817  account */\n      dup4\n        /* \"@openzeppelin/contracts/access/AccessControl.sol\":6796:6803  hasRole */\n      tag_68\n        /* \"@openzeppelin/contracts/access/AccessControl.sol\":6796:6818  hasRole(role, account) */\n      jump\t// in\n    tag_268:\n        /* \"@openzeppelin/contracts/access/AccessControl.sol\":6792:7009  if (hasRole(role, account)) {... */\n      iszero\n      tag_269\n      jumpi\n        /* \"@openzeppelin/contracts/access/AccessControl.sol\":6866:6871  false */\n      0x00\n        /* \"@openzeppelin/contracts/access/AccessControl.sol\":6834:6840  _roles */\n      0x00\n        /* \"@openzeppelin/contracts/access/AccessControl.sol\":6834:6846  _roles[role] */\n      0x00\n        /* \"@openzeppelin/contracts/access/AccessControl.sol\":6841:6845  role */\n      dup6\n        /* \"@openzeppelin/contracts/access/AccessControl.sol\":6834:6846  _roles[role] */\n      dup2\n      mstore\n      0x20\n      add\n      swap1\n      dup2\n      mstore\n      0x20\n      add\n      0x00\n      keccak256\n        /* \"@openzeppelin/contracts/access/AccessControl.sol\":6834:6854  _roles[role].hasRole */\n      0x00\n      add\n        /* \"@openzeppelin/contracts/access/AccessControl.sol\":6834:6863  _roles[role].hasRole[account] */\n      0x00\n        /* \"@openzeppelin/contracts/access/AccessControl.sol\":6855:6862  account */\n      dup5\n        /* \"@openzeppelin/contracts/access/AccessControl.sol\":6834:6863  _roles[role].hasRole[account] */\n      0xffffffffffffffffffffffffffffffffffffffff\n      and\n      0xffffffffffffffffffffffffffffffffffffffff\n      and\n      dup2\n      mstore\n      0x20\n      add\n      swap1\n      dup2\n      mstore\n      0x20\n      add\n      0x00\n      keccak256\n      0x00\n        /* \"@openzeppelin/contracts/access/AccessControl.sol\":6834:6871  _roles[role].hasRole[account] = false */\n      0x0100\n      exp\n      dup2\n      sload\n      dup2\n      0xff\n      mul\n      not\n      and\n      swap1\n      dup4\n      iszero\n      iszero\n      mul\n      or\n      swap1\n      sstore\n      pop\n        /* \"@openzeppelin/contracts/access/AccessControl.sol\":6917:6929  _msgSender() */\n      tag_270\n        /* \"@openzeppelin/contracts/access/AccessControl.sol\":6917:6927  _msgSender */\n      tag_129\n        /* \"@openzeppelin/contracts/access/AccessControl.sol\":6917:6929  _msgSender() */\n      jump\t// in\n    tag_270:\n        /* \"@openzeppelin/contracts/access/AccessControl.sol\":6890:6930  RoleRevoked(role, account, _msgSender()) */\n      0xffffffffffffffffffffffffffffffffffffffff\n      and\n        /* \"@openzeppelin/contracts/access/AccessControl.sol\":6908:6915  account */\n      dup3\n        /* \"@openzeppelin/contracts/access/AccessControl.sol\":6890:6930  RoleRevoked(role, account, _msgSender()) */\n      0xffffffffffffffffffffffffffffffffffffffff\n      and\n        /* \"@openzeppelin/contracts/access/AccessControl.sol\":6902:6906  role */\n      dup5\n        /* \"@openzeppelin/contracts/access/AccessControl.sol\":6890:6930  RoleRevoked(role, account, _msgSender()) */\n      0xf6391f5c32d9c69d2a47ea670b442974b53935d1edc7fd64eb21e047a839171b\n      mload(0x40)\n      mload(0x40)\n      dup1\n      swap2\n      sub\n      swap1\n      log4\n        /* \"@openzeppelin/contracts/access/AccessControl.sol\":6951:6955  true */\n      0x01\n        /* \"@openzeppelin/contracts/access/AccessControl.sol\":6944:6955  return true */\n      swap1\n      pop\n      jump(tag_267)\n        /* \"@openzeppelin/contracts/access/AccessControl.sol\":6792:7009  if (hasRole(role, account)) {... */\n    tag_269:\n        /* \"@openzeppelin/contracts/access/AccessControl.sol\":6993:6998  false */\n      0x00\n        /* \"@openzeppelin/contracts/access/AccessControl.sol\":6986:6998  return false */\n      swap1\n      pop\n        /* \"@openzeppelin/contracts/access/AccessControl.sol\":6698:7015  function _revokeRole(bytes32 role, address account) internal virtual returns (bool) {... */\n    tag_267:\n      swap3\n      swap2\n      pop\n      pop\n      jump\t// out\n        /* \"@openzeppelin/contracts/access/AccessControl.sol\":3398:3595  function _checkRole(bytes32 role, address account) internal view virtual {... */\n    tag_260:\n        /* \"@openzeppelin/contracts/access/AccessControl.sol\":3486:3508  hasRole(role, account) */\n      tag_273\n        /* \"@openzeppelin/contracts/access/AccessControl.sol\":3494:3498  role */\n      dup3\n        /* \"@openzeppelin/contracts/access/AccessControl.sol\":3500:3507  account */\n      dup3\n        /* \"@openzeppelin/contracts/access/AccessControl.sol\":3486:3493  hasRole */\n      tag_68\n        /* \"@openzeppelin/contracts/access/AccessControl.sol\":3486:3508  hasRole(role, account) */\n      jump\t// in\n    tag_273:\n        /* \"@openzeppelin/contracts/access/AccessControl.sol\":3481:3589  if (!hasRole(role, account)) {... */\n      tag_274\n      jumpi\n        /* \"@openzeppelin/contracts/access/AccessControl.sol\":3564:3571  account */\n      dup1\n        /* \"@openzeppelin/contracts/access/AccessControl.sol\":3573:3577  role */\n      dup3\n        /* \"@openzeppelin/contracts/access/AccessControl.sol\":3531:3578  AccessControlUnauthorizedAccount(account, role) */\n      mload(0x40)\n      0xe2517d3f00000000000000000000000000000000000000000000000000000000\n      dup2\n      mstore\n      0x04\n      add\n      tag_275\n      swap3\n      swap2\n      swap1\n      tag_276\n      jump\t// in\n    tag_275:\n      mload(0x40)\n      dup1\n      swap2\n      sub\n      swap1\n      revert\n        /* \"@openzeppelin/contracts/access/AccessControl.sol\":3481:3589  if (!hasRole(role, account)) {... */\n    tag_274:\n        /* \"@openzeppelin/contracts/access/AccessControl.sol\":3398:3595  function _checkRole(bytes32 role, address account) internal view virtual {... */\n      pop\n      pop\n      jump\t// out\n    tag_155:\n      mload(0x40)\n      dup1\n      0xc0\n      add\n      0x40\n      mstore\n      dup1\n      0x00\n      dup2\n      mstore\n      0x20\n      add\n      0x00\n      dup2\n      mstore\n      0x20\n      add\n      0x00\n      dup2\n      mstore\n      0x20\n      add\n      0x00\n      dup2\n      mstore\n      0x20\n      add\n      and(0xffffffffffffffffffffffffffffffffffffffff, 0x00)\n      dup2\n      mstore\n      0x20\n      add\n      0x00\n      dup2\n      mstore\n      pop\n      swap1\n      jump\t// out\n    tag_162:\n      mload(0x40)\n      dup1\n      0x0120\n      add\n      0x40\n      mstore\n      dup1\n      0x00\n      dup2\n      mstore\n      0x20\n      add\n      0x60\n      dup2\n      mstore\n      0x20\n      add\n      0x60\n      dup2\n      mstore\n      0x20\n      add\n      0x60\n      dup2\n      mstore\n      0x20\n      add\n      0x00\n      dup2\n      mstore\n      0x20\n      add\n      0x00\n      dup2\n      mstore\n      0x20\n      add\n      and(0xffffffffffffffffffffffffffffffffffffffff, 0x00)\n      dup2\n      mstore\n      0x20\n      add\n      0x00\n      dup2\n      mstore\n      0x20\n      add\n      0x60\n      dup2\n      mstore\n      pop\n      swap1\n      jump\t// out\n    tag_198:\n      mload(0x40)\n      dup1\n      0xe0\n      add\n      0x40\n      mstore\n      dup1\n      0x00\n      dup2\n      mstore\n      0x20\n      add\n      0x00\n      dup2\n      mstore\n      0x20\n      add\n      0x60\n      dup2\n      mstore\n      0x20\n      add\n      0x00\n      dup2\n      mstore\n      0x20\n      add\n      and(0xffffffffffffffffffffffffffffffffffffffff, 0x00)\n      dup2\n      mstore\n      0x20\n      add\n      0x00\n      dup2\n      mstore\n      0x20\n      add\n      0x60\n      dup2\n      mstore\n      pop\n      swap1\n      jump\t// out\n        /* \"#utility.yul\":88:205   */\n    tag_278:\n        /* \"#utility.yul\":197:198   */\n      0x00\n        /* \"#utility.yul\":194:195   */\n      0x00\n        /* \"#utility.yul\":187:199   */\n      revert\n        /* \"#utility.yul\":211:328   */\n    tag_279:\n        /* \"#utility.yul\":320:321   */\n      0x00\n        /* \"#utility.yul\":317:318   */\n      0x00\n        /* \"#utility.yul\":310:322   */\n      revert\n        /* \"#utility.yul\":334:483   */\n    tag_280:\n        /* \"#utility.yul\":370:377   */\n      0x00\n        /* \"#utility.yul\":410:476   */\n      0xffffffff00000000000000000000000000000000000000000000000000000000\n        /* \"#utility.yul\":403:408   */\n      dup3\n        /* \"#utility.yul\":399:477   */\n      and\n        /* \"#utility.yul\":388:477   */\n      swap1\n      pop\n        /* \"#utility.yul\":334:483   */\n      swap2\n      swap1\n      pop\n      jump\t// out\n        /* \"#utility.yul\":489:609   */\n    tag_281:\n        /* \"#utility.yul\":561:584   */\n      tag_348\n        /* \"#utility.yul\":578:583   */\n      dup2\n        /* \"#utility.yul\":561:584   */\n      tag_280\n      jump\t// in\n    tag_348:\n        /* \"#utility.yul\":554:559   */\n      dup2\n        /* \"#utility.yul\":551:585   */\n      eq\n        /* \"#utility.yul\":541:603   */\n      tag_349\n      jumpi\n        /* \"#utility.yul\":599:600   */\n      0x00\n        /* \"#utility.yul\":596:597   */\n      0x00\n        /* \"#utility.yul\":589:601   */\n      revert\n        /* \"#utility.yul\":541:603   */\n    tag_349:\n        /* \"#utility.yul\":489:609   */\n      pop\n      jump\t// out\n        /* \"#utility.yul\":615:752   */\n    tag_282:\n        /* \"#utility.yul\":660:665   */\n      0x00\n        /* \"#utility.yul\":698:704   */\n      dup2\n        /* \"#utility.yul\":685:705   */\n      calldataload\n        /* \"#utility.yul\":676:705   */\n      swap1\n      pop\n        /* \"#utility.yul\":714:746   */\n      tag_351\n        /* \"#utility.yul\":740:745   */\n      dup2\n        /* \"#utility.yul\":714:746   */\n      tag_281\n      jump\t// in\n    tag_351:\n        /* \"#utility.yul\":615:752   */\n      swap3\n      swap2\n      pop\n      pop\n      jump\t// out\n        /* \"#utility.yul\":758:1085   */\n    tag_29:\n        /* \"#utility.yul\":816:822   */\n      0x00\n        /* \"#utility.yul\":865:867   */\n      0x20\n        /* \"#utility.yul\":853:862   */\n      dup3\n        /* \"#utility.yul\":844:851   */\n      dup5\n        /* \"#utility.yul\":840:863   */\n      sub\n        /* \"#utility.yul\":836:868   */\n      slt\n        /* \"#utility.yul\":833:952   */\n      iszero\n      tag_353\n      jumpi\n        /* \"#utility.yul\":871:950   */\n      tag_354\n      tag_278\n      jump\t// in\n    tag_354:\n        /* \"#utility.yul\":833:952   */\n    tag_353:\n        /* \"#utility.yul\":991:992   */\n      0x00\n        /* \"#utility.yul\":1016:1068   */\n      tag_355\n        /* \"#utility.yul\":1060:1067   */\n      dup5\n        /* \"#utility.yul\":1051:1057   */\n      dup3\n        /* \"#utility.yul\":1040:1049   */\n      dup6\n        /* \"#utility.yul\":1036:1058   */\n      add\n        /* \"#utility.yul\":1016:1068   */\n      tag_282\n      jump\t// in\n    tag_355:\n        /* \"#utility.yul\":1006:1068   */\n      swap2\n      pop\n        /* \"#utility.yul\":962:1078   */\n      pop\n        /* \"#utility.yul\":758:1085   */\n      swap3\n      swap2\n      pop\n      pop\n      jump\t// out\n        /* \"#utility.yul\":1091:1181   */\n    tag_283:\n        /* \"#utility.yul\":1125:1132   */\n      0x00\n        /* \"#utility.yul\":1168:1173   */\n      dup2\n        /* \"#utility.yul\":1161:1174   */\n      iszero\n        /* \"#utility.yul\":1154:1175   */\n      iszero\n        /* \"#utility.yul\":1143:1175   */\n      swap1\n      pop\n        /* \"#utility.yul\":1091:1181   */\n      swap2\n      swap1\n      pop\n      jump\t// out\n        /* \"#utility.yul\":1187:1296   */\n    tag_284:\n        /* \"#utility.yul\":1268:1289   */\n      tag_358\n        /* \"#utility.yul\":1283:1288   */\n      dup2\n        /* \"#utility.yul\":1268:1289   */\n      tag_283\n      jump\t// in\n    tag_358:\n        /* \"#utility.yul\":1263:1266   */\n      dup3\n        /* \"#utility.yul\":1256:1290   */\n      mstore\n        /* \"#utility.yul\":1187:1296   */\n      pop\n      pop\n      jump\t// out\n        /* \"#utility.yul\":1302:1512   */\n    tag_32:\n        /* \"#utility.yul\":1389:1393   */\n      0x00\n        /* \"#utility.yul\":1427:1429   */\n      0x20\n        /* \"#utility.yul\":1416:1425   */\n      dup3\n        /* \"#utility.yul\":1412:1430   */\n      add\n        /* \"#utility.yul\":1404:1430   */\n      swap1\n      pop\n        /* \"#utility.yul\":1440:1505   */\n      tag_360\n        /* \"#utility.yul\":1502:1503   */\n      0x00\n        /* \"#utility.yul\":1491:1500   */\n      dup4\n        /* \"#utility.yul\":1487:1504   */\n      add\n        /* \"#utility.yul\":1478:1484   */\n      dup5\n        /* \"#utility.yul\":1440:1505   */\n      tag_284\n      jump\t// in\n    tag_360:\n        /* \"#utility.yul\":1302:1512   */\n      swap3\n      swap2\n      pop\n      pop\n      jump\t// out\n        /* \"#utility.yul\":1518:1595   */\n    tag_285:\n        /* \"#utility.yul\":1555:1562   */\n      0x00\n        /* \"#utility.yul\":1584:1589   */\n      dup2\n        /* \"#utility.yul\":1573:1589   */\n      swap1\n      pop\n        /* \"#utility.yul\":1518:1595   */\n      swap2\n      swap1\n      pop\n      jump\t// out\n        /* \"#utility.yul\":1601:1719   */\n    tag_286:\n        /* \"#utility.yul\":1688:1712   */\n      tag_363\n        /* \"#utility.yul\":1706:1711   */\n      dup2\n        /* \"#utility.yul\":1688:1712   */\n      tag_285\n      jump\t// in\n    tag_363:\n        /* \"#utility.yul\":1683:1686   */\n      dup3\n        /* \"#utility.yul\":1676:1713   */\n      mstore\n        /* \"#utility.yul\":1601:1719   */\n      pop\n      pop\n      jump\t// out\n        /* \"#utility.yul\":1725:1947   */\n    tag_36:\n        /* \"#utility.yul\":1818:1822   */\n      0x00\n        /* \"#utility.yul\":1856:1858   */\n      0x20\n        /* \"#utility.yul\":1845:1854   */\n      dup3\n        /* \"#utility.yul\":1841:1859   */\n      add\n        /* \"#utility.yul\":1833:1859   */\n      swap1\n      pop\n        /* \"#utility.yul\":1869:1940   */\n      tag_365\n        /* \"#utility.yul\":1937:1938   */\n      0x00\n        /* \"#utility.yul\":1926:1935   */\n      dup4\n        /* \"#utility.yul\":1922:1939   */\n      add\n        /* \"#utility.yul\":1913:1919   */\n      dup5\n        /* \"#utility.yul\":1869:1940   */\n      tag_286\n      jump\t// in\n    tag_365:\n        /* \"#utility.yul\":1725:1947   */\n      swap3\n      swap2\n      pop\n      pop\n      jump\t// out\n        /* \"#utility.yul\":1953:2075   */\n    tag_287:\n        /* \"#utility.yul\":2026:2050   */\n      tag_367\n        /* \"#utility.yul\":2044:2049   */\n      dup2\n        /* \"#utility.yul\":2026:2050   */\n      tag_285\n      jump\t// in\n    tag_367:\n        /* \"#utility.yul\":2019:2024   */\n      dup2\n        /* \"#utility.yul\":2016:2051   */\n      eq\n        /* \"#utility.yul\":2006:2069   */\n      tag_368\n      jumpi\n        /* \"#utility.yul\":2065:2066   */\n      0x00\n        /* \"#utility.yul\":2062:2063   */\n      0x00\n        /* \"#utility.yul\":2055:2067   */\n      revert\n        /* \"#utility.yul\":2006:2069   */\n    tag_368:\n        /* \"#utility.yul\":1953:2075   */\n      pop\n      jump\t// out\n        /* \"#utility.yul\":2081:2220   */\n    tag_288:\n        /* \"#utility.yul\":2127:2132   */\n      0x00\n        /* \"#utility.yul\":2165:2171   */\n      dup2\n        /* \"#utility.yul\":2152:2172   */\n      calldataload\n        /* \"#utility.yul\":2143:2172   */\n      swap1\n      pop\n        /* \"#utility.yul\":2181:2214   */\n      tag_370\n        /* \"#utility.yul\":2208:2213   */\n      dup2\n        /* \"#utility.yul\":2181:2214   */\n      tag_287\n      jump\t// in\n    tag_370:\n        /* \"#utility.yul\":2081:2220   */\n      swap3\n      swap2\n      pop\n      pop\n      jump\t// out\n        /* \"#utility.yul\":2226:2555   */\n    tag_42:\n        /* \"#utility.yul\":2285:2291   */\n      0x00\n        /* \"#utility.yul\":2334:2336   */\n      0x20\n        /* \"#utility.yul\":2322:2331   */\n      dup3\n        /* \"#utility.yul\":2313:2320   */\n      dup5\n        /* \"#utility.yul\":2309:2332   */\n      sub\n        /* \"#utility.yul\":2305:2337   */\n      slt\n        /* \"#utility.yul\":2302:2421   */\n      iszero\n      tag_372\n      jumpi\n        /* \"#utility.yul\":2340:2419   */\n      tag_373\n      tag_278\n      jump\t// in\n    tag_373:\n        /* \"#utility.yul\":2302:2421   */\n    tag_372:\n        /* \"#utility.yul\":2460:2461   */\n      0x00\n        /* \"#utility.yul\":2485:2538   */\n      tag_374\n        /* \"#utility.yul\":2530:2537   */\n      dup5\n        /* \"#utility.yul\":2521:2527   */\n      dup3\n        /* \"#utility.yul\":2510:2519   */\n      dup6\n        /* \"#utility.yul\":2506:2528   */\n      add\n        /* \"#utility.yul\":2485:2538   */\n      tag_288\n      jump\t// in\n    tag_374:\n        /* \"#utility.yul\":2475:2538   */\n      swap2\n      pop\n        /* \"#utility.yul\":2431:2548   */\n      pop\n        /* \"#utility.yul\":2226:2555   */\n      swap3\n      swap2\n      pop\n      pop\n      jump\t// out\n        /* \"#utility.yul\":2561:2687   */\n    tag_289:\n        /* \"#utility.yul\":2598:2605   */\n      0x00\n        /* \"#utility.yul\":2638:2680   */\n      0xffffffffffffffffffffffffffffffffffffffff\n        /* \"#utility.yul\":2631:2636   */\n      dup3\n        /* \"#utility.yul\":2627:2681   */\n      and\n        /* \"#utility.yul\":2616:2681   */\n      swap1\n      pop\n        /* \"#utility.yul\":2561:2687   */\n      swap2\n      swap1\n      pop\n      jump\t// out\n        /* \"#utility.yul\":2693:2789   */\n    tag_290:\n        /* \"#utility.yul\":2730:2737   */\n      0x00\n        /* \"#utility.yul\":2759:2783   */\n      tag_377\n        /* \"#utility.yul\":2777:2782   */\n      dup3\n        /* \"#utility.yul\":2759:2783   */\n      tag_289\n      jump\t// in\n    tag_377:\n        /* \"#utility.yul\":2748:2783   */\n      swap1\n      pop\n        /* \"#utility.yul\":2693:2789   */\n      swap2\n      swap1\n      pop\n      jump\t// out\n        /* \"#utility.yul\":2795:2917   */\n    tag_291:\n        /* \"#utility.yul\":2868:2892   */\n      tag_379\n        /* \"#utility.yul\":2886:2891   */\n      dup2\n        /* \"#utility.yul\":2868:2892   */\n      tag_290\n      jump\t// in\n    tag_379:\n        /* \"#utility.yul\":2861:2866   */\n      dup2\n        /* \"#utility.yul\":2858:2893   */\n      eq\n        /* \"#utility.yul\":2848:2911   */\n      tag_380\n      jumpi\n        /* \"#utility.yul\":2907:2908   */\n      0x00\n        /* \"#utility.yul\":2904:2905   */\n      0x00\n        /* \"#utility.yul\":2897:2909   */\n      revert\n        /* \"#utility.yul\":2848:2911   */\n    tag_380:\n        /* \"#utility.yul\":2795:2917   */\n      pop\n      jump\t// out\n        /* \"#utility.yul\":2923:3062   */\n    tag_292:\n        /* \"#utility.yul\":2969:2974   */\n      0x00\n        /* \"#utility.yul\":3007:3013   */\n      dup2\n        /* \"#utility.yul\":2994:3014   */\n      calldataload\n        /* \"#utility.yul\":2985:3014   */\n      swap1\n      pop\n        /* \"#utility.yul\":3023:3056   */\n      tag_382\n        /* \"#utility.yul\":3050:3055   */\n      dup2\n        /* \"#utility.yul\":3023:3056   */\n      tag_291\n      jump\t// in\n    tag_382:\n        /* \"#utility.yul\":2923:3062   */\n      swap3\n      swap2\n      pop\n      pop\n      jump\t// out\n        /* \"#utility.yul\":3068:3542   */\n    tag_47:\n        /* \"#utility.yul\":3136:3142   */\n      0x00\n        /* \"#utility.yul\":3144:3150   */\n      0x00\n        /* \"#utility.yul\":3193:3195   */\n      0x40\n        /* \"#utility.yul\":3181:3190   */\n      dup4\n        /* \"#utility.yul\":3172:3179   */\n      dup6\n        /* \"#utility.yul\":3168:3191   */\n      sub\n        /* \"#utility.yul\":3164:3196   */\n      slt\n        /* \"#utility.yul\":3161:3280   */\n      iszero\n      tag_384\n      jumpi\n        /* \"#utility.yul\":3199:3278   */\n      tag_385\n      tag_278\n      jump\t// in\n    tag_385:\n        /* \"#utility.yul\":3161:3280   */\n    tag_384:\n        /* \"#utility.yul\":3319:3320   */\n      0x00\n        /* \"#utility.yul\":3344:3397   */\n      tag_386\n        /* \"#utility.yul\":3389:3396   */\n      dup6\n        /* \"#utility.yul\":3380:3386   */\n      dup3\n        /* \"#utility.yul\":3369:3378   */\n      dup7\n        /* \"#utility.yul\":3365:3387   */\n      add\n        /* \"#utility.yul\":3344:3397   */\n      tag_288\n      jump\t// in\n    tag_386:\n        /* \"#utility.yul\":3334:3397   */\n      swap3\n      pop\n        /* \"#utility.yul\":3290:3407   */\n      pop\n        /* \"#utility.yul\":3446:3448   */\n      0x20\n        /* \"#utility.yul\":3472:3525   */\n      tag_387\n        /* \"#utility.yul\":3517:3524   */\n      dup6\n        /* \"#utility.yul\":3508:3514   */\n      dup3\n        /* \"#utility.yul\":3497:3506   */\n      dup7\n        /* \"#utility.yul\":3493:3515   */\n      add\n        /* \"#utility.yul\":3472:3525   */\n      tag_292\n      jump\t// in\n    tag_387:\n        /* \"#utility.yul\":3462:3525   */\n      swap2\n      pop\n        /* \"#utility.yul\":3417:3535   */\n      pop\n        /* \"#utility.yul\":3068:3542   */\n      swap3\n      pop\n      swap3\n      swap1\n      pop\n      jump\t// out\n        /* \"#utility.yul\":3548:3625   */\n    tag_293:\n        /* \"#utility.yul\":3585:3592   */\n      0x00\n        /* \"#utility.yul\":3614:3619   */\n      dup2\n        /* \"#utility.yul\":3603:3619   */\n      swap1\n      pop\n        /* \"#utility.yul\":3548:3625   */\n      swap2\n      swap1\n      pop\n      jump\t// out\n        /* \"#utility.yul\":3631:3753   */\n    tag_294:\n        /* \"#utility.yul\":3704:3728   */\n      tag_390\n        /* \"#utility.yul\":3722:3727   */\n      dup2\n        /* \"#utility.yul\":3704:3728   */\n      tag_293\n      jump\t// in\n    tag_390:\n        /* \"#utility.yul\":3697:3702   */\n      dup2\n        /* \"#utility.yul\":3694:3729   */\n      eq\n        /* \"#utility.yul\":3684:3747   */\n      tag_391\n      jumpi\n        /* \"#utility.yul\":3743:3744   */\n      0x00\n        /* \"#utility.yul\":3740:3741   */\n      0x00\n        /* \"#utility.yul\":3733:3745   */\n      revert\n        /* \"#utility.yul\":3684:3747   */\n    tag_391:\n        /* \"#utility.yul\":3631:3753   */\n      pop\n      jump\t// out\n        /* \"#utility.yul\":3759:3898   */\n    tag_295:\n        /* \"#utility.yul\":3805:3810   */\n      0x00\n        /* \"#utility.yul\":3843:3849   */\n      dup2\n        /* \"#utility.yul\":3830:3850   */\n      calldataload\n        /* \"#utility.yul\":3821:3850   */\n      swap1\n      pop\n        /* \"#utility.yul\":3859:3892   */\n      tag_393\n        /* \"#utility.yul\":3886:3891   */\n      dup2\n        /* \"#utility.yul\":3859:3892   */\n      tag_294\n      jump\t// in\n    tag_393:\n        /* \"#utility.yul\":3759:3898   */\n      swap3\n      swap2\n      pop\n      pop\n      jump\t// out\n        /* \"#utility.yul\":3904:4021   */\n    tag_296:\n        /* \"#utility.yul\":4013:4014   */\n      0x00\n        /* \"#utility.yul\":4010:4011   */\n      0x00\n        /* \"#utility.yul\":4003:4015   */\n      revert\n        /* \"#utility.yul\":4027:4144   */\n    tag_297:\n        /* \"#utility.yul\":4136:4137   */\n      0x00\n        /* \"#utility.yul\":4133:4134   */\n      0x00\n        /* \"#utility.yul\":4126:4138   */\n      revert\n        /* \"#utility.yul\":4150:4267   */\n    tag_298:\n        /* \"#utility.yul\":4259:4260   */\n      0x00\n        /* \"#utility.yul\":4256:4257   */\n      0x00\n        /* \"#utility.yul\":4249:4261   */\n      revert\n        /* \"#utility.yul\":4287:4840   */\n    tag_299:\n        /* \"#utility.yul\":4345:4353   */\n      0x00\n        /* \"#utility.yul\":4355:4361   */\n      0x00\n        /* \"#utility.yul\":4405:4408   */\n      dup4\n        /* \"#utility.yul\":4398:4402   */\n      0x1f\n        /* \"#utility.yul\":4390:4396   */\n      dup5\n        /* \"#utility.yul\":4386:4403   */\n      add\n        /* \"#utility.yul\":4382:4409   */\n      slt\n        /* \"#utility.yul\":4372:4494   */\n      tag_398\n      jumpi\n        /* \"#utility.yul\":4413:4492   */\n      tag_399\n      tag_296\n      jump\t// in\n    tag_399:\n        /* \"#utility.yul\":4372:4494   */\n    tag_398:\n        /* \"#utility.yul\":4526:4532   */\n      dup3\n        /* \"#utility.yul\":4513:4533   */\n      calldataload\n        /* \"#utility.yul\":4503:4533   */\n      swap1\n      pop\n        /* \"#utility.yul\":4556:4574   */\n      0xffffffffffffffff\n        /* \"#utility.yul\":4548:4554   */\n      dup2\n        /* \"#utility.yul\":4545:4575   */\n      gt\n        /* \"#utility.yul\":4542:4659   */\n      iszero\n      tag_400\n      jumpi\n        /* \"#utility.yul\":4578:4657   */\n      tag_401\n      tag_297\n      jump\t// in\n    tag_401:\n        /* \"#utility.yul\":4542:4659   */\n    tag_400:\n        /* \"#utility.yul\":4692:4696   */\n      0x20\n        /* \"#utility.yul\":4684:4690   */\n      dup4\n        /* \"#utility.yul\":4680:4697   */\n      add\n        /* \"#utility.yul\":4668:4697   */\n      swap2\n      pop\n        /* \"#utility.yul\":4746:4749   */\n      dup4\n        /* \"#utility.yul\":4738:4742   */\n      0x01\n        /* \"#utility.yul\":4730:4736   */\n      dup3\n        /* \"#utility.yul\":4726:4743   */\n      mul\n        /* \"#utility.yul\":4716:4724   */\n      dup4\n        /* \"#utility.yul\":4712:4744   */\n      add\n        /* \"#utility.yul\":4709:4750   */\n      gt\n        /* \"#utility.yul\":4706:4834   */\n      iszero\n      tag_402\n      jumpi\n        /* \"#utility.yul\":4753:4832   */\n      tag_403\n      tag_298\n      jump\t// in\n    tag_403:\n        /* \"#utility.yul\":4706:4834   */\n    tag_402:\n        /* \"#utility.yul\":4287:4840   */\n      swap3\n      pop\n      swap3\n      swap1\n      pop\n      jump\t// out\n        /* \"#utility.yul\":4846:6011   */\n    tag_54:\n        /* \"#utility.yul\":4956:4962   */\n      0x00\n        /* \"#utility.yul\":4964:4970   */\n      0x00\n        /* \"#utility.yul\":4972:4978   */\n      0x00\n        /* \"#utility.yul\":4980:4986   */\n      0x00\n        /* \"#utility.yul\":4988:4994   */\n      0x00\n        /* \"#utility.yul\":4996:5002   */\n      0x00\n        /* \"#utility.yul\":5045:5048   */\n      0x80\n        /* \"#utility.yul\":5033:5042   */\n      dup8\n        /* \"#utility.yul\":5024:5031   */\n      dup10\n        /* \"#utility.yul\":5020:5043   */\n      sub\n        /* \"#utility.yul\":5016:5049   */\n      slt\n        /* \"#utility.yul\":5013:5133   */\n      iszero\n      tag_405\n      jumpi\n        /* \"#utility.yul\":5052:5131   */\n      tag_406\n      tag_278\n      jump\t// in\n    tag_406:\n        /* \"#utility.yul\":5013:5133   */\n    tag_405:\n        /* \"#utility.yul\":5172:5173   */\n      0x00\n        /* \"#utility.yul\":5197:5250   */\n      tag_407\n        /* \"#utility.yul\":5242:5249   */\n      dup10\n        /* \"#utility.yul\":5233:5239   */\n      dup3\n        /* \"#utility.yul\":5222:5231   */\n      dup11\n        /* \"#utility.yul\":5218:5240   */\n      add\n        /* \"#utility.yul\":5197:5250   */\n      tag_295\n      jump\t// in\n    tag_407:\n        /* \"#utility.yul\":5187:5250   */\n      swap7\n      pop\n        /* \"#utility.yul\":5143:5260   */\n      pop\n        /* \"#utility.yul\":5327:5329   */\n      0x20\n        /* \"#utility.yul\":5316:5325   */\n      dup8\n        /* \"#utility.yul\":5312:5330   */\n      add\n        /* \"#utility.yul\":5299:5331   */\n      calldataload\n        /* \"#utility.yul\":5358:5376   */\n      0xffffffffffffffff\n        /* \"#utility.yul\":5350:5356   */\n      dup2\n        /* \"#utility.yul\":5347:5377   */\n      gt\n        /* \"#utility.yul\":5344:5461   */\n      iszero\n      tag_408\n      jumpi\n        /* \"#utility.yul\":5380:5459   */\n      tag_409\n      tag_279\n      jump\t// in\n    tag_409:\n        /* \"#utility.yul\":5344:5461   */\n    tag_408:\n        /* \"#utility.yul\":5493:5558   */\n      tag_410\n        /* \"#utility.yul\":5550:5557   */\n      dup10\n        /* \"#utility.yul\":5541:5547   */\n      dup3\n        /* \"#utility.yul\":5530:5539   */\n      dup11\n        /* \"#utility.yul\":5526:5548   */\n      add\n        /* \"#utility.yul\":5493:5558   */\n      tag_299\n      jump\t// in\n    tag_410:\n        /* \"#utility.yul\":5475:5558   */\n      swap6\n      pop\n      swap6\n      pop\n        /* \"#utility.yul\":5270:5568   */\n      pop\n        /* \"#utility.yul\":5607:5609   */\n      0x40\n        /* \"#utility.yul\":5633:5686   */\n      tag_411\n        /* \"#utility.yul\":5678:5685   */\n      dup10\n        /* \"#utility.yul\":5669:5675   */\n      dup3\n        /* \"#utility.yul\":5658:5667   */\n      dup11\n        /* \"#utility.yul\":5654:5676   */\n      add\n        /* \"#utility.yul\":5633:5686   */\n      tag_295\n      jump\t// in\n    tag_411:\n        /* \"#utility.yul\":5623:5686   */\n      swap4\n      pop\n        /* \"#utility.yul\":5578:5696   */\n      pop\n        /* \"#utility.yul\":5763:5765   */\n      0x60\n        /* \"#utility.yul\":5752:5761   */\n      dup8\n        /* \"#utility.yul\":5748:5766   */\n      add\n        /* \"#utility.yul\":5735:5767   */\n      calldataload\n        /* \"#utility.yul\":5794:5812   */\n      0xffffffffffffffff\n        /* \"#utility.yul\":5786:5792   */\n      dup2\n        /* \"#utility.yul\":5783:5813   */\n      gt\n        /* \"#utility.yul\":5780:5897   */\n      iszero\n      tag_412\n      jumpi\n        /* \"#utility.yul\":5816:5895   */\n      tag_413\n      tag_279\n      jump\t// in\n    tag_413:\n        /* \"#utility.yul\":5780:5897   */\n    tag_412:\n        /* \"#utility.yul\":5929:5994   */\n      tag_414\n        /* \"#utility.yul\":5986:5993   */\n      dup10\n        /* \"#utility.yul\":5977:5983   */\n      dup3\n        /* \"#utility.yul\":5966:5975   */\n      dup11\n        /* \"#utility.yul\":5962:5984   */\n      add\n        /* \"#utility.yul\":5929:5994   */\n      tag_299\n      jump\t// in\n    tag_414:\n        /* \"#utility.yul\":5911:5994   */\n      swap3\n      pop\n      swap3\n      pop\n        /* \"#utility.yul\":5706:6004   */\n      pop\n        /* \"#utility.yul\":4846:6011   */\n      swap3\n      swap6\n      pop\n      swap3\n      swap6\n      pop\n      swap3\n      swap6\n      jump\t// out\n        /* \"#utility.yul\":6017:6346   */\n    tag_58:\n        /* \"#utility.yul\":6076:6082   */\n      0x00\n        /* \"#utility.yul\":6125:6127   */\n      0x20\n        /* \"#utility.yul\":6113:6122   */\n      dup3\n        /* \"#utility.yul\":6104:6111   */\n      dup5\n        /* \"#utility.yul\":6100:6123   */\n      sub\n        /* \"#utility.yul\":6096:6128   */\n      slt\n        /* \"#utility.yul\":6093:6212   */\n      iszero\n      tag_416\n      jumpi\n        /* \"#utility.yul\":6131:6210   */\n      tag_417\n      tag_278\n      jump\t// in\n    tag_417:\n        /* \"#utility.yul\":6093:6212   */\n    tag_416:\n        /* \"#utility.yul\":6251:6252   */\n      0x00\n        /* \"#utility.yul\":6276:6329   */\n      tag_418\n        /* \"#utility.yul\":6321:6328   */\n      dup5\n        /* \"#utility.yul\":6312:6318   */\n      dup3\n        /* \"#utility.yul\":6301:6310   */\n      dup6\n        /* \"#utility.yul\":6297:6319   */\n      add\n        /* \"#utility.yul\":6276:6329   */\n      tag_295\n      jump\t// in\n    tag_418:\n        /* \"#utility.yul\":6266:6329   */\n      swap2\n      pop\n        /* \"#utility.yul\":6222:6339   */\n      pop\n        /* \"#utility.yul\":6017:6346   */\n      swap3\n      swap2\n      pop\n      pop\n      jump\t// out\n        /* \"#utility.yul\":6352:6460   */\n    tag_300:\n        /* \"#utility.yul\":6429:6453   */\n      tag_420\n        /* \"#utility.yul\":6447:6452   */\n      dup2\n        /* \"#utility.yul\":6429:6453   */\n      tag_293\n      jump\t// in\n    tag_420:\n        /* \"#utility.yul\":6424:6427   */\n      dup3\n        /* \"#utility.yul\":6417:6454   */\n      mstore\n        /* \"#utility.yul\":6352:6460   */\n      pop\n      pop\n      jump\t// out\n        /* \"#utility.yul\":6466:6574   */\n    tag_301:\n        /* \"#utility.yul\":6543:6567   */\n      tag_422\n        /* \"#utility.yul\":6561:6566   */\n      dup2\n        /* \"#utility.yul\":6543:6567   */\n      tag_290\n      jump\t// in\n    tag_422:\n        /* \"#utility.yul\":6538:6541   */\n      dup3\n        /* \"#utility.yul\":6531:6568   */\n      mstore\n        /* \"#utility.yul\":6466:6574   */\n      pop\n      pop\n      jump\t// out\n        /* \"#utility.yul\":6652:7867   */\n    tag_302:\n        /* \"#utility.yul\":6793:6797   */\n      0xc0\n        /* \"#utility.yul\":6788:6791   */\n      dup3\n        /* \"#utility.yul\":6784:6798   */\n      add\n        /* \"#utility.yul\":6878:6882   */\n      0x00\n        /* \"#utility.yul\":6871:6876   */\n      dup3\n        /* \"#utility.yul\":6867:6883   */\n      add\n        /* \"#utility.yul\":6861:6884   */\n      mload\n        /* \"#utility.yul\":6897:6960   */\n      tag_424\n        /* \"#utility.yul\":6954:6958   */\n      0x00\n        /* \"#utility.yul\":6949:6952   */\n      dup6\n        /* \"#utility.yul\":6945:6959   */\n      add\n        /* \"#utility.yul\":6931:6943   */\n      dup3\n        /* \"#utility.yul\":6897:6960   */\n      tag_300\n      jump\t// in\n    tag_424:\n        /* \"#utility.yul\":6808:6970   */\n      pop\n        /* \"#utility.yul\":7059:7063   */\n      0x20\n        /* \"#utility.yul\":7052:7057   */\n      dup3\n        /* \"#utility.yul\":7048:7064   */\n      add\n        /* \"#utility.yul\":7042:7065   */\n      mload\n        /* \"#utility.yul\":7078:7141   */\n      tag_425\n        /* \"#utility.yul\":7135:7139   */\n      0x20\n        /* \"#utility.yul\":7130:7133   */\n      dup6\n        /* \"#utility.yul\":7126:7140   */\n      add\n        /* \"#utility.yul\":7112:7124   */\n      dup3\n        /* \"#utility.yul\":7078:7141   */\n      tag_300\n      jump\t// in\n    tag_425:\n        /* \"#utility.yul\":6980:7151   */\n      pop\n        /* \"#utility.yul\":7232:7236   */\n      0x40\n        /* \"#utility.yul\":7225:7230   */\n      dup3\n        /* \"#utility.yul\":7221:7237   */\n      add\n        /* \"#utility.yul\":7215:7238   */\n      mload\n        /* \"#utility.yul\":7251:7314   */\n      tag_426\n        /* \"#utility.yul\":7308:7312   */\n      0x40\n        /* \"#utility.yul\":7303:7306   */\n      dup6\n        /* \"#utility.yul\":7299:7313   */\n      add\n        /* \"#utility.yul\":7285:7297   */\n      dup3\n        /* \"#utility.yul\":7251:7314   */\n      tag_300\n      jump\t// in\n    tag_426:\n        /* \"#utility.yul\":7161:7324   */\n      pop\n        /* \"#utility.yul\":7414:7418   */\n      0x60\n        /* \"#utility.yul\":7407:7412   */\n      dup3\n        /* \"#utility.yul\":7403:7419   */\n      add\n        /* \"#utility.yul\":7397:7420   */\n      mload\n        /* \"#utility.yul\":7433:7496   */\n      tag_427\n        /* \"#utility.yul\":7490:7494   */\n      0x60\n        /* \"#utility.yul\":7485:7488   */\n      dup6\n        /* \"#utility.yul\":7481:7495   */\n      add\n        /* \"#utility.yul\":7467:7479   */\n      dup3\n        /* \"#utility.yul\":7433:7496   */\n      tag_300\n      jump\t// in\n    tag_427:\n        /* \"#utility.yul\":7334:7506   */\n      pop\n        /* \"#utility.yul\":7589:7593   */\n      0x80\n        /* \"#utility.yul\":7582:7587   */\n      dup3\n        /* \"#utility.yul\":7578:7594   */\n      add\n        /* \"#utility.yul\":7572:7595   */\n      mload\n        /* \"#utility.yul\":7608:7671   */\n      tag_428\n        /* \"#utility.yul\":7665:7669   */\n      0x80\n        /* \"#utility.yul\":7660:7663   */\n      dup6\n        /* \"#utility.yul\":7656:7670   */\n      add\n        /* \"#utility.yul\":7642:7654   */\n      dup3\n        /* \"#utility.yul\":7608:7671   */\n      tag_301\n      jump\t// in\n    tag_428:\n        /* \"#utility.yul\":7516:7681   */\n      pop\n        /* \"#utility.yul\":7768:7772   */\n      0xa0\n        /* \"#utility.yul\":7761:7766   */\n      dup3\n        /* \"#utility.yul\":7757:7773   */\n      add\n        /* \"#utility.yul\":7751:7774   */\n      mload\n        /* \"#utility.yul\":7787:7850   */\n      tag_429\n        /* \"#utility.yul\":7844:7848   */\n      0xa0\n        /* \"#utility.yul\":7839:7842   */\n      dup6\n        /* \"#utility.yul\":7835:7849   */\n      add\n        /* \"#utility.yul\":7821:7833   */\n      dup3\n        /* \"#utility.yul\":7787:7850   */\n      tag_300\n      jump\t// in\n    tag_429:\n        /* \"#utility.yul\":7691:7860   */\n      pop\n        /* \"#utility.yul\":6762:7867   */\n      pop\n        /* \"#utility.yul\":6652:7867   */\n      pop\n      pop\n      jump\t// out\n        /* \"#utility.yul\":7873:8184   */\n    tag_61:\n        /* \"#utility.yul\":8010:8014   */\n      0x00\n        /* \"#utility.yul\":8048:8051   */\n      0xc0\n        /* \"#utility.yul\":8037:8046   */\n      dup3\n        /* \"#utility.yul\":8033:8052   */\n      add\n        /* \"#utility.yul\":8025:8052   */\n      swap1\n      pop\n        /* \"#utility.yul\":8062:8177   */\n      tag_431\n        /* \"#utility.yul\":8174:8175   */\n      0x00\n        /* \"#utility.yul\":8163:8172   */\n      dup4\n        /* \"#utility.yul\":8159:8176   */\n      add\n        /* \"#utility.yul\":8150:8156   */\n      dup5\n        /* \"#utility.yul\":8062:8177   */\n      tag_302\n      jump\t// in\n    tag_431:\n        /* \"#utility.yul\":7873:8184   */\n      swap3\n      swap2\n      pop\n      pop\n      jump\t// out\n        /* \"#utility.yul\":8190:8308   */\n    tag_303:\n        /* \"#utility.yul\":8277:8301   */\n      tag_433\n        /* \"#utility.yul\":8295:8300   */\n      dup2\n        /* \"#utility.yul\":8277:8301   */\n      tag_293\n      jump\t// in\n    tag_433:\n        /* \"#utility.yul\":8272:8275   */\n      dup3\n        /* \"#utility.yul\":8265:8302   */\n      mstore\n        /* \"#utility.yul\":8190:8308   */\n      pop\n      pop\n      jump\t// out\n        /* \"#utility.yul\":8314:8536   */\n    tag_65:\n        /* \"#utility.yul\":8407:8411   */\n      0x00\n        /* \"#utility.yul\":8445:8447   */\n      0x20\n        /* \"#utility.yul\":8434:8443   */\n      dup3\n        /* \"#utility.yul\":8430:8448   */\n      add\n        /* \"#utility.yul\":8422:8448   */\n      swap1\n      pop\n        /* \"#utility.yul\":8458:8529   */\n      tag_435\n        /* \"#utility.yul\":8526:8527   */\n      0x00\n        /* \"#utility.yul\":8515:8524   */\n      dup4\n        /* \"#utility.yul\":8511:8528   */\n      add\n        /* \"#utility.yul\":8502:8508   */\n      dup5\n        /* \"#utility.yul\":8458:8529   */\n      tag_303\n      jump\t// in\n    tag_435:\n        /* \"#utility.yul\":8314:8536   */\n      swap3\n      swap2\n      pop\n      pop\n      jump\t// out\n        /* \"#utility.yul\":8542:8641   */\n    tag_304:\n        /* \"#utility.yul\":8594:8600   */\n      0x00\n        /* \"#utility.yul\":8628:8633   */\n      dup2\n        /* \"#utility.yul\":8622:8634   */\n      mload\n        /* \"#utility.yul\":8612:8634   */\n      swap1\n      pop\n        /* \"#utility.yul\":8542:8641   */\n      swap2\n      swap1\n      pop\n      jump\t// out\n        /* \"#utility.yul\":8647:8806   */\n    tag_305:\n        /* \"#utility.yul\":8721:8732   */\n      0x00\n        /* \"#utility.yul\":8755:8761   */\n      dup3\n        /* \"#utility.yul\":8750:8753   */\n      dup3\n        /* \"#utility.yul\":8743:8762   */\n      mstore\n        /* \"#utility.yul\":8795:8799   */\n      0x20\n        /* \"#utility.yul\":8790:8793   */\n      dup3\n        /* \"#utility.yul\":8786:8800   */\n      add\n        /* \"#utility.yul\":8771:8800   */\n      swap1\n      pop\n        /* \"#utility.yul\":8647:8806   */\n      swap3\n      swap2\n      pop\n      pop\n      jump\t// out\n        /* \"#utility.yul\":8812:8951   */\n    tag_306:\n        /* \"#utility.yul\":8901:8907   */\n      dup3\n        /* \"#utility.yul\":8896:8899   */\n      dup2\n        /* \"#utility.yul\":8891:8894   */\n      dup4\n        /* \"#utility.yul\":8885:8908   */\n      mcopy\n        /* \"#utility.yul\":8942:8943   */\n      0x00\n        /* \"#utility.yul\":8933:8939   */\n      dup4\n        /* \"#utility.yul\":8928:8931   */\n      dup4\n        /* \"#utility.yul\":8924:8940   */\n      add\n        /* \"#utility.yul\":8917:8944   */\n      mstore\n        /* \"#utility.yul\":8812:8951   */\n      pop\n      pop\n      pop\n      jump\t// out\n        /* \"#utility.yul\":8957:9059   */\n    tag_307:\n        /* \"#utility.yul\":8998:9004   */\n      0x00\n        /* \"#utility.yul\":9049:9051   */\n      0x1f\n        /* \"#utility.yul\":9045:9052   */\n      not\n        /* \"#utility.yul\":9040:9042   */\n      0x1f\n        /* \"#utility.yul\":9033:9038   */\n      dup4\n        /* \"#utility.yul\":9029:9043   */\n      add\n        /* \"#utility.yul\":9025:9053   */\n      and\n        /* \"#utility.yul\":9015:9053   */\n      swap1\n      pop\n        /* \"#utility.yul\":8957:9059   */\n      swap2\n      swap1\n      pop\n      jump\t// out\n        /* \"#utility.yul\":9065:9422   */\n    tag_308:\n        /* \"#utility.yul\":9143:9146   */\n      0x00\n        /* \"#utility.yul\":9171:9210   */\n      tag_441\n        /* \"#utility.yul\":9204:9209   */\n      dup3\n        /* \"#utility.yul\":9171:9210   */\n      tag_304\n      jump\t// in\n    tag_441:\n        /* \"#utility.yul\":9226:9287   */\n      tag_442\n        /* \"#utility.yul\":9280:9286   */\n      dup2\n        /* \"#utility.yul\":9275:9278   */\n      dup6\n        /* \"#utility.yul\":9226:9287   */\n      tag_305\n      jump\t// in\n    tag_442:\n        /* \"#utility.yul\":9219:9287   */\n      swap4\n      pop\n        /* \"#utility.yul\":9296:9361   */\n      tag_443\n        /* \"#utility.yul\":9354:9360   */\n      dup2\n        /* \"#utility.yul\":9349:9352   */\n      dup6\n        /* \"#utility.yul\":9342:9346   */\n      0x20\n        /* \"#utility.yul\":9335:9340   */\n      dup7\n        /* \"#utility.yul\":9331:9347   */\n      add\n        /* \"#utility.yul\":9296:9361   */\n      tag_306\n      jump\t// in\n    tag_443:\n        /* \"#utility.yul\":9386:9415   */\n      tag_444\n        /* \"#utility.yul\":9408:9414   */\n      dup2\n        /* \"#utility.yul\":9386:9415   */\n      tag_307\n      jump\t// in\n    tag_444:\n        /* \"#utility.yul\":9381:9384   */\n      dup5\n        /* \"#utility.yul\":9377:9416   */\n      add\n        /* \"#utility.yul\":9370:9416   */\n      swap2\n      pop\n        /* \"#utility.yul\":9147:9422   */\n      pop\n        /* \"#utility.yul\":9065:9422   */\n      swap3\n      swap2\n      pop\n      pop\n      jump\t// out\n        /* \"#utility.yul\":9496:11564   */\n    tag_309:\n        /* \"#utility.yul\":9605:9608   */\n      0x00\n        /* \"#utility.yul\":9641:9647   */\n      0x0120\n        /* \"#utility.yul\":9636:9639   */\n      dup4\n        /* \"#utility.yul\":9632:9648   */\n      add\n        /* \"#utility.yul\":9728:9732   */\n      0x00\n        /* \"#utility.yul\":9721:9726   */\n      dup4\n        /* \"#utility.yul\":9717:9733   */\n      add\n        /* \"#utility.yul\":9711:9734   */\n      mload\n        /* \"#utility.yul\":9747:9810   */\n      tag_446\n        /* \"#utility.yul\":9804:9808   */\n      0x00\n        /* \"#utility.yul\":9799:9802   */\n      dup7\n        /* \"#utility.yul\":9795:9809   */\n      add\n        /* \"#utility.yul\":9781:9793   */\n      dup3\n        /* \"#utility.yul\":9747:9810   */\n      tag_300\n      jump\t// in\n    tag_446:\n        /* \"#utility.yul\":9658:9820   */\n      pop\n        /* \"#utility.yul\":9905:9909   */\n      0x20\n        /* \"#utility.yul\":9898:9903   */\n      dup4\n        /* \"#utility.yul\":9894:9910   */\n      add\n        /* \"#utility.yul\":9888:9911   */\n      mload\n        /* \"#utility.yul\":9958:9961   */\n      dup5\n        /* \"#utility.yul\":9952:9956   */\n      dup3\n        /* \"#utility.yul\":9948:9962   */\n      sub\n        /* \"#utility.yul\":9941:9945   */\n      0x20\n        /* \"#utility.yul\":9936:9939   */\n      dup7\n        /* \"#utility.yul\":9932:9946   */\n      add\n        /* \"#utility.yul\":9925:9963   */\n      mstore\n        /* \"#utility.yul\":9984:10057   */\n      tag_447\n        /* \"#utility.yul\":10052:10056   */\n      dup3\n        /* \"#utility.yul\":10038:10050   */\n      dup3\n        /* \"#utility.yul\":9984:10057   */\n      tag_308\n      jump\t// in\n    tag_447:\n        /* \"#utility.yul\":9976:10057   */\n      swap2\n      pop\n        /* \"#utility.yul\":9830:10068   */\n      pop\n        /* \"#utility.yul\":10159:10163   */\n      0x40\n        /* \"#utility.yul\":10152:10157   */\n      dup4\n        /* \"#utility.yul\":10148:10164   */\n      add\n        /* \"#utility.yul\":10142:10165   */\n      mload\n        /* \"#utility.yul\":10212:10215   */\n      dup5\n        /* \"#utility.yul\":10206:10210   */\n      dup3\n        /* \"#utility.yul\":10202:10216   */\n      sub\n        /* \"#utility.yul\":10195:10199   */\n      0x40\n        /* \"#utility.yul\":10190:10193   */\n      dup7\n        /* \"#utility.yul\":10186:10200   */\n      add\n        /* \"#utility.yul\":10179:10217   */\n      mstore\n        /* \"#utility.yul\":10238:10311   */\n      tag_448\n        /* \"#utility.yul\":10306:10310   */\n      dup3\n        /* \"#utility.yul\":10292:10304   */\n      dup3\n        /* \"#utility.yul\":10238:10311   */\n      tag_308\n      jump\t// in\n    tag_448:\n        /* \"#utility.yul\":10230:10311   */\n      swap2\n      pop\n        /* \"#utility.yul\":10078:10322   */\n      pop\n        /* \"#utility.yul\":10405:10409   */\n      0x60\n        /* \"#utility.yul\":10398:10403   */\n      dup4\n        /* \"#utility.yul\":10394:10410   */\n      add\n        /* \"#utility.yul\":10388:10411   */\n      mload\n        /* \"#utility.yul\":10458:10461   */\n      dup5\n        /* \"#utility.yul\":10452:10456   */\n      dup3\n        /* \"#utility.yul\":10448:10462   */\n      sub\n        /* \"#utility.yul\":10441:10445   */\n      0x60\n        /* \"#utility.yul\":10436:10439   */\n      dup7\n        /* \"#utility.yul\":10432:10446   */\n      add\n        /* \"#utility.yul\":10425:10463   */\n      mstore\n        /* \"#utility.yul\":10484:10557   */\n      tag_449\n        /* \"#utility.yul\":10552:10556   */\n      dup3\n        /* \"#utility.yul\":10538:10550   */\n      dup3\n        /* \"#utility.yul\":10484:10557   */\n      tag_308\n      jump\t// in\n    tag_449:\n        /* \"#utility.yul\":10476:10557   */\n      swap2\n      pop\n        /* \"#utility.yul\":10332:10568   */\n      pop\n        /* \"#utility.yul\":10656:10660   */\n      0x80\n        /* \"#utility.yul\":10649:10654   */\n      dup4\n        /* \"#utility.yul\":10645:10661   */\n      add\n        /* \"#utility.yul\":10639:10662   */\n      mload\n        /* \"#utility.yul\":10675:10738   */\n      tag_450\n        /* \"#utility.yul\":10732:10736   */\n      0x80\n        /* \"#utility.yul\":10727:10730   */\n      dup7\n        /* \"#utility.yul\":10723:10737   */\n      add\n        /* \"#utility.yul\":10709:10721   */\n      dup3\n        /* \"#utility.yul\":10675:10738   */\n      tag_300\n      jump\t// in\n    tag_450:\n        /* \"#utility.yul\":10578:10748   */\n      pop\n        /* \"#utility.yul\":10838:10842   */\n      0xa0\n        /* \"#utility.yul\":10831:10836   */\n      dup4\n        /* \"#utility.yul\":10827:10843   */\n      add\n        /* \"#utility.yul\":10821:10844   */\n      mload\n        /* \"#utility.yul\":10857:10920   */\n      tag_451\n        /* \"#utility.yul\":10914:10918   */\n      0xa0\n        /* \"#utility.yul\":10909:10912   */\n      dup7\n        /* \"#utility.yul\":10905:10919   */\n      add\n        /* \"#utility.yul\":10891:10903   */\n      dup3\n        /* \"#utility.yul\":10857:10920   */\n      tag_300\n      jump\t// in\n    tag_451:\n        /* \"#utility.yul\":10758:10930   */\n      pop\n        /* \"#utility.yul\":11013:11017   */\n      0xc0\n        /* \"#utility.yul\":11006:11011   */\n      dup4\n        /* \"#utility.yul\":11002:11018   */\n      add\n        /* \"#utility.yul\":10996:11019   */\n      mload\n        /* \"#utility.yul\":11032:11095   */\n      tag_452\n        /* \"#utility.yul\":11089:11093   */\n      0xc0\n        /* \"#utility.yul\":11084:11087   */\n      dup7\n        /* \"#utility.yul\":11080:11094   */\n      add\n        /* \"#utility.yul\":11066:11078   */\n      dup3\n        /* \"#utility.yul\":11032:11095   */\n      tag_301\n      jump\t// in\n    tag_452:\n        /* \"#utility.yul\":10940:11105   */\n      pop\n        /* \"#utility.yul\":11192:11196   */\n      0xe0\n        /* \"#utility.yul\":11185:11190   */\n      dup4\n        /* \"#utility.yul\":11181:11197   */\n      add\n        /* \"#utility.yul\":11175:11198   */\n      mload\n        /* \"#utility.yul\":11211:11274   */\n      tag_453\n        /* \"#utility.yul\":11268:11272   */\n      0xe0\n        /* \"#utility.yul\":11263:11266   */\n      dup7\n        /* \"#utility.yul\":11259:11273   */\n      add\n        /* \"#utility.yul\":11245:11257   */\n      dup3\n        /* \"#utility.yul\":11211:11274   */\n      tag_300\n      jump\t// in\n    tag_453:\n        /* \"#utility.yul\":11115:11284   */\n      pop\n        /* \"#utility.yul\":11370:11376   */\n      0x0100\n        /* \"#utility.yul\":11363:11368   */\n      dup4\n        /* \"#utility.yul\":11359:11377   */\n      add\n        /* \"#utility.yul\":11353:11378   */\n      mload\n        /* \"#utility.yul\":11427:11430   */\n      dup5\n        /* \"#utility.yul\":11421:11425   */\n      dup3\n        /* \"#utility.yul\":11417:11431   */\n      sub\n        /* \"#utility.yul\":11408:11414   */\n      0x0100\n        /* \"#utility.yul\":11403:11406   */\n      dup7\n        /* \"#utility.yul\":11399:11415   */\n      add\n        /* \"#utility.yul\":11392:11432   */\n      mstore\n        /* \"#utility.yul\":11453:11526   */\n      tag_454\n        /* \"#utility.yul\":11521:11525   */\n      dup3\n        /* \"#utility.yul\":11507:11519   */\n      dup3\n        /* \"#utility.yul\":11453:11526   */\n      tag_308\n      jump\t// in\n    tag_454:\n        /* \"#utility.yul\":11445:11526   */\n      swap2\n      pop\n        /* \"#utility.yul\":11294:11537   */\n      pop\n        /* \"#utility.yul\":11554:11558   */\n      dup1\n        /* \"#utility.yul\":11547:11558   */\n      swap2\n      pop\n        /* \"#utility.yul\":9610:11564   */\n      pop\n        /* \"#utility.yul\":9496:11564   */\n      swap3\n      swap2\n      pop\n      pop\n      jump\t// out\n        /* \"#utility.yul\":11570:11923   */\n    tag_83:\n        /* \"#utility.yul\":11703:11707   */\n      0x00\n        /* \"#utility.yul\":11741:11743   */\n      0x20\n        /* \"#utility.yul\":11730:11739   */\n      dup3\n        /* \"#utility.yul\":11726:11744   */\n      add\n        /* \"#utility.yul\":11718:11744   */\n      swap1\n      pop\n        /* \"#utility.yul\":11790:11799   */\n      dup2\n        /* \"#utility.yul\":11784:11788   */\n      dup2\n        /* \"#utility.yul\":11780:11800   */\n      sub\n        /* \"#utility.yul\":11776:11777   */\n      0x00\n        /* \"#utility.yul\":11765:11774   */\n      dup4\n        /* \"#utility.yul\":11761:11778   */\n      add\n        /* \"#utility.yul\":11754:11801   */\n      mstore\n        /* \"#utility.yul\":11818:11916   */\n      tag_456\n        /* \"#utility.yul\":11911:11915   */\n      dup2\n        /* \"#utility.yul\":11902:11908   */\n      dup5\n        /* \"#utility.yul\":11818:11916   */\n      tag_309\n      jump\t// in\n    tag_456:\n        /* \"#utility.yul\":11810:11916   */\n      swap1\n      pop\n        /* \"#utility.yul\":11570:11923   */\n      swap3\n      swap2\n      pop\n      pop\n      jump\t// out\n        /* \"#utility.yul\":11929:12047   */\n    tag_310:\n        /* \"#utility.yul\":12016:12040   */\n      tag_458\n        /* \"#utility.yul\":12034:12039   */\n      dup2\n        /* \"#utility.yul\":12016:12040   */\n      tag_290\n      jump\t// in\n    tag_458:\n        /* \"#utility.yul\":12011:12014   */\n      dup3\n        /* \"#utility.yul\":12004:12041   */\n      mstore\n        /* \"#utility.yul\":11929:12047   */\n      pop\n      pop\n      jump\t// out\n        /* \"#utility.yul\":12053:12828   */\n    tag_88:\n        /* \"#utility.yul\":12286:12290   */\n      0x00\n        /* \"#utility.yul\":12324:12327   */\n      0xc0\n        /* \"#utility.yul\":12313:12322   */\n      dup3\n        /* \"#utility.yul\":12309:12328   */\n      add\n        /* \"#utility.yul\":12301:12328   */\n      swap1\n      pop\n        /* \"#utility.yul\":12338:12409   */\n      tag_460\n        /* \"#utility.yul\":12406:12407   */\n      0x00\n        /* \"#utility.yul\":12395:12404   */\n      dup4\n        /* \"#utility.yul\":12391:12408   */\n      add\n        /* \"#utility.yul\":12382:12388   */\n      dup10\n        /* \"#utility.yul\":12338:12409   */\n      tag_303\n      jump\t// in\n    tag_460:\n        /* \"#utility.yul\":12419:12491   */\n      tag_461\n        /* \"#utility.yul\":12487:12489   */\n      0x20\n        /* \"#utility.yul\":12476:12485   */\n      dup4\n        /* \"#utility.yul\":12472:12490   */\n      add\n        /* \"#utility.yul\":12463:12469   */\n      dup9\n        /* \"#utility.yul\":12419:12491   */\n      tag_303\n      jump\t// in\n    tag_461:\n        /* \"#utility.yul\":12501:12573   */\n      tag_462\n        /* \"#utility.yul\":12569:12571   */\n      0x40\n        /* \"#utility.yul\":12558:12567   */\n      dup4\n        /* \"#utility.yul\":12554:12572   */\n      add\n        /* \"#utility.yul\":12545:12551   */\n      dup8\n        /* \"#utility.yul\":12501:12573   */\n      tag_303\n      jump\t// in\n    tag_462:\n        /* \"#utility.yul\":12583:12655   */\n      tag_463\n        /* \"#utility.yul\":12651:12653   */\n      0x60\n        /* \"#utility.yul\":12640:12649   */\n      dup4\n        /* \"#utility.yul\":12636:12654   */\n      add\n        /* \"#utility.yul\":12627:12633   */\n      dup7\n        /* \"#utility.yul\":12583:12655   */\n      tag_303\n      jump\t// in\n    tag_463:\n        /* \"#utility.yul\":12665:12738   */\n      tag_464\n        /* \"#utility.yul\":12733:12736   */\n      0x80\n        /* \"#utility.yul\":12722:12731   */\n      dup4\n        /* \"#utility.yul\":12718:12737   */\n      add\n        /* \"#utility.yul\":12709:12715   */\n      dup6\n        /* \"#utility.yul\":12665:12738   */\n      tag_310\n      jump\t// in\n    tag_464:\n        /* \"#utility.yul\":12748:12821   */\n      tag_465\n        /* \"#utility.yul\":12816:12819   */\n      0xa0\n        /* \"#utility.yul\":12805:12814   */\n      dup4\n        /* \"#utility.yul\":12801:12820   */\n      add\n        /* \"#utility.yul\":12792:12798   */\n      dup5\n        /* \"#utility.yul\":12748:12821   */\n      tag_303\n      jump\t// in\n    tag_465:\n        /* \"#utility.yul\":12053:12828   */\n      swap8\n      swap7\n      pop\n      pop\n      pop\n      pop\n      pop\n      pop\n      pop\n      jump\t// out\n        /* \"#utility.yul\":12834:13308   */\n    tag_91:\n        /* \"#utility.yul\":12902:12908   */\n      0x00\n        /* \"#utility.yul\":12910:12916   */\n      0x00\n        /* \"#utility.yul\":12959:12961   */\n      0x40\n        /* \"#utility.yul\":12947:12956   */\n      dup4\n        /* \"#utility.yul\":12938:12945   */\n      dup6\n        /* \"#utility.yul\":12934:12957   */\n      sub\n        /* \"#utility.yul\":12930:12962   */\n      slt\n        /* \"#utility.yul\":12927:13046   */\n      iszero\n      tag_467\n      jumpi\n        /* \"#utility.yul\":12965:13044   */\n      tag_468\n      tag_278\n      jump\t// in\n    tag_468:\n        /* \"#utility.yul\":12927:13046   */\n    tag_467:\n        /* \"#utility.yul\":13085:13086   */\n      0x00\n        /* \"#utility.yul\":13110:13163   */\n      tag_469\n        /* \"#utility.yul\":13155:13162   */\n      dup6\n        /* \"#utility.yul\":13146:13152   */\n      dup3\n        /* \"#utility.yul\":13135:13144   */\n      dup7\n        /* \"#utility.yul\":13131:13153   */\n      add\n        /* \"#utility.yul\":13110:13163   */\n      tag_295\n      jump\t// in\n    tag_469:\n        /* \"#utility.yul\":13100:13163   */\n      swap3\n      pop\n        /* \"#utility.yul\":13056:13173   */\n      pop\n        /* \"#utility.yul\":13212:13214   */\n      0x20\n        /* \"#utility.yul\":13238:13291   */\n      tag_470\n        /* \"#utility.yul\":13283:13290   */\n      dup6\n        /* \"#utility.yul\":13274:13280   */\n      dup3\n        /* \"#utility.yul\":13263:13272   */\n      dup7\n        /* \"#utility.yul\":13259:13281   */\n      add\n        /* \"#utility.yul\":13238:13291   */\n      tag_295\n      jump\t// in\n    tag_470:\n        /* \"#utility.yul\":13228:13291   */\n      swap2\n      pop\n        /* \"#utility.yul\":13183:13301   */\n      pop\n        /* \"#utility.yul\":12834:13308   */\n      swap3\n      pop\n      swap3\n      swap1\n      pop\n      jump\t// out\n        /* \"#utility.yul\":13394:14979   */\n    tag_311:\n        /* \"#utility.yul\":13515:13518   */\n      0x00\n        /* \"#utility.yul\":13551:13555   */\n      0xe0\n        /* \"#utility.yul\":13546:13549   */\n      dup4\n        /* \"#utility.yul\":13542:13556   */\n      add\n        /* \"#utility.yul\":13636:13640   */\n      0x00\n        /* \"#utility.yul\":13629:13634   */\n      dup4\n        /* \"#utility.yul\":13625:13641   */\n      add\n        /* \"#utility.yul\":13619:13642   */\n      mload\n        /* \"#utility.yul\":13655:13718   */\n      tag_472\n        /* \"#utility.yul\":13712:13716   */\n      0x00\n        /* \"#utility.yul\":13707:13710   */\n      dup7\n        /* \"#utility.yul\":13703:13717   */\n      add\n        /* \"#utility.yul\":13689:13701   */\n      dup3\n        /* \"#utility.yul\":13655:13718   */\n      tag_300\n      jump\t// in\n    tag_472:\n        /* \"#utility.yul\":13566:13728   */\n      pop\n        /* \"#utility.yul\":13819:13823   */\n      0x20\n        /* \"#utility.yul\":13812:13817   */\n      dup4\n        /* \"#utility.yul\":13808:13824   */\n      add\n        /* \"#utility.yul\":13802:13825   */\n      mload\n        /* \"#utility.yul\":13838:13901   */\n      tag_473\n        /* \"#utility.yul\":13895:13899   */\n      0x20\n        /* \"#utility.yul\":13890:13893   */\n      dup7\n        /* \"#utility.yul\":13886:13900   */\n      add\n        /* \"#utility.yul\":13872:13884   */\n      dup3\n        /* \"#utility.yul\":13838:13901   */\n      tag_300\n      jump\t// in\n    tag_473:\n        /* \"#utility.yul\":13738:13911   */\n      pop\n        /* \"#utility.yul\":14002:14006   */\n      0x40\n        /* \"#utility.yul\":13995:14000   */\n      dup4\n        /* \"#utility.yul\":13991:14007   */\n      add\n        /* \"#utility.yul\":13985:14008   */\n      mload\n        /* \"#utility.yul\":14055:14058   */\n      dup5\n        /* \"#utility.yul\":14049:14053   */\n      dup3\n        /* \"#utility.yul\":14045:14059   */\n      sub\n        /* \"#utility.yul\":14038:14042   */\n      0x40\n        /* \"#utility.yul\":14033:14036   */\n      dup7\n        /* \"#utility.yul\":14029:14043   */\n      add\n        /* \"#utility.yul\":14022:14060   */\n      mstore\n        /* \"#utility.yul\":14081:14154   */\n      tag_474\n        /* \"#utility.yul\":14149:14153   */\n      dup3\n        /* \"#utility.yul\":14135:14147   */\n      dup3\n        /* \"#utility.yul\":14081:14154   */\n      tag_308\n      jump\t// in\n    tag_474:\n        /* \"#utility.yul\":14073:14154   */\n      swap2\n      pop\n        /* \"#utility.yul\":13921:14165   */\n      pop\n        /* \"#utility.yul\":14250:14254   */\n      0x60\n        /* \"#utility.yul\":14243:14248   */\n      dup4\n        /* \"#utility.yul\":14239:14255   */\n      add\n        /* \"#utility.yul\":14233:14256   */\n      mload\n        /* \"#utility.yul\":14269:14332   */\n      tag_475\n        /* \"#utility.yul\":14326:14330   */\n      0x60\n        /* \"#utility.yul\":14321:14324   */\n      dup7\n        /* \"#utility.yul\":14317:14331   */\n      add\n        /* \"#utility.yul\":14303:14315   */\n      dup3\n        /* \"#utility.yul\":14269:14332   */\n      tag_300\n      jump\t// in\n    tag_475:\n        /* \"#utility.yul\":14175:14342   */\n      pop\n        /* \"#utility.yul\":14432:14436   */\n      0x80\n        /* \"#utility.yul\":14425:14430   */\n      dup4\n        /* \"#utility.yul\":14421:14437   */\n      add\n        /* \"#utility.yul\":14415:14438   */\n      mload\n        /* \"#utility.yul\":14451:14514   */\n      tag_476\n        /* \"#utility.yul\":14508:14512   */\n      0x80\n        /* \"#utility.yul\":14503:14506   */\n      dup7\n        /* \"#utility.yul\":14499:14513   */\n      add\n        /* \"#utility.yul\":14485:14497   */\n      dup3\n        /* \"#utility.yul\":14451:14514   */\n      tag_301\n      jump\t// in\n    tag_476:\n        /* \"#utility.yul\":14352:14524   */\n      pop\n        /* \"#utility.yul\":14611:14615   */\n      0xa0\n        /* \"#utility.yul\":14604:14609   */\n      dup4\n        /* \"#utility.yul\":14600:14616   */\n      add\n        /* \"#utility.yul\":14594:14617   */\n      mload\n        /* \"#utility.yul\":14630:14693   */\n      tag_477\n        /* \"#utility.yul\":14687:14691   */\n      0xa0\n        /* \"#utility.yul\":14682:14685   */\n      dup7\n        /* \"#utility.yul\":14678:14692   */\n      add\n        /* \"#utility.yul\":14664:14676   */\n      dup3\n        /* \"#utility.yul\":14630:14693   */\n      tag_300\n      jump\t// in\n    tag_477:\n        /* \"#utility.yul\":14534:14703   */\n      pop\n        /* \"#utility.yul\":14789:14793   */\n      0xc0\n        /* \"#utility.yul\":14782:14787   */\n      dup4\n        /* \"#utility.yul\":14778:14794   */\n      add\n        /* \"#utility.yul\":14772:14795   */\n      mload\n        /* \"#utility.yul\":14842:14845   */\n      dup5\n        /* \"#utility.yul\":14836:14840   */\n      dup3\n        /* \"#utility.yul\":14832:14846   */\n      sub\n        /* \"#utility.yul\":14825:14829   */\n      0xc0\n        /* \"#utility.yul\":14820:14823   */\n      dup7\n        /* \"#utility.yul\":14816:14830   */\n      add\n        /* \"#utility.yul\":14809:14847   */\n      mstore\n        /* \"#utility.yul\":14868:14941   */\n      tag_478\n        /* \"#utility.yul\":14936:14940   */\n      dup3\n        /* \"#utility.yul\":14922:14934   */\n      dup3\n        /* \"#utility.yul\":14868:14941   */\n      tag_308\n      jump\t// in\n    tag_478:\n        /* \"#utility.yul\":14860:14941   */\n      swap2\n      pop\n        /* \"#utility.yul\":14713:14952   */\n      pop\n        /* \"#utility.yul\":14969:14973   */\n      dup1\n        /* \"#utility.yul\":14962:14973   */\n      swap2\n      pop\n        /* \"#utility.yul\":13520:14979   */\n      pop\n        /* \"#utility.yul\":13394:14979   */\n      swap3\n      swap2\n      pop\n      pop\n      jump\t// out\n        /* \"#utility.yul\":14985:15362   */\n    tag_97:\n        /* \"#utility.yul\":15130:15134   */\n      0x00\n        /* \"#utility.yul\":15168:15170   */\n      0x20\n        /* \"#utility.yul\":15157:15166   */\n      dup3\n        /* \"#utility.yul\":15153:15171   */\n      add\n        /* \"#utility.yul\":15145:15171   */\n      swap1\n      pop\n        /* \"#utility.yul\":15217:15226   */\n      dup2\n        /* \"#utility.yul\":15211:15215   */\n      dup2\n        /* \"#utility.yul\":15207:15227   */\n      sub\n        /* \"#utility.yul\":15203:15204   */\n      0x00\n        /* \"#utility.yul\":15192:15201   */\n      dup4\n        /* \"#utility.yul\":15188:15205   */\n      add\n        /* \"#utility.yul\":15181:15228   */\n      mstore\n        /* \"#utility.yul\":15245:15355   */\n      tag_480\n        /* \"#utility.yul\":15350:15354   */\n      dup2\n        /* \"#utility.yul\":15341:15347   */\n      dup5\n        /* \"#utility.yul\":15245:15355   */\n      tag_311\n      jump\t// in\n    tag_480:\n        /* \"#utility.yul\":15237:15355   */\n      swap1\n      pop\n        /* \"#utility.yul\":14985:15362   */\n      swap3\n      swap2\n      pop\n      pop\n      jump\t// out\n        /* \"#utility.yul\":15368:17079   */\n    tag_100:\n        /* \"#utility.yul\":15511:15517   */\n      0x00\n        /* \"#utility.yul\":15519:15525   */\n      0x00\n        /* \"#utility.yul\":15527:15533   */\n      0x00\n        /* \"#utility.yul\":15535:15541   */\n      0x00\n        /* \"#utility.yul\":15543:15549   */\n      0x00\n        /* \"#utility.yul\":15551:15557   */\n      0x00\n        /* \"#utility.yul\":15559:15565   */\n      0x00\n        /* \"#utility.yul\":15567:15573   */\n      0x00\n        /* \"#utility.yul\":15575:15581   */\n      0x00\n        /* \"#utility.yul\":15624:15627   */\n      0xa0\n        /* \"#utility.yul\":15612:15621   */\n      dup11\n        /* \"#utility.yul\":15603:15610   */\n      dup13\n        /* \"#utility.yul\":15599:15622   */\n      sub\n        /* \"#utility.yul\":15595:15628   */\n      slt\n        /* \"#utility.yul\":15592:15712   */\n      iszero\n      tag_482\n      jumpi\n        /* \"#utility.yul\":15631:15710   */\n      tag_483\n      tag_278\n      jump\t// in\n    tag_483:\n        /* \"#utility.yul\":15592:15712   */\n    tag_482:\n        /* \"#utility.yul\":15779:15780   */\n      0x00\n        /* \"#utility.yul\":15768:15777   */\n      dup11\n        /* \"#utility.yul\":15764:15781   */\n      add\n        /* \"#utility.yul\":15751:15782   */\n      calldataload\n        /* \"#utility.yul\":15809:15827   */\n      0xffffffffffffffff\n        /* \"#utility.yul\":15801:15807   */\n      dup2\n        /* \"#utility.yul\":15798:15828   */\n      gt\n        /* \"#utility.yul\":15795:15912   */\n      iszero\n      tag_484\n      jumpi\n        /* \"#utility.yul\":15831:15910   */\n      tag_485\n      tag_279\n      jump\t// in\n    tag_485:\n        /* \"#utility.yul\":15795:15912   */\n    tag_484:\n        /* \"#utility.yul\":15944:16009   */\n      tag_486\n        /* \"#utility.yul\":16001:16008   */\n      dup13\n        /* \"#utility.yul\":15992:15998   */\n      dup3\n        /* \"#utility.yul\":15981:15990   */\n      dup14\n        /* \"#utility.yul\":15977:15999   */\n      add\n        /* \"#utility.yul\":15944:16009   */\n      tag_299\n      jump\t// in\n    tag_486:\n        /* \"#utility.yul\":15926:16009   */\n      swap10\n      pop\n      swap10\n      pop\n        /* \"#utility.yul\":15722:16019   */\n      pop\n        /* \"#utility.yul\":16086:16088   */\n      0x20\n        /* \"#utility.yul\":16075:16084   */\n      dup11\n        /* \"#utility.yul\":16071:16089   */\n      add\n        /* \"#utility.yul\":16058:16090   */\n      calldataload\n        /* \"#utility.yul\":16117:16135   */\n      0xffffffffffffffff\n        /* \"#utility.yul\":16109:16115   */\n      dup2\n        /* \"#utility.yul\":16106:16136   */\n      gt\n        /* \"#utility.yul\":16103:16220   */\n      iszero\n      tag_487\n      jumpi\n        /* \"#utility.yul\":16139:16218   */\n      tag_488\n      tag_279\n      jump\t// in\n    tag_488:\n        /* \"#utility.yul\":16103:16220   */\n    tag_487:\n        /* \"#utility.yul\":16252:16317   */\n      tag_489\n        /* \"#utility.yul\":16309:16316   */\n      dup13\n        /* \"#utility.yul\":16300:16306   */\n      dup3\n        /* \"#utility.yul\":16289:16298   */\n      dup14\n        /* \"#utility.yul\":16285:16307   */\n      add\n        /* \"#utility.yul\":16252:16317   */\n      tag_299\n      jump\t// in\n    tag_489:\n        /* \"#utility.yul\":16234:16317   */\n      swap8\n      pop\n      swap8\n      pop\n        /* \"#utility.yul\":16029:16327   */\n      pop\n        /* \"#utility.yul\":16394:16396   */\n      0x40\n        /* \"#utility.yul\":16383:16392   */\n      dup11\n        /* \"#utility.yul\":16379:16397   */\n      add\n        /* \"#utility.yul\":16366:16398   */\n      calldataload\n        /* \"#utility.yul\":16425:16443   */\n      0xffffffffffffffff\n        /* \"#utility.yul\":16417:16423   */\n      dup2\n        /* \"#utility.yul\":16414:16444   */\n      gt\n        /* \"#utility.yul\":16411:16528   */\n      iszero\n      tag_490\n      jumpi\n        /* \"#utility.yul\":16447:16526   */\n      tag_491\n      tag_279\n      jump\t// in\n    tag_491:\n        /* \"#utility.yul\":16411:16528   */\n    tag_490:\n        /* \"#utility.yul\":16560:16625   */\n      tag_492\n        /* \"#utility.yul\":16617:16624   */\n      dup13\n        /* \"#utility.yul\":16608:16614   */\n      dup3\n        /* \"#utility.yul\":16597:16606   */\n      dup14\n        /* \"#utility.yul\":16593:16615   */\n      add\n        /* \"#utility.yul\":16560:16625   */\n      tag_299\n      jump\t// in\n    tag_492:\n        /* \"#utility.yul\":16542:16625   */\n      swap6\n      pop\n      swap6\n      pop\n        /* \"#utility.yul\":16337:16635   */\n      pop\n        /* \"#utility.yul\":16674:16676   */\n      0x60\n        /* \"#utility.yul\":16700:16753   */\n      tag_493\n        /* \"#utility.yul\":16745:16752   */\n      dup13\n        /* \"#utility.yul\":16736:16742   */\n      dup3\n        /* \"#utility.yul\":16725:16734   */\n      dup14\n        /* \"#utility.yul\":16721:16743   */\n      add\n        /* \"#utility.yul\":16700:16753   */\n      tag_295\n      jump\t// in\n    tag_493:\n        /* \"#utility.yul\":16690:16753   */\n      swap4\n      pop\n        /* \"#utility.yul\":16645:16763   */\n      pop\n        /* \"#utility.yul\":16830:16833   */\n      0x80\n        /* \"#utility.yul\":16819:16828   */\n      dup11\n        /* \"#utility.yul\":16815:16834   */\n      add\n        /* \"#utility.yul\":16802:16835   */\n      calldataload\n        /* \"#utility.yul\":16862:16880   */\n      0xffffffffffffffff\n        /* \"#utility.yul\":16854:16860   */\n      dup2\n        /* \"#utility.yul\":16851:16881   */\n      gt\n        /* \"#utility.yul\":16848:16965   */\n      iszero\n      tag_494\n      jumpi\n        /* \"#utility.yul\":16884:16963   */\n      tag_495\n      tag_279\n      jump\t// in\n    tag_495:\n        /* \"#utility.yul\":16848:16965   */\n    tag_494:\n        /* \"#utility.yul\":16997:17062   */\n      tag_496\n        /* \"#utility.yul\":17054:17061   */\n      dup13\n        /* \"#utility.yul\":17045:17051   */\n      dup3\n        /* \"#utility.yul\":17034:17043   */\n      dup14\n        /* \"#utility.yul\":17030:17052   */\n      add\n        /* \"#utility.yul\":16997:17062   */\n      tag_299\n      jump\t// in\n    tag_496:\n        /* \"#utility.yul\":16979:17062   */\n      swap3\n      pop\n      swap3\n      pop\n        /* \"#utility.yul\":16773:17072   */\n      pop\n        /* \"#utility.yul\":15368:17079   */\n      swap3\n      swap6\n      swap9\n      pop\n      swap3\n      swap6\n      swap9\n      pop\n      swap3\n      swap6\n      swap9\n      jump\t// out\n        /* \"#utility.yul\":17085:17254   */\n    tag_312:\n        /* \"#utility.yul\":17169:17180   */\n      0x00\n        /* \"#utility.yul\":17203:17209   */\n      dup3\n        /* \"#utility.yul\":17198:17201   */\n      dup3\n        /* \"#utility.yul\":17191:17210   */\n      mstore\n        /* \"#utility.yul\":17243:17247   */\n      0x20\n        /* \"#utility.yul\":17238:17241   */\n      dup3\n        /* \"#utility.yul\":17234:17248   */\n      add\n        /* \"#utility.yul\":17219:17248   */\n      swap1\n      pop\n        /* \"#utility.yul\":17085:17254   */\n      swap3\n      swap2\n      pop\n      pop\n      jump\t// out\n        /* \"#utility.yul\":17260:17637   */\n    tag_313:\n        /* \"#utility.yul\":17348:17351   */\n      0x00\n        /* \"#utility.yul\":17376:17415   */\n      tag_499\n        /* \"#utility.yul\":17409:17414   */\n      dup3\n        /* \"#utility.yul\":17376:17415   */\n      tag_304\n      jump\t// in\n    tag_499:\n        /* \"#utility.yul\":17431:17502   */\n      tag_500\n        /* \"#utility.yul\":17495:17501   */\n      dup2\n        /* \"#utility.yul\":17490:17493   */\n      dup6\n        /* \"#utility.yul\":17431:17502   */\n      tag_312\n      jump\t// in\n    tag_500:\n        /* \"#utility.yul\":17424:17502   */\n      swap4\n      pop\n        /* \"#utility.yul\":17511:17576   */\n      tag_501\n        /* \"#utility.yul\":17569:17575   */\n      dup2\n        /* \"#utility.yul\":17564:17567   */\n      dup6\n        /* \"#utility.yul\":17557:17561   */\n      0x20\n        /* \"#utility.yul\":17550:17555   */\n      dup7\n        /* \"#utility.yul\":17546:17562   */\n      add\n        /* \"#utility.yul\":17511:17576   */\n      tag_306\n      jump\t// in\n    tag_501:\n        /* \"#utility.yul\":17601:17630   */\n      tag_502\n        /* \"#utility.yul\":17623:17629   */\n      dup2\n        /* \"#utility.yul\":17601:17630   */\n      tag_307\n      jump\t// in\n    tag_502:\n        /* \"#utility.yul\":17596:17599   */\n      dup5\n        /* \"#utility.yul\":17592:17631   */\n      add\n        /* \"#utility.yul\":17585:17631   */\n      swap2\n      pop\n        /* \"#utility.yul\":17352:17637   */\n      pop\n        /* \"#utility.yul\":17260:17637   */\n      swap3\n      swap2\n      pop\n      pop\n      jump\t// out\n        /* \"#utility.yul\":17643:19115   */\n    tag_109:\n        /* \"#utility.yul\":18040:18044   */\n      0x00\n        /* \"#utility.yul\":18078:18081   */\n      0x0120\n        /* \"#utility.yul\":18067:18076   */\n      dup3\n        /* \"#utility.yul\":18063:18082   */\n      add\n        /* \"#utility.yul\":18055:18082   */\n      swap1\n      pop\n        /* \"#utility.yul\":18092:18163   */\n      tag_504\n        /* \"#utility.yul\":18160:18161   */\n      0x00\n        /* \"#utility.yul\":18149:18158   */\n      dup4\n        /* \"#utility.yul\":18145:18162   */\n      add\n        /* \"#utility.yul\":18136:18142   */\n      dup13\n        /* \"#utility.yul\":18092:18163   */\n      tag_303\n      jump\t// in\n    tag_504:\n        /* \"#utility.yul\":18210:18219   */\n      dup2\n        /* \"#utility.yul\":18204:18208   */\n      dup2\n        /* \"#utility.yul\":18200:18220   */\n      sub\n        /* \"#utility.yul\":18195:18197   */\n      0x20\n        /* \"#utility.yul\":18184:18193   */\n      dup4\n        /* \"#utility.yul\":18180:18198   */\n      add\n        /* \"#utility.yul\":18173:18221   */\n      mstore\n        /* \"#utility.yul\":18238:18316   */\n      tag_505\n        /* \"#utility.yul\":18311:18315   */\n      dup2\n        /* \"#utility.yul\":18302:18308   */\n      dup12\n        /* \"#utility.yul\":18238:18316   */\n      tag_313\n      jump\t// in\n    tag_505:\n        /* \"#utility.yul\":18230:18316   */\n      swap1\n      pop\n        /* \"#utility.yul\":18363:18372   */\n      dup2\n        /* \"#utility.yul\":18357:18361   */\n      dup2\n        /* \"#utility.yul\":18353:18373   */\n      sub\n        /* \"#utility.yul\":18348:18350   */\n      0x40\n        /* \"#utility.yul\":18337:18346   */\n      dup4\n        /* \"#utility.yul\":18333:18351   */\n      add\n        /* \"#utility.yul\":18326:18374   */\n      mstore\n        /* \"#utility.yul\":18391:18469   */\n      tag_506\n        /* \"#utility.yul\":18464:18468   */\n      dup2\n        /* \"#utility.yul\":18455:18461   */\n      dup11\n        /* \"#utility.yul\":18391:18469   */\n      tag_313\n      jump\t// in\n    tag_506:\n        /* \"#utility.yul\":18383:18469   */\n      swap1\n      pop\n        /* \"#utility.yul\":18516:18525   */\n      dup2\n        /* \"#utility.yul\":18510:18514   */\n      dup2\n        /* \"#utility.yul\":18506:18526   */\n      sub\n        /* \"#utility.yul\":18501:18503   */\n      0x60\n        /* \"#utility.yul\":18490:18499   */\n      dup4\n        /* \"#utility.yul\":18486:18504   */\n      add\n        /* \"#utility.yul\":18479:18527   */\n      mstore\n        /* \"#utility.yul\":18544:18622   */\n      tag_507\n        /* \"#utility.yul\":18617:18621   */\n      dup2\n        /* \"#utility.yul\":18608:18614   */\n      dup10\n        /* \"#utility.yul\":18544:18622   */\n      tag_313\n      jump\t// in\n    tag_507:\n        /* \"#utility.yul\":18536:18622   */\n      swap1\n      pop\n        /* \"#utility.yul\":18632:18705   */\n      tag_508\n        /* \"#utility.yul\":18700:18703   */\n      0x80\n        /* \"#utility.yul\":18689:18698   */\n      dup4\n        /* \"#utility.yul\":18685:18704   */\n      add\n        /* \"#utility.yul\":18676:18682   */\n      dup9\n        /* \"#utility.yul\":18632:18705   */\n      tag_303\n      jump\t// in\n    tag_508:\n        /* \"#utility.yul\":18715:18788   */\n      tag_509\n        /* \"#utility.yul\":18783:18786   */\n      0xa0\n        /* \"#utility.yul\":18772:18781   */\n      dup4\n        /* \"#utility.yul\":18768:18787   */\n      add\n        /* \"#utility.yul\":18759:18765   */\n      dup8\n        /* \"#utility.yul\":18715:18788   */\n      tag_303\n      jump\t// in\n    tag_509:\n        /* \"#utility.yul\":18798:18871   */\n      tag_510\n        /* \"#utility.yul\":18866:18869   */\n      0xc0\n        /* \"#utility.yul\":18855:18864   */\n      dup4\n        /* \"#utility.yul\":18851:18870   */\n      add\n        /* \"#utility.yul\":18842:18848   */\n      dup7\n        /* \"#utility.yul\":18798:18871   */\n      tag_310\n      jump\t// in\n    tag_510:\n        /* \"#utility.yul\":18881:18954   */\n      tag_511\n        /* \"#utility.yul\":18949:18952   */\n      0xe0\n        /* \"#utility.yul\":18938:18947   */\n      dup4\n        /* \"#utility.yul\":18934:18953   */\n      add\n        /* \"#utility.yul\":18925:18931   */\n      dup6\n        /* \"#utility.yul\":18881:18954   */\n      tag_303\n      jump\t// in\n    tag_511:\n        /* \"#utility.yul\":19002:19011   */\n      dup2\n        /* \"#utility.yul\":18996:19000   */\n      dup2\n        /* \"#utility.yul\":18992:19012   */\n      sub\n        /* \"#utility.yul\":18986:18989   */\n      0x0100\n        /* \"#utility.yul\":18975:18984   */\n      dup4\n        /* \"#utility.yul\":18971:18990   */\n      add\n        /* \"#utility.yul\":18964:19013   */\n      mstore\n        /* \"#utility.yul\":19030:19108   */\n      tag_512\n        /* \"#utility.yul\":19103:19107   */\n      dup2\n        /* \"#utility.yul\":19094:19100   */\n      dup5\n        /* \"#utility.yul\":19030:19108   */\n      tag_313\n      jump\t// in\n    tag_512:\n        /* \"#utility.yul\":19022:19108   */\n      swap1\n      pop\n        /* \"#utility.yul\":17643:19115   */\n      swap11\n      swap10\n      pop\n      pop\n      pop\n      pop\n      pop\n      pop\n      pop\n      pop\n      pop\n      pop\n      jump\t// out\n        /* \"#utility.yul\":19121:20189   */\n    tag_114:\n        /* \"#utility.yul\":19422:19426   */\n      0x00\n        /* \"#utility.yul\":19460:19463   */\n      0xe0\n        /* \"#utility.yul\":19449:19458   */\n      dup3\n        /* \"#utility.yul\":19445:19464   */\n      add\n        /* \"#utility.yul\":19437:19464   */\n      swap1\n      pop\n        /* \"#utility.yul\":19474:19545   */\n      tag_514\n        /* \"#utility.yul\":19542:19543   */\n      0x00\n        /* \"#utility.yul\":19531:19540   */\n      dup4\n        /* \"#utility.yul\":19527:19544   */\n      add\n        /* \"#utility.yul\":19518:19524   */\n      dup11\n        /* \"#utility.yul\":19474:19545   */\n      tag_303\n      jump\t// in\n    tag_514:\n        /* \"#utility.yul\":19555:19627   */\n      tag_515\n        /* \"#utility.yul\":19623:19625   */\n      0x20\n        /* \"#utility.yul\":19612:19621   */\n      dup4\n        /* \"#utility.yul\":19608:19626   */\n      add\n        /* \"#utility.yul\":19599:19605   */\n      dup10\n        /* \"#utility.yul\":19555:19627   */\n      tag_303\n      jump\t// in\n    tag_515:\n        /* \"#utility.yul\":19674:19683   */\n      dup2\n        /* \"#utility.yul\":19668:19672   */\n      dup2\n        /* \"#utility.yul\":19664:19684   */\n      sub\n        /* \"#utility.yul\":19659:19661   */\n      0x40\n        /* \"#utility.yul\":19648:19657   */\n      dup4\n        /* \"#utility.yul\":19644:19662   */\n      add\n        /* \"#utility.yul\":19637:19685   */\n      mstore\n        /* \"#utility.yul\":19702:19780   */\n      tag_516\n        /* \"#utility.yul\":19775:19779   */\n      dup2\n        /* \"#utility.yul\":19766:19772   */\n      dup9\n        /* \"#utility.yul\":19702:19780   */\n      tag_313\n      jump\t// in\n    tag_516:\n        /* \"#utility.yul\":19694:19780   */\n      swap1\n      pop\n        /* \"#utility.yul\":19790:19862   */\n      tag_517\n        /* \"#utility.yul\":19858:19860   */\n      0x60\n        /* \"#utility.yul\":19847:19856   */\n      dup4\n        /* \"#utility.yul\":19843:19861   */\n      add\n        /* \"#utility.yul\":19834:19840   */\n      dup8\n        /* \"#utility.yul\":19790:19862   */\n      tag_303\n      jump\t// in\n    tag_517:\n        /* \"#utility.yul\":19872:19945   */\n      tag_518\n        /* \"#utility.yul\":19940:19943   */\n      0x80\n        /* \"#utility.yul\":19929:19938   */\n      dup4\n        /* \"#utility.yul\":19925:19944   */\n      add\n        /* \"#utility.yul\":19916:19922   */\n      dup7\n        /* \"#utility.yul\":19872:19945   */\n      tag_310\n      jump\t// in\n    tag_518:\n        /* \"#utility.yul\":19955:20028   */\n      tag_519\n        /* \"#utility.yul\":20023:20026   */\n      0xa0\n        /* \"#utility.yul\":20012:20021   */\n      dup4\n        /* \"#utility.yul\":20008:20027   */\n      add\n        /* \"#utility.yul\":19999:20005   */\n      dup6\n        /* \"#utility.yul\":19955:20028   */\n      tag_303\n      jump\t// in\n    tag_519:\n        /* \"#utility.yul\":20076:20085   */\n      dup2\n        /* \"#utility.yul\":20070:20074   */\n      dup2\n        /* \"#utility.yul\":20066:20086   */\n      sub\n        /* \"#utility.yul\":20060:20063   */\n      0xc0\n        /* \"#utility.yul\":20049:20058   */\n      dup4\n        /* \"#utility.yul\":20045:20064   */\n      add\n        /* \"#utility.yul\":20038:20087   */\n      mstore\n        /* \"#utility.yul\":20104:20182   */\n      tag_520\n        /* \"#utility.yul\":20177:20181   */\n      dup2\n        /* \"#utility.yul\":20168:20174   */\n      dup5\n        /* \"#utility.yul\":20104:20182   */\n      tag_313\n      jump\t// in\n    tag_520:\n        /* \"#utility.yul\":20096:20182   */\n      swap1\n      pop\n        /* \"#utility.yul\":19121:20189   */\n      swap9\n      swap8\n      pop\n      pop\n      pop\n      pop\n      pop\n      pop\n      pop\n      pop\n      jump\t// out\n        /* \"#utility.yul\":20195:20360   */\n    tag_314:\n        /* \"#utility.yul\":20335:20352   */\n      0x4e6f74206261746368206f776e65720000000000000000000000000000000000\n        /* \"#utility.yul\":20331:20332   */\n      0x00\n        /* \"#utility.yul\":20323:20329   */\n      dup3\n        /* \"#utility.yul\":20319:20333   */\n      add\n        /* \"#utility.yul\":20312:20353   */\n      mstore\n        /* \"#utility.yul\":20195:20360   */\n      pop\n      jump\t// out\n        /* \"#utility.yul\":20366:20732   */\n    tag_315:\n        /* \"#utility.yul\":20508:20511   */\n      0x00\n        /* \"#utility.yul\":20529:20596   */\n      tag_523\n        /* \"#utility.yul\":20593:20595   */\n      0x0f\n        /* \"#utility.yul\":20588:20591   */\n      dup4\n        /* \"#utility.yul\":20529:20596   */\n      tag_312\n      jump\t// in\n    tag_523:\n        /* \"#utility.yul\":20522:20596   */\n      swap2\n      pop\n        /* \"#utility.yul\":20605:20698   */\n      tag_524\n        /* \"#utility.yul\":20694:20697   */\n      dup3\n        /* \"#utility.yul\":20605:20698   */\n      tag_314\n      jump\t// in\n    tag_524:\n        /* \"#utility.yul\":20723:20725   */\n      0x20\n        /* \"#utility.yul\":20718:20721   */\n      dup3\n        /* \"#utility.yul\":20714:20726   */\n      add\n        /* \"#utility.yul\":20707:20726   */\n      swap1\n      pop\n        /* \"#utility.yul\":20366:20732   */\n      swap2\n      swap1\n      pop\n      jump\t// out\n        /* \"#utility.yul\":20738:21157   */\n    tag_138:\n        /* \"#utility.yul\":20904:20908   */\n      0x00\n        /* \"#utility.yul\":20942:20944   */\n      0x20\n        /* \"#utility.yul\":20931:20940   */\n      dup3\n        /* \"#utility.yul\":20927:20945   */\n      add\n        /* \"#utility.yul\":20919:20945   */\n      swap1\n      pop\n        /* \"#utility.yul\":20991:21000   */\n      dup2\n        /* \"#utility.yul\":20985:20989   */\n      dup2\n        /* \"#utility.yul\":20981:21001   */\n      sub\n        /* \"#utility.yul\":20977:20978   */\n      0x00\n        /* \"#utility.yul\":20966:20975   */\n      dup4\n        /* \"#utility.yul\":20962:20979   */\n      add\n        /* \"#utility.yul\":20955:21002   */\n      mstore\n        /* \"#utility.yul\":21019:21150   */\n      tag_526\n        /* \"#utility.yul\":21145:21149   */\n      dup2\n        /* \"#utility.yul\":21019:21150   */\n      tag_315\n      jump\t// in\n    tag_526:\n        /* \"#utility.yul\":21011:21150   */\n      swap1\n      pop\n        /* \"#utility.yul\":20738:21157   */\n      swap2\n      swap1\n      pop\n      jump\t// out\n        /* \"#utility.yul\":21163:21328   */\n    tag_316:\n        /* \"#utility.yul\":21303:21320   */\n      0x517479206d757374206265203e20300000000000000000000000000000000000\n        /* \"#utility.yul\":21299:21300   */\n      0x00\n        /* \"#utility.yul\":21291:21297   */\n      dup3\n        /* \"#utility.yul\":21287:21301   */\n      add\n        /* \"#utility.yul\":21280:21321   */\n      mstore\n        /* \"#utility.yul\":21163:21328   */\n      pop\n      jump\t// out\n        /* \"#utility.yul\":21334:21700   */\n    tag_317:\n        /* \"#utility.yul\":21476:21479   */\n      0x00\n        /* \"#utility.yul\":21497:21564   */\n      tag_529\n        /* \"#utility.yul\":21561:21563   */\n      0x0f\n        /* \"#utility.yul\":21556:21559   */\n      dup4\n        /* \"#utility.yul\":21497:21564   */\n      tag_312\n      jump\t// in\n    tag_529:\n        /* \"#utility.yul\":21490:21564   */\n      swap2\n      pop\n        /* \"#utility.yul\":21573:21666   */\n      tag_530\n        /* \"#utility.yul\":21662:21665   */\n      dup3\n        /* \"#utility.yul\":21573:21666   */\n      tag_316\n      jump\t// in\n    tag_530:\n        /* \"#utility.yul\":21691:21693   */\n      0x20\n        /* \"#utility.yul\":21686:21689   */\n      dup3\n        /* \"#utility.yul\":21682:21694   */\n      add\n        /* \"#utility.yul\":21675:21694   */\n      swap1\n      pop\n        /* \"#utility.yul\":21334:21700   */\n      swap2\n      swap1\n      pop\n      jump\t// out\n        /* \"#utility.yul\":21706:22125   */\n    tag_141:\n        /* \"#utility.yul\":21872:21876   */\n      0x00\n        /* \"#utility.yul\":21910:21912   */\n      0x20\n        /* \"#utility.yul\":21899:21908   */\n      dup3\n        /* \"#utility.yul\":21895:21913   */\n      add\n        /* \"#utility.yul\":21887:21913   */\n      swap1\n      pop\n        /* \"#utility.yul\":21959:21968   */\n      dup2\n        /* \"#utility.yul\":21953:21957   */\n      dup2\n        /* \"#utility.yul\":21949:21969   */\n      sub\n        /* \"#utility.yul\":21945:21946   */\n      0x00\n        /* \"#utility.yul\":21934:21943   */\n      dup4\n        /* \"#utility.yul\":21930:21947   */\n      add\n        /* \"#utility.yul\":21923:21970   */\n      mstore\n        /* \"#utility.yul\":21987:22118   */\n      tag_532\n        /* \"#utility.yul\":22113:22117   */\n      dup2\n        /* \"#utility.yul\":21987:22118   */\n      tag_317\n      jump\t// in\n    tag_532:\n        /* \"#utility.yul\":21979:22118   */\n      swap1\n      pop\n        /* \"#utility.yul\":21706:22125   */\n      swap2\n      swap1\n      pop\n      jump\t// out\n        /* \"#utility.yul\":22131:22308   */\n    tag_318:\n        /* \"#utility.yul\":22271:22300   */\n      0x496e73756666696369656e74206261746368207175616e746974790000000000\n        /* \"#utility.yul\":22267:22268   */\n      0x00\n        /* \"#utility.yul\":22259:22265   */\n      dup3\n        /* \"#utility.yul\":22255:22269   */\n      add\n        /* \"#utility.yul\":22248:22301   */\n      mstore\n        /* \"#utility.yul\":22131:22308   */\n      pop\n      jump\t// out\n        /* \"#utility.yul\":22314:22680   */\n    tag_319:\n        /* \"#utility.yul\":22456:22459   */\n      0x00\n        /* \"#utility.yul\":22477:22544   */\n      tag_535\n        /* \"#utility.yul\":22541:22543   */\n      0x1b\n        /* \"#utility.yul\":22536:22539   */\n      dup4\n        /* \"#utility.yul\":22477:22544   */\n      tag_312\n      jump\t// in\n    tag_535:\n        /* \"#utility.yul\":22470:22544   */\n      swap2\n      pop\n        /* \"#utility.yul\":22553:22646   */\n      tag_536\n        /* \"#utility.yul\":22642:22645   */\n      dup3\n        /* \"#utility.yul\":22553:22646   */\n      tag_318\n      jump\t// in\n    tag_536:\n        /* \"#utility.yul\":22671:22673   */\n      0x20\n        /* \"#utility.yul\":22666:22669   */\n      dup3\n        /* \"#utility.yul\":22662:22674   */\n      add\n        /* \"#utility.yul\":22655:22674   */\n      swap1\n      pop\n        /* \"#utility.yul\":22314:22680   */\n      swap2\n      swap1\n      pop\n      jump\t// out\n        /* \"#utility.yul\":22686:23105   */\n    tag_144:\n        /* \"#utility.yul\":22852:22856   */\n      0x00\n        /* \"#utility.yul\":22890:22892   */\n      0x20\n        /* \"#utility.yul\":22879:22888   */\n      dup3\n        /* \"#utility.yul\":22875:22893   */\n      add\n        /* \"#utility.yul\":22867:22893   */\n      swap1\n      pop\n        /* \"#utility.yul\":22939:22948   */\n      dup2\n        /* \"#utility.yul\":22933:22937   */\n      dup2\n        /* \"#utility.yul\":22929:22949   */\n      sub\n        /* \"#utility.yul\":22925:22926   */\n      0x00\n        /* \"#utility.yul\":22914:22923   */\n      dup4\n        /* \"#utility.yul\":22910:22927   */\n      add\n        /* \"#utility.yul\":22903:22950   */\n      mstore\n        /* \"#utility.yul\":22967:23098   */\n      tag_538\n        /* \"#utility.yul\":23093:23097   */\n      dup2\n        /* \"#utility.yul\":22967:23098   */\n      tag_319\n      jump\t// in\n    tag_538:\n        /* \"#utility.yul\":22959:23098   */\n      swap1\n      pop\n        /* \"#utility.yul\":22686:23105   */\n      swap2\n      swap1\n      pop\n      jump\t// out\n        /* \"#utility.yul\":23111:23291   */\n    tag_320:\n        /* \"#utility.yul\":23159:23236   */\n      0x4e487b7100000000000000000000000000000000000000000000000000000000\n        /* \"#utility.yul\":23156:23157   */\n      0x00\n        /* \"#utility.yul\":23149:23237   */\n      mstore\n        /* \"#utility.yul\":23256:23260   */\n      0x11\n        /* \"#utility.yul\":23253:23254   */\n      0x04\n        /* \"#utility.yul\":23246:23261   */\n      mstore\n        /* \"#utility.yul\":23280:23284   */\n      0x24\n        /* \"#utility.yul\":23277:23278   */\n      0x00\n        /* \"#utility.yul\":23270:23285   */\n      revert\n        /* \"#utility.yul\":23297:23491   */\n    tag_146:\n        /* \"#utility.yul\":23337:23341   */\n      0x00\n        /* \"#utility.yul\":23357:23377   */\n      tag_541\n        /* \"#utility.yul\":23375:23376   */\n      dup3\n        /* \"#utility.yul\":23357:23377   */\n      tag_293\n      jump\t// in\n    tag_541:\n        /* \"#utility.yul\":23352:23377   */\n      swap2\n      pop\n        /* \"#utility.yul\":23391:23411   */\n      tag_542\n        /* \"#utility.yul\":23409:23410   */\n      dup4\n        /* \"#utility.yul\":23391:23411   */\n      tag_293\n      jump\t// in\n    tag_542:\n        /* \"#utility.yul\":23386:23411   */\n      swap3\n      pop\n        /* \"#utility.yul\":23435:23436   */\n      dup3\n        /* \"#utility.yul\":23432:23433   */\n      dup3\n        /* \"#utility.yul\":23428:23437   */\n      sub\n        /* \"#utility.yul\":23420:23437   */\n      swap1\n      pop\n        /* \"#utility.yul\":23459:23460   */\n      dup2\n        /* \"#utility.yul\":23453:23457   */\n      dup2\n        /* \"#utility.yul\":23450:23461   */\n      gt\n        /* \"#utility.yul\":23447:23484   */\n      iszero\n      tag_543\n      jumpi\n        /* \"#utility.yul\":23464:23482   */\n      tag_544\n      tag_320\n      jump\t// in\n    tag_544:\n        /* \"#utility.yul\":23447:23484   */\n    tag_543:\n        /* \"#utility.yul\":23297:23491   */\n      swap3\n      swap2\n      pop\n      pop\n      jump\t// out\n        /* \"#utility.yul\":23497:23730   */\n    tag_148:\n        /* \"#utility.yul\":23536:23539   */\n      0x00\n        /* \"#utility.yul\":23559:23583   */\n      tag_546\n        /* \"#utility.yul\":23577:23582   */\n      dup3\n        /* \"#utility.yul\":23559:23583   */\n      tag_293\n      jump\t// in\n    tag_546:\n        /* \"#utility.yul\":23550:23583   */\n      swap2\n      pop\n        /* \"#utility.yul\":23605:23671   */\n      0xffffffffffffffffffffffffffffffffffffffffffffffffffffffffffffffff\n        /* \"#utility.yul\":23598:23603   */\n      dup3\n        /* \"#utility.yul\":23595:23672   */\n      sub\n        /* \"#utility.yul\":23592:23695   */\n      tag_547\n      jumpi\n        /* \"#utility.yul\":23675:23693   */\n      tag_548\n      tag_320\n      jump\t// in\n    tag_548:\n        /* \"#utility.yul\":23592:23695   */\n    tag_547:\n        /* \"#utility.yul\":23722:23723   */\n      0x01\n        /* \"#utility.yul\":23715:23720   */\n      dup3\n        /* \"#utility.yul\":23711:23724   */\n      add\n        /* \"#utility.yul\":23704:23724   */\n      swap1\n      pop\n        /* \"#utility.yul\":23497:23730   */\n      swap2\n      swap1\n      pop\n      jump\t// out\n        /* \"#utility.yul\":23736:23916   */\n    tag_321:\n        /* \"#utility.yul\":23784:23861   */\n      0x4e487b7100000000000000000000000000000000000000000000000000000000\n        /* \"#utility.yul\":23781:23782   */\n      0x00\n        /* \"#utility.yul\":23774:23862   */\n      mstore\n        /* \"#utility.yul\":23881:23885   */\n      0x41\n        /* \"#utility.yul\":23878:23879   */\n      0x04\n        /* \"#utility.yul\":23871:23886   */\n      mstore\n        /* \"#utility.yul\":23905:23909   */\n      0x24\n        /* \"#utility.yul\":23902:23903   */\n      0x00\n        /* \"#utility.yul\":23895:23910   */\n      revert\n        /* \"#utility.yul\":23922:24102   */\n    tag_322:\n        /* \"#utility.yul\":23970:24047   */\n      0x4e487b7100000000000000000000000000000000000000000000000000000000\n        /* \"#utility.yul\":23967:23968   */\n      0x00\n        /* \"#utility.yul\":23960:24048   */\n      mstore\n        /* \"#utility.yul\":24067:24071   */\n      0x22\n        /* \"#utility.yul\":24064:24065   */\n      0x04\n        /* \"#utility.yul\":24057:24072   */\n      mstore\n        /* \"#utility.yul\":24091:24095   */\n      0x24\n        /* \"#utility.yul\":24088:24089   */\n      0x00\n        /* \"#utility.yul\":24081:24096   */\n      revert\n        /* \"#utility.yul\":24108:24428   */\n    tag_165:\n        /* \"#utility.yul\":24152:24158   */\n      0x00\n        /* \"#utility.yul\":24189:24190   */\n      0x02\n        /* \"#utility.yul\":24183:24187   */\n      dup3\n        /* \"#utility.yul\":24179:24191   */\n      div\n        /* \"#utility.yul\":24169:24191   */\n      swap1\n      pop\n        /* \"#utility.yul\":24236:24237   */\n      0x01\n        /* \"#utility.yul\":24230:24234   */\n      dup3\n        /* \"#utility.yul\":24226:24238   */\n      and\n        /* \"#utility.yul\":24257:24275   */\n      dup1\n        /* \"#utility.yul\":24247:24328   */\n      tag_552\n      jumpi\n        /* \"#utility.yul\":24313:24317   */\n      0x7f\n        /* \"#utility.yul\":24305:24311   */\n      dup3\n        /* \"#utility.yul\":24301:24318   */\n      and\n        /* \"#utility.yul\":24291:24318   */\n      swap2\n      pop\n        /* \"#utility.yul\":24247:24328   */\n    tag_552:\n        /* \"#utility.yul\":24375:24377   */\n      0x20\n        /* \"#utility.yul\":24367:24373   */\n      dup3\n        /* \"#utility.yul\":24364:24378   */\n      lt\n        /* \"#utility.yul\":24344:24362   */\n      dup2\n        /* \"#utility.yul\":24341:24379   */\n      sub\n        /* \"#utility.yul\":24338:24422   */\n      tag_553\n      jumpi\n        /* \"#utility.yul\":24394:24412   */\n      tag_554\n      tag_322\n      jump\t// in\n    tag_554:\n        /* \"#utility.yul\":24338:24422   */\n    tag_553:\n        /* \"#utility.yul\":24159:24428   */\n      pop\n        /* \"#utility.yul\":24108:24428   */\n      swap2\n      swap1\n      pop\n      jump\t// out\n        /* \"#utility.yul\":24434:24575   */\n    tag_323:\n        /* \"#utility.yul\":24483:24487   */\n      0x00\n        /* \"#utility.yul\":24506:24509   */\n      dup2\n        /* \"#utility.yul\":24498:24509   */\n      swap1\n      pop\n        /* \"#utility.yul\":24529:24532   */\n      dup2\n        /* \"#utility.yul\":24526:24527   */\n      0x00\n        /* \"#utility.yul\":24519:24533   */\n      mstore\n        /* \"#utility.yul\":24563:24567   */\n      0x20\n        /* \"#utility.yul\":24560:24561   */\n      0x00\n        /* \"#utility.yul\":24550:24568   */\n      keccak256\n        /* \"#utility.yul\":24542:24568   */\n      swap1\n      pop\n        /* \"#utility.yul\":24434:24575   */\n      swap2\n      swap1\n      pop\n      jump\t// out\n        /* \"#utility.yul\":24581:24674   */\n    tag_324:\n        /* \"#utility.yul\":24618:24624   */\n      0x00\n        /* \"#utility.yul\":24665:24667   */\n      0x20\n        /* \"#utility.yul\":24660:24662   */\n      0x1f\n        /* \"#utility.yul\":24653:24658   */\n      dup4\n        /* \"#utility.yul\":24649:24663   */\n      add\n        /* \"#utility.yul\":24645:24668   */\n      div\n        /* \"#utility.yul\":24635:24668   */\n      swap1\n      pop\n        /* \"#utility.yul\":24581:24674   */\n      swap2\n      swap1\n      pop\n      jump\t// out\n        /* \"#utility.yul\":24680:24787   */\n    tag_325:\n        /* \"#utility.yul\":24724:24732   */\n      0x00\n        /* \"#utility.yul\":24774:24779   */\n      dup3\n        /* \"#utility.yul\":24768:24772   */\n      dup3\n        /* \"#utility.yul\":24764:24780   */\n      shl\n        /* \"#utility.yul\":24743:24780   */\n      swap1\n      pop\n        /* \"#utility.yul\":24680:24787   */\n      swap3\n      swap2\n      pop\n      pop\n      jump\t// out\n        /* \"#utility.yul\":24793:25186   */\n    tag_326:\n        /* \"#utility.yul\":24862:24868   */\n      0x00\n        /* \"#utility.yul\":24912:24913   */\n      0x08\n        /* \"#utility.yul\":24900:24910   */\n      dup4\n        /* \"#utility.yul\":24896:24914   */\n      mul\n        /* \"#utility.yul\":24935:25032   */\n      tag_559\n        /* \"#utility.yul\":24965:25031   */\n      0xffffffffffffffffffffffffffffffffffffffffffffffffffffffffffffffff\n        /* \"#utility.yul\":24954:24963   */\n      dup3\n        /* \"#utility.yul\":24935:25032   */\n      tag_325\n      jump\t// in\n    tag_559:\n        /* \"#utility.yul\":25053:25092   */\n      tag_560\n        /* \"#utility.yul\":25083:25091   */\n      dup7\n        /* \"#utility.yul\":25072:25081   */\n      dup4\n        /* \"#utility.yul\":25053:25092   */\n      tag_325\n      jump\t// in\n    tag_560:\n        /* \"#utility.yul\":25041:25092   */\n      swap6\n      pop\n        /* \"#utility.yul\":25125:25129   */\n      dup1\n        /* \"#utility.yul\":25121:25130   */\n      not\n        /* \"#utility.yul\":25114:25119   */\n      dup5\n        /* \"#utility.yul\":25110:25131   */\n      and\n        /* \"#utility.yul\":25101:25131   */\n      swap4\n      pop\n        /* \"#utility.yul\":25174:25178   */\n      dup1\n        /* \"#utility.yul\":25164:25172   */\n      dup7\n        /* \"#utility.yul\":25160:25179   */\n      and\n        /* \"#utility.yul\":25153:25158   */\n      dup5\n        /* \"#utility.yul\":25150:25180   */\n      or\n        /* \"#utility.yul\":25140:25180   */\n      swap3\n      pop\n        /* \"#utility.yul\":24869:25186   */\n      pop\n      pop\n        /* \"#utility.yul\":24793:25186   */\n      swap4\n      swap3\n      pop\n      pop\n      pop\n      jump\t// out\n        /* \"#utility.yul\":25192:25252   */\n    tag_327:\n        /* \"#utility.yul\":25220:25223   */\n      0x00\n        /* \"#utility.yul\":25241:25246   */\n      dup2\n        /* \"#utility.yul\":25234:25246   */\n      swap1\n      pop\n        /* \"#utility.yul\":25192:25252   */\n      swap2\n      swap1\n      pop\n      jump\t// out\n        /* \"#utility.yul\":25258:25400   */\n    tag_328:\n        /* \"#utility.yul\":25308:25317   */\n      0x00\n        /* \"#utility.yul\":25341:25394   */\n      tag_563\n        /* \"#utility.yul\":25359:25393   */\n      tag_564\n        /* \"#utility.yul\":25368:25392   */\n      tag_565\n        /* \"#utility.yul\":25386:25391   */\n      dup5\n        /* \"#utility.yul\":25368:25392   */\n      tag_293\n      jump\t// in\n    tag_565:\n        /* \"#utility.yul\":25359:25393   */\n      tag_327\n      jump\t// in\n    tag_564:\n        /* \"#utility.yul\":25341:25394   */\n      tag_293\n      jump\t// in\n    tag_563:\n        /* \"#utility.yul\":25328:25394   */\n      swap1\n      pop\n        /* \"#utility.yul\":25258:25400   */\n      swap2\n      swap1\n      pop\n      jump\t// out\n        /* \"#utility.yul\":25406:25481   */\n    tag_329:\n        /* \"#utility.yul\":25449:25452   */\n      0x00\n        /* \"#utility.yul\":25470:25475   */\n      dup2\n        /* \"#utility.yul\":25463:25475   */\n      swap1\n      pop\n        /* \"#utility.yul\":25406:25481   */\n      swap2\n      swap1\n      pop\n      jump\t// out\n        /* \"#utility.yul\":25487:25756   */\n    tag_330:\n        /* \"#utility.yul\":25597:25636   */\n      tag_568\n        /* \"#utility.yul\":25628:25635   */\n      dup4\n        /* \"#utility.yul\":25597:25636   */\n      tag_328\n      jump\t// in\n    tag_568:\n        /* \"#utility.yul\":25658:25749   */\n      tag_569\n        /* \"#utility.yul\":25707:25748   */\n      tag_570\n        /* \"#utility.yul\":25731:25747   */\n      dup3\n        /* \"#utility.yul\":25707:25748   */\n      tag_329\n      jump\t// in\n    tag_570:\n        /* \"#utility.yul\":25699:25705   */\n      dup5\n        /* \"#utility.yul\":25692:25696   */\n      dup5\n        /* \"#utility.yul\":25686:25697   */\n      sload\n        /* \"#utility.yul\":25658:25749   */\n      tag_326\n      jump\t// in\n    tag_569:\n        /* \"#utility.yul\":25652:25656   */\n      dup3\n        /* \"#utility.yul\":25645:25750   */\n      sstore\n        /* \"#utility.yul\":25563:25756   */\n      pop\n        /* \"#utility.yul\":25487:25756   */\n      pop\n      pop\n      pop\n      jump\t// out\n        /* \"#utility.yul\":25762:25835   */\n    tag_331:\n        /* \"#utility.yul\":25807:25810   */\n      0x00\n        /* \"#utility.yul\":25828:25829   */\n      0x00\n        /* \"#utility.yul\":25821:25829   */\n      swap1\n      pop\n        /* \"#utility.yul\":25762:25835   */\n      swap1\n      jump\t// out\n        /* \"#utility.yul\":25841:26030   */\n    tag_332:\n        /* \"#utility.yul\":25918:25950   */\n      tag_573\n      tag_331\n      jump\t// in\n    tag_573:\n        /* \"#utility.yul\":25959:26024   */\n      tag_574\n        /* \"#utility.yul\":26017:26023   */\n      dup2\n        /* \"#utility.yul\":26009:26015   */\n      dup5\n        /* \"#utility.yul\":26003:26007   */\n      dup5\n        /* \"#utility.yul\":25959:26024   */\n      tag_330\n      jump\t// in\n    tag_574:\n        /* \"#utility.yul\":25894:26030   */\n      pop\n        /* \"#utility.yul\":25841:26030   */\n      pop\n      pop\n      jump\t// out\n        /* \"#utility.yul\":26036:26222   */\n    tag_333:\n        /* \"#utility.yul\":26096:26216   */\n    tag_576:\n        /* \"#utility.yul\":26113:26116   */\n      dup2\n        /* \"#utility.yul\":26106:26111   */\n      dup2\n        /* \"#utility.yul\":26103:26117   */\n      lt\n        /* \"#utility.yul\":26096:26216   */\n      iszero\n      tag_578\n      jumpi\n        /* \"#utility.yul\":26167:26206   */\n      tag_579\n        /* \"#utility.yul\":26204:26205   */\n      0x00\n        /* \"#utility.yul\":26197:26202   */\n      dup3\n        /* \"#utility.yul\":26167:26206   */\n      tag_332\n      jump\t// in\n    tag_579:\n        /* \"#utility.yul\":26140:26141   */\n      0x01\n        /* \"#utility.yul\":26133:26138   */\n      dup2\n        /* \"#utility.yul\":26129:26142   */\n      add\n        /* \"#utility.yul\":26120:26142   */\n      swap1\n      pop\n        /* \"#utility.yul\":26096:26216   */\n      jump(tag_576)\n    tag_578:\n        /* \"#utility.yul\":26036:26222   */\n      pop\n      pop\n      jump\t// out\n        /* \"#utility.yul\":26228:26771   */\n    tag_334:\n        /* \"#utility.yul\":26329:26331   */\n      0x1f\n        /* \"#utility.yul\":26324:26327   */\n      dup3\n        /* \"#utility.yul\":26321:26332   */\n      gt\n        /* \"#utility.yul\":26318:26764   */\n      iszero\n      tag_581\n      jumpi\n        /* \"#utility.yul\":26363:26401   */\n      tag_582\n        /* \"#utility.yul\":26395:26400   */\n      dup2\n        /* \"#utility.yul\":26363:26401   */\n      tag_323\n      jump\t// in\n    tag_582:\n        /* \"#utility.yul\":26447:26476   */\n      tag_583\n        /* \"#utility.yul\":26465:26475   */\n      dup5\n        /* \"#utility.yul\":26447:26476   */\n      tag_324\n      jump\t// in\n    tag_583:\n        /* \"#utility.yul\":26437:26445   */\n      dup2\n        /* \"#utility.yul\":26433:26477   */\n      add\n        /* \"#utility.yul\":26630:26632   */\n      0x20\n        /* \"#utility.yul\":26618:26628   */\n      dup6\n        /* \"#utility.yul\":26615:26633   */\n      lt\n        /* \"#utility.yul\":26612:26661   */\n      iszero\n      tag_584\n      jumpi\n        /* \"#utility.yul\":26651:26659   */\n      dup2\n        /* \"#utility.yul\":26636:26659   */\n      swap1\n      pop\n        /* \"#utility.yul\":26612:26661   */\n    tag_584:\n        /* \"#utility.yul\":26674:26754   */\n      tag_585\n        /* \"#utility.yul\":26730:26752   */\n      tag_586\n        /* \"#utility.yul\":26748:26751   */\n      dup6\n        /* \"#utility.yul\":26730:26752   */\n      tag_324\n      jump\t// in\n    tag_586:\n        /* \"#utility.yul\":26720:26728   */\n      dup4\n        /* \"#utility.yul\":26716:26753   */\n      add\n        /* \"#utility.yul\":26703:26714   */\n      dup3\n        /* \"#utility.yul\":26674:26754   */\n      tag_333\n      jump\t// in\n    tag_585:\n        /* \"#utility.yul\":26333:26764   */\n      pop\n      pop\n        /* \"#utility.yul\":26318:26764   */\n    tag_581:\n        /* \"#utility.yul\":26228:26771   */\n      pop\n      pop\n      pop\n      jump\t// out\n        /* \"#utility.yul\":26777:26894   */\n    tag_335:\n        /* \"#utility.yul\":26831:26839   */\n      0x00\n        /* \"#utility.yul\":26881:26886   */\n      dup3\n        /* \"#utility.yul\":26875:26879   */\n      dup3\n        /* \"#utility.yul\":26871:26887   */\n      shr\n        /* \"#utility.yul\":26850:26887   */\n      swap1\n      pop\n        /* \"#utility.yul\":26777:26894   */\n      swap3\n      swap2\n      pop\n      pop\n      jump\t// out\n        /* \"#utility.yul\":26900:27069   */\n    tag_336:\n        /* \"#utility.yul\":26944:26950   */\n      0x00\n        /* \"#utility.yul\":26977:27028   */\n      tag_589\n        /* \"#utility.yul\":27025:27026   */\n      0x00\n        /* \"#utility.yul\":27021:27027   */\n      not\n        /* \"#utility.yul\":27013:27018   */\n      dup5\n        /* \"#utility.yul\":27010:27011   */\n      0x08\n        /* \"#utility.yul\":27006:27019   */\n      mul\n        /* \"#utility.yul\":26977:27028   */\n      tag_335\n      jump\t// in\n    tag_589:\n        /* \"#utility.yul\":26973:27029   */\n      not\n        /* \"#utility.yul\":27058:27062   */\n      dup1\n        /* \"#utility.yul\":27052:27056   */\n      dup4\n        /* \"#utility.yul\":27048:27063   */\n      and\n        /* \"#utility.yul\":27038:27063   */\n      swap2\n      pop\n        /* \"#utility.yul\":26951:27069   */\n      pop\n        /* \"#utility.yul\":26900:27069   */\n      swap3\n      swap2\n      pop\n      pop\n      jump\t// out\n        /* \"#utility.yul\":27074:27369   */\n    tag_337:\n        /* \"#utility.yul\":27150:27154   */\n      0x00\n        /* \"#utility.yul\":27296:27325   */\n      tag_591\n        /* \"#utility.yul\":27321:27324   */\n      dup4\n        /* \"#utility.yul\":27315:27319   */\n      dup4\n        /* \"#utility.yul\":27296:27325   */\n      tag_336\n      jump\t// in\n    tag_591:\n        /* \"#utility.yul\":27288:27325   */\n      swap2\n      pop\n        /* \"#utility.yul\":27358:27361   */\n      dup3\n        /* \"#utility.yul\":27355:27356   */\n      0x02\n        /* \"#utility.yul\":27351:27362   */\n      mul\n        /* \"#utility.yul\":27345:27349   */\n      dup3\n        /* \"#utility.yul\":27342:27363   */\n      or\n        /* \"#utility.yul\":27334:27363   */\n      swap1\n      pop\n        /* \"#utility.yul\":27074:27369   */\n      swap3\n      swap2\n      pop\n      pop\n      jump\t// out\n        /* \"#utility.yul\":27374:28769   */\n    tag_150:\n        /* \"#utility.yul\":27491:27528   */\n      tag_593\n        /* \"#utility.yul\":27524:27527   */\n      dup3\n        /* \"#utility.yul\":27491:27528   */\n      tag_304\n      jump\t// in\n    tag_593:\n        /* \"#utility.yul\":27593:27611   */\n      0xffffffffffffffff\n        /* \"#utility.yul\":27585:27591   */\n      dup2\n        /* \"#utility.yul\":27582:27612   */\n      gt\n        /* \"#utility.yul\":27579:27635   */\n      iszero\n      tag_594\n      jumpi\n        /* \"#utility.yul\":27615:27633   */\n      tag_595\n      tag_321\n      jump\t// in\n    tag_595:\n        /* \"#utility.yul\":27579:27635   */\n    tag_594:\n        /* \"#utility.yul\":27659:27697   */\n      tag_596\n        /* \"#utility.yul\":27691:27695   */\n      dup3\n        /* \"#utility.yul\":27685:27696   */\n      sload\n        /* \"#utility.yul\":27659:27697   */\n      tag_165\n      jump\t// in\n    tag_596:\n        /* \"#utility.yul\":27744:27811   */\n      tag_597\n        /* \"#utility.yul\":27804:27810   */\n      dup3\n        /* \"#utility.yul\":27796:27802   */\n      dup3\n        /* \"#utility.yul\":27790:27794   */\n      dup6\n        /* \"#utility.yul\":27744:27811   */\n      tag_334\n      jump\t// in\n    tag_597:\n        /* \"#utility.yul\":27838:27839   */\n      0x00\n        /* \"#utility.yul\":27862:27866   */\n      0x20\n        /* \"#utility.yul\":27849:27866   */\n      swap1\n      pop\n        /* \"#utility.yul\":27894:27896   */\n      0x1f\n        /* \"#utility.yul\":27886:27892   */\n      dup4\n        /* \"#utility.yul\":27883:27897   */\n      gt\n        /* \"#utility.yul\":27911:27912   */\n      0x01\n        /* \"#utility.yul\":27906:28524   */\n      dup2\n      eq\n      tag_599\n      jumpi\n        /* \"#utility.yul\":28568:28569   */\n      0x00\n        /* \"#utility.yul\":28585:28591   */\n      dup5\n        /* \"#utility.yul\":28582:28659   */\n      iszero\n      tag_600\n      jumpi\n        /* \"#utility.yul\":28634:28643   */\n      dup3\n        /* \"#utility.yul\":28629:28632   */\n      dup8\n        /* \"#utility.yul\":28625:28644   */\n      add\n        /* \"#utility.yul\":28619:28645   */\n      mload\n        /* \"#utility.yul\":28610:28645   */\n      swap1\n      pop\n        /* \"#utility.yul\":28582:28659   */\n    tag_600:\n        /* \"#utility.yul\":28685:28752   */\n      tag_601\n        /* \"#utility.yul\":28745:28751   */\n      dup6\n        /* \"#utility.yul\":28738:28743   */\n      dup3\n        /* \"#utility.yul\":28685:28752   */\n      tag_337\n      jump\t// in\n    tag_601:\n        /* \"#utility.yul\":28679:28683   */\n      dup7\n        /* \"#utility.yul\":28672:28753   */\n      sstore\n        /* \"#utility.yul\":28541:28763   */\n      pop\n        /* \"#utility.yul\":27876:28763   */\n      jump(tag_598)\n        /* \"#utility.yul\":27906:28524   */\n    tag_599:\n        /* \"#utility.yul\":27958:27962   */\n      0x1f\n        /* \"#utility.yul\":27954:27963   */\n      not\n        /* \"#utility.yul\":27946:27952   */\n      dup5\n        /* \"#utility.yul\":27942:27964   */\n      and\n        /* \"#utility.yul\":27992:28029   */\n      tag_602\n        /* \"#utility.yul\":28024:28028   */\n      dup7\n        /* \"#utility.yul\":27992:28029   */\n      tag_323\n      jump\t// in\n    tag_602:\n        /* \"#utility.yul\":28051:28052   */\n      0x00\n        /* \"#utility.yul\":28065:28273   */\n    tag_603:\n        /* \"#utility.yul\":28079:28086   */\n      dup3\n        /* \"#utility.yul\":28076:28077   */\n      dup2\n        /* \"#utility.yul\":28073:28087   */\n      lt\n        /* \"#utility.yul\":28065:28273   */\n      iszero\n      tag_605\n      jumpi\n        /* \"#utility.yul\":28158:28167   */\n      dup5\n        /* \"#utility.yul\":28153:28156   */\n      dup10\n        /* \"#utility.yul\":28149:28168   */\n      add\n        /* \"#utility.yul\":28143:28169   */\n      mload\n        /* \"#utility.yul\":28135:28141   */\n      dup3\n        /* \"#utility.yul\":28128:28170   */\n      sstore\n        /* \"#utility.yul\":28209:28210   */\n      0x01\n        /* \"#utility.yul\":28201:28207   */\n      dup3\n        /* \"#utility.yul\":28197:28211   */\n      add\n        /* \"#utility.yul\":28187:28211   */\n      swap2\n      pop\n        /* \"#utility.yul\":28256:28258   */\n      0x20\n        /* \"#utility.yul\":28245:28254   */\n      dup6\n        /* \"#utility.yul\":28241:28259   */\n      add\n        /* \"#utility.yul\":28228:28259   */\n      swap5\n      pop\n        /* \"#utility.yul\":28102:28106   */\n      0x20\n        /* \"#utility.yul\":28099:28100   */\n      dup2\n        /* \"#utility.yul\":28095:28107   */\n      add\n        /* \"#utility.yul\":28090:28107   */\n      swap1\n      pop\n        /* \"#utility.yul\":28065:28273   */\n      jump(tag_603)\n    tag_605:\n        /* \"#utility.yul\":28301:28307   */\n      dup7\n        /* \"#utility.yul\":28292:28299   */\n      dup4\n        /* \"#utility.yul\":28289:28308   */\n      lt\n        /* \"#utility.yul\":28286:28465   */\n      iszero\n      tag_606\n      jumpi\n        /* \"#utility.yul\":28359:28368   */\n      dup5\n        /* \"#utility.yul\":28354:28357   */\n      dup10\n        /* \"#utility.yul\":28350:28369   */\n      add\n        /* \"#utility.yul\":28344:28370   */\n      mload\n        /* \"#utility.yul\":28402:28450   */\n      tag_607\n        /* \"#utility.yul\":28444:28448   */\n      0x1f\n        /* \"#utility.yul\":28436:28442   */\n      dup10\n        /* \"#utility.yul\":28432:28449   */\n      and\n        /* \"#utility.yul\":28421:28430   */\n      dup3\n        /* \"#utility.yul\":28402:28450   */\n      tag_336\n      jump\t// in\n    tag_607:\n        /* \"#utility.yul\":28394:28400   */\n      dup4\n        /* \"#utility.yul\":28387:28451   */\n      sstore\n        /* \"#utility.yul\":28309:28465   */\n      pop\n        /* \"#utility.yul\":28286:28465   */\n    tag_606:\n        /* \"#utility.yul\":28511:28512   */\n      0x01\n        /* \"#utility.yul\":28507:28508   */\n      0x02\n        /* \"#utility.yul\":28499:28505   */\n      dup9\n        /* \"#utility.yul\":28495:28509   */\n      mul\n        /* \"#utility.yul\":28491:28513   */\n      add\n        /* \"#utility.yul\":28485:28489   */\n      dup9\n        /* \"#utility.yul\":28478:28514   */\n      sstore\n        /* \"#utility.yul\":27913:28524   */\n      pop\n      pop\n      pop\n        /* \"#utility.yul\":27876:28763   */\n    tag_598:\n      pop\n        /* \"#utility.yul\":27466:28769   */\n      pop\n      pop\n      pop\n        /* \"#utility.yul\":27374:28769   */\n      pop\n      pop\n      jump\t// out\n        /* \"#utility.yul\":28775:28923   */\n    tag_338:\n        /* \"#utility.yul\":28873:28879   */\n      dup3\n        /* \"#utility.yul\":28868:28871   */\n      dup2\n        /* \"#utility.yul\":28863:28866   */\n      dup4\n        /* \"#utility.yul\":28850:28880   */\n      calldatacopy\n        /* \"#utility.yul\":28914:28915   */\n      0x00\n        /* \"#utility.yul\":28905:28911   */\n      dup4\n        /* \"#utility.yul\":28900:28903   */\n      dup4\n        /* \"#utility.yul\":28896:28912   */\n      add\n        /* \"#utility.yul\":28889:28916   */\n      mstore\n        /* \"#utility.yul\":28775:28923   */\n      pop\n      pop\n      pop\n      jump\t// out\n        /* \"#utility.yul\":28953:29270   */\n    tag_339:\n        /* \"#utility.yul\":29051:29054   */\n      0x00\n        /* \"#utility.yul\":29072:29143   */\n      tag_610\n        /* \"#utility.yul\":29136:29142   */\n      dup4\n        /* \"#utility.yul\":29131:29134   */\n      dup6\n        /* \"#utility.yul\":29072:29143   */\n      tag_312\n      jump\t// in\n    tag_610:\n        /* \"#utility.yul\":29065:29143   */\n      swap4\n      pop\n        /* \"#utility.yul\":29153:29209   */\n      tag_611\n        /* \"#utility.yul\":29202:29208   */\n      dup4\n        /* \"#utility.yul\":29197:29200   */\n      dup6\n        /* \"#utility.yul\":29190:29195   */\n      dup5\n        /* \"#utility.yul\":29153:29209   */\n      tag_338\n      jump\t// in\n    tag_611:\n        /* \"#utility.yul\":29234:29263   */\n      tag_612\n        /* \"#utility.yul\":29256:29262   */\n      dup4\n        /* \"#utility.yul\":29234:29263   */\n      tag_307\n      jump\t// in\n    tag_612:\n        /* \"#utility.yul\":29229:29232   */\n      dup5\n        /* \"#utility.yul\":29225:29264   */\n      add\n        /* \"#utility.yul\":29218:29264   */\n      swap1\n      pop\n        /* \"#utility.yul\":28953:29270   */\n      swap4\n      swap3\n      pop\n      pop\n      pop\n      jump\t// out\n        /* \"#utility.yul\":29276:29829   */\n    tag_153:\n        /* \"#utility.yul\":29455:29459   */\n      0x00\n        /* \"#utility.yul\":29493:29495   */\n      0x60\n        /* \"#utility.yul\":29482:29491   */\n      dup3\n        /* \"#utility.yul\":29478:29496   */\n      add\n        /* \"#utility.yul\":29470:29496   */\n      swap1\n      pop\n        /* \"#utility.yul\":29542:29551   */\n      dup2\n        /* \"#utility.yul\":29536:29540   */\n      dup2\n        /* \"#utility.yul\":29532:29552   */\n      sub\n        /* \"#utility.yul\":29528:29529   */\n      0x00\n        /* \"#utility.yul\":29517:29526   */\n      dup4\n        /* \"#utility.yul\":29513:29530   */\n      add\n        /* \"#utility.yul\":29506:29553   */\n      mstore\n        /* \"#utility.yul\":29570:29658   */\n      tag_614\n        /* \"#utility.yul\":29653:29657   */\n      dup2\n        /* \"#utility.yul\":29644:29650   */\n      dup7\n        /* \"#utility.yul\":29636:29642   */\n      dup9\n        /* \"#utility.yul\":29570:29658   */\n      tag_339\n      jump\t// in\n    tag_614:\n        /* \"#utility.yul\":29562:29658   */\n      swap1\n      pop\n        /* \"#utility.yul\":29668:29740   */\n      tag_615\n        /* \"#utility.yul\":29736:29738   */\n      0x20\n        /* \"#utility.yul\":29725:29734   */\n      dup4\n        /* \"#utility.yul\":29721:29739   */\n      add\n        /* \"#utility.yul\":29712:29718   */\n      dup6\n        /* \"#utility.yul\":29668:29740   */\n      tag_303\n      jump\t// in\n    tag_615:\n        /* \"#utility.yul\":29750:29822   */\n      tag_616\n        /* \"#utility.yul\":29818:29820   */\n      0x40\n        /* \"#utility.yul\":29807:29816   */\n      dup4\n        /* \"#utility.yul\":29803:29821   */\n      add\n        /* \"#utility.yul\":29794:29800   */\n      dup5\n        /* \"#utility.yul\":29750:29822   */\n      tag_303\n      jump\t// in\n    tag_616:\n        /* \"#utility.yul\":29276:29829   */\n      swap6\n      swap5\n      pop\n      pop\n      pop\n      pop\n      pop\n      jump\t// out\n        /* \"#utility.yul\":29835:30010   */\n    tag_340:\n        /* \"#utility.yul\":29975:30002   */\n      0x496e73756666696369656e74206c6f74207175616e7469747900000000000000\n        /* \"#utility.yul\":29971:29972   */\n      0x00\n        /* \"#utility.yul\":29963:29969   */\n      dup3\n        /* \"#utility.yul\":29959:29973   */\n      add\n        /* \"#utility.yul\":29952:30003   */\n      mstore\n        /* \"#utility.yul\":29835:30010   */\n      pop\n      jump\t// out\n        /* \"#utility.yul\":30016:30382   */\n    tag_341:\n        /* \"#utility.yul\":30158:30161   */\n      0x00\n        /* \"#utility.yul\":30179:30246   */\n      tag_619\n        /* \"#utility.yul\":30243:30245   */\n      0x19\n        /* \"#utility.yul\":30238:30241   */\n      dup4\n        /* \"#utility.yul\":30179:30246   */\n      tag_312\n      jump\t// in\n    tag_619:\n        /* \"#utility.yul\":30172:30246   */\n      swap2\n      pop\n        /* \"#utility.yul\":30255:30348   */\n      tag_620\n        /* \"#utility.yul\":30344:30347   */\n      dup3\n        /* \"#utility.yul\":30255:30348   */\n      tag_340\n      jump\t// in\n    tag_620:\n        /* \"#utility.yul\":30373:30375   */\n      0x20\n        /* \"#utility.yul\":30368:30371   */\n      dup3\n        /* \"#utility.yul\":30364:30376   */\n      add\n        /* \"#utility.yul\":30357:30376   */\n      swap1\n      pop\n        /* \"#utility.yul\":30016:30382   */\n      swap2\n      swap1\n      pop\n      jump\t// out\n        /* \"#utility.yul\":30388:30807   */\n    tag_192:\n        /* \"#utility.yul\":30554:30558   */\n      0x00\n        /* \"#utility.yul\":30592:30594   */\n      0x20\n        /* \"#utility.yul\":30581:30590   */\n      dup3\n        /* \"#utility.yul\":30577:30595   */\n      add\n        /* \"#utility.yul\":30569:30595   */\n      swap1\n      pop\n        /* \"#utility.yul\":30641:30650   */\n      dup2\n        /* \"#utility.yul\":30635:30639   */\n      dup2\n        /* \"#utility.yul\":30631:30651   */\n      sub\n        /* \"#utility.yul\":30627:30628   */\n      0x00\n        /* \"#utility.yul\":30616:30625   */\n      dup4\n        /* \"#utility.yul\":30612:30629   */\n      add\n        /* \"#utility.yul\":30605:30652   */\n      mstore\n        /* \"#utility.yul\":30669:30800   */\n      tag_622\n        /* \"#utility.yul\":30795:30799   */\n      dup2\n        /* \"#utility.yul\":30669:30800   */\n      tag_341\n      jump\t// in\n    tag_622:\n        /* \"#utility.yul\":30661:30800   */\n      swap1\n      pop\n        /* \"#utility.yul\":30388:30807   */\n      swap2\n      swap1\n      pop\n      jump\t// out\n        /* \"#utility.yul\":30813:31145   */\n    tag_196:\n        /* \"#utility.yul\":30934:30938   */\n      0x00\n        /* \"#utility.yul\":30972:30974   */\n      0x40\n        /* \"#utility.yul\":30961:30970   */\n      dup3\n        /* \"#utility.yul\":30957:30975   */\n      add\n        /* \"#utility.yul\":30949:30975   */\n      swap1\n      pop\n        /* \"#utility.yul\":30985:31056   */\n      tag_624\n        /* \"#utility.yul\":31053:31054   */\n      0x00\n        /* \"#utility.yul\":31042:31051   */\n      dup4\n        /* \"#utility.yul\":31038:31055   */\n      add\n        /* \"#utility.yul\":31029:31035   */\n      dup6\n        /* \"#utility.yul\":30985:31056   */\n      tag_303\n      jump\t// in\n    tag_624:\n        /* \"#utility.yul\":31066:31138   */\n      tag_625\n        /* \"#utility.yul\":31134:31136   */\n      0x20\n        /* \"#utility.yul\":31123:31132   */\n      dup4\n        /* \"#utility.yul\":31119:31137   */\n      add\n        /* \"#utility.yul\":31110:31116   */\n      dup5\n        /* \"#utility.yul\":31066:31138   */\n      tag_303\n      jump\t// in\n    tag_625:\n        /* \"#utility.yul\":30813:31145   */\n      swap4\n      swap3\n      pop\n      pop\n      pop\n      jump\t// out\n        /* \"#utility.yul\":31151:31483   */\n    tag_276:\n        /* \"#utility.yul\":31272:31276   */\n      0x00\n        /* \"#utility.yul\":31310:31312   */\n      0x40\n        /* \"#utility.yul\":31299:31308   */\n      dup3\n        /* \"#utility.yul\":31295:31313   */\n      add\n        /* \"#utility.yul\":31287:31313   */\n      swap1\n      pop\n        /* \"#utility.yul\":31323:31394   */\n      tag_627\n        /* \"#utility.yul\":31391:31392   */\n      0x00\n        /* \"#utility.yul\":31380:31389   */\n      dup4\n        /* \"#utility.yul\":31376:31393   */\n      add\n        /* \"#utility.yul\":31367:31373   */\n      dup6\n        /* \"#utility.yul\":31323:31394   */\n      tag_310\n      jump\t// in\n    tag_627:\n        /* \"#utility.yul\":31404:31476   */\n      tag_628\n        /* \"#utility.yul\":31472:31474   */\n      0x20\n        /* \"#utility.yul\":31461:31470   */\n      dup4\n        /* \"#utility.yul\":31457:31475   */\n      add\n        /* \"#utility.yul\":31448:31454   */\n      dup5\n        /* \"#utility.yul\":31404:31476   */\n      tag_286\n      jump\t// in\n    tag_628:\n        /* \"#utility.yul\":31151:31483   */\n      swap4\n      swap3\n      pop\n      pop\n      pop\n      jump\t// out\n\n    auxdata: 0xa26469706673582212203f7c52eeca2e4c2ae5c31692be65e7abac89589008a7d2300ddffdcce335183c64736f6c634300081e0033\n}\n",
				"bytecode": {
					"linkReferences": {},
					"object": "608060405234801561000f575f5ffd5b506100225f5f1b3361002860201b60201c565b50610187565b5f610039838361011d60201b60201c565b6101135760015f5f8581526020019081526020015f205f015f8473ffffffffffffffffffffffffffffffffffffffff1673ffffffffffffffffffffffffffffffffffffffff1681526020019081526020015f205f6101000a81548160ff0219169083151502179055506100b061018060201b60201c565b73ffffffffffffffffffffffffffffffffffffffff168273ffffffffffffffffffffffffffffffffffffffff16847f2f8788117e7eff1d82e926ec794901d17c78024a50270940304540a733656f0d60405160405180910390a460019050610117565b5f90505b92915050565b5f5f5f8481526020019081526020015f205f015f8373ffffffffffffffffffffffffffffffffffffffff1673ffffffffffffffffffffffffffffffffffffffff1681526020019081526020015f205f9054906101000a900460ff16905092915050565b5f33905090565b612c0a806101945f395ff3fe608060405234801561000f575f5ffd5b5060043610610135575f3560e01c8063a217fddf116100b6578063b4e897511161007a578063b4e8975114610366578063c8dbe38d14610382578063ccb99282146103b2578063d547741f146103ce578063f1648e84146103ea578063f38e0a3d1461042257610135565b8063a217fddf146102a7578063a546ff55146102c5578063a8fabfa5146102e3578063ab995d1214610301578063b32c4d8d1461033157610135565b806336568abe116100fd57806336568abe146101f15780633c4b71cd1461020d5780635ac44282146102295780635e58d6a71461025957806391d148541461027757610135565b806301ffc9a71461013957806304a0fb1714610169578063189e06e714610187578063248a9ca3146101a55780632f2ff15d146101d5575b5f5ffd5b610153600480360381019061014e9190611ce5565b610458565b6040516101609190611d2a565b60405180910390f35b6101716104d1565b60405161017e9190611d5b565b60405180910390f35b61018f6104f5565b60405161019c9190611d5b565b60405180910390f35b6101bf60048036038101906101ba9190611d9e565b610519565b6040516101cc9190611d5b565b60405180910390f35b6101ef60048036038101906101ea9190611e23565b610535565b005b61020b60048036038101906102069190611e23565b610557565b005b61022760048036038101906102229190611ef5565b6105d2565b005b610243600480360381019061023e9190611f98565b610958565b604051610250919061205a565b60405180910390f35b610261610a09565b60405161026e9190612082565b60405180910390f35b610291600480360381019061028c9190611e23565b610a12565b60405161029e9190611d2a565b60405180910390f35b6102af610a75565b6040516102bc9190611d5b565b60405180910390f35b6102cd610a7b565b6040516102da9190612082565b60405180910390f35b6102eb610a84565b6040516102f89190612082565b60405180910390f35b61031b60048036038101906103169190611f98565b610a8d565b60405161032891906121e2565b60405180910390f35b61034b60048036038101906103469190611f98565b610d75565b60405161035d96959493929190612211565b60405180910390f35b610380600480360381019061037b9190612270565b610dcc565b005b61039c60048036038101906103979190611f98565b610ffb565b6040516103a9919061234e565b60405180910390f35b6103cc60048036038101906103c7919061236e565b6111c2565b005b6103e860048036038101906103e39190611e23565b6114e4565b005b61040460048036038101906103ff9190611f98565b611506565b604051610419999897969594939291906124ac565b60405180910390f35b61043c60048036038101906104379190611f98565b611787565b60405161044f9796959493929190612553565b60405180910390f35b5f7f7965db0b000000000000000000000000000000000000000000000000000000007bffffffffffffffffffffffffffffffffffffffffffffffffffffffff1916827bffffffffffffffffffffffffffffffffffffffffffffffffffffffff191614806104ca57506104c9826118f0565b5b9050919050565b7fdfbefbf47cfe66b701d8cfdbce1de81c821590819cb07e71cb01b6602fb0ee2781565b7f89b57a644ed9fce05f6c753cf42a08c2333c48e5a3d803e17cee19087358722b81565b5f5f5f8381526020019081526020015f20600101549050919050565b61053e82610519565b61054781611959565b610551838361196d565b50505050565b61055f611a56565b73ffffffffffffffffffffffffffffffffffffffff168173ffffffffffffffffffffffffffffffffffffffff16146105c3576040517f6697b23200000000000000000000000000000000000000000000000000000000815260040160405180910390fd5b6105cd8282611a5d565b505050565b7fdfbefbf47cfe66b701d8cfdbce1de81c821590819cb07e71cb01b6602fb0ee276105fc81611959565b3373ffffffffffffffffffffffffffffffffffffffff1660025f8981526020019081526020015f206004015f9054906101000a900473ffffffffffffffffffffffffffffffffffffffff1673ffffffffffffffffffffffffffffffffffffffff161461069d576040517f08c379a000000000000000000000000000000000000000000000000000000000815260040161069490612618565b60405180910390fd5b5f84116106df576040517f08c379a00000000000000000000000000000000000000000000000000000000081526004016106d690612680565b60405180910390fd5b8360025f8981526020019081526020015f20600301541015610736576040517f08c379a000000000000000000000000000000000000000000000000000000000815260040161072d906126e8565b60405180910390fd5b8360025f8981526020019081526020015f206003015f8282546107599190612733565b9250508190555060065f81548092919061077290612766565b91905055505f60065490506040518060e0016040528082815260200189815260200188888080601f0160208091040260200160405190810160405280939291908181526020018383808284375f81840152601f19601f8201169050808301925050505050505081526020018681526020013373ffffffffffffffffffffffffffffffffffffffff16815260200142815260200185858080601f0160208091040260200160405190810160405280939291908181526020018383808284375f81840152601f19601f8201169050808301925050505050505081525060035f8381526020019081526020015f205f820151815f015560208201518160010155604082015181600201908161088491906129d7565b50606082015181600301556080820151816004015f6101000a81548173ffffffffffffffffffffffffffffffffffffffff021916908373ffffffffffffffffffffffffffffffffffffffff16021790555060a0820151816005015560c08201518160060190816108f491906129d7565b509050503373ffffffffffffffffffffffffffffffffffffffff1688827f777c60e45b2037cf59f29bc452a1e6b2aaf535f1c6aba0073463b1af4fe4b00a8a8a8a426040516109469493929190612ae0565b60405180910390a45050505050505050565b610960611b97565b60025f8381526020019081526020015f206040518060c00160405290815f8201548152602001600182015481526020016002820154815260200160038201548152602001600482015f9054906101000a900473ffffffffffffffffffffffffffffffffffffffff1673ffffffffffffffffffffffffffffffffffffffff1673ffffffffffffffffffffffffffffffffffffffff1681526020016005820154815250509050919050565b5f600454905090565b5f5f5f8481526020019081526020015f205f015f8373ffffffffffffffffffffffffffffffffffffffff1673ffffffffffffffffffffffffffffffffffffffff1681526020019081526020015f205f9054906101000a900460ff16905092915050565b5f5f1b81565b5f600654905090565b5f600554905090565b610a95611bdd565b60015f8381526020019081526020015f20604051806101200160405290815f8201548152602001600182018054610acb90612807565b80601f0160208091040260200160405190810160405280929190818152602001828054610af790612807565b8015610b425780601f10610b1957610100808354040283529160200191610b42565b820191905f5260205f20905b815481529060010190602001808311610b2557829003601f168201915b50505050508152602001600282018054610b5b90612807565b80601f0160208091040260200160405190810160405280929190818152602001828054610b8790612807565b8015610bd25780601f10610ba957610100808354040283529160200191610bd2565b820191905f5260205f20905b815481529060010190602001808311610bb557829003601f168201915b50505050508152602001600382018054610beb90612807565b80601f0160208091040260200160405190810160405280929190818152602001828054610c1790612807565b8015610c625780601f10610c3957610100808354040283529160200191610c62565b820191905f5260205f20905b815481529060010190602001808311610c4557829003601f168201915b505050505081526020016004820154815260200160058201548152602001600682015f9054906101000a900473ffffffffffffffffffffffffffffffffffffffff1673ffffffffffffffffffffffffffffffffffffffff1673ffffffffffffffffffffffffffffffffffffffff16815260200160078201548152602001600882018054610cee90612807565b80601f0160208091040260200160405190810160405280929190818152602001828054610d1a90612807565b8015610d655780601f10610d3c57610100808354040283529160200191610d65565b820191905f5260205f20905b815481529060010190602001808311610d4857829003601f168201915b5050505050815250509050919050565b6002602052805f5260405f205f91509050805f015490806001015490806002015490806003015490806004015f9054906101000a900473ffffffffffffffffffffffffffffffffffffffff16908060050154905086565b7fdfbefbf47cfe66b701d8cfdbce1de81c821590819cb07e71cb01b6602fb0ee27610df681611959565b5f8211610e38576040517f08c379a0000000000000000000000000000000000000000000000000000000008152600401610e2f90612680565b60405180910390fd5b8160015f8581526020019081526020015f20600501541015610e8f576040517f08c379a0000000000000000000000000000000000000000000000000000000008152600401610e8690612b68565b60405180910390fd5b8160015f8581526020019081526020015f206005015f828254610eb29190612733565b9250508190555060055f815480929190610ecb90612766565b91905055505f60055490506040518060c001604052808281526020018581526020018481526020018481526020013373ffffffffffffffffffffffffffffffffffffffff1681526020014281525060025f8381526020019081526020015f205f820151815f01556020820151816001015560408201518160020155606082015181600301556080820151816004015f6101000a81548173ffffffffffffffffffffffffffffffffffffffff021916908373ffffffffffffffffffffffffffffffffffffffff16021790555060a082015181600501559050503373ffffffffffffffffffffffffffffffffffffffff1681857fdd883f1b39882e144d2c960b6779523c9e5555a67bcbf5c31b3a730265c5b45a8642604051610fed929190612b86565b60405180910390a450505050565b611003611c3a565b60035f8381526020019081526020015f206040518060e00160405290815f82015481526020016001820154815260200160028201805461104290612807565b80601f016020809104026020016040519081016040528092919081815260200182805461106e90612807565b80156110b95780601f10611090576101008083540402835291602001916110b9565b820191905f5260205f20905b81548152906001019060200180831161109c57829003601f168201915b5050505050815260200160038201548152602001600482015f9054906101000a900473ffffffffffffffffffffffffffffffffffffffff1673ffffffffffffffffffffffffffffffffffffffff1673ffffffffffffffffffffffffffffffffffffffff1681526020016005820154815260200160068201805461113b90612807565b80601f016020809104026020016040519081016040528092919081815260200182805461116790612807565b80156111b25780601f10611189576101008083540402835291602001916111b2565b820191905f5260205f20905b81548152906001019060200180831161119557829003601f168201915b5050505050815250509050919050565b7f89b57a644ed9fce05f6c753cf42a08c2333c48e5a3d803e17cee19087358722b6111ec81611959565b5f841161122e576040517f08c379a000000000000000000000000000000000000000000000000000000000815260040161122590612680565b60405180910390fd5b60045f81548092919061124090612766565b91905055505f60045490506040518061012001604052808281526020018c8c8080601f0160208091040260200160405190810160405280939291908181526020018383808284375f81840152601f19601f8201169050808301925050505050505081526020018a8a8080601f0160208091040260200160405190810160405280939291908181526020018383808284375f81840152601f19601f82011690508083019250505050505050815260200188888080601f0160208091040260200160405190810160405280939291908181526020018383808284375f81840152601f19601f8201169050808301925050505050505081526020018681526020018681526020013373ffffffffffffffffffffffffffffffffffffffff16815260200142815260200185858080601f0160208091040260200160405190810160405280939291908181526020018383808284375f81840152601f19601f8201169050808301925050505050505081525060015f8381526020019081526020015f205f820151815f015560208201518160010190816113db91906129d7565b5060408201518160020190816113f191906129d7565b50606082015181600301908161140791906129d7565b506080820151816004015560a0820151816005015560c0820151816006015f6101000a81548173ffffffffffffffffffffffffffffffffffffffff021916908373ffffffffffffffffffffffffffffffffffffffff16021790555060e0820151816007015561010082015181600801908161148291906129d7565b509050503373ffffffffffffffffffffffffffffffffffffffff16817f928caa7ea3efdd90b93805682cbcf274c50b43d0a76fb9e813bab59d9aca9bfd87426040516114cf929190612b86565b60405180910390a35050505050505050505050565b6114ed82610519565b6114f681611959565b6115008383611a5d565b50505050565b6001602052805f5260405f205f91509050805f01549080600101805461152b90612807565b80601f016020809104026020016040519081016040528092919081815260200182805461155790612807565b80156115a25780601f10611579576101008083540402835291602001916115a2565b820191905f5260205f20905b81548152906001019060200180831161158557829003601f168201915b5050505050908060020180546115b790612807565b80601f01602080910402602001604051908101604052809291908181526020018280546115e390612807565b801561162e5780601f106116055761010080835404028352916020019161162e565b820191905f5260205f20905b81548152906001019060200180831161161157829003601f168201915b50505050509080600301805461164390612807565b80601f016020809104026020016040519081016040528092919081815260200182805461166f90612807565b80156116ba5780601f10611691576101008083540402835291602001916116ba565b820191905f5260205f20905b81548152906001019060200180831161169d57829003601f168201915b505050505090806004015490806005015490806006015f9054906101000a900473ffffffffffffffffffffffffffffffffffffffff169080600701549080600801805461170690612807565b80601f016020809104026020016040519081016040528092919081815260200182805461173290612807565b801561177d5780601f106117545761010080835404028352916020019161177d565b820191905f5260205f20905b81548152906001019060200180831161176057829003601f168201915b5050505050905089565b6003602052805f5260405f205f91509050805f0154908060010154908060020180546117b290612807565b80601f01602080910402602001604051908101604052809291908181526020018280546117de90612807565b80156118295780601f1061180057610100808354040283529160200191611829565b820191905f5260205f20905b81548152906001019060200180831161180c57829003601f168201915b505050505090806003015490806004015f9054906101000a900473ffffffffffffffffffffffffffffffffffffffff169080600501549080600601805461186f90612807565b80601f016020809104026020016040519081016040528092919081815260200182805461189b90612807565b80156118e65780601f106118bd576101008083540402835291602001916118e6565b820191905f5260205f20905b8154815290600101906020018083116118c957829003601f168201915b5050505050905087565b5f7f01ffc9a7000000000000000000000000000000000000000000000000000000007bffffffffffffffffffffffffffffffffffffffffffffffffffffffff1916827bffffffffffffffffffffffffffffffffffffffffffffffffffffffff1916149050919050565b61196a81611965611a56565b611b46565b50565b5f6119788383610a12565b611a4c5760015f5f8581526020019081526020015f205f015f8473ffffffffffffffffffffffffffffffffffffffff1673ffffffffffffffffffffffffffffffffffffffff1681526020019081526020015f205f6101000a81548160ff0219169083151502179055506119e9611a56565b73ffffffffffffffffffffffffffffffffffffffff168273ffffffffffffffffffffffffffffffffffffffff16847f2f8788117e7eff1d82e926ec794901d17c78024a50270940304540a733656f0d60405160405180910390a460019050611a50565b5f90505b92915050565b5f33905090565b5f611a688383610a12565b15611b3c575f5f5f8581526020019081526020015f205f015f8473ffffffffffffffffffffffffffffffffffffffff1673ffffffffffffffffffffffffffffffffffffffff1681526020019081526020015f205f6101000a81548160ff021916908315150217905550611ad9611a56565b73ffffffffffffffffffffffffffffffffffffffff168273ffffffffffffffffffffffffffffffffffffffff16847ff6391f5c32d9c69d2a47ea670b442974b53935d1edc7fd64eb21e047a839171b60405160405180910390a460019050611b40565b5f90505b92915050565b611b508282610a12565b611b935780826040517fe2517d3f000000000000000000000000000000000000000000000000000000008152600401611b8a929190612bad565b60405180910390fd5b5050565b6040518060c001604052805f81526020015f81526020015f81526020015f81526020015f73ffffffffffffffffffffffffffffffffffffffff1681526020015f81525090565b6040518061012001604052805f81526020016060815260200160608152602001606081526020015f81526020015f81526020015f73ffffffffffffffffffffffffffffffffffffffff1681526020015f8152602001606081525090565b6040518060e001604052805f81526020015f8152602001606081526020015f81526020015f73ffffffffffffffffffffffffffffffffffffffff1681526020015f8152602001606081525090565b5f5ffd5b5f5ffd5b5f7fffffffff0000000000000000000000000000000000000000000000000000000082169050919050565b611cc481611c90565b8114611cce575f5ffd5b50565b5f81359050611cdf81611cbb565b92915050565b5f60208284031215611cfa57611cf9611c88565b5b5f611d0784828501611cd1565b91505092915050565b5f8115159050919050565b611d2481611d10565b82525050565b5f602082019050611d3d5f830184611d1b565b92915050565b5f819050919050565b611d5581611d43565b82525050565b5f602082019050611d6e5f830184611d4c565b92915050565b611d7d81611d43565b8114611d87575f5ffd5b50565b5f81359050611d9881611d74565b92915050565b5f60208284031215611db357611db2611c88565b5b5f611dc084828501611d8a565b91505092915050565b5f73ffffffffffffffffffffffffffffffffffffffff82169050919050565b5f611df282611dc9565b9050919050565b611e0281611de8565b8114611e0c575f5ffd5b50565b5f81359050611e1d81611df9565b92915050565b5f5f60408385031215611e3957611e38611c88565b5b5f611e4685828601611d8a565b9250506020611e5785828601611e0f565b9150509250929050565b5f819050919050565b611e7381611e61565b8114611e7d575f5ffd5b50565b5f81359050611e8e81611e6a565b92915050565b5f5ffd5b5f5ffd5b5f5ffd5b5f5f83601f840112611eb557611eb4611e94565b5b8235905067ffffffffffffffff811115611ed257611ed1611e98565b5b602083019150836001820283011115611eee57611eed611e9c565b5b9250929050565b5f5f5f5f5f5f60808789031215611f0f57611f0e611c88565b5b5f611f1c89828a01611e80565b965050602087013567ffffffffffffffff811115611f3d57611f3c611c8c565b5b611f4989828a01611ea0565b95509550506040611f5c89828a01611e80565b935050606087013567ffffffffffffffff811115611f7d57611f7c611c8c565b5b611f8989828a01611ea0565b92509250509295509295509295565b5f60208284031215611fad57611fac611c88565b5b5f611fba84828501611e80565b91505092915050565b611fcc81611e61565b82525050565b611fdb81611de8565b82525050565b60c082015f820151611ff55f850182611fc3565b5060208201516120086020850182611fc3565b50604082015161201b6040850182611fc3565b50606082015161202e6060850182611fc3565b5060808201516120416080850182611fd2565b5060a082015161205460a0850182611fc3565b50505050565b5f60c08201905061206d5f830184611fe1565b92915050565b61207c81611e61565b82525050565b5f6020820190506120955f830184612073565b92915050565b5f81519050919050565b5f82825260208201905092915050565b8281835e5f83830152505050565b5f601f19601f8301169050919050565b5f6120dd8261209b565b6120e781856120a5565b93506120f78185602086016120b5565b612100816120c3565b840191505092915050565b5f61012083015f8301516121215f860182611fc3565b506020830151848203602086015261213982826120d3565b9150506040830151848203604086015261215382826120d3565b9150506060830151848203606086015261216d82826120d3565b91505060808301516121826080860182611fc3565b5060a083015161219560a0860182611fc3565b5060c08301516121a860c0860182611fd2565b5060e08301516121bb60e0860182611fc3565b506101008301518482036101008601526121d582826120d3565b9150508091505092915050565b5f6020820190508181035f8301526121fa818461210b565b905092915050565b61220b81611de8565b82525050565b5f60c0820190506122245f830189612073565b6122316020830188612073565b61223e6040830187612073565b61224b6060830186612073565b6122586080830185612202565b61226560a0830184612073565b979650505050505050565b5f5f6040838503121561228657612285611c88565b5b5f61229385828601611e80565b92505060206122a485828601611e80565b9150509250929050565b5f60e083015f8301516122c35f860182611fc3565b5060208301516122d66020860182611fc3565b50604083015184820360408601526122ee82826120d3565b91505060608301516123036060860182611fc3565b5060808301516123166080860182611fd2565b5060a083015161232960a0860182611fc3565b5060c083015184820360c086015261234182826120d3565b9150508091505092915050565b5f6020820190508181035f83015261236681846122ae565b905092915050565b5f5f5f5f5f5f5f5f5f60a08a8c03121561238b5761238a611c88565b5b5f8a013567ffffffffffffffff8111156123a8576123a7611c8c565b5b6123b48c828d01611ea0565b995099505060208a013567ffffffffffffffff8111156123d7576123d6611c8c565b5b6123e38c828d01611ea0565b975097505060408a013567ffffffffffffffff81111561240657612405611c8c565b5b6124128c828d01611ea0565b955095505060606124258c828d01611e80565b93505060808a013567ffffffffffffffff81111561244657612445611c8c565b5b6124528c828d01611ea0565b92509250509295985092959850929598565b5f82825260208201905092915050565b5f61247e8261209b565b6124888185612464565b93506124988185602086016120b5565b6124a1816120c3565b840191505092915050565b5f610120820190506124c05f83018c612073565b81810360208301526124d2818b612474565b905081810360408301526124e6818a612474565b905081810360608301526124fa8189612474565b90506125096080830188612073565b61251660a0830187612073565b61252360c0830186612202565b61253060e0830185612073565b8181036101008301526125438184612474565b90509a9950505050505050505050565b5f60e0820190506125665f83018a612073565b6125736020830189612073565b81810360408301526125858188612474565b90506125946060830187612073565b6125a16080830186612202565b6125ae60a0830185612073565b81810360c08301526125c08184612474565b905098975050505050505050565b7f4e6f74206261746368206f776e657200000000000000000000000000000000005f82015250565b5f612602600f83612464565b915061260d826125ce565b602082019050919050565b5f6020820190508181035f83015261262f816125f6565b9050919050565b7f517479206d757374206265203e203000000000000000000000000000000000005f82015250565b5f61266a600f83612464565b915061267582612636565b602082019050919050565b5f6020820190508181035f8301526126978161265e565b9050919050565b7f496e73756666696369656e74206261746368207175616e7469747900000000005f82015250565b5f6126d2601b83612464565b91506126dd8261269e565b602082019050919050565b5f6020820190508181035f8301526126ff816126c6565b9050919050565b7f4e487b71000000000000000000000000000000000000000000000000000000005f52601160045260245ffd5b5f61273d82611e61565b915061274883611e61565b92508282039050818111156127605761275f612706565b5b92915050565b5f61277082611e61565b91507fffffffffffffffffffffffffffffffffffffffffffffffffffffffffffffffff82036127a2576127a1612706565b5b600182019050919050565b7f4e487b71000000000000000000000000000000000000000000000000000000005f52604160045260245ffd5b7f4e487b71000000000000000000000000000000000000000000000000000000005f52602260045260245ffd5b5f600282049050600182168061281e57607f821691505b602082108103612831576128306127da565b5b50919050565b5f819050815f5260205f209050919050565b5f6020601f8301049050919050565b5f82821b905092915050565b5f600883026128937fffffffffffffffffffffffffffffffffffffffffffffffffffffffffffffffff82612858565b61289d8683612858565b95508019841693508086168417925050509392505050565b5f819050919050565b5f6128d86128d36128ce84611e61565b6128b5565b611e61565b9050919050565b5f819050919050565b6128f1836128be565b6129056128fd826128df565b848454612864565b825550505050565b5f5f905090565b61291c61290d565b6129278184846128e8565b505050565b5b8181101561294a5761293f5f82612914565b60018101905061292d565b5050565b601f82111561298f5761296081612837565b61296984612849565b81016020851015612978578190505b61298c61298485612849565b83018261292c565b50505b505050565b5f82821c905092915050565b5f6129af5f1984600802612994565b1980831691505092915050565b5f6129c783836129a0565b9150826002028217905092915050565b6129e08261209b565b67ffffffffffffffff8111156129f9576129f86127ad565b5b612a038254612807565b612a0e82828561294e565b5f60209050601f831160018114612a3f575f8415612a2d578287015190505b612a3785826129bc565b865550612a9e565b601f198416612a4d86612837565b5f5b82811015612a7457848901518255600182019150602085019450602081019050612a4f565b86831015612a915784890151612a8d601f8916826129a0565b8355505b6001600288020188555050505b505050505050565b828183375f83830152505050565b5f612abf8385612464565b9350612acc838584612aa6565b612ad5836120c3565b840190509392505050565b5f6060820190508181035f830152612af9818688612ab4565b9050612b086020830185612073565b612b156040830184612073565b95945050505050565b7f496e73756666696369656e74206c6f74207175616e74697479000000000000005f82015250565b5f612b52601983612464565b9150612b5d82612b1e565b602082019050919050565b5f6020820190508181035f830152612b7f81612b46565b9050919050565b5f604082019050612b995f830185612073565b612ba66020830184612073565b9392505050565b5f604082019050612bc05f830185612202565b612bcd6020830184611d4c565b939250505056fea26469706673582212203f7c52eeca2e4c2ae5c31692be65e7abac89589008a7d2300ddffdcce335183c64736f6c634300081e0033",
					"opcodes": "PUSH1 0x80 PUSH1 0x40 MSTORE CALLVALUE DUP1 ISZERO PUSH2 0xF JUMPI PUSH0 PUSH0 REVERT JUMPDEST POP PUSH2 0x22 PUSH0 PUSH0 SHL CALLER PUSH2 0x28 PUSH1 0x20 SHL PUSH1 0x20 SHR JUMP JUMPDEST POP PUSH2 0x187 JUMP JUMPDEST PUSH0 PUSH2 0x39 DUP4 DUP4 PUSH2 0x11D PUSH1 0x20 SHL PUSH1 0x20 SHR JUMP JUMPDEST PUSH2 0x113 JUMPI PUSH1 0x1 PUSH0 PUSH0 DUP6 DUP2 MSTORE PUSH1 0x20 ADD SWAP1 DUP2 MSTORE PUSH1 0x20 ADD PUSH0 KECCAK256 PUSH0 ADD PUSH0 DUP5 PUSH20 0xFFFFFFFFFFFFFFFFFFFFFFFFFFFFFFFFFFFFFFFF AND PUSH20 0xFFFFFFFFFFFFFFFFFFFFFFFFFFFFFFFFFFFFFFFF AND DUP2 MSTORE PUSH1 0x20 ADD SWAP1 DUP2 MSTORE PUSH1 0x20 ADD PUSH0 KECCAK256 PUSH0 PUSH2 0x100 EXP DUP2 SLOAD DUP2 PUSH1 0xFF MUL NOT AND SWAP1 DUP4 ISZERO ISZERO MUL OR SWAP1 SSTORE POP PUSH2 0xB0 PUSH2 0x180 PUSH1 0x20 SHL PUSH1 0x20 SHR JUMP JUMPDEST PUSH20 0xFFFFFFFFFFFFFFFFFFFFFFFFFFFFFFFFFFFFFFFF AND DUP3 PUSH20 0xFFFFFFFFFFFFFFFFFFFFFFFFFFFFFFFFFFFFFFFF AND DUP5 PUSH32 0x2F8788117E7EFF1D82E926EC794901D17C78024A50270940304540A733656F0D PUSH1 0x40 MLOAD PUSH1 0x40 MLOAD DUP1 SWAP2 SUB SWAP1 LOG4 PUSH1 0x1 SWAP1 POP PUSH2 0x117 JUMP JUMPDEST PUSH0 SWAP1 POP JUMPDEST SWAP3 SWAP2 POP POP JUMP JUMPDEST PUSH0 PUSH0 PUSH0 DUP5 DUP2 MSTORE PUSH1 0x20 ADD SWAP1 DUP2 MSTORE PUSH1 0x20 ADD PUSH0 KECCAK256 PUSH0 ADD PUSH0 DUP4 PUSH20 0xFFFFFFFFFFFFFFFFFFFFFFFFFFFFFFFFFFFFFFFF AND PUSH20 0xFFFFFFFFFFFFFFFFFFFFFFFFFFFFFFFFFFFFFFFF AND DUP2 MSTORE PUSH1 0x20 ADD SWAP1 DUP2 MSTORE PUSH1 0x20 ADD PUSH0 KECCAK256 PUSH0 SWAP1 SLOAD SWAP1 PUSH2 0x100 EXP SWAP1 DIV PUSH1 0xFF AND SWAP1 POP SWAP3 SWAP2 POP POP JUMP JUMPDEST PUSH0 CALLER SWAP1 POP SWAP1 JUMP JUMPDEST PUSH2 0x2C0A DUP1 PUSH2 0x194 PUSH0 CODECOPY PUSH0 RETURN INVALID PUSH1 0x80 PUSH1 0x40 MSTORE CALLVALUE DUP1 ISZERO PUSH2 0xF JUMPI PUSH0 PUSH0 REVERT JUMPDEST POP PUSH1 0x4 CALLDATASIZE LT PUSH2 0x135 JUMPI PUSH0 CALLDATALOAD PUSH1 0xE0 SHR DUP1 PUSH4 0xA217FDDF GT PUSH2 0xB6 JUMPI DUP1 PUSH4 0xB4E89751 GT PUSH2 0x7A JUMPI DUP1 PUSH4 0xB4E89751 EQ PUSH2 0x366 JUMPI DUP1 PUSH4 0xC8DBE38D EQ PUSH2 0x382 JUMPI DUP1 PUSH4 0xCCB99282 EQ PUSH2 0x3B2 JUMPI DUP1 PUSH4 0xD547741F EQ PUSH2 0x3CE JUMPI DUP1 PUSH4 0xF1648E84 EQ PUSH2 0x3EA JUMPI DUP1 PUSH4 0xF38E0A3D EQ PUSH2 0x422 JUMPI PUSH2 0x135 JUMP JUMPDEST DUP1 PUSH4 0xA217FDDF EQ PUSH2 0x2A7 JUMPI DUP1 PUSH4 0xA546FF55 EQ PUSH2 0x2C5 JUMPI DUP1 PUSH4 0xA8FABFA5 EQ PUSH2 0x2E3 JUMPI DUP1 PUSH4 0xAB995D12 EQ PUSH2 0x301 JUMPI DUP1 PUSH4 0xB32C4D8D EQ PUSH2 0x331 JUMPI PUSH2 0x135 JUMP JUMPDEST DUP1 PUSH4 0x36568ABE GT PUSH2 0xFD JUMPI DUP1 PUSH4 0x36568ABE EQ PUSH2 0x1F1 JUMPI DUP1 PUSH4 0x3C4B71CD EQ PUSH2 0x20D JUMPI DUP1 PUSH4 0x5AC44282 EQ PUSH2 0x229 JUMPI DUP1 PUSH4 0x5E58D6A7 EQ PUSH2 0x259 JUMPI DUP1 PUSH4 0x91D14854 EQ PUSH2 0x277 JUMPI PUSH2 0x135 JUMP JUMPDEST DUP1 PUSH4 0x1FFC9A7 EQ PUSH2 0x139 JUMPI DUP1 PUSH4 0x4A0FB17 EQ PUSH2 0x169 JUMPI DUP1 PUSH4 0x189E06E7 EQ PUSH2 0x187 JUMPI DUP1 PUSH4 0x248A9CA3 EQ PUSH2 0x1A5 JUMPI DUP1 PUSH4 0x2F2FF15D EQ PUSH2 0x1D5 JUMPI JUMPDEST PUSH0 PUSH0 REVERT JUMPDEST PUSH2 0x153 PUSH1 0x4 DUP1 CALLDATASIZE SUB DUP2 ADD SWAP1 PUSH2 0x14E SWAP2 SWAP1 PUSH2 0x1CE5 JUMP JUMPDEST PUSH2 0x458 JUMP JUMPDEST PUSH1 0x40 MLOAD PUSH2 0x160 SWAP2 SWAP1 PUSH2 0x1D2A JUMP JUMPDEST PUSH1 0x40 MLOAD DUP1 SWAP2 SUB SWAP1 RETURN JUMPDEST PUSH2 0x171 PUSH2 0x4D1 JUMP JUMPDEST PUSH1 0x40 MLOAD PUSH2 0x17E SWAP2 SWAP1 PUSH2 0x1D5B JUMP JUMPDEST PUSH1 0x40 MLOAD DUP1 SWAP2 SUB SWAP1 RETURN JUMPDEST PUSH2 0x18F PUSH2 0x4F5 JUMP JUMPDEST PUSH1 0x40 MLOAD PUSH2 0x19C SWAP2 SWAP1 PUSH2 0x1D5B JUMP JUMPDEST PUSH1 0x40 MLOAD DUP1 SWAP2 SUB SWAP1 RETURN JUMPDEST PUSH2 0x1BF PUSH1 0x4 DUP1 CALLDATASIZE SUB DUP2 ADD SWAP1 PUSH2 0x1BA SWAP2 SWAP1 PUSH2 0x1D9E JUMP JUMPDEST PUSH2 0x519 JUMP JUMPDEST PUSH1 0x40 MLOAD PUSH2 0x1CC SWAP2 SWAP1 PUSH2 0x1D5B JUMP JUMPDEST PUSH1 0x40 MLOAD DUP1 SWAP2 SUB SWAP1 RETURN JUMPDEST PUSH2 0x1EF PUSH1 0x4 DUP1 CALLDATASIZE SUB DUP2 ADD SWAP1 PUSH2 0x1EA SWAP2 SWAP1 PUSH2 0x1E23 JUMP JUMPDEST PUSH2 0x535 JUMP JUMPDEST STOP JUMPDEST PUSH2 0x20B PUSH1 0x4 DUP1 CALLDATASIZE SUB DUP2 ADD SWAP1 PUSH2 0x206 SWAP2 SWAP1 PUSH2 0x1E23 JUMP JUMPDEST PUSH2 0x557 JUMP JUMPDEST STOP JUMPDEST PUSH2 0x227 PUSH1 0x4 DUP1 CALLDATASIZE SUB DUP2 ADD SWAP1 PUSH2 0x222 SWAP2 SWAP1 PUSH2 0x1EF5 JUMP JUMPDEST PUSH2 0x5D2 JUMP JUMPDEST STOP JUMPDEST PUSH2 0x243 PUSH1 0x4 DUP1 CALLDATASIZE SUB DUP2 ADD SWAP1 PUSH2 0x23E SWAP2 SWAP1 PUSH2 0x1F98 JUMP JUMPDEST PUSH2 0x958 JUMP JUMPDEST PUSH1 0x40 MLOAD PUSH2 0x250 SWAP2 SWAP1 PUSH2 0x205A JUMP JUMPDEST PUSH1 0x40 MLOAD DUP1 SWAP2 SUB SWAP1 RETURN JUMPDEST PUSH2 0x261 PUSH2 0xA09 JUMP JUMPDEST PUSH1 0x40 MLOAD PUSH2 0x26E SWAP2 SWAP1 PUSH2 0x2082 JUMP JUMPDEST PUSH1 0x40 MLOAD DUP1 SWAP2 SUB SWAP1 RETURN JUMPDEST PUSH2 0x291 PUSH1 0x4 DUP1 CALLDATASIZE SUB DUP2 ADD SWAP1 PUSH2 0x28C SWAP2 SWAP1 PUSH2 0x1E23 JUMP JUMPDEST PUSH2 0xA12 JUMP JUMPDEST PUSH1 0x40 MLOAD PUSH2 0x29E SWAP2 SWAP1 PUSH2 0x1D2A JUMP JUMPDEST PUSH1 0x40 MLOAD DUP1 SWAP2 SUB SWAP1 RETURN JUMPDEST PUSH2 0x2AF PUSH2 0xA75 JUMP JUMPDEST PUSH1 0x40 MLOAD PUSH2 0x2BC SWAP2 SWAP1 PUSH2 0x1D5B JUMP JUMPDEST PUSH1 0x40 MLOAD DUP1 SWAP2 SUB SWAP1 RETURN JUMPDEST PUSH2 0x2CD PUSH2 0xA7B JUMP JUMPDEST PUSH1 0x40 MLOAD PUSH2 0x2DA SWAP2 SWAP1 PUSH2 0x2082 JUMP JUMPDEST PUSH1 0x40 MLOAD DUP1 SWAP2 SUB SWAP1 RETURN JUMPDEST PUSH2 0x2EB PUSH2 0xA84 JUMP JUMPDEST PUSH1 0x40 MLOAD PUSH2 0x2F8 SWAP2 SWAP1 PUSH2 0x2082 JUMP JUMPDEST PUSH1 0x40 MLOAD DUP1 SWAP2 SUB SWAP1 RETURN JUMPDEST PUSH2 0x31B PUSH1 0x4 DUP1 CALLDATASIZE SUB DUP2 ADD SWAP1 PUSH2 0x316 SWAP2 SWAP1 PUSH2 0x1F98 JUMP JUMPDEST PUSH2 0xA8D JUMP JUMPDEST PUSH1 0x40 MLOAD PUSH2 0x328 SWAP2 SWAP1 PUSH2 0x21E2 JUMP JUMPDEST PUSH1 0x40 MLOAD DUP1 SWAP2 SUB SWAP1 RETURN JUMPDEST PUSH2 0x34B PUSH1 0x4 DUP1 CALLDATASIZE SUB DUP2 ADD SWAP1 PUSH2 0x346 SWAP2 SWAP1 PUSH2 0x1F98 JUMP JUMPDEST PUSH2 0xD75 JUMP JUMPDEST PUSH1 0x40 MLOAD PUSH2 0x35D SWAP7 SWAP6 SWAP5 SWAP4 SWAP3 SWAP2 SWAP1 PUSH2 0x2211 JUMP JUMPDEST PUSH1 0x40 MLOAD DUP1 SWAP2 SUB SWAP1 RETURN JUMPDEST PUSH2 0x380 PUSH1 0x4 DUP1 CALLDATASIZE SUB DUP2 ADD SWAP1 PUSH2 0x37B SWAP2 SWAP1 PUSH2 0x2270 JUMP JUMPDEST PUSH2 0xDCC JUMP JUMPDEST STOP JUMPDEST PUSH2 0x39C PUSH1 0x4 DUP1 CALLDATASIZE SUB DUP2 ADD SWAP1 PUSH2 0x397 SWAP2 SWAP1 PUSH2 0x1F98 JUMP JUMPDEST PUSH2 0xFFB JUMP JUMPDEST PUSH1 0x40 MLOAD PUSH2 0x3A9 SWAP2 SWAP1 PUSH2 0x234E JUMP JUMPDEST PUSH1 0x40 MLOAD DUP1 SWAP2 SUB SWAP1 RETURN JUMPDEST PUSH2 0x3CC PUSH1 0x4 DUP1 CALLDATASIZE SUB DUP2 ADD SWAP1 PUSH2 0x3C7 SWAP2 SWAP1 PUSH2 0x236E JUMP JUMPDEST PUSH2 0x11C2 JUMP JUMPDEST STOP JUMPDEST PUSH2 0x3E8 PUSH1 0x4 DUP1 CALLDATASIZE SUB DUP2 ADD SWAP1 PUSH2 0x3E3 SWAP2 SWAP1 PUSH2 0x1E23 JUMP JUMPDEST PUSH2 0x14E4 JUMP JUMPDEST STOP JUMPDEST PUSH2 0x404 PUSH1 0x4 DUP1 CALLDATASIZE SUB DUP2 ADD SWAP1 PUSH2 0x3FF SWAP2 SWAP1 PUSH2 0x1F98 JUMP JUMPDEST PUSH2 0x1506 JUMP JUMPDEST PUSH1 0x40 MLOAD PUSH2 0x419 SWAP10 SWAP9 SWAP8 SWAP7 SWAP6 SWAP5 SWAP4 SWAP3 SWAP2 SWAP1 PUSH2 0x24AC JUMP JUMPDEST PUSH1 0x40 MLOAD DUP1 SWAP2 SUB SWAP1 RETURN JUMPDEST PUSH2 0x43C PUSH1 0x4 DUP1 CALLDATASIZE SUB DUP2 ADD SWAP1 PUSH2 0x437 SWAP2 SWAP1 PUSH2 0x1F98 JUMP JUMPDEST PUSH2 0x1787 JUMP JUMPDEST PUSH1 0x40 MLOAD PUSH2 0x44F SWAP8 SWAP7 SWAP6 SWAP5 SWAP4 SWAP3 SWAP2 SWAP1 PUSH2 0x2553 JUMP JUMPDEST PUSH1 0x40 MLOAD DUP1 SWAP2 SUB SWAP1 RETURN JUMPDEST PUSH0 PUSH32 0x7965DB0B00000000000000000000000000000000000000000000000000000000 PUSH28 0xFFFFFFFFFFFFFFFFFFFFFFFFFFFFFFFFFFFFFFFFFFFFFFFFFFFFFFFF NOT AND DUP3 PUSH28 0xFFFFFFFFFFFFFFFFFFFFFFFFFFFFFFFFFFFFFFFFFFFFFFFFFFFFFFFF NOT AND EQ DUP1 PUSH2 0x4CA JUMPI POP PUSH2 0x4C9 DUP3 PUSH2 0x18F0 JUMP JUMPDEST JUMPDEST SWAP1 POP SWAP2 SWAP1 POP JUMP JUMPDEST PUSH32 0xDFBEFBF47CFE66B701D8CFDBCE1DE81C821590819CB07E71CB01B6602FB0EE27 DUP2 JUMP JUMPDEST PUSH32 0x89B57A644ED9FCE05F6C753CF42A08C2333C48E5A3D803E17CEE19087358722B DUP2 JUMP JUMPDEST PUSH0 PUSH0 PUSH0 DUP4 DUP2 MSTORE PUSH1 0x20 ADD SWAP1 DUP2 MSTORE PUSH1 0x20 ADD PUSH0 KECCAK256 PUSH1 0x1 ADD SLOAD SWAP1 POP SWAP2 SWAP1 POP JUMP JUMPDEST PUSH2 0x53E DUP3 PUSH2 0x519 JUMP JUMPDEST PUSH2 0x547 DUP2 PUSH2 0x1959 JUMP JUMPDEST PUSH2 0x551 DUP4 DUP4 PUSH2 0x196D JUMP JUMPDEST POP POP POP POP JUMP JUMPDEST PUSH2 0x55F PUSH2 0x1A56 JUMP JUMPDEST PUSH20 0xFFFFFFFFFFFFFFFFFFFFFFFFFFFFFFFFFFFFFFFF AND DUP2 PUSH20 0xFFFFFFFFFFFFFFFFFFFFFFFFFFFFFFFFFFFFFFFF AND EQ PUSH2 0x5C3 JUMPI PUSH1 0x40 MLOAD PUSH32 0x6697B23200000000000000000000000000000000000000000000000000000000 DUP2 MSTORE PUSH1 0x4 ADD PUSH1 0x40 MLOAD DUP1 SWAP2 SUB SWAP1 REVERT JUMPDEST PUSH2 0x5CD DUP3 DUP3 PUSH2 0x1A5D JUMP JUMPDEST POP POP POP JUMP JUMPDEST PUSH32 0xDFBEFBF47CFE66B701D8CFDBCE1DE81C821590819CB07E71CB01B6602FB0EE27 PUSH2 0x5FC DUP2 PUSH2 0x1959 JUMP JUMPDEST CALLER PUSH20 0xFFFFFFFFFFFFFFFFFFFFFFFFFFFFFFFFFFFFFFFF AND PUSH1 0x2 PUSH0 DUP10 DUP2 MSTORE PUSH1 0x20 ADD SWAP1 DUP2 MSTORE PUSH1 0x20 ADD PUSH0 KECCAK256 PUSH1 0x4 ADD PUSH0 SWAP1 SLOAD SWAP1 PUSH2 0x100 EXP SWAP1 DIV PUSH20 0xFFFFFFFFFFFFFFFFFFFFFFFFFFFFFFFFFFFFFFFF AND PUSH20 0xFFFFFFFFFFFFFFFFFFFFFFFFFFFFFFFFFFFFFFFF AND EQ PUSH2 0x69D JUMPI PUSH1 0x40 MLOAD PUSH32 0x8C379A000000000000000000000000000000000000000000000000000000000 DUP2 MSTORE PUSH1 0x4 ADD PUSH2 0x694 SWAP1 PUSH2 0x2618 JUMP JUMPDEST PUSH1 0x40 MLOAD DUP1 SWAP2 SUB SWAP1 REVERT JUMPDEST PUSH0 DUP5 GT PUSH2 0x6DF JUMPI PUSH1 0x40 MLOAD PUSH32 0x8C379A000000000000000000000000000000000000000000000000000000000 DUP2 MSTORE PUSH1 0x4 ADD PUSH2 0x6D6 SWAP1 PUSH2 0x2680 JUMP JUMPDEST PUSH1 0x40 MLOAD DUP1 SWAP2 SUB SWAP1 REVERT JUMPDEST DUP4 PUSH1 0x2 PUSH0 DUP10 DUP2 MSTORE PUSH1 0x20 ADD SWAP1 DUP2 MSTORE PUSH1 0x20 ADD PUSH0 KECCAK256 PUSH1 0x3 ADD SLOAD LT ISZERO PUSH2 0x736 JUMPI PUSH1 0x40 MLOAD PUSH32 0x8C379A000000000000000000000000000000000000000000000000000000000 DUP2 MSTORE PUSH1 0x4 ADD PUSH2 0x72D SWAP1 PUSH2 0x26E8 JUMP JUMPDEST PUSH1 0x40 MLOAD DUP1 SWAP2 SUB SWAP1 REVERT JUMPDEST DUP4 PUSH1 0x2 PUSH0 DUP10 DUP2 MSTORE PUSH1 0x20 ADD SWAP1 DUP2 MSTORE PUSH1 0x20 ADD PUSH0 KECCAK256 PUSH1 0x3 ADD PUSH0 DUP3 DUP3 SLOAD PUSH2 0x759 SWAP2 SWAP1 PUSH2 0x2733 JUMP JUMPDEST SWAP3 POP POP DUP2 SWAP1 SSTORE POP PUSH1 0x6 PUSH0 DUP2 SLOAD DUP1 SWAP3 SWAP2 SWAP1 PUSH2 0x772 SWAP1 PUSH2 0x2766 JUMP JUMPDEST SWAP2 SWAP1 POP SSTORE POP PUSH0 PUSH1 0x6 SLOAD SWAP1 POP PUSH1 0x40 MLOAD DUP1 PUSH1 0xE0 ADD PUSH1 0x40 MSTORE DUP1 DUP3 DUP2 MSTORE PUSH1 0x20 ADD DUP10 DUP2 MSTORE PUSH1 0x20 ADD DUP9 DUP9 DUP1 DUP1 PUSH1 0x1F ADD PUSH1 0x20 DUP1 SWAP2 DIV MUL PUSH1 0x20 ADD PUSH1 0x40 MLOAD SWAP1 DUP2 ADD PUSH1 0x40 MSTORE DUP1 SWAP4 SWAP3 SWAP2 SWAP1 DUP2 DUP2 MSTORE PUSH1 0x20 ADD DUP4 DUP4 DUP1 DUP3 DUP5 CALLDATACOPY PUSH0 DUP2 DUP5 ADD MSTORE PUSH1 0x1F NOT PUSH1 0x1F DUP3 ADD AND SWAP1 POP DUP1 DUP4 ADD SWAP3 POP POP POP POP POP POP POP DUP2 MSTORE PUSH1 0x20 ADD DUP7 DUP2 MSTORE PUSH1 0x20 ADD CALLER PUSH20 0xFFFFFFFFFFFFFFFFFFFFFFFFFFFFFFFFFFFFFFFF AND DUP2 MSTORE PUSH1 0x20 ADD TIMESTAMP DUP2 MSTORE PUSH1 0x20 ADD DUP6 DUP6 DUP1 DUP1 PUSH1 0x1F ADD PUSH1 0x20 DUP1 SWAP2 DIV MUL PUSH1 0x20 ADD PUSH1 0x40 MLOAD SWAP1 DUP2 ADD PUSH1 0x40 MSTORE DUP1 SWAP4 SWAP3 SWAP2 SWAP1 DUP2 DUP2 MSTORE PUSH1 0x20 ADD DUP4 DUP4 DUP1 DUP3 DUP5 CALLDATACOPY PUSH0 DUP2 DUP5 ADD MSTORE PUSH1 0x1F NOT PUSH1 0x1F DUP3 ADD AND SWAP1 POP DUP1 DUP4 ADD SWAP3 POP POP POP POP POP POP POP DUP2 MSTORE POP PUSH1 0x3 PUSH0 DUP4 DUP2 MSTORE PUSH1 0x20 ADD SWAP1 DUP2 MSTORE PUSH1 0x20 ADD PUSH0 KECCAK256 PUSH0 DUP3 ADD MLOAD DUP2 PUSH0 ADD SSTORE PUSH1 0x20 DUP3 ADD MLOAD DUP2 PUSH1 0x1 ADD SSTORE PUSH1 0x40 DUP3 ADD MLOAD DUP2 PUSH1 0x2 ADD SWAP1 DUP2 PUSH2 0x884 SWAP2 SWAP1 PUSH2 0x29D7 JUMP JUMPDEST POP PUSH1 0x60 DUP3 ADD MLOAD DUP2 PUSH1 0x3 ADD SSTORE PUSH1 0x80 DUP3 ADD MLOAD DUP2 PUSH1 0x4 ADD PUSH0 PUSH2 0x100 EXP DUP2 SLOAD DUP2 PUSH20 0xFFFFFFFFFFFFFFFFFFFFFFFFFFFFFFFFFFFFFFFF MUL NOT AND SWAP1 DUP4 PUSH20 0xFFFFFFFFFFFFFFFFFFFFFFFFFFFFFFFFFFFFFFFF AND MUL OR SWAP1 SSTORE POP PUSH1 0xA0 DUP3 ADD MLOAD DUP2 PUSH1 0x5 ADD SSTORE PUSH1 0xC0 DUP3 ADD MLOAD DUP2 PUSH1 0x6 ADD SWAP1 DUP2 PUSH2 0x8F4 SWAP2 SWAP1 PUSH2 0x29D7 JUMP JUMPDEST POP SWAP1 POP POP CALLER PUSH20 0xFFFFFFFFFFFFFFFFFFFFFFFFFFFFFFFFFFFFFFFF AND DUP9 DUP3 PUSH32 0x777C60E45B2037CF59F29BC452A1E6B2AAF535F1C6ABA0073463B1AF4FE4B00A DUP11 DUP11 DUP11 TIMESTAMP PUSH1 0x40 MLOAD PUSH2 0x946 SWAP5 SWAP4 SWAP3 SWAP2 SWAP1 PUSH2 0x2AE0 JUMP JUMPDEST PUSH1 0x40 MLOAD DUP1 SWAP2 SUB SWAP1 LOG4 POP POP POP POP POP POP POP POP JUMP JUMPDEST PUSH2 0x960 PUSH2 0x1B97 JUMP JUMPDEST PUSH1 0x2 PUSH0 DUP4 DUP2 MSTORE PUSH1 0x20 ADD SWAP1 DUP2 MSTORE PUSH1 0x20 ADD PUSH0 KECCAK256 PUSH1 0x40 MLOAD DUP1 PUSH1 0xC0 ADD PUSH1 0x40 MSTORE SWAP1 DUP2 PUSH0 DUP3 ADD SLOAD DUP2 MSTORE PUSH1 0x20 ADD PUSH1 0x1 DUP3 ADD SLOAD DUP2 MSTORE PUSH1 0x20 ADD PUSH1 0x2 DUP3 ADD SLOAD DUP2 MSTORE PUSH1 0x20 ADD PUSH1 0x3 DUP3 ADD SLOAD DUP2 MSTORE PUSH1 0x20 ADD PUSH1 0x4 DUP3 ADD PUSH0 SWAP1 SLOAD SWAP1 PUSH2 0x100 EXP SWAP1 DIV PUSH20 0xFFFFFFFFFFFFFFFFFFFFFFFFFFFFFFFFFFFFFFFF AND PUSH20 0xFFFFFFFFFFFFFFFFFFFFFFFFFFFFFFFFFFFFFFFF AND PUSH20 0xFFFFFFFFFFFFFFFFFFFFFFFFFFFFFFFFFFFFFFFF AND DUP2 MSTORE PUSH1 0x20 ADD PUSH1 0x5 DUP3 ADD SLOAD DUP2 MSTORE POP POP SWAP1 POP SWAP2 SWAP1 POP JUMP JUMPDEST PUSH0 PUSH1 0x4 SLOAD SWAP1 POP SWAP1 JUMP JUMPDEST PUSH0 PUSH0 PUSH0 DUP5 DUP2 MSTORE PUSH1 0x20 ADD SWAP1 DUP2 MSTORE PUSH1 0x20 ADD PUSH0 KECCAK256 PUSH0 ADD PUSH0 DUP4 PUSH20 0xFFFFFFFFFFFFFFFFFFFFFFFFFFFFFFFFFFFFFFFF AND PUSH20 0xFFFFFFFFFFFFFFFFFFFFFFFFFFFFFFFFFFFFFFFF AND DUP2 MSTORE PUSH1 0x20 ADD SWAP1 DUP2 MSTORE PUSH1 0x20 ADD PUSH0 KECCAK256 PUSH0 SWAP1 SLOAD SWAP1 PUSH2 0x100 EXP SWAP1 DIV PUSH1 0xFF AND SWAP1 POP SWAP3 SWAP2 POP POP JUMP JUMPDEST PUSH0 PUSH0 SHL DUP2 JUMP JUMPDEST PUSH0 PUSH1 0x6 SLOAD SWAP1 POP SWAP1 JUMP JUMPDEST PUSH0 PUSH1 0x5 SLOAD SWAP1 POP SWAP1 JUMP JUMPDEST PUSH2 0xA95 PUSH2 0x1BDD JUMP JUMPDEST PUSH1 0x1 PUSH0 DUP4 DUP2 MSTORE PUSH1 0x20 ADD SWAP1 DUP2 MSTORE PUSH1 0x20 ADD PUSH0 KECCAK256 PUSH1 0x40 MLOAD DUP1 PUSH2 0x120 ADD PUSH1 0x40 MSTORE SWAP1 DUP2 PUSH0 DUP3 ADD SLOAD DUP2 MSTORE PUSH1 0x20 ADD PUSH1 0x1 DUP3 ADD DUP1 SLOAD PUSH2 0xACB SWAP1 PUSH2 0x2807 JUMP JUMPDEST DUP1 PUSH1 0x1F ADD PUSH1 0x20 DUP1 SWAP2 DIV MUL PUSH1 0x20 ADD PUSH1 0x40 MLOAD SWAP1 DUP2 ADD PUSH1 0x40 MSTORE DUP1 SWAP3 SWAP2 SWAP1 DUP2 DUP2 MSTORE PUSH1 0x20 ADD DUP3 DUP1 SLOAD PUSH2 0xAF7 SWAP1 PUSH2 0x2807 JUMP JUMPDEST DUP1 ISZERO PUSH2 0xB42 JUMPI DUP1 PUSH1 0x1F LT PUSH2 0xB19 JUMPI PUSH2 0x100 DUP1 DUP4 SLOAD DIV MUL DUP4 MSTORE SWAP2 PUSH1 0x20 ADD SWAP2 PUSH2 0xB42 JUMP JUMPDEST DUP3 ADD SWAP2 SWAP1 PUSH0 MSTORE PUSH1 0x20 PUSH0 KECCAK256 SWAP1 JUMPDEST DUP2 SLOAD DUP2 MSTORE SWAP1 PUSH1 0x1 ADD SWAP1 PUSH1 0x20 ADD DUP1 DUP4 GT PUSH2 0xB25 JUMPI DUP3 SWAP1 SUB PUSH1 0x1F AND DUP3 ADD SWAP2 JUMPDEST POP POP POP POP POP DUP2 MSTORE PUSH1 0x20 ADD PUSH1 0x2 DUP3 ADD DUP1 SLOAD PUSH2 0xB5B SWAP1 PUSH2 0x2807 JUMP JUMPDEST DUP1 PUSH1 0x1F ADD PUSH1 0x20 DUP1 SWAP2 DIV MUL PUSH1 0x20 ADD PUSH1 0x40 MLOAD SWAP1 DUP2 ADD PUSH1 0x40 MSTORE DUP1 SWAP3 SWAP2 SWAP1 DUP2 DUP2 MSTORE PUSH1 0x20 ADD DUP3 DUP1 SLOAD PUSH2 0xB87 SWAP1 PUSH2 0x2807 JUMP JUMPDEST DUP1 ISZERO PUSH2 0xBD2 JUMPI DUP1 PUSH1 0x1F LT PUSH2 0xBA9 JUMPI PUSH2 0x100 DUP1 DUP4 SLOAD DIV MUL DUP4 MSTORE SWAP2 PUSH1 0x20 ADD SWAP2 PUSH2 0xBD2 JUMP JUMPDEST DUP3 ADD SWAP2 SWAP1 PUSH0 MSTORE PUSH1 0x20 PUSH0 KECCAK256 SWAP1 JUMPDEST DUP2 SLOAD DUP2 MSTORE SWAP1 PUSH1 0x1 ADD SWAP1 PUSH1 0x20 ADD DUP1 DUP4 GT PUSH2 0xBB5 JUMPI DUP3 SWAP1 SUB PUSH1 0x1F AND DUP3 ADD SWAP2 JUMPDEST POP POP POP POP POP DUP2 MSTORE PUSH1 0x20 ADD PUSH1 0x3 DUP3 ADD DUP1 SLOAD PUSH2 0xBEB SWAP1 PUSH2 0x2807 JUMP JUMPDEST DUP1 PUSH1 0x1F ADD PUSH1 0x20 DUP1 SWAP2 DIV MUL PUSH1 0x20 ADD PUSH1 0x40 MLOAD SWAP1 DUP2 ADD PUSH1 0x40 MSTORE DUP1 SWAP3 SWAP2 SWAP1 DUP2 DUP2 MSTORE PUSH1 0x20 ADD DUP3 DUP1 SLOAD PUSH2 0xC17 SWAP1 PUSH2 0x2807 JUMP JUMPDEST DUP1 ISZERO PUSH2 0xC62 JUMPI DUP1 PUSH1 0x1F LT PUSH2 0xC39 JUMPI PUSH2 0x100 DUP1 DUP4 SLOAD DIV MUL DUP4 MSTORE SWAP2 PUSH1 0x20 ADD SWAP2 PUSH2 0xC62 JUMP JUMPDEST DUP3 ADD SWAP2 SWAP1 PUSH0 MSTORE PUSH1 0x20 PUSH0 KECCAK256 SWAP1 JUMPDEST DUP2 SLOAD DUP2 MSTORE SWAP1 PUSH1 0x1 ADD SWAP1 PUSH1 0x20 ADD DUP1 DUP4 GT PUSH2 0xC45 JUMPI DUP3 SWAP1 SUB PUSH1 0x1F AND DUP3 ADD SWAP2 JUMPDEST POP POP POP POP POP DUP2 MSTORE PUSH1 0x20 ADD PUSH1 0x4 DUP3 ADD SLOAD DUP2 MSTORE PUSH1 0x20 ADD PUSH1 0x5 DUP3 ADD SLOAD DUP2 MSTORE PUSH1 0x20 ADD PUSH1 0x6 DUP3 ADD PUSH0 SWAP1 SLOAD SWAP1 PUSH2 0x100 EXP SWAP1 DIV PUSH20 0xFFFFFFFFFFFFFFFFFFFFFFFFFFFFFFFFFFFFFFFF AND PUSH20 0xFFFFFFFFFFFFFFFFFFFFFFFFFFFFFFFFFFFFFFFF AND PUSH20 0xFFFFFFFFFFFFFFFFFFFFFFFFFFFFFFFFFFFFFFFF AND DUP2 MSTORE PUSH1 0x20 ADD PUSH1 0x7 DUP3 ADD SLOAD DUP2 MSTORE PUSH1 0x20 ADD PUSH1 0x8 DUP3 ADD DUP1 SLOAD PUSH2 0xCEE SWAP1 PUSH2 0x2807 JUMP JUMPDEST DUP1 PUSH1 0x1F ADD PUSH1 0x20 DUP1 SWAP2 DIV MUL PUSH1 0x20 ADD PUSH1 0x40 MLOAD SWAP1 DUP2 ADD PUSH1 0x40 MSTORE DUP1 SWAP3 SWAP2 SWAP1 DUP2 DUP2 MSTORE PUSH1 0x20 ADD DUP3 DUP1 SLOAD PUSH2 0xD1A SWAP1 PUSH2 0x2807 JUMP JUMPDEST DUP1 ISZERO PUSH2 0xD65 JUMPI DUP1 PUSH1 0x1F LT PUSH2 0xD3C JUMPI PUSH2 0x100 DUP1 DUP4 SLOAD DIV MUL DUP4 MSTORE SWAP2 PUSH1 0x20 ADD SWAP2 PUSH2 0xD65 JUMP JUMPDEST DUP3 ADD SWAP2 SWAP1 PUSH0 MSTORE PUSH1 0x20 PUSH0 KECCAK256 SWAP1 JUMPDEST DUP2 SLOAD DUP2 MSTORE SWAP1 PUSH1 0x1 ADD SWAP1 PUSH1 0x20 ADD DUP1 DUP4 GT PUSH2 0xD48 JUMPI DUP3 SWAP1 SUB PUSH1 0x1F AND DUP3 ADD SWAP2 JUMPDEST POP POP POP POP POP DUP2 MSTORE POP POP SWAP1 POP SWAP2 SWAP1 POP JUMP JUMPDEST PUSH1 0x2 PUSH1 0x20 MSTORE DUP1 PUSH0 MSTORE PUSH1 0x40 PUSH0 KECCAK256 PUSH0 SWAP2 POP SWAP1 POP DUP1 PUSH0 ADD SLOAD SWAP1 DUP1 PUSH1 0x1 ADD SLOAD SWAP1 DUP1 PUSH1 0x2 ADD SLOAD SWAP1 DUP1 PUSH1 0x3 ADD SLOAD SWAP1 DUP1 PUSH1 0x4 ADD PUSH0 SWAP1 SLOAD SWAP1 PUSH2 0x100 EXP SWAP1 DIV PUSH20 0xFFFFFFFFFFFFFFFFFFFFFFFFFFFFFFFFFFFFFFFF AND SWAP1 DUP1 PUSH1 0x5 ADD SLOAD SWAP1 POP DUP7 JUMP JUMPDEST PUSH32 0xDFBEFBF47CFE66B701D8CFDBCE1DE81C821590819CB07E71CB01B6602FB0EE27 PUSH2 0xDF6 DUP2 PUSH2 0x1959 JUMP JUMPDEST PUSH0 DUP3 GT PUSH2 0xE38 JUMPI PUSH1 0x40 MLOAD PUSH32 0x8C379A000000000000000000000000000000000000000000000000000000000 DUP2 MSTORE PUSH1 0x4 ADD PUSH2 0xE2F SWAP1 PUSH2 0x2680 JUMP JUMPDEST PUSH1 0x40 MLOAD DUP1 SWAP2 SUB SWAP1 REVERT JUMPDEST DUP2 PUSH1 0x1 PUSH0 DUP6 DUP2 MSTORE PUSH1 0x20 ADD SWAP1 DUP2 MSTORE PUSH1 0x20 ADD PUSH0 KECCAK256 PUSH1 0x5 ADD SLOAD LT ISZERO PUSH2 0xE8F JUMPI PUSH1 0x40 MLOAD PUSH32 0x8C379A000000000000000000000000000000000000000000000000000000000 DUP2 MSTORE PUSH1 0x4 ADD PUSH2 0xE86 SWAP1 PUSH2 0x2B68 JUMP JUMPDEST PUSH1 0x40 MLOAD DUP1 SWAP2 SUB SWAP1 REVERT JUMPDEST DUP2 PUSH1 0x1 PUSH0 DUP6 DUP2 MSTORE PUSH1 0x20 ADD SWAP1 DUP2 MSTORE PUSH1 0x20 ADD PUSH0 KECCAK256 PUSH1 0x5 ADD PUSH0 DUP3 DUP3 SLOAD PUSH2 0xEB2 SWAP2 SWAP1 PUSH2 0x2733 JUMP JUMPDEST SWAP3 POP POP DUP2 SWAP1 SSTORE POP PUSH1 0x5 PUSH0 DUP2 SLOAD DUP1 SWAP3 SWAP2 SWAP1 PUSH2 0xECB SWAP1 PUSH2 0x2766 JUMP JUMPDEST SWAP2 SWAP1 POP SSTORE POP PUSH0 PUSH1 0x5 SLOAD SWAP1 POP PUSH1 0x40 MLOAD DUP1 PUSH1 0xC0 ADD PUSH1 0x40 MSTORE DUP1 DUP3 DUP2 MSTORE PUSH1 0x20 ADD DUP6 DUP2 MSTORE PUSH1 0x20 ADD DUP5 DUP2 MSTORE PUSH1 0x20 ADD DUP5 DUP2 MSTORE PUSH1 0x20 ADD CALLER PUSH20 0xFFFFFFFFFFFFFFFFFFFFFFFFFFFFFFFFFFFFFFFF AND DUP2 MSTORE PUSH1 0x20 ADD TIMESTAMP DUP2 MSTORE POP PUSH1 0x2 PUSH0 DUP4 DUP2 MSTORE PUSH1 0x20 ADD SWAP1 DUP2 MSTORE PUSH1 0x20 ADD PUSH0 KECCAK256 PUSH0 DUP3 ADD MLOAD DUP2 PUSH0 ADD SSTORE PUSH1 0x20 DUP3 ADD MLOAD DUP2 PUSH1 0x1 ADD SSTORE PUSH1 0x40 DUP3 ADD MLOAD DUP2 PUSH1 0x2 ADD SSTORE PUSH1 0x60 DUP3 ADD MLOAD DUP2 PUSH1 0x3 ADD SSTORE PUSH1 0x80 DUP3 ADD MLOAD DUP2 PUSH1 0x4 ADD PUSH0 PUSH2 0x100 EXP DUP2 SLOAD DUP2 PUSH20 0xFFFFFFFFFFFFFFFFFFFFFFFFFFFFFFFFFFFFFFFF MUL NOT AND SWAP1 DUP4 PUSH20 0xFFFFFFFFFFFFFFFFFFFFFFFFFFFFFFFFFFFFFFFF AND MUL OR SWAP1 SSTORE POP PUSH1 0xA0 DUP3 ADD MLOAD DUP2 PUSH1 0x5 ADD SSTORE SWAP1 POP POP CALLER PUSH20 0xFFFFFFFFFFFFFFFFFFFFFFFFFFFFFFFFFFFFFFFF AND DUP2 DUP6 PUSH32 0xDD883F1B39882E144D2C960B6779523C9E5555A67BCBF5C31B3A730265C5B45A DUP7 TIMESTAMP PUSH1 0x40 MLOAD PUSH2 0xFED SWAP3 SWAP2 SWAP1 PUSH2 0x2B86 JUMP JUMPDEST PUSH1 0x40 MLOAD DUP1 SWAP2 SUB SWAP1 LOG4 POP POP POP POP JUMP JUMPDEST PUSH2 0x1003 PUSH2 0x1C3A JUMP JUMPDEST PUSH1 0x3 PUSH0 DUP4 DUP2 MSTORE PUSH1 0x20 ADD SWAP1 DUP2 MSTORE PUSH1 0x20 ADD PUSH0 KECCAK256 PUSH1 0x40 MLOAD DUP1 PUSH1 0xE0 ADD PUSH1 0x40 MSTORE SWAP1 DUP2 PUSH0 DUP3 ADD SLOAD DUP2 MSTORE PUSH1 0x20 ADD PUSH1 0x1 DUP3 ADD SLOAD DUP2 MSTORE PUSH1 0x20 ADD PUSH1 0x2 DUP3 ADD DUP1 SLOAD PUSH2 0x1042 SWAP1 PUSH2 0x2807 JUMP JUMPDEST DUP1 PUSH1 0x1F ADD PUSH1 0x20 DUP1 SWAP2 DIV MUL PUSH1 0x20 ADD PUSH1 0x40 MLOAD SWAP1 DUP2 ADD PUSH1 0x40 MSTORE DUP1 SWAP3 SWAP2 SWAP1 DUP2 DUP2 MSTORE PUSH1 0x20 ADD DUP3 DUP1 SLOAD PUSH2 0x106E SWAP1 PUSH2 0x2807 JUMP JUMPDEST DUP1 ISZERO PUSH2 0x10B9 JUMPI DUP1 PUSH1 0x1F LT PUSH2 0x1090 JUMPI PUSH2 0x100 DUP1 DUP4 SLOAD DIV MUL DUP4 MSTORE SWAP2 PUSH1 0x20 ADD SWAP2 PUSH2 0x10B9 JUMP JUMPDEST DUP3 ADD SWAP2 SWAP1 PUSH0 MSTORE PUSH1 0x20 PUSH0 KECCAK256 SWAP1 JUMPDEST DUP2 SLOAD DUP2 MSTORE SWAP1 PUSH1 0x1 ADD SWAP1 PUSH1 0x20 ADD DUP1 DUP4 GT PUSH2 0x109C JUMPI DUP3 SWAP1 SUB PUSH1 0x1F AND DUP3 ADD SWAP2 JUMPDEST POP POP POP POP POP DUP2 MSTORE PUSH1 0x20 ADD PUSH1 0x3 DUP3 ADD SLOAD DUP2 MSTORE PUSH1 0x20 ADD PUSH1 0x4 DUP3 ADD PUSH0 SWAP1 SLOAD SWAP1 PUSH2 0x100 EXP SWAP1 DIV PUSH20 0xFFFFFFFFFFFFFFFFFFFFFFFFFFFFFFFFFFFFFFFF AND PUSH20 0xFFFFFFFFFFFFFFFFFFFFFFFFFFFFFFFFFFFFFFFF AND PUSH20 0xFFFFFFFFFFFFFFFFFFFFFFFFFFFFFFFFFFFFFFFF AND DUP2 MSTORE PUSH1 0x20 ADD PUSH1 0x5 DUP3 ADD SLOAD DUP2 MSTORE PUSH1 0x20 ADD PUSH1 0x6 DUP3 ADD DUP1 SLOAD PUSH2 0x113B SWAP1 PUSH2 0x2807 JUMP JUMPDEST DUP1 PUSH1 0x1F ADD PUSH1 0x20 DUP1 SWAP2 DIV MUL PUSH1 0x20 ADD PUSH1 0x40 MLOAD SWAP1 DUP2 ADD PUSH1 0x40 MSTORE DUP1 SWAP3 SWAP2 SWAP1 DUP2 DUP2 MSTORE PUSH1 0x20 ADD DUP3 DUP1 SLOAD PUSH2 0x1167 SWAP1 PUSH2 0x2807 JUMP JUMPDEST DUP1 ISZERO PUSH2 0x11B2 JUMPI DUP1 PUSH1 0x1F LT PUSH2 0x1189 JUMPI PUSH2 0x100 DUP1 DUP4 SLOAD DIV MUL DUP4 MSTORE SWAP2 PUSH1 0x20 ADD SWAP2 PUSH2 0x11B2 JUMP JUMPDEST DUP3 ADD SWAP2 SWAP1 PUSH0 MSTORE PUSH1 0x20 PUSH0 KECCAK256 SWAP1 JUMPDEST DUP2 SLOAD DUP2 MSTORE SWAP1 PUSH1 0x1 ADD SWAP1 PUSH1 0x20 ADD DUP1 DUP4 GT PUSH2 0x1195 JUMPI DUP3 SWAP1 SUB PUSH1 0x1F AND DUP3 ADD SWAP2 JUMPDEST POP POP POP POP POP DUP2 MSTORE POP POP SWAP1 POP SWAP2 SWAP1 POP JUMP JUMPDEST PUSH32 0x89B57A644ED9FCE05F6C753CF42A08C2333C48E5A3D803E17CEE19087358722B PUSH2 0x11EC DUP2 PUSH2 0x1959 JUMP JUMPDEST PUSH0 DUP5 GT PUSH2 0x122E JUMPI PUSH1 0x40 MLOAD PUSH32 0x8C379A000000000000000000000000000000000000000000000000000000000 DUP2 MSTORE PUSH1 0x4 ADD PUSH2 0x1225 SWAP1 PUSH2 0x2680 JUMP JUMPDEST PUSH1 0x40 MLOAD DUP1 SWAP2 SUB SWAP1 REVERT JUMPDEST PUSH1 0x4 PUSH0 DUP2 SLOAD DUP1 SWAP3 SWAP2 SWAP1 PUSH2 0x1240 SWAP1 PUSH2 0x2766 JUMP JUMPDEST SWAP2 SWAP1 POP SSTORE POP PUSH0 PUSH1 0x4 SLOAD SWAP1 POP PUSH1 0x40 MLOAD DUP1 PUSH2 0x120 ADD PUSH1 0x40 MSTORE DUP1 DUP3 DUP2 MSTORE PUSH1 0x20 ADD DUP13 DUP13 DUP1 DUP1 PUSH1 0x1F ADD PUSH1 0x20 DUP1 SWAP2 DIV MUL PUSH1 0x20 ADD PUSH1 0x40 MLOAD SWAP1 DUP2 ADD PUSH1 0x40 MSTORE DUP1 SWAP4 SWAP3 SWAP2 SWAP1 DUP2 DUP2 MSTORE PUSH1 0x20 ADD DUP4 DUP4 DUP1 DUP3 DUP5 CALLDATACOPY PUSH0 DUP2 DUP5 ADD MSTORE PUSH1 0x1F NOT PUSH1 0x1F DUP3 ADD AND SWAP1 POP DUP1 DUP4 ADD SWAP3 POP POP POP POP POP POP POP DUP2 MSTORE PUSH1 0x20 ADD DUP11 DUP11 DUP1 DUP1 PUSH1 0x1F ADD PUSH1 0x20 DUP1 SWAP2 DIV MUL PUSH1 0x20 ADD PUSH1 0x40 MLOAD SWAP1 DUP2 ADD PUSH1 0x40 MSTORE DUP1 SWAP4 SWAP3 SWAP2 SWAP1 DUP2 DUP2 MSTORE PUSH1 0x20 ADD DUP4 DUP4 DUP1 DUP3 DUP5 CALLDATACOPY PUSH0 DUP2 DUP5 ADD MSTORE PUSH1 0x1F NOT PUSH1 0x1F DUP3 ADD AND SWAP1 POP DUP1 DUP4 ADD SWAP3 POP POP POP POP POP POP POP DUP2 MSTORE PUSH1 0x20 ADD DUP9 DUP9 DUP1 DUP1 PUSH1 0x1F ADD PUSH1 0x20 DUP1 SWAP2 DIV MUL PUSH1 0x20 ADD PUSH1 0x40 MLOAD SWAP1 DUP2 ADD PUSH1 0x40 MSTORE DUP1 SWAP4 SWAP3 SWAP2 SWAP1 DUP2 DUP2 MSTORE PUSH1 0x20 ADD DUP4 DUP4 DUP1 DUP3 DUP5 CALLDATACOPY PUSH0 DUP2 DUP5 ADD MSTORE PUSH1 0x1F NOT PUSH1 0x1F DUP3 ADD AND SWAP1 POP DUP1 DUP4 ADD SWAP3 POP POP POP POP POP POP POP DUP2 MSTORE PUSH1 0x20 ADD DUP7 DUP2 MSTORE PUSH1 0x20 ADD DUP7 DUP2 MSTORE PUSH1 0x20 ADD CALLER PUSH20 0xFFFFFFFFFFFFFFFFFFFFFFFFFFFFFFFFFFFFFFFF AND DUP2 MSTORE PUSH1 0x20 ADD TIMESTAMP DUP2 MSTORE PUSH1 0x20 ADD DUP6 DUP6 DUP1 DUP1 PUSH1 0x1F ADD PUSH1 0x20 DUP1 SWAP2 DIV MUL PUSH1 0x20 ADD PUSH1 0x40 MLOAD SWAP1 DUP2 ADD PUSH1 0x40 MSTORE DUP1 SWAP4 SWAP3 SWAP2 SWAP1 DUP2 DUP2 MSTORE PUSH1 0x20 ADD DUP4 DUP4 DUP1 DUP3 DUP5 CALLDATACOPY PUSH0 DUP2 DUP5 ADD MSTORE PUSH1 0x1F NOT PUSH1 0x1F DUP3 ADD AND SWAP1 POP DUP1 DUP4 ADD SWAP3 POP POP POP POP POP POP POP DUP2 MSTORE POP PUSH1 0x1 PUSH0 DUP4 DUP2 MSTORE PUSH1 0x20 ADD SWAP1 DUP2 MSTORE PUSH1 0x20 ADD PUSH0 KECCAK256 PUSH0 DUP3 ADD MLOAD DUP2 PUSH0 ADD SSTORE PUSH1 0x20 DUP3 ADD MLOAD DUP2 PUSH1 0x1 ADD SWAP1 DUP2 PUSH2 0x13DB SWAP2 SWAP1 PUSH2 0x29D7 JUMP JUMPDEST POP PUSH1 0x40 DUP3 ADD MLOAD DUP2 PUSH1 0x2 ADD SWAP1 DUP2 PUSH2 0x13F1 SWAP2 SWAP1 PUSH2 0x29D7 JUMP JUMPDEST POP PUSH1 0x60 DUP3 ADD MLOAD DUP2 PUSH1 0x3 ADD SWAP1 DUP2 PUSH2 0x1407 SWAP2 SWAP1 PUSH2 0x29D7 JUMP JUMPDEST POP PUSH1 0x80 DUP3 ADD MLOAD DUP2 PUSH1 0x4 ADD SSTORE PUSH1 0xA0 DUP3 ADD MLOAD DUP2 PUSH1 0x5 ADD SSTORE PUSH1 0xC0 DUP3 ADD MLOAD DUP2 PUSH1 0x6 ADD PUSH0 PUSH2 0x100 EXP DUP2 SLOAD DUP2 PUSH20 0xFFFFFFFFFFFFFFFFFFFFFFFFFFFFFFFFFFFFFFFF MUL NOT AND SWAP1 DUP4 PUSH20 0xFFFFFFFFFFFFFFFFFFFFFFFFFFFFFFFFFFFFFFFF AND MUL OR SWAP1 SSTORE POP PUSH1 0xE0 DUP3 ADD MLOAD DUP2 PUSH1 0x7 ADD SSTORE PUSH2 0x100 DUP3 ADD MLOAD DUP2 PUSH1 0x8 ADD SWAP1 DUP2 PUSH2 0x1482 SWAP2 SWAP1 PUSH2 0x29D7 JUMP JUMPDEST POP SWAP1 POP POP CALLER PUSH20 0xFFFFFFFFFFFFFFFFFFFFFFFFFFFFFFFFFFFFFFFF AND DUP2 PUSH32 0x928CAA7EA3EFDD90B93805682CBCF274C50B43D0A76FB9E813BAB59D9ACA9BFD DUP8 TIMESTAMP PUSH1 0x40 MLOAD PUSH2 0x14CF SWAP3 SWAP2 SWAP1 PUSH2 0x2B86 JUMP JUMPDEST PUSH1 0x40 MLOAD DUP1 SWAP2 SUB SWAP1 LOG3 POP POP POP POP POP POP POP POP POP POP POP JUMP JUMPDEST PUSH2 0x14ED DUP3 PUSH2 0x519 JUMP JUMPDEST PUSH2 0x14F6 DUP2 PUSH2 0x1959 JUMP JUMPDEST PUSH2 0x1500 DUP4 DUP4 PUSH2 0x1A5D JUMP JUMPDEST POP POP POP POP JUMP JUMPDEST PUSH1 0x1 PUSH1 0x20 MSTORE DUP1 PUSH0 MSTORE PUSH1 0x40 PUSH0 KECCAK256 PUSH0 SWAP2 POP SWAP1 POP DUP1 PUSH0 ADD SLOAD SWAP1 DUP1 PUSH1 0x1 ADD DUP1 SLOAD PUSH2 0x152B SWAP1 PUSH2 0x2807 JUMP JUMPDEST DUP1 PUSH1 0x1F ADD PUSH1 0x20 DUP1 SWAP2 DIV MUL PUSH1 0x20 ADD PUSH1 0x40 MLOAD SWAP1 DUP2 ADD PUSH1 0x40 MSTORE DUP1 SWAP3 SWAP2 SWAP1 DUP2 DUP2 MSTORE PUSH1 0x20 ADD DUP3 DUP1 SLOAD PUSH2 0x1557 SWAP1 PUSH2 0x2807 JUMP JUMPDEST DUP1 ISZERO PUSH2 0x15A2 JUMPI DUP1 PUSH1 0x1F LT PUSH2 0x1579 JUMPI PUSH2 0x100 DUP1 DUP4 SLOAD DIV MUL DUP4 MSTORE SWAP2 PUSH1 0x20 ADD SWAP2 PUSH2 0x15A2 JUMP JUMPDEST DUP3 ADD SWAP2 SWAP1 PUSH0 MSTORE PUSH1 0x20 PUSH0 KECCAK256 SWAP1 JUMPDEST DUP2 SLOAD DUP2 MSTORE SWAP1 PUSH1 0x1 ADD SWAP1 PUSH1 0x20 ADD DUP1 DUP4 GT PUSH2 0x1585 JUMPI DUP3 SWAP1 SUB PUSH1 0x1F AND DUP3 ADD SWAP2 JUMPDEST POP POP POP POP POP SWAP1 DUP1 PUSH1 0x2 ADD DUP1 SLOAD PUSH2 0x15B7 SWAP1 PUSH2 0x2807 JUMP JUMPDEST DUP1 PUSH1 0x1F ADD PUSH1 0x20 DUP1 SWAP2 DIV MUL PUSH1 0x20 ADD PUSH1 0x40 MLOAD SWAP1 DUP2 ADD PUSH1 0x40 MSTORE DUP1 SWAP3 SWAP2 SWAP1 DUP2 DUP2 MSTORE PUSH1 0x20 ADD DUP3 DUP1 SLOAD PUSH2 0x15E3 SWAP1 PUSH2 0x2807 JUMP JUMPDEST DUP1 ISZERO PUSH2 0x162E JUMPI DUP1 PUSH1 0x1F LT PUSH2 0x1605 JUMPI PUSH2 0x100 DUP1 DUP4 SLOAD DIV MUL DUP4 MSTORE SWAP2 PUSH1 0x20 ADD SWAP2 PUSH2 0x162E JUMP JUMPDEST DUP3 ADD SWAP2 SWAP1 PUSH0 MSTORE PUSH1 0x20 PUSH0 KECCAK256 SWAP1 JUMPDEST DUP2 SLOAD DUP2 MSTORE SWAP1 PUSH1 0x1 ADD SWAP1 PUSH1 0x20 ADD DUP1 DUP4 GT PUSH2 0x1611 JUMPI DUP3 SWAP1 SUB PUSH1 0x1F AND DUP3 ADD SWAP2 JUMPDEST POP POP POP POP POP SWAP1 DUP1 PUSH1 0x3 ADD DUP1 SLOAD PUSH2 0x1643 SWAP1 PUSH2 0x2807 JUMP JUMPDEST DUP1 PUSH1 0x1F ADD PUSH1 0x20 DUP1 SWAP2 DIV MUL PUSH1 0x20 ADD PUSH1 0x40 MLOAD SWAP1 DUP2 ADD PUSH1 0x40 MSTORE DUP1 SWAP3 SWAP2 SWAP1 DUP2 DUP2 MSTORE PUSH1 0x20 ADD DUP3 DUP1 SLOAD PUSH2 0x166F SWAP1 PUSH2 0x2807 JUMP JUMPDEST DUP1 ISZERO PUSH2 0x16BA JUMPI DUP1 PUSH1 0x1F LT PUSH2 0x1691 JUMPI PUSH2 0x100 DUP1 DUP4 SLOAD DIV MUL DUP4 MSTORE SWAP2 PUSH1 0x20 ADD SWAP2 PUSH2 0x16BA JUMP JUMPDEST DUP3 ADD SWAP2 SWAP1 PUSH0 MSTORE PUSH1 0x20 PUSH0 KECCAK256 SWAP1 JUMPDEST DUP2 SLOAD DUP2 MSTORE SWAP1 PUSH1 0x1 ADD SWAP1 PUSH1 0x20 ADD DUP1 DUP4 GT PUSH2 0x169D JUMPI DUP3 SWAP1 SUB PUSH1 0x1F AND DUP3 ADD SWAP2 JUMPDEST POP POP POP POP POP SWAP1 DUP1 PUSH1 0x4 ADD SLOAD SWAP1 DUP1 PUSH1 0x5 ADD SLOAD SWAP1 DUP1 PUSH1 0x6 ADD PUSH0 SWAP1 SLOAD SWAP1 PUSH2 0x100 EXP SWAP1 DIV PUSH20 0xFFFFFFFFFFFFFFFFFFFFFFFFFFFFFFFFFFFFFFFF AND SWAP1 DUP1 PUSH1 0x7 ADD SLOAD SWAP1 DUP1 PUSH1 0x8 ADD DUP1 SLOAD PUSH2 0x1706 SWAP1 PUSH2 0x2807 JUMP JUMPDEST DUP1 PUSH1 0x1F ADD PUSH1 0x20 DUP1 SWAP2 DIV MUL PUSH1 0x20 ADD PUSH1 0x40 MLOAD SWAP1 DUP2 ADD PUSH1 0x40 MSTORE DUP1 SWAP3 SWAP2 SWAP1 DUP2 DUP2 MSTORE PUSH1 0x20 ADD DUP3 DUP1 SLOAD PUSH2 0x1732 SWAP1 PUSH2 0x2807 JUMP JUMPDEST DUP1 ISZERO PUSH2 0x177D JUMPI DUP1 PUSH1 0x1F LT PUSH2 0x1754 JUMPI PUSH2 0x100 DUP1 DUP4 SLOAD DIV MUL DUP4 MSTORE SWAP2 PUSH1 0x20 ADD SWAP2 PUSH2 0x177D JUMP JUMPDEST DUP3 ADD SWAP2 SWAP1 PUSH0 MSTORE PUSH1 0x20 PUSH0 KECCAK256 SWAP1 JUMPDEST DUP2 SLOAD DUP2 MSTORE SWAP1 PUSH1 0x1 ADD SWAP1 PUSH1 0x20 ADD DUP1 DUP4 GT PUSH2 0x1760 JUMPI DUP3 SWAP1 SUB PUSH1 0x1F AND DUP3 ADD SWAP2 JUMPDEST POP POP POP POP POP SWAP1 POP DUP10 JUMP JUMPDEST PUSH1 0x3 PUSH1 0x20 MSTORE DUP1 PUSH0 MSTORE PUSH1 0x40 PUSH0 KECCAK256 PUSH0 SWAP2 POP SWAP1 POP DUP1 PUSH0 ADD SLOAD SWAP1 DUP1 PUSH1 0x1 ADD SLOAD SWAP1 DUP1 PUSH1 0x2 ADD DUP1 SLOAD PUSH2 0x17B2 SWAP1 PUSH2 0x2807 JUMP JUMPDEST DUP1 PUSH1 0x1F ADD PUSH1 0x20 DUP1 SWAP2 DIV MUL PUSH1 0x20 ADD PUSH1 0x40 MLOAD SWAP1 DUP2 ADD PUSH1 0x40 MSTORE DUP1 SWAP3 SWAP2 SWAP1 DUP2 DUP2 MSTORE PUSH1 0x20 ADD DUP3 DUP1 SLOAD PUSH2 0x17DE SWAP1 PUSH2 0x2807 JUMP JUMPDEST DUP1 ISZERO PUSH2 0x1829 JUMPI DUP1 PUSH1 0x1F LT PUSH2 0x1800 JUMPI PUSH2 0x100 DUP1 DUP4 SLOAD DIV MUL DUP4 MSTORE SWAP2 PUSH1 0x20 ADD SWAP2 PUSH2 0x1829 JUMP JUMPDEST DUP3 ADD SWAP2 SWAP1 PUSH0 MSTORE PUSH1 0x20 PUSH0 KECCAK256 SWAP1 JUMPDEST DUP2 SLOAD DUP2 MSTORE SWAP1 PUSH1 0x1 ADD SWAP1 PUSH1 0x20 ADD DUP1 DUP4 GT PUSH2 0x180C JUMPI DUP3 SWAP1 SUB PUSH1 0x1F AND DUP3 ADD SWAP2 JUMPDEST POP POP POP POP POP SWAP1 DUP1 PUSH1 0x3 ADD SLOAD SWAP1 DUP1 PUSH1 0x4 ADD PUSH0 SWAP1 SLOAD SWAP1 PUSH2 0x100 EXP SWAP1 DIV PUSH20 0xFFFFFFFFFFFFFFFFFFFFFFFFFFFFFFFFFFFFFFFF AND SWAP1 DUP1 PUSH1 0x5 ADD SLOAD SWAP1 DUP1 PUSH1 0x6 ADD DUP1 SLOAD PUSH2 0x186F SWAP1 PUSH2 0x2807 JUMP JUMPDEST DUP1 PUSH1 0x1F ADD PUSH1 0x20 DUP1 SWAP2 DIV MUL PUSH1 0x20 ADD PUSH1 0x40 MLOAD SWAP1 DUP2 ADD PUSH1 0x40 MSTORE DUP1 SWAP3 SWAP2 SWAP1 DUP2 DUP2 MSTORE PUSH1 0x20 ADD DUP3 DUP1 SLOAD PUSH2 0x189B SWAP1 PUSH2 0x2807 JUMP JUMPDEST DUP1 ISZERO PUSH2 0x18E6 JUMPI DUP1 PUSH1 0x1F LT PUSH2 0x18BD JUMPI PUSH2 0x100 DUP1 DUP4 SLOAD DIV MUL DUP4 MSTORE SWAP2 PUSH1 0x20 ADD SWAP2 PUSH2 0x18E6 JUMP JUMPDEST DUP3 ADD SWAP2 SWAP1 PUSH0 MSTORE PUSH1 0x20 PUSH0 KECCAK256 SWAP1 JUMPDEST DUP2 SLOAD DUP2 MSTORE SWAP1 PUSH1 0x1 ADD SWAP1 PUSH1 0x20 ADD DUP1 DUP4 GT PUSH2 0x18C9 JUMPI DUP3 SWAP1 SUB PUSH1 0x1F AND DUP3 ADD SWAP2 JUMPDEST POP POP POP POP POP SWAP1 POP DUP8 JUMP JUMPDEST PUSH0 PUSH32 0x1FFC9A700000000000000000000000000000000000000000000000000000000 PUSH28 0xFFFFFFFFFFFFFFFFFFFFFFFFFFFFFFFFFFFFFFFFFFFFFFFFFFFFFFFF NOT AND DUP3 PUSH28 0xFFFFFFFFFFFFFFFFFFFFFFFFFFFFFFFFFFFFFFFFFFFFFFFFFFFFFFFF NOT AND EQ SWAP1 POP SWAP2 SWAP1 POP JUMP JUMPDEST PUSH2 0x196A DUP2 PUSH2 0x1965 PUSH2 0x1A56 JUMP JUMPDEST PUSH2 0x1B46 JUMP JUMPDEST POP JUMP JUMPDEST PUSH0 PUSH2 0x1978 DUP4 DUP4 PUSH2 0xA12 JUMP JUMPDEST PUSH2 0x1A4C JUMPI PUSH1 0x1 PUSH0 PUSH0 DUP6 DUP2 MSTORE PUSH1 0x20 ADD SWAP1 DUP2 MSTORE PUSH1 0x20 ADD PUSH0 KECCAK256 PUSH0 ADD PUSH0 DUP5 PUSH20 0xFFFFFFFFFFFFFFFFFFFFFFFFFFFFFFFFFFFFFFFF AND PUSH20 0xFFFFFFFFFFFFFFFFFFFFFFFFFFFFFFFFFFFFFFFF AND DUP2 MSTORE PUSH1 0x20 ADD SWAP1 DUP2 MSTORE PUSH1 0x20 ADD PUSH0 KECCAK256 PUSH0 PUSH2 0x100 EXP DUP2 SLOAD DUP2 PUSH1 0xFF MUL NOT AND SWAP1 DUP4 ISZERO ISZERO MUL OR SWAP1 SSTORE POP PUSH2 0x19E9 PUSH2 0x1A56 JUMP JUMPDEST PUSH20 0xFFFFFFFFFFFFFFFFFFFFFFFFFFFFFFFFFFFFFFFF AND DUP3 PUSH20 0xFFFFFFFFFFFFFFFFFFFFFFFFFFFFFFFFFFFFFFFF AND DUP5 PUSH32 0x2F8788117E7EFF1D82E926EC794901D17C78024A50270940304540A733656F0D PUSH1 0x40 MLOAD PUSH1 0x40 MLOAD DUP1 SWAP2 SUB SWAP1 LOG4 PUSH1 0x1 SWAP1 POP PUSH2 0x1A50 JUMP JUMPDEST PUSH0 SWAP1 POP JUMPDEST SWAP3 SWAP2 POP POP JUMP JUMPDEST PUSH0 CALLER SWAP1 POP SWAP1 JUMP JUMPDEST PUSH0 PUSH2 0x1A68 DUP4 DUP4 PUSH2 0xA12 JUMP JUMPDEST ISZERO PUSH2 0x1B3C JUMPI PUSH0 PUSH0 PUSH0 DUP6 DUP2 MSTORE PUSH1 0x20 ADD SWAP1 DUP2 MSTORE PUSH1 0x20 ADD PUSH0 KECCAK256 PUSH0 ADD PUSH0 DUP5 PUSH20 0xFFFFFFFFFFFFFFFFFFFFFFFFFFFFFFFFFFFFFFFF AND PUSH20 0xFFFFFFFFFFFFFFFFFFFFFFFFFFFFFFFFFFFFFFFF AND DUP2 MSTORE PUSH1 0x20 ADD SWAP1 DUP2 MSTORE PUSH1 0x20 ADD PUSH0 KECCAK256 PUSH0 PUSH2 0x100 EXP DUP2 SLOAD DUP2 PUSH1 0xFF MUL NOT AND SWAP1 DUP4 ISZERO ISZERO MUL OR SWAP1 SSTORE POP PUSH2 0x1AD9 PUSH2 0x1A56 JUMP JUMPDEST PUSH20 0xFFFFFFFFFFFFFFFFFFFFFFFFFFFFFFFFFFFFFFFF AND DUP3 PUSH20 0xFFFFFFFFFFFFFFFFFFFFFFFFFFFFFFFFFFFFFFFF AND DUP5 PUSH32 0xF6391F5C32D9C69D2A47EA670B442974B53935D1EDC7FD64EB21E047A839171B PUSH1 0x40 MLOAD PUSH1 0x40 MLOAD DUP1 SWAP2 SUB SWAP1 LOG4 PUSH1 0x1 SWAP1 POP PUSH2 0x1B40 JUMP JUMPDEST PUSH0 SWAP1 POP JUMPDEST SWAP3 SWAP2 POP POP JUMP JUMPDEST PUSH2 0x1B50 DUP3 DUP3 PUSH2 0xA12 JUMP JUMPDEST PUSH2 0x1B93 JUMPI DUP1 DUP3 PUSH1 0x40 MLOAD PUSH32 0xE2517D3F00000000000000000000000000000000000000000000000000000000 DUP2 MSTORE PUSH1 0x4 ADD PUSH2 0x1B8A SWAP3 SWAP2 SWAP1 PUSH2 0x2BAD JUMP JUMPDEST PUSH1 0x40 MLOAD DUP1 SWAP2 SUB SWAP1 REVERT JUMPDEST POP POP JUMP JUMPDEST PUSH1 0x40 MLOAD DUP1 PUSH1 0xC0 ADD PUSH1 0x40 MSTORE DUP1 PUSH0 DUP2 MSTORE PUSH1 0x20 ADD PUSH0 DUP2 MSTORE PUSH1 0x20 ADD PUSH0 DUP2 MSTORE PUSH1 0x20 ADD PUSH0 DUP2 MSTORE PUSH1 0x20 ADD PUSH0 PUSH20 0xFFFFFFFFFFFFFFFFFFFFFFFFFFFFFFFFFFFFFFFF AND DUP2 MSTORE PUSH1 0x20 ADD PUSH0 DUP2 MSTORE POP SWAP1 JUMP JUMPDEST PUSH1 0x40 MLOAD DUP1 PUSH2 0x120 ADD PUSH1 0x40 MSTORE DUP1 PUSH0 DUP2 MSTORE PUSH1 0x20 ADD PUSH1 0x60 DUP2 MSTORE PUSH1 0x20 ADD PUSH1 0x60 DUP2 MSTORE PUSH1 0x20 ADD PUSH1 0x60 DUP2 MSTORE PUSH1 0x20 ADD PUSH0 DUP2 MSTORE PUSH1 0x20 ADD PUSH0 DUP2 MSTORE PUSH1 0x20 ADD PUSH0 PUSH20 0xFFFFFFFFFFFFFFFFFFFFFFFFFFFFFFFFFFFFFFFF AND DUP2 MSTORE PUSH1 0x20 ADD PUSH0 DUP2 MSTORE PUSH1 0x20 ADD PUSH1 0x60 DUP2 MSTORE POP SWAP1 JUMP JUMPDEST PUSH1 0x40 MLOAD DUP1 PUSH1 0xE0 ADD PUSH1 0x40 MSTORE DUP1 PUSH0 DUP2 MSTORE PUSH1 0x20 ADD PUSH0 DUP2 MSTORE PUSH1 0x20 ADD PUSH1 0x60 DUP2 MSTORE PUSH1 0x20 ADD PUSH0 DUP2 MSTORE PUSH1 0x20 ADD PUSH0 PUSH20 0xFFFFFFFFFFFFFFFFFFFFFFFFFFFFFFFFFFFFFFFF AND DUP2 MSTORE PUSH1 0x20 ADD PUSH0 DUP2 MSTORE PUSH1 0x20 ADD PUSH1 0x60 DUP2 MSTORE POP SWAP1 JUMP JUMPDEST PUSH0 PUSH0 REVERT JUMPDEST PUSH0 PUSH0 REVERT JUMPDEST PUSH0 PUSH32 0xFFFFFFFF00000000000000000000000000000000000000000000000000000000 DUP3 AND SWAP1 POP SWAP2 SWAP1 POP JUMP JUMPDEST PUSH2 0x1CC4 DUP2 PUSH2 0x1C90 JUMP JUMPDEST DUP2 EQ PUSH2 0x1CCE JUMPI PUSH0 PUSH0 REVERT JUMPDEST POP JUMP JUMPDEST PUSH0 DUP2 CALLDATALOAD SWAP1 POP PUSH2 0x1CDF DUP2 PUSH2 0x1CBB JUMP JUMPDEST SWAP3 SWAP2 POP POP JUMP JUMPDEST PUSH0 PUSH1 0x20 DUP3 DUP5 SUB SLT ISZERO PUSH2 0x1CFA JUMPI PUSH2 0x1CF9 PUSH2 0x1C88 JUMP JUMPDEST JUMPDEST PUSH0 PUSH2 0x1D07 DUP5 DUP3 DUP6 ADD PUSH2 0x1CD1 JUMP JUMPDEST SWAP2 POP POP SWAP3 SWAP2 POP POP JUMP JUMPDEST PUSH0 DUP2 ISZERO ISZERO SWAP1 POP SWAP2 SWAP1 POP JUMP JUMPDEST PUSH2 0x1D24 DUP2 PUSH2 0x1D10 JUMP JUMPDEST DUP3 MSTORE POP POP JUMP JUMPDEST PUSH0 PUSH1 0x20 DUP3 ADD SWAP1 POP PUSH2 0x1D3D PUSH0 DUP4 ADD DUP5 PUSH2 0x1D1B JUMP JUMPDEST SWAP3 SWAP2 POP POP JUMP JUMPDEST PUSH0 DUP2 SWAP1 POP SWAP2 SWAP1 POP JUMP JUMPDEST PUSH2 0x1D55 DUP2 PUSH2 0x1D43 JUMP JUMPDEST DUP3 MSTORE POP POP JUMP JUMPDEST PUSH0 PUSH1 0x20 DUP3 ADD SWAP1 POP PUSH2 0x1D6E PUSH0 DUP4 ADD DUP5 PUSH2 0x1D4C JUMP JUMPDEST SWAP3 SWAP2 POP POP JUMP JUMPDEST PUSH2 0x1D7D DUP2 PUSH2 0x1D43 JUMP JUMPDEST DUP2 EQ PUSH2 0x1D87 JUMPI PUSH0 PUSH0 REVERT JUMPDEST POP JUMP JUMPDEST PUSH0 DUP2 CALLDATALOAD SWAP1 POP PUSH2 0x1D98 DUP2 PUSH2 0x1D74 JUMP JUMPDEST SWAP3 SWAP2 POP POP JUMP JUMPDEST PUSH0 PUSH1 0x20 DUP3 DUP5 SUB SLT ISZERO PUSH2 0x1DB3 JUMPI PUSH2 0x1DB2 PUSH2 0x1C88 JUMP JUMPDEST JUMPDEST PUSH0 PUSH2 0x1DC0 DUP5 DUP3 DUP6 ADD PUSH2 0x1D8A JUMP JUMPDEST SWAP2 POP POP SWAP3 SWAP2 POP POP JUMP JUMPDEST PUSH0 PUSH20 0xFFFFFFFFFFFFFFFFFFFFFFFFFFFFFFFFFFFFFFFF DUP3 AND SWAP1 POP SWAP2 SWAP1 POP JUMP JUMPDEST PUSH0 PUSH2 0x1DF2 DUP3 PUSH2 0x1DC9 JUMP JUMPDEST SWAP1 POP SWAP2 SWAP1 POP JUMP JUMPDEST PUSH2 0x1E02 DUP2 PUSH2 0x1DE8 JUMP JUMPDEST DUP2 EQ PUSH2 0x1E0C JUMPI PUSH0 PUSH0 REVERT JUMPDEST POP JUMP JUMPDEST PUSH0 DUP2 CALLDATALOAD SWAP1 POP PUSH2 0x1E1D DUP2 PUSH2 0x1DF9 JUMP JUMPDEST SWAP3 SWAP2 POP POP JUMP JUMPDEST PUSH0 PUSH0 PUSH1 0x40 DUP4 DUP6 SUB SLT ISZERO PUSH2 0x1E39 JUMPI PUSH2 0x1E38 PUSH2 0x1C88 JUMP JUMPDEST JUMPDEST PUSH0 PUSH2 0x1E46 DUP6 DUP3 DUP7 ADD PUSH2 0x1D8A JUMP JUMPDEST SWAP3 POP POP PUSH1 0x20 PUSH2 0x1E57 DUP6 DUP3 DUP7 ADD PUSH2 0x1E0F JUMP JUMPDEST SWAP2 POP POP SWAP3 POP SWAP3 SWAP1 POP JUMP JUMPDEST PUSH0 DUP2 SWAP1 POP SWAP2 SWAP1 POP JUMP JUMPDEST PUSH2 0x1E73 DUP2 PUSH2 0x1E61 JUMP JUMPDEST DUP2 EQ PUSH2 0x1E7D JUMPI PUSH0 PUSH0 REVERT JUMPDEST POP JUMP JUMPDEST PUSH0 DUP2 CALLDATALOAD SWAP1 POP PUSH2 0x1E8E DUP2 PUSH2 0x1E6A JUMP JUMPDEST SWAP3 SWAP2 POP POP JUMP JUMPDEST PUSH0 PUSH0 REVERT JUMPDEST PUSH0 PUSH0 REVERT JUMPDEST PUSH0 PUSH0 REVERT JUMPDEST PUSH0 PUSH0 DUP4 PUSH1 0x1F DUP5 ADD SLT PUSH2 0x1EB5 JUMPI PUSH2 0x1EB4 PUSH2 0x1E94 JUMP JUMPDEST JUMPDEST DUP3 CALLDATALOAD SWAP1 POP PUSH8 0xFFFFFFFFFFFFFFFF DUP2 GT ISZERO PUSH2 0x1ED2 JUMPI PUSH2 0x1ED1 PUSH2 0x1E98 JUMP JUMPDEST JUMPDEST PUSH1 0x20 DUP4 ADD SWAP2 POP DUP4 PUSH1 0x1 DUP3 MUL DUP4 ADD GT ISZERO PUSH2 0x1EEE JUMPI PUSH2 0x1EED PUSH2 0x1E9C JUMP JUMPDEST JUMPDEST SWAP3 POP SWAP3 SWAP1 POP JUMP JUMPDEST PUSH0 PUSH0 PUSH0 PUSH0 PUSH0 PUSH0 PUSH1 0x80 DUP8 DUP10 SUB SLT ISZERO PUSH2 0x1F0F JUMPI PUSH2 0x1F0E PUSH2 0x1C88 JUMP JUMPDEST JUMPDEST PUSH0 PUSH2 0x1F1C DUP10 DUP3 DUP11 ADD PUSH2 0x1E80 JUMP JUMPDEST SWAP7 POP POP PUSH1 0x20 DUP8 ADD CALLDATALOAD PUSH8 0xFFFFFFFFFFFFFFFF DUP2 GT ISZERO PUSH2 0x1F3D JUMPI PUSH2 0x1F3C PUSH2 0x1C8C JUMP JUMPDEST JUMPDEST PUSH2 0x1F49 DUP10 DUP3 DUP11 ADD PUSH2 0x1EA0 JUMP JUMPDEST SWAP6 POP SWAP6 POP POP PUSH1 0x40 PUSH2 0x1F5C DUP10 DUP3 DUP11 ADD PUSH2 0x1E80 JUMP JUMPDEST SWAP4 POP POP PUSH1 0x60 DUP8 ADD CALLDATALOAD PUSH8 0xFFFFFFFFFFFFFFFF DUP2 GT ISZERO PUSH2 0x1F7D JUMPI PUSH2 0x1F7C PUSH2 0x1C8C JUMP JUMPDEST JUMPDEST PUSH2 0x1F89 DUP10 DUP3 DUP11 ADD PUSH2 0x1EA0 JUMP JUMPDEST SWAP3 POP SWAP3 POP POP SWAP3 SWAP6 POP SWAP3 SWAP6 POP SWAP3 SWAP6 JUMP JUMPDEST PUSH0 PUSH1 0x20 DUP3 DUP5 SUB SLT ISZERO PUSH2 0x1FAD JUMPI PUSH2 0x1FAC PUSH2 0x1C88 JUMP JUMPDEST JUMPDEST PUSH0 PUSH2 0x1FBA DUP5 DUP3 DUP6 ADD PUSH2 0x1E80 JUMP JUMPDEST SWAP2 POP POP SWAP3 SWAP2 POP POP JUMP JUMPDEST PUSH2 0x1FCC DUP2 PUSH2 0x1E61 JUMP JUMPDEST DUP3 MSTORE POP POP JUMP JUMPDEST PUSH2 0x1FDB DUP2 PUSH2 0x1DE8 JUMP JUMPDEST DUP3 MSTORE POP POP JUMP JUMPDEST PUSH1 0xC0 DUP3 ADD PUSH0 DUP3 ADD MLOAD PUSH2 0x1FF5 PUSH0 DUP6 ADD DUP3 PUSH2 0x1FC3 JUMP JUMPDEST POP PUSH1 0x20 DUP3 ADD MLOAD PUSH2 0x2008 PUSH1 0x20 DUP6 ADD DUP3 PUSH2 0x1FC3 JUMP JUMPDEST POP PUSH1 0x40 DUP3 ADD MLOAD PUSH2 0x201B PUSH1 0x40 DUP6 ADD DUP3 PUSH2 0x1FC3 JUMP JUMPDEST POP PUSH1 0x60 DUP3 ADD MLOAD PUSH2 0x202E PUSH1 0x60 DUP6 ADD DUP3 PUSH2 0x1FC3 JUMP JUMPDEST POP PUSH1 0x80 DUP3 ADD MLOAD PUSH2 0x2041 PUSH1 0x80 DUP6 ADD DUP3 PUSH2 0x1FD2 JUMP JUMPDEST POP PUSH1 0xA0 DUP3 ADD MLOAD PUSH2 0x2054 PUSH1 0xA0 DUP6 ADD DUP3 PUSH2 0x1FC3 JUMP JUMPDEST POP POP POP POP JUMP JUMPDEST PUSH0 PUSH1 0xC0 DUP3 ADD SWAP1 POP PUSH2 0x206D PUSH0 DUP4 ADD DUP5 PUSH2 0x1FE1 JUMP JUMPDEST SWAP3 SWAP2 POP POP JUMP JUMPDEST PUSH2 0x207C DUP2 PUSH2 0x1E61 JUMP JUMPDEST DUP3 MSTORE POP POP JUMP JUMPDEST PUSH0 PUSH1 0x20 DUP3 ADD SWAP1 POP PUSH2 0x2095 PUSH0 DUP4 ADD DUP5 PUSH2 0x2073 JUMP JUMPDEST SWAP3 SWAP2 POP POP JUMP JUMPDEST PUSH0 DUP2 MLOAD SWAP1 POP SWAP2 SWAP1 POP JUMP JUMPDEST PUSH0 DUP3 DUP3 MSTORE PUSH1 0x20 DUP3 ADD SWAP1 POP SWAP3 SWAP2 POP POP JUMP JUMPDEST DUP3 DUP2 DUP4 MCOPY PUSH0 DUP4 DUP4 ADD MSTORE POP POP POP JUMP JUMPDEST PUSH0 PUSH1 0x1F NOT PUSH1 0x1F DUP4 ADD AND SWAP1 POP SWAP2 SWAP1 POP JUMP JUMPDEST PUSH0 PUSH2 0x20DD DUP3 PUSH2 0x209B JUMP JUMPDEST PUSH2 0x20E7 DUP2 DUP6 PUSH2 0x20A5 JUMP JUMPDEST SWAP4 POP PUSH2 0x20F7 DUP2 DUP6 PUSH1 0x20 DUP7 ADD PUSH2 0x20B5 JUMP JUMPDEST PUSH2 0x2100 DUP2 PUSH2 0x20C3 JUMP JUMPDEST DUP5 ADD SWAP2 POP POP SWAP3 SWAP2 POP POP JUMP JUMPDEST PUSH0 PUSH2 0x120 DUP4 ADD PUSH0 DUP4 ADD MLOAD PUSH2 0x2121 PUSH0 DUP7 ADD DUP3 PUSH2 0x1FC3 JUMP JUMPDEST POP PUSH1 0x20 DUP4 ADD MLOAD DUP5 DUP3 SUB PUSH1 0x20 DUP7 ADD MSTORE PUSH2 0x2139 DUP3 DUP3 PUSH2 0x20D3 JUMP JUMPDEST SWAP2 POP POP PUSH1 0x40 DUP4 ADD MLOAD DUP5 DUP3 SUB PUSH1 0x40 DUP7 ADD MSTORE PUSH2 0x2153 DUP3 DUP3 PUSH2 0x20D3 JUMP JUMPDEST SWAP2 POP POP PUSH1 0x60 DUP4 ADD MLOAD DUP5 DUP3 SUB PUSH1 0x60 DUP7 ADD MSTORE PUSH2 0x216D DUP3 DUP3 PUSH2 0x20D3 JUMP JUMPDEST SWAP2 POP POP PUSH1 0x80 DUP4 ADD MLOAD PUSH2 0x2182 PUSH1 0x80 DUP7 ADD DUP3 PUSH2 0x1FC3 JUMP JUMPDEST POP PUSH1 0xA0 DUP4 ADD MLOAD PUSH2 0x2195 PUSH1 0xA0 DUP7 ADD DUP3 PUSH2 0x1FC3 JUMP JUMPDEST POP PUSH1 0xC0 DUP4 ADD MLOAD PUSH2 0x21A8 PUSH1 0xC0 DUP7 ADD DUP3 PUSH2 0x1FD2 JUMP JUMPDEST POP PUSH1 0xE0 DUP4 ADD MLOAD PUSH2 0x21BB PUSH1 0xE0 DUP7 ADD DUP3 PUSH2 0x1FC3 JUMP JUMPDEST POP PUSH2 0x100 DUP4 ADD MLOAD DUP5 DUP3 SUB PUSH2 0x100 DUP7 ADD MSTORE PUSH2 0x21D5 DUP3 DUP3 PUSH2 0x20D3 JUMP JUMPDEST SWAP2 POP POP DUP1 SWAP2 POP POP SWAP3 SWAP2 POP POP JUMP JUMPDEST PUSH0 PUSH1 0x20 DUP3 ADD SWAP1 POP DUP2 DUP2 SUB PUSH0 DUP4 ADD MSTORE PUSH2 0x21FA DUP2 DUP5 PUSH2 0x210B JUMP JUMPDEST SWAP1 POP SWAP3 SWAP2 POP POP JUMP JUMPDEST PUSH2 0x220B DUP2 PUSH2 0x1DE8 JUMP JUMPDEST DUP3 MSTORE POP POP JUMP JUMPDEST PUSH0 PUSH1 0xC0 DUP3 ADD SWAP1 POP PUSH2 0x2224 PUSH0 DUP4 ADD DUP10 PUSH2 0x2073 JUMP JUMPDEST PUSH2 0x2231 PUSH1 0x20 DUP4 ADD DUP9 PUSH2 0x2073 JUMP JUMPDEST PUSH2 0x223E PUSH1 0x40 DUP4 ADD DUP8 PUSH2 0x2073 JUMP JUMPDEST PUSH2 0x224B PUSH1 0x60 DUP4 ADD DUP7 PUSH2 0x2073 JUMP JUMPDEST PUSH2 0x2258 PUSH1 0x80 DUP4 ADD DUP6 PUSH2 0x2202 JUMP JUMPDEST PUSH2 0x2265 PUSH1 0xA0 DUP4 ADD DUP5 PUSH2 0x2073 JUMP JUMPDEST SWAP8 SWAP7 POP POP POP POP POP POP POP JUMP JUMPDEST PUSH0 PUSH0 PUSH1 0x40 DUP4 DUP6 SUB SLT ISZERO PUSH2 0x2286 JUMPI PUSH2 0x2285 PUSH2 0x1C88 JUMP JUMPDEST JUMPDEST PUSH0 PUSH2 0x2293 DUP6 DUP3 DUP7 ADD PUSH2 0x1E80 JUMP JUMPDEST SWAP3 POP POP PUSH1 0x20 PUSH2 0x22A4 DUP6 DUP3 DUP7 ADD PUSH2 0x1E80 JUMP JUMPDEST SWAP2 POP POP SWAP3 POP SWAP3 SWAP1 POP JUMP JUMPDEST PUSH0 PUSH1 0xE0 DUP4 ADD PUSH0 DUP4 ADD MLOAD PUSH2 0x22C3 PUSH0 DUP7 ADD DUP3 PUSH2 0x1FC3 JUMP JUMPDEST POP PUSH1 0x20 DUP4 ADD MLOAD PUSH2 0x22D6 PUSH1 0x20 DUP7 ADD DUP3 PUSH2 0x1FC3 JUMP JUMPDEST POP PUSH1 0x40 DUP4 ADD MLOAD DUP5 DUP3 SUB PUSH1 0x40 DUP7 ADD MSTORE PUSH2 0x22EE DUP3 DUP3 PUSH2 0x20D3 JUMP JUMPDEST SWAP2 POP POP PUSH1 0x60 DUP4 ADD MLOAD PUSH2 0x2303 PUSH1 0x60 DUP7 ADD DUP3 PUSH2 0x1FC3 JUMP JUMPDEST POP PUSH1 0x80 DUP4 ADD MLOAD PUSH2 0x2316 PUSH1 0x80 DUP7 ADD DUP3 PUSH2 0x1FD2 JUMP JUMPDEST POP PUSH1 0xA0 DUP4 ADD MLOAD PUSH2 0x2329 PUSH1 0xA0 DUP7 ADD DUP3 PUSH2 0x1FC3 JUMP JUMPDEST POP PUSH1 0xC0 DUP4 ADD MLOAD DUP5 DUP3 SUB PUSH1 0xC0 DUP7 ADD MSTORE PUSH2 0x2341 DUP3 DUP3 PUSH2 0x20D3 JUMP JUMPDEST SWAP2 POP POP DUP1 SWAP2 POP POP SWAP3 SWAP2 POP POP JUMP JUMPDEST PUSH0 PUSH1 0x20 DUP3 ADD SWAP1 POP DUP2 DUP2 SUB PUSH0 DUP4 ADD MSTORE PUSH2 0x2366 DUP2 DUP5 PUSH2 0x22AE JUMP JUMPDEST SWAP1 POP SWAP3 SWAP2 POP POP JUMP JUMPDEST PUSH0 PUSH0 PUSH0 PUSH0 PUSH0 PUSH0 PUSH0 PUSH0 PUSH0 PUSH1 0xA0 DUP11 DUP13 SUB SLT ISZERO PUSH2 0x238B JUMPI PUSH2 0x238A PUSH2 0x1C88 JUMP JUMPDEST JUMPDEST PUSH0 DUP11 ADD CALLDATALOAD PUSH8 0xFFFFFFFFFFFFFFFF DUP2 GT ISZERO PUSH2 0x23A8 JUMPI PUSH2 0x23A7 PUSH2 0x1C8C JUMP JUMPDEST JUMPDEST PUSH2 0x23B4 DUP13 DUP3 DUP14 ADD PUSH2 0x1EA0 JUMP JUMPDEST SWAP10 POP SWAP10 POP POP PUSH1 0x20 DUP11 ADD CALLDATALOAD PUSH8 0xFFFFFFFFFFFFFFFF DUP2 GT ISZERO PUSH2 0x23D7 JUMPI PUSH2 0x23D6 PUSH2 0x1C8C JUMP JUMPDEST JUMPDEST PUSH2 0x23E3 DUP13 DUP3 DUP14 ADD PUSH2 0x1EA0 JUMP JUMPDEST SWAP8 POP SWAP8 POP POP PUSH1 0x40 DUP11 ADD CALLDATALOAD PUSH8 0xFFFFFFFFFFFFFFFF DUP2 GT ISZERO PUSH2 0x2406 JUMPI PUSH2 0x2405 PUSH2 0x1C8C JUMP JUMPDEST JUMPDEST PUSH2 0x2412 DUP13 DUP3 DUP14 ADD PUSH2 0x1EA0 JUMP JUMPDEST SWAP6 POP SWAP6 POP POP PUSH1 0x60 PUSH2 0x2425 DUP13 DUP3 DUP14 ADD PUSH2 0x1E80 JUMP JUMPDEST SWAP4 POP POP PUSH1 0x80 DUP11 ADD CALLDATALOAD PUSH8 0xFFFFFFFFFFFFFFFF DUP2 GT ISZERO PUSH2 0x2446 JUMPI PUSH2 0x2445 PUSH2 0x1C8C JUMP JUMPDEST JUMPDEST PUSH2 0x2452 DUP13 DUP3 DUP14 ADD PUSH2 0x1EA0 JUMP JUMPDEST SWAP3 POP SWAP3 POP POP SWAP3 SWAP6 SWAP9 POP SWAP3 SWAP6 SWAP9 POP SWAP3 SWAP6 SWAP9 JUMP JUMPDEST PUSH0 DUP3 DUP3 MSTORE PUSH1 0x20 DUP3 ADD SWAP1 POP SWAP3 SWAP2 POP POP JUMP JUMPDEST PUSH0 PUSH2 0x247E DUP3 PUSH2 0x209B JUMP JUMPDEST PUSH2 0x2488 DUP2 DUP6 PUSH2 0x2464 JUMP JUMPDEST SWAP4 POP PUSH2 0x2498 DUP2 DUP6 PUSH1 0x20 DUP7 ADD PUSH2 0x20B5 JUMP JUMPDEST PUSH2 0x24A1 DUP2 PUSH2 0x20C3 JUMP JUMPDEST DUP5 ADD SWAP2 POP POP SWAP3 SWAP2 POP POP JUMP JUMPDEST PUSH0 PUSH2 0x120 DUP3 ADD SWAP1 POP PUSH2 0x24C0 PUSH0 DUP4 ADD DUP13 PUSH2 0x2073 JUMP JUMPDEST DUP2 DUP2 SUB PUSH1 0x20 DUP4 ADD MSTORE PUSH2 0x24D2 DUP2 DUP12 PUSH2 0x2474 JUMP JUMPDEST SWAP1 POP DUP2 DUP2 SUB PUSH1 0x40 DUP4 ADD MSTORE PUSH2 0x24E6 DUP2 DUP11 PUSH2 0x2474 JUMP JUMPDEST SWAP1 POP DUP2 DUP2 SUB PUSH1 0x60 DUP4 ADD MSTORE PUSH2 0x24FA DUP2 DUP10 PUSH2 0x2474 JUMP JUMPDEST SWAP1 POP PUSH2 0x2509 PUSH1 0x80 DUP4 ADD DUP9 PUSH2 0x2073 JUMP JUMPDEST PUSH2 0x2516 PUSH1 0xA0 DUP4 ADD DUP8 PUSH2 0x2073 JUMP JUMPDEST PUSH2 0x2523 PUSH1 0xC0 DUP4 ADD DUP7 PUSH2 0x2202 JUMP JUMPDEST PUSH2 0x2530 PUSH1 0xE0 DUP4 ADD DUP6 PUSH2 0x2073 JUMP JUMPDEST DUP2 DUP2 SUB PUSH2 0x100 DUP4 ADD MSTORE PUSH2 0x2543 DUP2 DUP5 PUSH2 0x2474 JUMP JUMPDEST SWAP1 POP SWAP11 SWAP10 POP POP POP POP POP POP POP POP POP POP JUMP JUMPDEST PUSH0 PUSH1 0xE0 DUP3 ADD SWAP1 POP PUSH2 0x2566 PUSH0 DUP4 ADD DUP11 PUSH2 0x2073 JUMP JUMPDEST PUSH2 0x2573 PUSH1 0x20 DUP4 ADD DUP10 PUSH2 0x2073 JUMP JUMPDEST DUP2 DUP2 SUB PUSH1 0x40 DUP4 ADD MSTORE PUSH2 0x2585 DUP2 DUP9 PUSH2 0x2474 JUMP JUMPDEST SWAP1 POP PUSH2 0x2594 PUSH1 0x60 DUP4 ADD DUP8 PUSH2 0x2073 JUMP JUMPDEST PUSH2 0x25A1 PUSH1 0x80 DUP4 ADD DUP7 PUSH2 0x2202 JUMP JUMPDEST PUSH2 0x25AE PUSH1 0xA0 DUP4 ADD DUP6 PUSH2 0x2073 JUMP JUMPDEST DUP2 DUP2 SUB PUSH1 0xC0 DUP4 ADD MSTORE PUSH2 0x25C0 DUP2 DUP5 PUSH2 0x2474 JUMP JUMPDEST SWAP1 POP SWAP9 SWAP8 POP POP POP POP POP POP POP POP JUMP JUMPDEST PUSH32 0x4E6F74206261746368206F776E65720000000000000000000000000000000000 PUSH0 DUP3 ADD MSTORE POP JUMP JUMPDEST PUSH0 PUSH2 0x2602 PUSH1 0xF DUP4 PUSH2 0x2464 JUMP JUMPDEST SWAP2 POP PUSH2 0x260D DUP3 PUSH2 0x25CE JUMP JUMPDEST PUSH1 0x20 DUP3 ADD SWAP1 POP SWAP2 SWAP1 POP JUMP JUMPDEST PUSH0 PUSH1 0x20 DUP3 ADD SWAP1 POP DUP2 DUP2 SUB PUSH0 DUP4 ADD MSTORE PUSH2 0x262F DUP2 PUSH2 0x25F6 JUMP JUMPDEST SWAP1 POP SWAP2 SWAP1 POP JUMP JUMPDEST PUSH32 0x517479206D757374206265203E20300000000000000000000000000000000000 PUSH0 DUP3 ADD MSTORE POP JUMP JUMPDEST PUSH0 PUSH2 0x266A PUSH1 0xF DUP4 PUSH2 0x2464 JUMP JUMPDEST SWAP2 POP PUSH2 0x2675 DUP3 PUSH2 0x2636 JUMP JUMPDEST PUSH1 0x20 DUP3 ADD SWAP1 POP SWAP2 SWAP1 POP JUMP JUMPDEST PUSH0 PUSH1 0x20 DUP3 ADD SWAP1 POP DUP2 DUP2 SUB PUSH0 DUP4 ADD MSTORE PUSH2 0x2697 DUP2 PUSH2 0x265E JUMP JUMPDEST SWAP1 POP SWAP2 SWAP1 POP JUMP JUMPDEST PUSH32 0x496E73756666696369656E74206261746368207175616E746974790000000000 PUSH0 DUP3 ADD MSTORE POP JUMP JUMPDEST PUSH0 PUSH2 0x26D2 PUSH1 0x1B DUP4 PUSH2 0x2464 JUMP JUMPDEST SWAP2 POP PUSH2 0x26DD DUP3 PUSH2 0x269E JUMP JUMPDEST PUSH1 0x20 DUP3 ADD SWAP1 POP SWAP2 SWAP1 POP JUMP JUMPDEST PUSH0 PUSH1 0x20 DUP3 ADD SWAP1 POP DUP2 DUP2 SUB PUSH0 DUP4 ADD MSTORE PUSH2 0x26FF DUP2 PUSH2 0x26C6 JUMP JUMPDEST SWAP1 POP SWAP2 SWAP1 POP JUMP JUMPDEST PUSH32 0x4E487B7100000000000000000000000000000000000000000000000000000000 PUSH0 MSTORE PUSH1 0x11 PUSH1 0x4 MSTORE PUSH1 0x24 PUSH0 REVERT JUMPDEST PUSH0 PUSH2 0x273D DUP3 PUSH2 0x1E61 JUMP JUMPDEST SWAP2 POP PUSH2 0x2748 DUP4 PUSH2 0x1E61 JUMP JUMPDEST SWAP3 POP DUP3 DUP3 SUB SWAP1 POP DUP2 DUP2 GT ISZERO PUSH2 0x2760 JUMPI PUSH2 0x275F PUSH2 0x2706 JUMP JUMPDEST JUMPDEST SWAP3 SWAP2 POP POP JUMP JUMPDEST PUSH0 PUSH2 0x2770 DUP3 PUSH2 0x1E61 JUMP JUMPDEST SWAP2 POP PUSH32 0xFFFFFFFFFFFFFFFFFFFFFFFFFFFFFFFFFFFFFFFFFFFFFFFFFFFFFFFFFFFFFFFF DUP3 SUB PUSH2 0x27A2 JUMPI PUSH2 0x27A1 PUSH2 0x2706 JUMP JUMPDEST JUMPDEST PUSH1 0x1 DUP3 ADD SWAP1 POP SWAP2 SWAP1 POP JUMP JUMPDEST PUSH32 0x4E487B7100000000000000000000000000000000000000000000000000000000 PUSH0 MSTORE PUSH1 0x41 PUSH1 0x4 MSTORE PUSH1 0x24 PUSH0 REVERT JUMPDEST PUSH32 0x4E487B7100000000000000000000000000000000000000000000000000000000 PUSH0 MSTORE PUSH1 0x22 PUSH1 0x4 MSTORE PUSH1 0x24 PUSH0 REVERT JUMPDEST PUSH0 PUSH1 0x2 DUP3 DIV SWAP1 POP PUSH1 0x1 DUP3 AND DUP1 PUSH2 0x281E JUMPI PUSH1 0x7F DUP3 AND SWAP2 POP JUMPDEST PUSH1 0x20 DUP3 LT DUP2 SUB PUSH2 0x2831 JUMPI PUSH2 0x2830 PUSH2 0x27DA JUMP JUMPDEST JUMPDEST POP SWAP2 SWAP1 POP JUMP JUMPDEST PUSH0 DUP2 SWAP1 POP DUP2 PUSH0 MSTORE PUSH1 0x20 PUSH0 KECCAK256 SWAP1 POP SWAP2 SWAP1 POP JUMP JUMPDEST PUSH0 PUSH1 0x20 PUSH1 0x1F DUP4 ADD DIV SWAP1 POP SWAP2 SWAP1 POP JUMP JUMPDEST PUSH0 DUP3 DUP3 SHL SWAP1 POP SWAP3 SWAP2 POP POP JUMP JUMPDEST PUSH0 PUSH1 0x8 DUP4 MUL PUSH2 0x2893 PUSH32 0xFFFFFFFFFFFFFFFFFFFFFFFFFFFFFFFFFFFFFFFFFFFFFFFFFFFFFFFFFFFFFFFF DUP3 PUSH2 0x2858 JUMP JUMPDEST PUSH2 0x289D DUP7 DUP4 PUSH2 0x2858 JUMP JUMPDEST SWAP6 POP DUP1 NOT DUP5 AND SWAP4 POP DUP1 DUP7 AND DUP5 OR SWAP3 POP POP POP SWAP4 SWAP3 POP POP POP JUMP JUMPDEST PUSH0 DUP2 SWAP1 POP SWAP2 SWAP1 POP JUMP JUMPDEST PUSH0 PUSH2 0x28D8 PUSH2 0x28D3 PUSH2 0x28CE DUP5 PUSH2 0x1E61 JUMP JUMPDEST PUSH2 0x28B5 JUMP JUMPDEST PUSH2 0x1E61 JUMP JUMPDEST SWAP1 POP SWAP2 SWAP1 POP JUMP JUMPDEST PUSH0 DUP2 SWAP1 POP SWAP2 SWAP1 POP JUMP JUMPDEST PUSH2 0x28F1 DUP4 PUSH2 0x28BE JUMP JUMPDEST PUSH2 0x2905 PUSH2 0x28FD DUP3 PUSH2 0x28DF JUMP JUMPDEST DUP5 DUP5 SLOAD PUSH2 0x2864 JUMP JUMPDEST DUP3 SSTORE POP POP POP POP JUMP JUMPDEST PUSH0 PUSH0 SWAP1 POP SWAP1 JUMP JUMPDEST PUSH2 0x291C PUSH2 0x290D JUMP JUMPDEST PUSH2 0x2927 DUP2 DUP5 DUP5 PUSH2 0x28E8 JUMP JUMPDEST POP POP POP JUMP JUMPDEST JUMPDEST DUP2 DUP2 LT ISZERO PUSH2 0x294A JUMPI PUSH2 0x293F PUSH0 DUP3 PUSH2 0x2914 JUMP JUMPDEST PUSH1 0x1 DUP2 ADD SWAP1 POP PUSH2 0x292D JUMP JUMPDEST POP POP JUMP JUMPDEST PUSH1 0x1F DUP3 GT ISZERO PUSH2 0x298F JUMPI PUSH2 0x2960 DUP2 PUSH2 0x2837 JUMP JUMPDEST PUSH2 0x2969 DUP5 PUSH2 0x2849 JUMP JUMPDEST DUP2 ADD PUSH1 0x20 DUP6 LT ISZERO PUSH2 0x2978 JUMPI DUP2 SWAP1 POP JUMPDEST PUSH2 0x298C PUSH2 0x2984 DUP6 PUSH2 0x2849 JUMP JUMPDEST DUP4 ADD DUP3 PUSH2 0x292C JUMP JUMPDEST POP POP JUMPDEST POP POP POP JUMP JUMPDEST PUSH0 DUP3 DUP3 SHR SWAP1 POP SWAP3 SWAP2 POP POP JUMP JUMPDEST PUSH0 PUSH2 0x29AF PUSH0 NOT DUP5 PUSH1 0x8 MUL PUSH2 0x2994 JUMP JUMPDEST NOT DUP1 DUP4 AND SWAP2 POP POP SWAP3 SWAP2 POP POP JUMP JUMPDEST PUSH0 PUSH2 0x29C7 DUP4 DUP4 PUSH2 0x29A0 JUMP JUMPDEST SWAP2 POP DUP3 PUSH1 0x2 MUL DUP3 OR SWAP1 POP SWAP3 SWAP2 POP POP JUMP JUMPDEST PUSH2 0x29E0 DUP3 PUSH2 0x209B JUMP JUMPDEST PUSH8 0xFFFFFFFFFFFFFFFF DUP2 GT ISZERO PUSH2 0x29F9 JUMPI PUSH2 0x29F8 PUSH2 0x27AD JUMP JUMPDEST JUMPDEST PUSH2 0x2A03 DUP3 SLOAD PUSH2 0x2807 JUMP JUMPDEST PUSH2 0x2A0E DUP3 DUP3 DUP6 PUSH2 0x294E JUMP JUMPDEST PUSH0 PUSH1 0x20 SWAP1 POP PUSH1 0x1F DUP4 GT PUSH1 0x1 DUP2 EQ PUSH2 0x2A3F JUMPI PUSH0 DUP5 ISZERO PUSH2 0x2A2D JUMPI DUP3 DUP8 ADD MLOAD SWAP1 POP JUMPDEST PUSH2 0x2A37 DUP6 DUP3 PUSH2 0x29BC JUMP JUMPDEST DUP7 SSTORE POP PUSH2 0x2A9E JUMP JUMPDEST PUSH1 0x1F NOT DUP5 AND PUSH2 0x2A4D DUP7 PUSH2 0x2837 JUMP JUMPDEST PUSH0 JUMPDEST DUP3 DUP2 LT ISZERO PUSH2 0x2A74 JUMPI DUP5 DUP10 ADD MLOAD DUP3 SSTORE PUSH1 0x1 DUP3 ADD SWAP2 POP PUSH1 0x20 DUP6 ADD SWAP5 POP PUSH1 0x20 DUP2 ADD SWAP1 POP PUSH2 0x2A4F JUMP JUMPDEST DUP7 DUP4 LT ISZERO PUSH2 0x2A91 JUMPI DUP5 DUP10 ADD MLOAD PUSH2 0x2A8D PUSH1 0x1F DUP10 AND DUP3 PUSH2 0x29A0 JUMP JUMPDEST DUP4 SSTORE POP JUMPDEST PUSH1 0x1 PUSH1 0x2 DUP9 MUL ADD DUP9 SSTORE POP POP POP JUMPDEST POP POP POP POP POP POP JUMP JUMPDEST DUP3 DUP2 DUP4 CALLDATACOPY PUSH0 DUP4 DUP4 ADD MSTORE POP POP POP JUMP JUMPDEST PUSH0 PUSH2 0x2ABF DUP4 DUP6 PUSH2 0x2464 JUMP JUMPDEST SWAP4 POP PUSH2 0x2ACC DUP4 DUP6 DUP5 PUSH2 0x2AA6 JUMP JUMPDEST PUSH2 0x2AD5 DUP4 PUSH2 0x20C3 JUMP JUMPDEST DUP5 ADD SWAP1 POP SWAP4 SWAP3 POP POP POP JUMP JUMPDEST PUSH0 PUSH1 0x60 DUP3 ADD SWAP1 POP DUP2 DUP2 SUB PUSH0 DUP4 ADD MSTORE PUSH2 0x2AF9 DUP2 DUP7 DUP9 PUSH2 0x2AB4 JUMP JUMPDEST SWAP1 POP PUSH2 0x2B08 PUSH1 0x20 DUP4 ADD DUP6 PUSH2 0x2073 JUMP JUMPDEST PUSH2 0x2B15 PUSH1 0x40 DUP4 ADD DUP5 PUSH2 0x2073 JUMP JUMPDEST SWAP6 SWAP5 POP POP POP POP POP JUMP JUMPDEST PUSH32 0x496E73756666696369656E74206C6F74207175616E7469747900000000000000 PUSH0 DUP3 ADD MSTORE POP JUMP JUMPDEST PUSH0 PUSH2 0x2B52 PUSH1 0x19 DUP4 PUSH2 0x2464 JUMP JUMPDEST SWAP2 POP PUSH2 0x2B5D DUP3 PUSH2 0x2B1E JUMP JUMPDEST PUSH1 0x20 DUP3 ADD SWAP1 POP SWAP2 SWAP1 POP JUMP JUMPDEST PUSH0 PUSH1 0x20 DUP3 ADD SWAP1 POP DUP2 DUP2 SUB PUSH0 DUP4 ADD MSTORE PUSH2 0x2B7F DUP2 PUSH2 0x2B46 JUMP JUMPDEST SWAP1 POP SWAP2 SWAP1 POP JUMP JUMPDEST PUSH0 PUSH1 0x40 DUP3 ADD SWAP1 POP PUSH2 0x2B99 PUSH0 DUP4 ADD DUP6 PUSH2 0x2073 JUMP JUMPDEST PUSH2 0x2BA6 PUSH1 0x20 DUP4 ADD DUP5 PUSH2 0x2073 JUMP JUMPDEST SWAP4 SWAP3 POP POP POP JUMP JUMPDEST PUSH0 PUSH1 0x40 DUP3 ADD SWAP1 POP PUSH2 0x2BC0 PUSH0 DUP4 ADD DUP6 PUSH2 0x2202 JUMP JUMPDEST PUSH2 0x2BCD PUSH1 0x20 DUP4 ADD DUP5 PUSH2 0x1D4C JUMP JUMPDEST SWAP4 SWAP3 POP POP POP JUMP INVALID LOG2 PUSH5 0x6970667358 0x22 SLT KECCAK256 EXTCODEHASH PUSH29 0x52EECA2E4C2AE5C31692BE65E7ABAC89589008A7D2300DDFFDCCE33518 EXTCODECOPY PUSH5 0x736F6C6343 STOP ADDMOD 0x1E STOP CALLER "
				},
				"gasEstimates": {
					"creation": {
						"codeDepositCost": "2254800",
						"executionCost": "infinite",
						"totalCost": "infinite"
					},
					"external": {
						"AUCTION_HOUSE_ROLE()": "393",
						"DEFAULT_ADMIN_ROLE()": "352",
						"FACTORY_ROLE()": "371",
						"batches(uint256)": "infinite",
						"createFurniture(uint256,string,uint256,string)": "infinite",
						"furnitures(uint256)": "infinite",
						"getBatch(uint256)": "infinite",
						"getBatchCount()": "2499",
						"getFurniture(uint256)": "infinite",
						"getFurnitureCount()": "2477",
						"getLot(uint256)": "infinite",
						"getLotCount()": "2521",
						"getRoleAdmin(bytes32)": "infinite",
						"grantRole(bytes32,address)": "infinite",
						"hasRole(bytes32,address)": "3231",
						"lots(uint256)": "infinite",
						"purchaseWood(uint256,uint256)": "infinite",
						"registerLot(string,string,string,uint256,string)": "infinite",
						"renounceRole(bytes32,address)": "infinite",
						"revokeRole(bytes32,address)": "infinite",
						"supportsInterface(bytes4)": "741"
					}
				},
				"methodIdentifiers": {
					"AUCTION_HOUSE_ROLE()": "189e06e7",
					"DEFAULT_ADMIN_ROLE()": "a217fddf",
					"FACTORY_ROLE()": "04a0fb17",
					"batches(uint256)": "b32c4d8d",
					"createFurniture(uint256,string,uint256,string)": "3c4b71cd",
					"furnitures(uint256)": "f38e0a3d",
					"getBatch(uint256)": "5ac44282",
					"getBatchCount()": "a8fabfa5",
					"getFurniture(uint256)": "c8dbe38d",
					"getFurnitureCount()": "a546ff55",
					"getLot(uint256)": "ab995d12",
					"getLotCount()": "5e58d6a7",
					"getRoleAdmin(bytes32)": "248a9ca3",
					"grantRole(bytes32,address)": "2f2ff15d",
					"hasRole(bytes32,address)": "91d14854",
					"lots(uint256)": "f1648e84",
					"purchaseWood(uint256,uint256)": "b4e89751",
					"registerLot(string,string,string,uint256,string)": "ccb99282",
					"renounceRole(bytes32,address)": "36568abe",
					"revokeRole(bytes32,address)": "d547741f",
					"supportsInterface(bytes4)": "01ffc9a7"
				}
			},
			"storageLayout": {
				"storage": [
					{
						"astId": 26,
						"contract": "contracts/contracts/TimberSupplyChain.sol:TimberSupplyChain",
						"label": "_roles",
						"offset": 0,
						"slot": "0",
						"type": "t_mapping(t_bytes32,t_struct(RoleData)21_storage)"
					},
					{
						"astId": 515,
						"contract": "contracts/contracts/TimberSupplyChain.sol:TimberSupplyChain",
						"label": "lots",
						"offset": 0,
						"slot": "1",
						"type": "t_mapping(t_uint256,t_struct(Lot)480_storage)"
					},
					{
						"astId": 520,
						"contract": "contracts/contracts/TimberSupplyChain.sol:TimberSupplyChain",
						"label": "batches",
						"offset": 0,
						"slot": "2",
						"type": "t_mapping(t_uint256,t_struct(Batch)494_storage)"
					},
					{
						"astId": 525,
						"contract": "contracts/contracts/TimberSupplyChain.sol:TimberSupplyChain",
						"label": "furnitures",
						"offset": 0,
						"slot": "3",
						"type": "t_mapping(t_uint256,t_struct(Furniture)510_storage)"
					},
					{
						"astId": 527,
						"contract": "contracts/contracts/TimberSupplyChain.sol:TimberSupplyChain",
						"label": "_lotCounter",
						"offset": 0,
						"slot": "4",
						"type": "t_uint256"
					},
					{
						"astId": 529,
						"contract": "contracts/contracts/TimberSupplyChain.sol:TimberSupplyChain",
						"label": "_batchCounter",
						"offset": 0,
						"slot": "5",
						"type": "t_uint256"
					},
					{
						"astId": 531,
						"contract": "contracts/contracts/TimberSupplyChain.sol:TimberSupplyChain",
						"label": "_furnitureCounter",
						"offset": 0,
						"slot": "6",
						"type": "t_uint256"
					}
				],
				"types": {
					"t_address": {
						"encoding": "inplace",
						"label": "address",
						"numberOfBytes": "20"
					},
					"t_bool": {
						"encoding": "inplace",
						"label": "bool",
						"numberOfBytes": "1"
					},
					"t_bytes32": {
						"encoding": "inplace",
						"label": "bytes32",
						"numberOfBytes": "32"
					},
					"t_mapping(t_address,t_bool)": {
						"encoding": "mapping",
						"key": "t_address",
						"label": "mapping(address => bool)",
						"numberOfBytes": "32",
						"value": "t_bool"
					},
					"t_mapping(t_bytes32,t_struct(RoleData)21_storage)": {
						"encoding": "mapping",
						"key": "t_bytes32",
						"label": "mapping(bytes32 => struct AccessControl.RoleData)",
						"numberOfBytes": "32",
						"value": "t_struct(RoleData)21_storage"
					},
					"t_mapping(t_uint256,t_struct(Batch)494_storage)": {
						"encoding": "mapping",
						"key": "t_uint256",
						"label": "mapping(uint256 => struct TimberSupplyChain.Batch)",
						"numberOfBytes": "32",
						"value": "t_struct(Batch)494_storage"
					},
					"t_mapping(t_uint256,t_struct(Furniture)510_storage)": {
						"encoding": "mapping",
						"key": "t_uint256",
						"label": "mapping(uint256 => struct TimberSupplyChain.Furniture)",
						"numberOfBytes": "32",
						"value": "t_struct(Furniture)510_storage"
					},
					"t_mapping(t_uint256,t_struct(Lot)480_storage)": {
						"encoding": "mapping",
						"key": "t_uint256",
						"label": "mapping(uint256 => struct TimberSupplyChain.Lot)",
						"numberOfBytes": "32",
						"value": "t_struct(Lot)480_storage"
					},
					"t_string_storage": {
						"encoding": "bytes",
						"label": "string",
						"numberOfBytes": "32"
					},
					"t_struct(Batch)494_storage": {
						"encoding": "inplace",
						"label": "struct TimberSupplyChain.Batch",
						"members": [
							{
								"astId": 483,
								"contract": "contracts/contracts/TimberSupplyChain.sol:TimberSupplyChain",
								"label": "id",
								"offset": 0,
								"slot": "0",
								"type": "t_uint256"
							},
							{
								"astId": 485,
								"contract": "contracts/contracts/TimberSupplyChain.sol:TimberSupplyChain",
								"label": "parentLotId",
								"offset": 0,
								"slot": "1",
								"type": "t_uint256"
							},
							{
								"astId": 487,
								"contract": "contracts/contracts/TimberSupplyChain.sol:TimberSupplyChain",
								"label": "qty",
								"offset": 0,
								"slot": "2",
								"type": "t_uint256"
							},
							{
								"astId": 489,
								"contract": "contracts/contracts/TimberSupplyChain.sol:TimberSupplyChain",
								"label": "remainingQty",
								"offset": 0,
								"slot": "3",
								"type": "t_uint256"
							},
							{
								"astId": 491,
								"contract": "contracts/contracts/TimberSupplyChain.sol:TimberSupplyChain",
								"label": "owner",
								"offset": 0,
								"slot": "4",
								"type": "t_address"
							},
							{
								"astId": 493,
								"contract": "contracts/contracts/TimberSupplyChain.sol:TimberSupplyChain",
								"label": "createdAt",
								"offset": 0,
								"slot": "5",
								"type": "t_uint256"
							}
						],
						"numberOfBytes": "192"
					},
					"t_struct(Furniture)510_storage": {
						"encoding": "inplace",
						"label": "struct TimberSupplyChain.Furniture",
						"members": [
							{
								"astId": 497,
								"contract": "contracts/contracts/TimberSupplyChain.sol:TimberSupplyChain",
								"label": "id",
								"offset": 0,
								"slot": "0",
								"type": "t_uint256"
							},
							{
								"astId": 499,
								"contract": "contracts/contracts/TimberSupplyChain.sol:TimberSupplyChain",
								"label": "sourceBatchId",
								"offset": 0,
								"slot": "1",
								"type": "t_uint256"
							},
							{
								"astId": 501,
								"contract": "contracts/contracts/TimberSupplyChain.sol:TimberSupplyChain",
								"label": "furnitureType",
								"offset": 0,
								"slot": "2",
								"type": "t_string_storage"
							},
							{
								"astId": 503,
								"contract": "contracts/contracts/TimberSupplyChain.sol:TimberSupplyChain",
								"label": "qtyUsed",
								"offset": 0,
								"slot": "3",
								"type": "t_uint256"
							},
							{
								"astId": 505,
								"contract": "contracts/contracts/TimberSupplyChain.sol:TimberSupplyChain",
								"label": "manufacturer",
								"offset": 0,
								"slot": "4",
								"type": "t_address"
							},
							{
								"astId": 507,
								"contract": "contracts/contracts/TimberSupplyChain.sol:TimberSupplyChain",
								"label": "createdAt",
								"offset": 0,
								"slot": "5",
								"type": "t_uint256"
							},
							{
								"astId": 509,
								"contract": "contracts/contracts/TimberSupplyChain.sol:TimberSupplyChain",
								"label": "ipfsHash",
								"offset": 0,
								"slot": "6",
								"type": "t_string_storage"
							}
						],
						"numberOfBytes": "224"
					},
					"t_struct(Lot)480_storage": {
						"encoding": "inplace",
						"label": "struct TimberSupplyChain.Lot",
						"members": [
							{
								"astId": 463,
								"contract": "contracts/contracts/TimberSupplyChain.sol:TimberSupplyChain",
								"label": "id",
								"offset": 0,
								"slot": "0",
								"type": "t_uint256"
							},
							{
								"astId": 465,
								"contract": "contracts/contracts/TimberSupplyChain.sol:TimberSupplyChain",
								"label": "species",
								"offset": 0,
								"slot": "1",
								"type": "t_string_storage"
							},
							{
								"astId": 467,
								"contract": "contracts/contracts/TimberSupplyChain.sol:TimberSupplyChain",
								"label": "originCoupeId",
								"offset": 0,
								"slot": "2",
								"type": "t_string_storage"
							},
							{
								"astId": 469,
								"contract": "contracts/contracts/TimberSupplyChain.sol:TimberSupplyChain",
								"label": "grade",
								"offset": 0,
								"slot": "3",
								"type": "t_string_storage"
							},
							{
								"astId": 471,
								"contract": "contracts/contracts/TimberSupplyChain.sol:TimberSupplyChain",
								"label": "initialQty",
								"offset": 0,
								"slot": "4",
								"type": "t_uint256"
							},
							{
								"astId": 473,
								"contract": "contracts/contracts/TimberSupplyChain.sol:TimberSupplyChain",
								"label": "remainingQty",
								"offset": 0,
								"slot": "5",
								"type": "t_uint256"
							},
							{
								"astId": 475,
								"contract": "contracts/contracts/TimberSupplyChain.sol:TimberSupplyChain",
								"label": "owner",
								"offset": 0,
								"slot": "6",
								"type": "t_address"
							},
							{
								"astId": 477,
								"contract": "contracts/contracts/TimberSupplyChain.sol:TimberSupplyChain",
								"label": "createdAt",
								"offset": 0,
								"slot": "7",
								"type": "t_uint256"
							},
							{
								"astId": 479,
								"contract": "contracts/contracts/TimberSupplyChain.sol:TimberSupplyChain",
								"label": "ipfsHash",
								"offset": 0,
								"slot": "8",
								"type": "t_string_storage"
							}
						],
						"numberOfBytes": "288"
					},
					"t_struct(RoleData)21_storage": {
						"encoding": "inplace",
						"label": "struct AccessControl.RoleData",
						"members": [
							{
								"astId": 18,
								"contract": "contracts/contracts/TimberSupplyChain.sol:TimberSupplyChain",
								"label": "hasRole",
								"offset": 0,
								"slot": "0",
								"type": "t_mapping(t_address,t_bool)"
							},
							{
								"astId": 20,
								"contract": "contracts/contracts/TimberSupplyChain.sol:TimberSupplyChain",
								"label": "adminRole",
								"offset": 0,
								"slot": "1",
								"type": "t_bytes32"
							}
						],
						"numberOfBytes": "64"
					},
					"t_uint256": {
						"encoding": "inplace",
						"label": "uint256",
						"numberOfBytes": "32"
					}
				}
			},
			"userdoc": {
				"kind": "user",
				"methods": {
					"constructor": {
						"notice": "Grants DEFAULT_ADMIN_ROLE to the deployer.         The admin can then grant AUCTION_HOUSE_ROLE and FACTORY_ROLE         via OpenZeppelin's built-in grantRole() function."
					},
					"createFurniture(uint256,string,uint256,string)": {
						"notice": "Create a furniture piece by consuming wood from a batch.         Mass-balance: batches[batchId].remainingQty decremented by qty."
					},
					"getBatch(uint256)": {
						"notice": "Returns the full Batch struct for the given ID"
					},
					"getBatchCount()": {
						"notice": "Returns the total number of batches created"
					},
					"getFurniture(uint256)": {
						"notice": "Returns the full Furniture struct for the given ID"
					},
					"getFurnitureCount()": {
						"notice": "Returns the total number of furniture pieces created"
					},
					"getLot(uint256)": {
						"notice": "Returns the full Lot struct for the given ID"
					},
					"getLotCount()": {
						"notice": "Returns the total number of lots registered"
					},
					"purchaseWood(uint256,uint256)": {
						"notice": "Purchase wood from a lot, creating a new Batch.         Mass-balance: lots[lotId].remainingQty decremented by qty."
					},
					"registerLot(string,string,string,uint256,string)": {
						"notice": "Register a new wood lot. Called by the auction house."
					}
				},
				"notice": "Blockchain-based provenance tracking for teakwood from auction lots         through factory purchase to finished furniture.",
				"version": 1
			}
		}
	}
}